{
  "_format": "hh-sol-artifact-1",
  "contractName": "NFTMarket",
  "sourceName": "contracts/nftTransfer.sol",
  "abi": [
    {
      "inputs": [
        {
          "internalType": "address",
          "name": "",
          "type": "address"
        },
        {
          "internalType": "uint256",
          "name": "",
          "type": "uint256"
        }
      ],
      "name": "prices",
      "outputs": [
        {
          "internalType": "uint256",
          "name": "",
          "type": "uint256"
        }
      ],
      "stateMutability": "view",
      "type": "function"
    },
    {
      "inputs": [],
      "name": "serviceFee",
      "outputs": [
        {
          "internalType": "uint64",
          "name": "",
          "type": "uint64"
        }
      ],
      "stateMutability": "view",
      "type": "function"
    },
    {
      "inputs": [
        {
          "internalType": "address",
          "name": "token",
          "type": "address"
        },
        {
          "internalType": "uint256",
          "name": "tokenId",
          "type": "uint256"
        },
        {
          "internalType": "uint256",
          "name": "priceInEth",
          "type": "uint256"
        }
      ],
      "name": "setPrice",
      "outputs": [],
      "stateMutability": "nonpayable",
      "type": "function"
    },
    {
      "inputs": [
        {
          "internalType": "address",
          "name": "token",
          "type": "address"
        },
        {
          "internalType": "address",
          "name": "recipient",
          "type": "address"
        },
        {
          "internalType": "uint256",
          "name": "tokenId",
          "type": "uint256"
        }
      ],
      "name": "swapOut",
      "outputs": [],
      "stateMutability": "payable",
      "type": "function"
    }
  ],
  "bytecode": "0x608060405260646000806101000a81548167ffffffffffffffff021916908367ffffffffffffffff16021790555034801561003957600080fd5b50610ad6806100496000396000f3fe60806040526004361061003f5760003560e01c80633011e16a1461004457806348c314f41461006d5780638abdf5aa14610089578063bbc492c0146100b4575b600080fd5b34801561005057600080fd5b5061006b60048036038101906100669190610580565b6100f1565b005b610087600480360381019061008291906105d3565b61014b565b005b34801561009557600080fd5b5061009e6104aa565b6040516100ab9190610649565b60405180910390f35b3480156100c057600080fd5b506100db60048036038101906100d69190610664565b6104c2565b6040516100e891906106b3565b60405180910390f35b80600160008573ffffffffffffffffffffffffffffffffffffffff1673ffffffffffffffffffffffffffffffffffffffff168152602001908152602001600020600084815260200190815260200160002081905550505050565b600073ffffffffffffffffffffffffffffffffffffffff168373ffffffffffffffffffffffffffffffffffffffff16141580156101b55750600073ffffffffffffffffffffffffffffffffffffffff168273ffffffffffffffffffffffffffffffffffffffff1614155b6101f4576040517f08c379a00000000000000000000000000000000000000000000000000000000081526004016101eb90610751565b60405180910390fd5b6000600160008573ffffffffffffffffffffffffffffffffffffffff1673ffffffffffffffffffffffffffffffffffffffff16815260200190815260200160002060008381526020019081526020016000205411610287576040517f08c379a000000000000000000000000000000000000000000000000000000000815260040161027e906107bd565b60405180910390fd5b60003490506000600160008673ffffffffffffffffffffffffffffffffffffffff1673ffffffffffffffffffffffffffffffffffffffff1681526020019081526020016000206000848152602001908152602001600020549050600061271060008054906101000a900467ffffffffffffffff1667ffffffffffffffff1683610310919061080c565b61031a919061087d565b9050808261032891906108ae565b83101561036a576040517f08c379a00000000000000000000000000000000000000000000000000000000081526004016103619061092e565b60405180910390fd5b8573ffffffffffffffffffffffffffffffffffffffff166342842e0e3387876040518463ffffffff1660e01b81526004016103a79392919061095d565b600060405180830381600087803b1580156103c157600080fd5b505af11580156103d5573d6000803e3d6000fd5b50505050600081836103e791906108ae565b846103f29190610994565b905060008673ffffffffffffffffffffffffffffffffffffffff168260405161041a906109f9565b60006040518083038185875af1925050503d8060008114610457576040519150601f19603f3d011682016040523d82523d6000602084013e61045c565b606091505b50509050806104a0576040517f08c379a000000000000000000000000000000000000000000000000000000000815260040161049790610a80565b60405180910390fd5b5050505050505050565b60008054906101000a900467ffffffffffffffff1681565b6001602052816000526040600020602052806000526040600020600091509150505481565b600080fd5b600073ffffffffffffffffffffffffffffffffffffffff82169050919050565b6000610517826104ec565b9050919050565b6105278161050c565b811461053257600080fd5b50565b6000813590506105448161051e565b92915050565b6000819050919050565b61055d8161054a565b811461056857600080fd5b50565b60008135905061057a81610554565b92915050565b600080600060608486031215610599576105986104e7565b5b60006105a786828701610535565b93505060206105b88682870161056b565b92505060406105c98682870161056b565b9150509250925092565b6000806000606084860312156105ec576105eb6104e7565b5b60006105fa86828701610535565b935050602061060b86828701610535565b925050604061061c8682870161056b565b9150509250925092565b600067ffffffffffffffff82169050919050565b61064381610626565b82525050565b600060208201905061065e600083018461063a565b92915050565b6000806040838503121561067b5761067a6104e7565b5b600061068985828601610535565b925050602061069a8582860161056b565b9150509250929050565b6106ad8161054a565b82525050565b60006020820190506106c860008301846106a4565b92915050565b600082825260208201905092915050565b7f546f6b656e202620726563697069656e742061646472657373657320636f6e6e60008201527f6f74206265205a65726f21000000000000000000000000000000000000000000602082015250565b600061073b602b836106ce565b9150610746826106df565b604082019050919050565b6000602082019050818103600083015261076a8161072e565b9050919050565b7f496e76616c696420746f6b656e204944206f7220636f6c6c656374696f6e0000600082015250565b60006107a7601e836106ce565b91506107b282610771565b602082019050919050565b600060208201905081810360008301526107d68161079a565b9050919050565b7f4e487b7100000000000000000000000000000000000000000000000000000000600052601160045260246000fd5b60006108178261054a565b91506108228361054a565b92508282026108308161054a565b91508282048414831517610847576108466107dd565b5b5092915050565b7f4e487b7100000000000000000000000000000000000000000000000000000000600052601260045260246000fd5b60006108888261054a565b91506108938361054a565b9250826108a3576108a261084e565b5b828204905092915050565b60006108b98261054a565b91506108c48361054a565b92508282019050808211156108dc576108db6107dd565b5b92915050565b7f496e73756666696369656e742065746865722070726f76696465642100000000600082015250565b6000610918601c836106ce565b9150610923826108e2565b602082019050919050565b600060208201905081810360008301526109478161090b565b9050919050565b6109578161050c565b82525050565b6000606082019050610972600083018661094e565b61097f602083018561094e565b61098c60408301846106a4565b949350505050565b600061099f8261054a565b91506109aa8361054a565b92508282039050818111156109c2576109c16107dd565b5b92915050565b600081905092915050565b50565b60006109e36000836109c8565b91506109ee826109d3565b600082019050919050565b6000610a04826109d6565b9150819050919050565b7f4661696c656420746f2073656e642065786365737320457468657220746f207260008201527f65636970656e7421000000000000000000000000000000000000000000000000602082015250565b6000610a6a6028836106ce565b9150610a7582610a0e565b604082019050919050565b60006020820190508181036000830152610a9981610a5d565b905091905056fea26469706673582212205bdfa0cea66add804e4be0ea7ce39f8acd4a049776f2a7ce23ca646388d47ae964736f6c63430008110033",
  "linkReferences": {},
  "deployedLinkReferences": {}
}