{
  "_format": "hh-sol-artifact-1",
  "contractName": "NFTMarket",
  "sourceName": "contracts/nftTransfer.sol",
  "abi": [
    {
      "inputs": [],
      "stateMutability": "nonpayable",
      "type": "constructor"
    },
    {
      "anonymous": false,
      "inputs": [
        {
          "indexed": true,
          "internalType": "bytes32",
          "name": "id",
          "type": "bytes32"
        }
      ],
      "name": "ChainlinkCancelled",
      "type": "event"
    },
    {
      "anonymous": false,
      "inputs": [
        {
          "indexed": true,
          "internalType": "bytes32",
          "name": "id",
          "type": "bytes32"
        }
      ],
      "name": "ChainlinkFulfilled",
      "type": "event"
    },
    {
      "anonymous": false,
      "inputs": [
        {
          "indexed": true,
          "internalType": "bytes32",
          "name": "id",
          "type": "bytes32"
        }
      ],
      "name": "ChainlinkRequested",
      "type": "event"
    },
    {
      "inputs": [
        {
          "internalType": "address",
          "name": "_owner",
          "type": "address"
        }
      ],
      "name": "changeOwner",
      "outputs": [],
      "stateMutability": "nonpayable",
      "type": "function"
    },
    {
      "inputs": [],
      "name": "claimServiceFee",
      "outputs": [],
      "stateMutability": "payable",
      "type": "function"
    },
    {
      "inputs": [
        {
          "internalType": "bytes32",
          "name": "_requestId",
          "type": "bytes32"
        },
        {
          "internalType": "uint256",
          "name": "_price",
          "type": "uint256"
        }
      ],
      "name": "fulfill",
      "outputs": [],
      "stateMutability": "nonpayable",
      "type": "function"
    },
    {
      "inputs": [],
      "name": "getServiceFee",
      "outputs": [
        {
          "internalType": "uint256",
          "name": "serviceCharges",
          "type": "uint256"
        }
      ],
      "stateMutability": "view",
      "type": "function"
    },
    {
      "inputs": [],
      "name": "prices",
      "outputs": [
        {
          "internalType": "uint256",
          "name": "",
          "type": "uint256"
        }
      ],
      "stateMutability": "view",
      "type": "function"
    },
    {
      "inputs": [
        {
          "internalType": "address",
          "name": "_collection",
          "type": "address"
        },
        {
          "internalType": "uint256",
          "name": "_tokenId",
          "type": "uint256"
        }
      ],
      "name": "requestTokenPrice",
      "outputs": [
        {
          "internalType": "bytes32",
          "name": "reqestId",
          "type": "bytes32"
        }
      ],
      "stateMutability": "nonpayable",
      "type": "function"
    },
    {
      "inputs": [
        {
          "internalType": "uint256",
          "name": "basisPoints",
          "type": "uint256"
        }
      ],
      "name": "setServiceFee",
      "outputs": [],
      "stateMutability": "nonpayable",
      "type": "function"
    },
    {
      "inputs": [
        {
          "internalType": "address",
          "name": "_token",
          "type": "address"
        },
        {
          "internalType": "address",
          "name": "_recipient",
          "type": "address"
        },
        {
          "internalType": "uint256",
          "name": "_tokenId",
          "type": "uint256"
        }
      ],
      "name": "swapOut",
      "outputs": [],
      "stateMutability": "payable",
      "type": "function"
    }
  ],
  "bytecode": "0x6080604052600160045560646007556000600b553480156200002057600080fd5b506000600a8190555033600660006101000a81548173ffffffffffffffffffffffffffffffffffffffff021916908373ffffffffffffffffffffffffffffffffffffffff1602179055507f6361393833363663633733313439353762386330313263373266303561656562600881905550600a670de0b6b3a76400006001620000aa9190620001cd565b620000b6919062000247565b600981905550620000e173326c977e6efc84e512bb9c30f76e30c160ed06fb6200010c60201b60201c565b6200010673cc79157eb46f5624204f47ab42b3906caa40eab76200015060201b60201c565b6200027f565b80600260006101000a81548173ffffffffffffffffffffffffffffffffffffffff021916908373ffffffffffffffffffffffffffffffffffffffff16021790555050565b80600360006101000a81548173ffffffffffffffffffffffffffffffffffffffff021916908373ffffffffffffffffffffffffffffffffffffffff16021790555050565b6000819050919050565b7f4e487b7100000000000000000000000000000000000000000000000000000000600052601160045260246000fd5b6000620001da8262000194565b9150620001e78362000194565b9250828202620001f78162000194565b915082820484148315176200021157620002106200019e565b5b5092915050565b7f4e487b7100000000000000000000000000000000000000000000000000000000600052601260045260246000fd5b6000620002548262000194565b9150620002618362000194565b92508262000274576200027362000218565b5b828204905092915050565b612292806200028f6000396000f3fe60806040526004361061007b5760003560e01c806348c314f41161004e57806348c314f41461011b5780635cdf76f814610137578063a6f9dae114610160578063d3419bf3146101895761007b565b80630bd4fe0f1461008057806311a1933c146100bd57806333b3be77146100e85780634357855e146100f2575b600080fd5b34801561008c57600080fd5b506100a760048036038101906100a2919061149f565b6101b4565b6040516100b491906114f8565b60405180910390f35b3480156100c957600080fd5b506100d26102c3565b6040516100df9190611522565b60405180910390f35b6100f06102cd565b005b3480156100fe57600080fd5b5061011960048036038101906101149190611569565b6104d1565b005b610135600480360381019061013091906115a9565b6105e2565b005b34801561014357600080fd5b5061015e600480360381019061015991906115fc565b6109d4565b005b34801561016c57600080fd5b5061018760048036038101906101829190611629565b610a6e565b005b34801561019557600080fd5b5061019e610b42565b6040516101ab9190611522565b60405180910390f35b6000806101cb60085430634357855e60e01b610b48565b905061022f6040518060400160405280600381526020017f67657400000000000000000000000000000000000000000000000000000000008152506040518060600160405280603881526020016122256038913983610b799092919063ffffffff16565b6102ae6040518060400160405280600481526020017f70617468000000000000000000000000000000000000000000000000000000008152506040518060400160405280600581526020017f76616c756500000000000000000000000000000000000000000000000000000081525083610b799092919063ffffffff16565b6102ba81600954610bac565b91505092915050565b6000600754905090565b600660009054906101000a900473ffffffffffffffffffffffffffffffffffffffff1673ffffffffffffffffffffffffffffffffffffffff163373ffffffffffffffffffffffffffffffffffffffff161461035d576040517f08c379a0000000000000000000000000000000000000000000000000000000008152600401610354906116d9565b60405180910390fd5b600c60009054906101000a900460ff16156103ad576040517f08c379a00000000000000000000000000000000000000000000000000000000081526004016103a490611745565b60405180910390fd5b6001600c60006101000a81548160ff0219169083151502179055506000600b54116103db576103da611765565b5b6000600660009054906101000a900473ffffffffffffffffffffffffffffffffffffffff1673ffffffffffffffffffffffffffffffffffffffff16600b54604051610425906117c5565b60006040518083038185875af1925050503d8060008114610462576040519150601f19603f3d011682016040523d82523d6000602084013e610467565b606091505b50509050806104ab576040517f08c379a00000000000000000000000000000000000000000000000000000000081526004016104a29061184c565b60405180910390fd5b6000600b81905550506000600c60006101000a81548160ff021916908315150217905550565b816005600082815260200190815260200160002060009054906101000a900473ffffffffffffffffffffffffffffffffffffffff1673ffffffffffffffffffffffffffffffffffffffff163373ffffffffffffffffffffffffffffffffffffffff1614610573576040517f08c379a000000000000000000000000000000000000000000000000000000000815260040161056a906118de565b60405180910390fd5b6005600082815260200190815260200160002060006101000a81549073ffffffffffffffffffffffffffffffffffffffff0219169055807f7cc135e0cebb02c3480ae5d74d377283180a2601f8f644edf7987b009316c63a60405160405180910390a281600a81905550505050565b600c60009054906101000a900460ff1615610632576040517f08c379a000000000000000000000000000000000000000000000000000000000815260040161062990611745565b60405180910390fd5b6001600c60006101000a81548160ff021916908315150217905550600073ffffffffffffffffffffffffffffffffffffffff168373ffffffffffffffffffffffffffffffffffffffff16141580156106b75750600073ffffffffffffffffffffffffffffffffffffffff168273ffffffffffffffffffffffffffffffffffffffff1614155b6106f6576040517f08c379a00000000000000000000000000000000000000000000000000000000081526004016106ed90611970565b60405180910390fd5b6000600a541161073b576040517f08c379a0000000000000000000000000000000000000000000000000000000008152600401610732906119dc565b60405180910390fd5b60003490506000612710600754600a546107559190611a2b565b61075f9190611a9c565b905080600b60008282546107739190611acd565b9250508190555080600a546107889190611acd565b8210156107ca576040517f08c379a00000000000000000000000000000000000000000000000000000000081526004016107c190611b4d565b60405180910390fd5b8473ffffffffffffffffffffffffffffffffffffffff166342842e0e3386866040518463ffffffff1660e01b815260040161080793929190611b7c565b600060405180830381600087803b15801561082157600080fd5b505af1158015610835573d6000803e3d6000fd5b50505050600081600a546108499190611acd565b836108549190611bb3565b905060008573ffffffffffffffffffffffffffffffffffffffff168260405161087c906117c5565b60006040518083038185875af1925050503d80600081146108b9576040519150601f19603f3d011682016040523d82523d6000602084013e6108be565b606091505b5050905080610902576040517f08c379a00000000000000000000000000000000000000000000000000000000081526004016108f990611c59565b60405180910390fd5b8573ffffffffffffffffffffffffffffffffffffffff16600a54604051610928906117c5565b60006040518083038185875af1925050503d8060008114610965576040519150601f19603f3d011682016040523d82523d6000602084013e61096a565b606091505b505080915050806109b0576040517f08c379a00000000000000000000000000000000000000000000000000000000081526004016109a790611ceb565b60405180910390fd5b505050506000600c60006101000a81548160ff021916908315150217905550505050565b600660009054906101000a900473ffffffffffffffffffffffffffffffffffffffff1673ffffffffffffffffffffffffffffffffffffffff163373ffffffffffffffffffffffffffffffffffffffff1614610a64576040517f08c379a0000000000000000000000000000000000000000000000000000000008152600401610a5b906116d9565b60405180910390fd5b8060078190555050565b600660009054906101000a900473ffffffffffffffffffffffffffffffffffffffff1673ffffffffffffffffffffffffffffffffffffffff163373ffffffffffffffffffffffffffffffffffffffff1614610afe576040517f08c379a0000000000000000000000000000000000000000000000000000000008152600401610af5906116d9565b60405180910390fd5b80600660006101000a81548173ffffffffffffffffffffffffffffffffffffffff021916908373ffffffffffffffffffffffffffffffffffffffff16021790555050565b600a5481565b610b5061137f565b610b5861137f565b610b6f85858584610be3909392919063ffffffff16565b9150509392505050565b610b90828460800151610c9390919063ffffffff16565b610ba7818460800151610c9390919063ffffffff16565b505050565b6000610bdb600360009054906101000a900473ffffffffffffffffffffffffffffffffffffffff168484610cb8565b905092915050565b610beb61137f565b610bfb8560800151610100610d84565b508385600001818152505082856020019073ffffffffffffffffffffffffffffffffffffffff16908173ffffffffffffffffffffffffffffffffffffffff16815250508185604001907bffffffffffffffffffffffffffffffffffffffffffffffffffffffff191690817bffffffffffffffffffffffffffffffffffffffffffffffffffffffff191681525050849050949350505050565b610ca08260038351610dee565b610cb38183610f7390919063ffffffff16565b505050565b6000806004549050600181610ccd9190611acd565b6004819055506000634042994660e01b60008087600001513089604001518760018c6080015160000151604051602401610d0e989796959493929190611dd6565b604051602081830303815290604052907bffffffffffffffffffffffffffffffffffffffffffffffffffffffff19166020820180517bffffffffffffffffffffffffffffffffffffffffffffffffffffffff83818316178352505050509050610d7986838684610f95565b925050509392505050565b610d8c6113ec565b6000602083610d9b9190611e5b565b14610dc757602082610dad9190611e5b565b6020610db99190611bb3565b82610dc49190611acd565b91505b81836020018181525050604051808452600081528281016020016040525082905092915050565b60178167ffffffffffffffff1611610e2557610e1f8160058460ff16901b60ff16178461112a90919063ffffffff16565b50610f6e565b60ff8167ffffffffffffffff1611610e7b57610e54601860058460ff16901b178461112a90919063ffffffff16565b50610e758167ffffffffffffffff1660018561114a9092919063ffffffff16565b50610f6d565b61ffff8167ffffffffffffffff1611610ed257610eab601960058460ff16901b178461112a90919063ffffffff16565b50610ecc8167ffffffffffffffff1660028561114a9092919063ffffffff16565b50610f6c565b63ffffffff8167ffffffffffffffff1611610f2b57610f04601a60058460ff16901b178461112a90919063ffffffff16565b50610f258167ffffffffffffffff1660048561114a9092919063ffffffff16565b50610f6b565b610f48601b60058460ff16901b178461112a90919063ffffffff16565b50610f698167ffffffffffffffff1660088561114a9092919063ffffffff16565b505b5b5b5b505050565b610f7b6113ec565b610f8d8384600001515184855161116c565b905092915050565b60003084604051602001610faa929190611f45565b604051602081830303815290604052805190602001209050846005600083815260200190815260200160002060006101000a81548173ffffffffffffffffffffffffffffffffffffffff021916908373ffffffffffffffffffffffffffffffffffffffff160217905550807fb5e6e01e79f91267dc17b4e6314d5d4d03593d2ceee0fbb452b750bd70ea5af960405160405180910390a2600260009054906101000a900473ffffffffffffffffffffffffffffffffffffffff1673ffffffffffffffffffffffffffffffffffffffff16634000aea08685856040518463ffffffff1660e01b81526004016110a093929190611f71565b6020604051808303816000875af11580156110bf573d6000803e3d6000fd5b505050506040513d601f19601f820116820180604052508101906110e39190611fe7565b611122576040517f08c379a000000000000000000000000000000000000000000000000000000000815260040161111990612086565b60405180910390fd5b949350505050565b6111326113ec565b611142838460000151518461125b565b905092915050565b6111526113ec565b6111638485600001515185856112b1565b90509392505050565b6111746113ec565b825182111561118257600080fd5b846020015182856111939190611acd565b11156111c8576111c78560026111b8886020015188876111b39190611acd565b61133f565b6111c29190611a2b565b61135b565b5b6000808651805187602083010193508088870111156111e75787860182525b60208701925050505b6020841061122e57805182526020826112099190611acd565b91506020816112189190611acd565b90506020846112279190611bb3565b93506111f0565b60006001856020036101000a03905080198251168184511681811785525050508692505050949350505050565b6112636113ec565b836020015183106112895761128884600286602001516112839190611a2b565b61135b565b5b835180516020858301018481538186036112a4576001820183525b5050508390509392505050565b6112b96113ec565b846020015184836112ca9190611acd565b11156112f2576112f185600286856112e29190611acd565b6112ec9190611a2b565b61135b565b5b600060018361010061130491906121d9565b61130e9190611bb3565b905085518386820101858319825116178152815185880111156113315784870182525b505085915050949350505050565b60008183111561135157829050611355565b8190505b92915050565b60008260000151905061136e8383610d84565b506113798382610f73565b50505050565b6040518060a0016040528060008019168152602001600073ffffffffffffffffffffffffffffffffffffffff16815260200160007bffffffffffffffffffffffffffffffffffffffffffffffffffffffff19168152602001600081526020016113e66113ec565b81525090565b604051806040016040528060608152602001600081525090565b600080fd5b600073ffffffffffffffffffffffffffffffffffffffff82169050919050565b60006114368261140b565b9050919050565b6114468161142b565b811461145157600080fd5b50565b6000813590506114638161143d565b92915050565b6000819050919050565b61147c81611469565b811461148757600080fd5b50565b60008135905061149981611473565b92915050565b600080604083850312156114b6576114b5611406565b5b60006114c485828601611454565b92505060206114d58582860161148a565b9150509250929050565b6000819050919050565b6114f2816114df565b82525050565b600060208201905061150d60008301846114e9565b92915050565b61151c81611469565b82525050565b60006020820190506115376000830184611513565b92915050565b611546816114df565b811461155157600080fd5b50565b6000813590506115638161153d565b92915050565b600080604083850312156115805761157f611406565b5b600061158e85828601611554565b925050602061159f8582860161148a565b9150509250929050565b6000806000606084860312156115c2576115c1611406565b5b60006115d086828701611454565b93505060206115e186828701611454565b92505060406115f28682870161148a565b9150509250925092565b60006020828403121561161257611611611406565b5b60006116208482850161148a565b91505092915050565b60006020828403121561163f5761163e611406565b5b600061164d84828501611454565b91505092915050565b600082825260208201905092915050565b7f52696768747320726573657276656420666f7220746865206f776e6572206f6e60008201527f6c79210000000000000000000000000000000000000000000000000000000000602082015250565b60006116c3602383611656565b91506116ce82611667565b604082019050919050565b600060208201905081810360008301526116f2816116b6565b9050919050565b7f4e6f2072652d656e7472616e6379000000000000000000000000000000000000600082015250565b600061172f600e83611656565b915061173a826116f9565b602082019050919050565b6000602082019050818103600083015261175e81611722565b9050919050565b7f4e487b7100000000000000000000000000000000000000000000000000000000600052600160045260246000fd5b600081905092915050565b50565b60006117af600083611794565b91506117ba8261179f565b600082019050919050565b60006117d0826117a2565b9150819050919050565b7f4661696c656420746f2073656e642073657276696365206665657320746f206f60008201527f776e657221000000000000000000000000000000000000000000000000000000602082015250565b6000611836602583611656565b9150611841826117da565b604082019050919050565b6000602082019050818103600083015261186581611829565b9050919050565b7f536f75726365206d75737420626520746865206f7261636c65206f662074686560008201527f2072657175657374000000000000000000000000000000000000000000000000602082015250565b60006118c8602883611656565b91506118d38261186c565b604082019050919050565b600060208201905081810360008301526118f7816118bb565b9050919050565b7f546f6b656e202620726563697069656e742061646472657373657320636f6e6e60008201527f6f74206265205a65726f21000000000000000000000000000000000000000000602082015250565b600061195a602b83611656565b9150611965826118fe565b604082019050919050565b600060208201905081810360008301526119898161194d565b9050919050565b7f496e76616c696420746f6b656e204944206f7220636f6c6c656374696f6e0000600082015250565b60006119c6601e83611656565b91506119d182611990565b602082019050919050565b600060208201905081810360008301526119f5816119b9565b9050919050565b7f4e487b7100000000000000000000000000000000000000000000000000000000600052601160045260246000fd5b6000611a3682611469565b9150611a4183611469565b9250828202611a4f81611469565b91508282048414831517611a6657611a656119fc565b5b5092915050565b7f4e487b7100000000000000000000000000000000000000000000000000000000600052601260045260246000fd5b6000611aa782611469565b9150611ab283611469565b925082611ac257611ac1611a6d565b5b828204905092915050565b6000611ad882611469565b9150611ae383611469565b9250828201905080821115611afb57611afa6119fc565b5b92915050565b7f496e73756666696369656e742065746865722070726f76696465642100000000600082015250565b6000611b37601c83611656565b9150611b4282611b01565b602082019050919050565b60006020820190508181036000830152611b6681611b2a565b9050919050565b611b768161142b565b82525050565b6000606082019050611b916000830186611b6d565b611b9e6020830185611b6d565b611bab6040830184611513565b949350505050565b6000611bbe82611469565b9150611bc983611469565b9250828203905081811115611be157611be06119fc565b5b92915050565b7f4661696c656420746f2073656e642065786365737320457468657220746f207260008201527f65636970656e7421000000000000000000000000000000000000000000000000602082015250565b6000611c43602883611656565b9150611c4e82611be7565b604082019050919050565b60006020820190508181036000830152611c7281611c36565b9050919050565b7f4661696c656420746f2073656e64204e4654207072696365204574686572207460008201527f6f206f776e657221000000000000000000000000000000000000000000000000602082015250565b6000611cd5602883611656565b9150611ce082611c79565b604082019050919050565b60006020820190508181036000830152611d0481611cc8565b9050919050565b60007fffffffff0000000000000000000000000000000000000000000000000000000082169050919050565b611d4081611d0b565b82525050565b600081519050919050565b600082825260208201905092915050565b60005b83811015611d80578082015181840152602081019050611d65565b60008484015250505050565b6000601f19601f8301169050919050565b6000611da882611d46565b611db28185611d51565b9350611dc2818560208601611d62565b611dcb81611d8c565b840191505092915050565b600061010082019050611dec600083018b611b6d565b611df9602083018a611513565b611e0660408301896114e9565b611e136060830188611b6d565b611e206080830187611d37565b611e2d60a0830186611513565b611e3a60c0830185611513565b81810360e0830152611e4c8184611d9d565b90509998505050505050505050565b6000611e6682611469565b9150611e7183611469565b925082611e8157611e80611a6d565b5b828206905092915050565b6000819050919050565b6000611eb1611eac611ea78461140b565b611e8c565b61140b565b9050919050565b6000611ec382611e96565b9050919050565b6000611ed582611eb8565b9050919050565b60008160601b9050919050565b6000611ef482611edc565b9050919050565b6000611f0682611ee9565b9050919050565b611f1e611f1982611eca565b611efb565b82525050565b6000819050919050565b611f3f611f3a82611469565b611f24565b82525050565b6000611f518285611f0d565b601482019150611f618284611f2e565b6020820191508190509392505050565b6000606082019050611f866000830186611b6d565b611f936020830185611513565b8181036040830152611fa58184611d9d565b9050949350505050565b60008115159050919050565b611fc481611faf565b8114611fcf57600080fd5b50565b600081519050611fe181611fbb565b92915050565b600060208284031215611ffd57611ffc611406565b5b600061200b84828501611fd2565b91505092915050565b7f756e61626c6520746f207472616e73666572416e6443616c6c20746f206f726160008201527f636c650000000000000000000000000000000000000000000000000000000000602082015250565b6000612070602383611656565b915061207b82612014565b604082019050919050565b6000602082019050818103600083015261209f81612063565b9050919050565b60008160011c9050919050565b6000808291508390505b60018511156120fd578086048111156120d9576120d86119fc565b5b60018516156120e85780820291505b80810290506120f6856120a6565b94506120bd565b94509492505050565b60008261211657600190506121d2565b8161212457600090506121d2565b816001811461213a576002811461214457612173565b60019150506121d2565b60ff841115612156576121556119fc565b5b8360020a91508482111561216d5761216c6119fc565b5b506121d2565b5060208310610133831016604e8410600b84101617156121a85782820a9050838111156121a3576121a26119fc565b5b6121d2565b6121b584848460016120b3565b925090508184048111156121cc576121cb6119fc565b5b81810290505b9392505050565b60006121e482611469565b91506121ef83611469565b925061221c7fffffffffffffffffffffffffffffffffffffffffffffffffffffffffffffffff8484612106565b90509291505056fe68747470733a2f2f6d6f636b692e696f2f76312f65316135656661632d386531382d346637302d393934372d313035666134656466343636a2646970667358221220be12f1a65dfc97d7fa49a221f17386a5ae62184ba97b6a1c38913b941e9c1c5964736f6c63430008110033",
  "linkReferences": {},
  "deployedLinkReferences": {}
}