{
  "_format": "hh-sol-artifact-1",
  "contractName": "NFTMarket",
  "sourceName": "contracts/nftTransfer.sol",
  "abi": [
    {
      "inputs": [],
      "stateMutability": "nonpayable",
      "type": "constructor"
    },
    {
      "anonymous": false,
      "inputs": [
        {
          "indexed": true,
          "internalType": "bytes32",
          "name": "id",
          "type": "bytes32"
        }
      ],
      "name": "ChainlinkCancelled",
      "type": "event"
    },
    {
      "anonymous": false,
      "inputs": [
        {
          "indexed": true,
          "internalType": "bytes32",
          "name": "id",
          "type": "bytes32"
        }
      ],
      "name": "ChainlinkFulfilled",
      "type": "event"
    },
    {
      "anonymous": false,
      "inputs": [
        {
          "indexed": true,
          "internalType": "bytes32",
          "name": "id",
          "type": "bytes32"
        }
      ],
      "name": "ChainlinkRequested",
      "type": "event"
    },
    {
      "inputs": [
        {
          "internalType": "address",
          "name": "_owner",
          "type": "address"
        }
      ],
      "name": "changeOwner",
      "outputs": [],
      "stateMutability": "nonpayable",
      "type": "function"
    },
    {
      "inputs": [
        {
          "internalType": "bytes32",
          "name": "_requestId",
          "type": "bytes32"
        },
        {
          "internalType": "uint256",
          "name": "_price",
          "type": "uint256"
        }
      ],
      "name": "fulfill",
      "outputs": [],
      "stateMutability": "nonpayable",
      "type": "function"
    },
    {
      "inputs": [],
      "name": "getServiceFee",
      "outputs": [
        {
          "internalType": "uint256",
          "name": "serviceCharges",
          "type": "uint256"
        }
      ],
      "stateMutability": "view",
      "type": "function"
    },
    {
      "inputs": [
        {
          "internalType": "uint256",
          "name": "basisPoints",
          "type": "uint256"
        }
      ],
      "name": "setServiceFee",
      "outputs": [],
      "stateMutability": "nonpayable",
      "type": "function"
    },
    {
      "inputs": [
        {
          "internalType": "address",
          "name": "_token",
          "type": "address"
        },
        {
          "internalType": "address",
          "name": "_recipient",
          "type": "address"
        },
        {
          "internalType": "uint256",
          "name": "_tokenId",
          "type": "uint256"
        }
      ],
      "name": "swapOut",
      "outputs": [],
      "stateMutability": "payable",
      "type": "function"
    }
  ],
  "bytecode": "0x6080604052600160045560646007553480156200001b57600080fd5b5033600660006101000a81548173ffffffffffffffffffffffffffffffffffffffff021916908373ffffffffffffffffffffffffffffffffffffffff1602179055507f6361393833363663633733313439353762386330313263373266303561656562600881905550600a670de0b6b3a764000060016200009d9190620001c0565b620000a991906200023a565b600981905550620000d473326c977e6efc84e512bb9c30f76e30c160ed06fb620000ff60201b60201c565b620000f973cc79157eb46f5624204f47ab42b3906caa40eab76200014360201b60201c565b62000272565b80600260006101000a81548173ffffffffffffffffffffffffffffffffffffffff021916908373ffffffffffffffffffffffffffffffffffffffff16021790555050565b80600360006101000a81548173ffffffffffffffffffffffffffffffffffffffff021916908373ffffffffffffffffffffffffffffffffffffffff16021790555050565b6000819050919050565b7f4e487b7100000000000000000000000000000000000000000000000000000000600052601160045260246000fd5b6000620001cd8262000187565b9150620001da8362000187565b9250828202620001ea8162000187565b9150828204841483151762000204576200020362000191565b5b5092915050565b7f4e487b7100000000000000000000000000000000000000000000000000000000600052601260045260246000fd5b6000620002478262000187565b9150620002548362000187565b9250826200026757620002666200020b565b5b828204905092915050565b611dc480620002826000396000f3fe60806040526004361061004a5760003560e01c806311a1933c1461004f5780634357855e1461007a57806348c314f4146100a35780635cdf76f8146100bf578063a6f9dae1146100e8575b600080fd5b34801561005b57600080fd5b50610064610111565b60405161007191906110d9565b60405180910390f35b34801561008657600080fd5b506100a1600480360381019061009c919061115b565b61011b565b005b6100bd60048036038101906100b891906111f9565b61022c565b005b3480156100cb57600080fd5b506100e660048036038101906100e1919061124c565b610588565b005b3480156100f457600080fd5b5061010f600480360381019061010a9190611279565b610622565b005b6000600754905090565b816005600082815260200190815260200160002060009054906101000a900473ffffffffffffffffffffffffffffffffffffffff1673ffffffffffffffffffffffffffffffffffffffff163373ffffffffffffffffffffffffffffffffffffffff16146101bd576040517f08c379a00000000000000000000000000000000000000000000000000000000081526004016101b490611329565b60405180910390fd5b6005600082815260200190815260200160002060006101000a81549073ffffffffffffffffffffffffffffffffffffffff0219169055807f7cc135e0cebb02c3480ae5d74d377283180a2601f8f644edf7987b009316c63a60405160405180910390a281600a81905550505050565b6102346106f6565b50600073ffffffffffffffffffffffffffffffffffffffff168373ffffffffffffffffffffffffffffffffffffffff161415801561029f5750600073ffffffffffffffffffffffffffffffffffffffff168273ffffffffffffffffffffffffffffffffffffffff1614155b6102de576040517f08c379a00000000000000000000000000000000000000000000000000000000081526004016102d5906113bb565b60405180910390fd5b6000600a5411610323576040517f08c379a000000000000000000000000000000000000000000000000000000000815260040161031a90611427565b60405180910390fd5b60003490506000612710600754600a5461033d9190611476565b61034791906114e7565b905080600a546103579190611518565b821015610399576040517f08c379a000000000000000000000000000000000000000000000000000000000815260040161039090611598565b60405180910390fd5b8473ffffffffffffffffffffffffffffffffffffffff166342842e0e3386866040518463ffffffff1660e01b81526004016103d6939291906115c7565b600060405180830381600087803b1580156103f057600080fd5b505af1158015610404573d6000803e3d6000fd5b50505050600081600a546104189190611518565b8361042391906115fe565b905060008573ffffffffffffffffffffffffffffffffffffffff168260405161044b90611663565b60006040518083038185875af1925050503d8060008114610488576040519150601f19603f3d011682016040523d82523d6000602084013e61048d565b606091505b50509050806104d1576040517f08c379a00000000000000000000000000000000000000000000000000000000081526004016104c8906116ea565b60405180910390fd5b8573ffffffffffffffffffffffffffffffffffffffff16600a546040516104f790611663565b60006040518083038185875af1925050503d8060008114610534576040519150601f19603f3d011682016040523d82523d6000602084013e610539565b606091505b5050809150508061057f576040517f08c379a00000000000000000000000000000000000000000000000000000000081526004016105769061177c565b60405180910390fd5b50505050505050565b600660009054906101000a900473ffffffffffffffffffffffffffffffffffffffff1673ffffffffffffffffffffffffffffffffffffffff163373ffffffffffffffffffffffffffffffffffffffff1614610618576040517f08c379a000000000000000000000000000000000000000000000000000000000815260040161060f9061180e565b60405180910390fd5b8060078190555050565b600660009054906101000a900473ffffffffffffffffffffffffffffffffffffffff1673ffffffffffffffffffffffffffffffffffffffff163373ffffffffffffffffffffffffffffffffffffffff16146106b2576040517f08c379a00000000000000000000000000000000000000000000000000000000081526004016106a99061180e565b60405180910390fd5b80600660006101000a81548173ffffffffffffffffffffffffffffffffffffffff021916908373ffffffffffffffffffffffffffffffffffffffff16021790555050565b60008061070d60085430634357855e60e01b610802565b90506107716040518060400160405280600381526020017f6765740000000000000000000000000000000000000000000000000000000000815250604051806060016040528060388152602001611d5760389139836108339092919063ffffffff16565b6107f06040518060400160405280600481526020017f70617468000000000000000000000000000000000000000000000000000000008152506040518060400160405280600581526020017f76616c7565000000000000000000000000000000000000000000000000000000815250836108339092919063ffffffff16565b6107fc81600954610866565b91505090565b61080a611039565b610812611039565b6108298585858461089d909392919063ffffffff16565b9150509392505050565b61084a82846080015161094d90919063ffffffff16565b61086181846080015161094d90919063ffffffff16565b505050565b6000610895600360009054906101000a900473ffffffffffffffffffffffffffffffffffffffff168484610972565b905092915050565b6108a5611039565b6108b58560800151610100610a3e565b508385600001818152505082856020019073ffffffffffffffffffffffffffffffffffffffff16908173ffffffffffffffffffffffffffffffffffffffff16815250508185604001907bffffffffffffffffffffffffffffffffffffffffffffffffffffffff191690817bffffffffffffffffffffffffffffffffffffffffffffffffffffffff191681525050849050949350505050565b61095a8260038351610aa8565b61096d8183610c2d90919063ffffffff16565b505050565b60008060045490506001816109879190611518565b6004819055506000634042994660e01b60008087600001513089604001518760018c60800151600001516040516024016109c8989796959493929190611908565b604051602081830303815290604052907bffffffffffffffffffffffffffffffffffffffffffffffffffffffff19166020820180517bffffffffffffffffffffffffffffffffffffffffffffffffffffffff83818316178352505050509050610a3386838684610c4f565b925050509392505050565b610a466110a6565b6000602083610a55919061198d565b14610a8157602082610a67919061198d565b6020610a7391906115fe565b82610a7e9190611518565b91505b81836020018181525050604051808452600081528281016020016040525082905092915050565b60178167ffffffffffffffff1611610adf57610ad98160058460ff16901b60ff161784610de490919063ffffffff16565b50610c28565b60ff8167ffffffffffffffff1611610b3557610b0e601860058460ff16901b1784610de490919063ffffffff16565b50610b2f8167ffffffffffffffff16600185610e049092919063ffffffff16565b50610c27565b61ffff8167ffffffffffffffff1611610b8c57610b65601960058460ff16901b1784610de490919063ffffffff16565b50610b868167ffffffffffffffff16600285610e049092919063ffffffff16565b50610c26565b63ffffffff8167ffffffffffffffff1611610be557610bbe601a60058460ff16901b1784610de490919063ffffffff16565b50610bdf8167ffffffffffffffff16600485610e049092919063ffffffff16565b50610c25565b610c02601b60058460ff16901b1784610de490919063ffffffff16565b50610c238167ffffffffffffffff16600885610e049092919063ffffffff16565b505b5b5b5b505050565b610c356110a6565b610c4783846000015151848551610e26565b905092915050565b60003084604051602001610c64929190611a77565b604051602081830303815290604052805190602001209050846005600083815260200190815260200160002060006101000a81548173ffffffffffffffffffffffffffffffffffffffff021916908373ffffffffffffffffffffffffffffffffffffffff160217905550807fb5e6e01e79f91267dc17b4e6314d5d4d03593d2ceee0fbb452b750bd70ea5af960405160405180910390a2600260009054906101000a900473ffffffffffffffffffffffffffffffffffffffff1673ffffffffffffffffffffffffffffffffffffffff16634000aea08685856040518463ffffffff1660e01b8152600401610d5a93929190611aa3565b6020604051808303816000875af1158015610d79573d6000803e3d6000fd5b505050506040513d601f19601f82011682018060405250810190610d9d9190611b19565b610ddc576040517f08c379a0000000000000000000000000000000000000000000000000000000008152600401610dd390611bb8565b60405180910390fd5b949350505050565b610dec6110a6565b610dfc8384600001515184610f15565b905092915050565b610e0c6110a6565b610e1d848560000151518585610f6b565b90509392505050565b610e2e6110a6565b8251821115610e3c57600080fd5b84602001518285610e4d9190611518565b1115610e8257610e81856002610e7288602001518887610e6d9190611518565b610ff9565b610e7c9190611476565b611015565b5b600080865180518760208301019350808887011115610ea15787860182525b60208701925050505b60208410610ee85780518252602082610ec39190611518565b9150602081610ed29190611518565b9050602084610ee191906115fe565b9350610eaa565b60006001856020036101000a03905080198251168184511681811785525050508692505050949350505050565b610f1d6110a6565b83602001518310610f4357610f428460028660200151610f3d9190611476565b611015565b5b83518051602085830101848153818603610f5e576001820183525b5050508390509392505050565b610f736110a6565b84602001518483610f849190611518565b1115610fac57610fab8560028685610f9c9190611518565b610fa69190611476565b611015565b5b6000600183610100610fbe9190611d0b565b610fc891906115fe565b90508551838682010185831982511617815281518588011115610feb5784870182525b505085915050949350505050565b60008183111561100b5782905061100f565b8190505b92915050565b6000826000015190506110288383610a3e565b506110338382610c2d565b50505050565b6040518060a0016040528060008019168152602001600073ffffffffffffffffffffffffffffffffffffffff16815260200160007bffffffffffffffffffffffffffffffffffffffffffffffffffffffff19168152602001600081526020016110a06110a6565b81525090565b604051806040016040528060608152602001600081525090565b6000819050919050565b6110d3816110c0565b82525050565b60006020820190506110ee60008301846110ca565b92915050565b600080fd5b6000819050919050565b61110c816110f9565b811461111757600080fd5b50565b60008135905061112981611103565b92915050565b611138816110c0565b811461114357600080fd5b50565b6000813590506111558161112f565b92915050565b60008060408385031215611172576111716110f4565b5b60006111808582860161111a565b925050602061119185828601611146565b9150509250929050565b600073ffffffffffffffffffffffffffffffffffffffff82169050919050565b60006111c68261119b565b9050919050565b6111d6816111bb565b81146111e157600080fd5b50565b6000813590506111f3816111cd565b92915050565b600080600060608486031215611212576112116110f4565b5b6000611220868287016111e4565b9350506020611231868287016111e4565b925050604061124286828701611146565b9150509250925092565b600060208284031215611262576112616110f4565b5b600061127084828501611146565b91505092915050565b60006020828403121561128f5761128e6110f4565b5b600061129d848285016111e4565b91505092915050565b600082825260208201905092915050565b7f536f75726365206d75737420626520746865206f7261636c65206f662074686560008201527f2072657175657374000000000000000000000000000000000000000000000000602082015250565b60006113136028836112a6565b915061131e826112b7565b604082019050919050565b6000602082019050818103600083015261134281611306565b9050919050565b7f546f6b656e202620726563697069656e742061646472657373657320636f6e6e60008201527f6f74206265205a65726f21000000000000000000000000000000000000000000602082015250565b60006113a5602b836112a6565b91506113b082611349565b604082019050919050565b600060208201905081810360008301526113d481611398565b9050919050565b7f496e76616c696420746f6b656e204944206f7220636f6c6c656374696f6e0000600082015250565b6000611411601e836112a6565b915061141c826113db565b602082019050919050565b6000602082019050818103600083015261144081611404565b9050919050565b7f4e487b7100000000000000000000000000000000000000000000000000000000600052601160045260246000fd5b6000611481826110c0565b915061148c836110c0565b925082820261149a816110c0565b915082820484148315176114b1576114b0611447565b5b5092915050565b7f4e487b7100000000000000000000000000000000000000000000000000000000600052601260045260246000fd5b60006114f2826110c0565b91506114fd836110c0565b92508261150d5761150c6114b8565b5b828204905092915050565b6000611523826110c0565b915061152e836110c0565b925082820190508082111561154657611545611447565b5b92915050565b7f496e73756666696369656e742065746865722070726f76696465642100000000600082015250565b6000611582601c836112a6565b915061158d8261154c565b602082019050919050565b600060208201905081810360008301526115b181611575565b9050919050565b6115c1816111bb565b82525050565b60006060820190506115dc60008301866115b8565b6115e960208301856115b8565b6115f660408301846110ca565b949350505050565b6000611609826110c0565b9150611614836110c0565b925082820390508181111561162c5761162b611447565b5b92915050565b600081905092915050565b50565b600061164d600083611632565b91506116588261163d565b600082019050919050565b600061166e82611640565b9150819050919050565b7f4661696c656420746f2073656e642065786365737320457468657220746f207260008201527f65636970656e7421000000000000000000000000000000000000000000000000602082015250565b60006116d46028836112a6565b91506116df82611678565b604082019050919050565b60006020820190508181036000830152611703816116c7565b9050919050565b7f4661696c656420746f2073656e64204e4654207072696365204574686572207460008201527f6f206f776e657221000000000000000000000000000000000000000000000000602082015250565b60006117666028836112a6565b91506117718261170a565b604082019050919050565b6000602082019050818103600083015261179581611759565b9050919050565b7f52696768747320726573657276656420666f7220746865206f776e6572206f6e60008201527f6c79210000000000000000000000000000000000000000000000000000000000602082015250565b60006117f86023836112a6565b91506118038261179c565b604082019050919050565b60006020820190508181036000830152611827816117eb565b9050919050565b611837816110f9565b82525050565b60007fffffffff0000000000000000000000000000000000000000000000000000000082169050919050565b6118728161183d565b82525050565b600081519050919050565b600082825260208201905092915050565b60005b838110156118b2578082015181840152602081019050611897565b60008484015250505050565b6000601f19601f8301169050919050565b60006118da82611878565b6118e48185611883565b93506118f4818560208601611894565b6118fd816118be565b840191505092915050565b60006101008201905061191e600083018b6115b8565b61192b602083018a6110ca565b611938604083018961182e565b61194560608301886115b8565b6119526080830187611869565b61195f60a08301866110ca565b61196c60c08301856110ca565b81810360e083015261197e81846118cf565b90509998505050505050505050565b6000611998826110c0565b91506119a3836110c0565b9250826119b3576119b26114b8565b5b828206905092915050565b6000819050919050565b60006119e36119de6119d98461119b565b6119be565b61119b565b9050919050565b60006119f5826119c8565b9050919050565b6000611a07826119ea565b9050919050565b60008160601b9050919050565b6000611a2682611a0e565b9050919050565b6000611a3882611a1b565b9050919050565b611a50611a4b826119fc565b611a2d565b82525050565b6000819050919050565b611a71611a6c826110c0565b611a56565b82525050565b6000611a838285611a3f565b601482019150611a938284611a60565b6020820191508190509392505050565b6000606082019050611ab860008301866115b8565b611ac560208301856110ca565b8181036040830152611ad781846118cf565b9050949350505050565b60008115159050919050565b611af681611ae1565b8114611b0157600080fd5b50565b600081519050611b1381611aed565b92915050565b600060208284031215611b2f57611b2e6110f4565b5b6000611b3d84828501611b04565b91505092915050565b7f756e61626c6520746f207472616e73666572416e6443616c6c20746f206f726160008201527f636c650000000000000000000000000000000000000000000000000000000000602082015250565b6000611ba26023836112a6565b9150611bad82611b46565b604082019050919050565b60006020820190508181036000830152611bd181611b95565b9050919050565b60008160011c9050919050565b6000808291508390505b6001851115611c2f57808604811115611c0b57611c0a611447565b5b6001851615611c1a5780820291505b8081029050611c2885611bd8565b9450611bef565b94509492505050565b600082611c485760019050611d04565b81611c565760009050611d04565b8160018114611c6c5760028114611c7657611ca5565b6001915050611d04565b60ff841115611c8857611c87611447565b5b8360020a915084821115611c9f57611c9e611447565b5b50611d04565b5060208310610133831016604e8410600b8410161715611cda5782820a905083811115611cd557611cd4611447565b5b611d04565b611ce78484846001611be5565b92509050818404811115611cfe57611cfd611447565b5b81810290505b9392505050565b6000611d16826110c0565b9150611d21836110c0565b9250611d4e7fffffffffffffffffffffffffffffffffffffffffffffffffffffffffffffffff8484611c38565b90509291505056fe68747470733a2f2f6d6f636b692e696f2f76312f63623361363734642d623033662d343735382d623663312d636434626535653839383066a26469706673582212204ae304e2e8c18e9214734730cbfb77aca981874f212d6797f5a0c99c2879dc0864736f6c63430008110033",
  "linkReferences": {},
  "deployedLinkReferences": {}
}