{
  "_format": "hh-sol-artifact-1",
  "contractName": "NFTMarket",
  "sourceName": "contracts/nftTransfer.sol",
  "abi": [
    {
      "inputs": [],
      "stateMutability": "nonpayable",
      "type": "constructor"
    },
    {
      "anonymous": false,
      "inputs": [
        {
          "indexed": true,
          "internalType": "bytes32",
          "name": "id",
          "type": "bytes32"
        }
      ],
      "name": "ChainlinkCancelled",
      "type": "event"
    },
    {
      "anonymous": false,
      "inputs": [
        {
          "indexed": true,
          "internalType": "bytes32",
          "name": "id",
          "type": "bytes32"
        }
      ],
      "name": "ChainlinkFulfilled",
      "type": "event"
    },
    {
      "anonymous": false,
      "inputs": [
        {
          "indexed": true,
          "internalType": "bytes32",
          "name": "id",
          "type": "bytes32"
        }
      ],
      "name": "ChainlinkRequested",
      "type": "event"
    },
    {
      "anonymous": false,
      "inputs": [
        {
          "indexed": true,
          "internalType": "address",
          "name": "from",
          "type": "address"
        },
        {
          "indexed": true,
          "internalType": "address",
          "name": "to",
          "type": "address"
        }
      ],
      "name": "OwnershipTransferRequested",
      "type": "event"
    },
    {
      "anonymous": false,
      "inputs": [
        {
          "indexed": true,
          "internalType": "address",
          "name": "from",
          "type": "address"
        },
        {
          "indexed": true,
          "internalType": "address",
          "name": "to",
          "type": "address"
        }
      ],
      "name": "OwnershipTransferred",
      "type": "event"
    },
    {
      "inputs": [],
      "name": "acceptOwnership",
      "outputs": [],
      "stateMutability": "nonpayable",
      "type": "function"
    },
    {
      "inputs": [],
      "name": "chainLinkBalance",
      "outputs": [
        {
          "internalType": "uint256",
          "name": "_tokens",
          "type": "uint256"
        }
      ],
      "stateMutability": "view",
      "type": "function"
    },
    {
      "inputs": [
        {
          "internalType": "address",
          "name": "_owner",
          "type": "address"
        }
      ],
      "name": "changeOwner",
      "outputs": [],
      "stateMutability": "nonpayable",
      "type": "function"
    },
    {
      "inputs": [],
      "name": "claimChainLinkTokens",
      "outputs": [],
      "stateMutability": "nonpayable",
      "type": "function"
    },
    {
      "inputs": [],
      "name": "claimServiceFee",
      "outputs": [],
      "stateMutability": "payable",
      "type": "function"
    },
    {
      "inputs": [
        {
          "internalType": "bytes32",
          "name": "_requestId",
          "type": "bytes32"
        },
        {
          "internalType": "uint256",
          "name": "_volume",
          "type": "uint256"
        }
      ],
      "name": "fulfill",
      "outputs": [],
      "stateMutability": "nonpayable",
      "type": "function"
    },
    {
      "inputs": [],
      "name": "getServiceFee",
      "outputs": [
        {
          "internalType": "uint256",
          "name": "serviceCharges",
          "type": "uint256"
        }
      ],
      "stateMutability": "view",
      "type": "function"
    },
    {
      "inputs": [],
      "name": "owner",
      "outputs": [
        {
          "internalType": "address",
          "name": "",
          "type": "address"
        }
      ],
      "stateMutability": "view",
      "type": "function"
    },
    {
      "inputs": [],
      "name": "prices",
      "outputs": [
        {
          "internalType": "uint256",
          "name": "",
          "type": "uint256"
        }
      ],
      "stateMutability": "view",
      "type": "function"
    },
    {
      "inputs": [
        {
          "internalType": "address",
          "name": "_collection",
          "type": "address"
        },
        {
          "internalType": "uint256",
          "name": "_tokenId",
          "type": "uint256"
        }
      ],
      "name": "requestTokenPrice",
      "outputs": [
        {
          "internalType": "bytes32",
          "name": "reqestId",
          "type": "bytes32"
        }
      ],
      "stateMutability": "nonpayable",
      "type": "function"
    },
    {
      "inputs": [
        {
          "internalType": "uint256",
          "name": "basisPoints",
          "type": "uint256"
        }
      ],
      "name": "setServiceFee",
      "outputs": [],
      "stateMutability": "nonpayable",
      "type": "function"
    },
    {
      "inputs": [
        {
          "internalType": "address",
          "name": "_token",
          "type": "address"
        },
        {
          "internalType": "address",
          "name": "_recipient",
          "type": "address"
        },
        {
          "internalType": "uint256",
          "name": "_tokenId",
          "type": "uint256"
        }
      ],
      "name": "swapOut",
      "outputs": [
        {
          "internalType": "bool",
          "name": "swapStatus",
          "type": "bool"
        }
      ],
      "stateMutability": "payable",
      "type": "function"
    },
    {
      "inputs": [
        {
          "internalType": "address",
          "name": "to",
          "type": "address"
        }
      ],
      "name": "transferOwnership",
      "outputs": [],
      "stateMutability": "nonpayable",
      "type": "function"
    }
  ],
  "bytecode": "0x608060405260016004556064600855600060095573326c977e6efc84e512bb9c30f76e30c160ed06fb600d60006101000a81548173ffffffffffffffffffffffffffffffffffffffff021916908373ffffffffffffffffffffffffffffffffffffffff1602179055506040518060600160405280603881526020016200414460389139600e9081620000929190620006bf565b50348015620000a057600080fd5b50338060008073ffffffffffffffffffffffffffffffffffffffff168273ffffffffffffffffffffffffffffffffffffffff160362000116576040517f08c379a00000000000000000000000000000000000000000000000000000000081526004016200010d9062000807565b60405180910390fd5b81600660006101000a81548173ffffffffffffffffffffffffffffffffffffffff021916908373ffffffffffffffffffffffffffffffffffffffff160217905550600073ffffffffffffffffffffffffffffffffffffffff168173ffffffffffffffffffffffffffffffffffffffff16146200019e576200019d816200028c60201b60201c565b5b505050600060108190555033600c60006101000a81548173ffffffffffffffffffffffffffffffffffffffff021916908373ffffffffffffffffffffffffffffffffffffffff1602179055506200020f73326c977e6efc84e512bb9c30f76e30c160ed06fb620003bd60201b60201c565b6200023473cc79157eb46f5624204f47ab42b3906caa40eab76200040160201b60201c565b7f6361393833363663633733313439353762386330313263373266303561656562600b81905550600a670de0b6b3a7640000600162000274919062000858565b620002809190620008d2565b600a819055506200097c565b3373ffffffffffffffffffffffffffffffffffffffff168173ffffffffffffffffffffffffffffffffffffffff1603620002fd576040517f08c379a0000000000000000000000000000000000000000000000000000000008152600401620002f4906200095a565b60405180910390fd5b80600760006101000a81548173ffffffffffffffffffffffffffffffffffffffff021916908373ffffffffffffffffffffffffffffffffffffffff1602179055508073ffffffffffffffffffffffffffffffffffffffff16600660009054906101000a900473ffffffffffffffffffffffffffffffffffffffff1673ffffffffffffffffffffffffffffffffffffffff167fed8889f560326eb138920d842192f0eb3dd22b4f139c87a2c57538e05bae127860405160405180910390a350565b80600260006101000a81548173ffffffffffffffffffffffffffffffffffffffff021916908373ffffffffffffffffffffffffffffffffffffffff16021790555050565b80600360006101000a81548173ffffffffffffffffffffffffffffffffffffffff021916908373ffffffffffffffffffffffffffffffffffffffff16021790555050565b600081519050919050565b7f4e487b7100000000000000000000000000000000000000000000000000000000600052604160045260246000fd5b7f4e487b7100000000000000000000000000000000000000000000000000000000600052602260045260246000fd5b60006002820490506001821680620004c757607f821691505b602082108103620004dd57620004dc6200047f565b5b50919050565b60008190508160005260206000209050919050565b60006020601f8301049050919050565b600082821b905092915050565b600060088302620005477fffffffffffffffffffffffffffffffffffffffffffffffffffffffffffffffff8262000508565b62000553868362000508565b95508019841693508086168417925050509392505050565b6000819050919050565b6000819050919050565b6000620005a06200059a62000594846200056b565b62000575565b6200056b565b9050919050565b6000819050919050565b620005bc836200057f565b620005d4620005cb82620005a7565b84845462000515565b825550505050565b600090565b620005eb620005dc565b620005f8818484620005b1565b505050565b5b81811015620006205762000614600082620005e1565b600181019050620005fe565b5050565b601f8211156200066f576200063981620004e3565b6200064484620004f8565b8101602085101562000654578190505b6200066c6200066385620004f8565b830182620005fd565b50505b505050565b600082821c905092915050565b6000620006946000198460080262000674565b1980831691505092915050565b6000620006af838362000681565b9150826002028217905092915050565b620006ca8262000445565b67ffffffffffffffff811115620006e657620006e562000450565b5b620006f28254620004ae565b620006ff82828562000624565b600060209050601f83116001811462000737576000841562000722578287015190505b6200072e8582620006a1565b8655506200079e565b601f1984166200074786620004e3565b60005b8281101562000771578489015182556001820191506020850194506020810190506200074a565b868310156200079157848901516200078d601f89168262000681565b8355505b6001600288020188555050505b505050505050565b600082825260208201905092915050565b7f43616e6e6f7420736574206f776e657220746f207a65726f0000000000000000600082015250565b6000620007ef601883620007a6565b9150620007fc82620007b7565b602082019050919050565b600060208201905081810360008301526200082281620007e0565b9050919050565b7f4e487b7100000000000000000000000000000000000000000000000000000000600052601160045260246000fd5b600062000865826200056b565b915062000872836200056b565b925082820262000882816200056b565b915082820484148315176200089c576200089b62000829565b5b5092915050565b7f4e487b7100000000000000000000000000000000000000000000000000000000600052601260045260246000fd5b6000620008df826200056b565b9150620008ec836200056b565b925082620008ff57620008fe620008a3565b5b828204905092915050565b7f43616e6e6f74207472616e7366657220746f2073656c66000000000000000000600082015250565b600062000942601783620007a6565b91506200094f826200090a565b602082019050919050565b60006020820190508181036000830152620009758162000933565b9050919050565b6137b8806200098c6000396000f3fe6080604052600436106100c25760003560e01c806363638ad21161007f578063a6f9dae111610059578063a6f9dae114610214578063cd85f6221461023d578063d3419bf314610268578063f2fde38b14610293576100c2565b806363638ad2146101bb57806379ba5097146101d25780638da5cb5b146101e9576100c2565b80630bd4fe0f146100c757806311a1933c1461010457806333b3be771461012f5780634357855e1461013957806348c314f4146101625780635cdf76f814610192575b600080fd5b3480156100d357600080fd5b506100ee60048036038101906100e99190612423565b6102bc565b6040516100fb919061247c565b60405180910390f35b34801561011057600080fd5b5061011961045d565b60405161012691906124a6565b60405180910390f35b610137610467565b005b34801561014557600080fd5b50610160600480360381019061015b91906124ed565b61066b565b005b61017c6004803603810190610177919061252d565b61077c565b604051610189919061259b565b60405180910390f35b34801561019e57600080fd5b506101b960048036038101906101b491906125b6565b610bfa565b005b3480156101c757600080fd5b506101d0610c04565b005b3480156101de57600080fd5b506101e7610f26565b005b3480156101f557600080fd5b506101fe6110bd565b60405161020b91906125f2565b60405180910390f35b34801561022057600080fd5b5061023b6004803603810190610236919061260d565b6110e7565b005b34801561024957600080fd5b5061025261122a565b60405161025f91906124a6565b60405180910390f35b34801561027457600080fd5b5061027d6112cd565b60405161028a91906124a6565b60405180910390f35b34801561029f57600080fd5b506102ba60048036038101906102b5919061260d565b6112d3565b005b6000806102d3600b5430634357855e60e01b6112e7565b90506000600e6102fa8673ffffffffffffffffffffffffffffffffffffffff166014611318565b61030386611554565b6040516020016103159392919061283b565b60405160208183030381529060405290506103706040518060400160405280600381526020017f676574000000000000000000000000000000000000000000000000000000000081525082846116229092919063ffffffff16565b6103ef6040518060400160405280600481526020017f70617468000000000000000000000000000000000000000000000000000000008152506040518060400160405280600581526020017f76616c7565000000000000000000000000000000000000000000000000000000815250846116229092919063ffffffff16565b6000670de0b6b3a764000090506104466040518060400160405280600581526020017f74696d657300000000000000000000000000000000000000000000000000000081525082856116559092919063ffffffff16565b61045283600a54611688565b935050505092915050565b6000600854905090565b3373ffffffffffffffffffffffffffffffffffffffff16600c60009054906101000a900473ffffffffffffffffffffffffffffffffffffffff1673ffffffffffffffffffffffffffffffffffffffff16146104f7576040517f08c379a00000000000000000000000000000000000000000000000000000000081526004016104ee906128df565b60405180910390fd5b600f60009054906101000a900460ff1615610547576040517f08c379a000000000000000000000000000000000000000000000000000000000815260040161053e9061294b565b60405180910390fd5b6001600f60006101000a81548160ff0219169083151502179055506000600954116105755761057461296b565b5b6000600c60009054906101000a900473ffffffffffffffffffffffffffffffffffffffff1673ffffffffffffffffffffffffffffffffffffffff166009546040516105bf906129cb565b60006040518083038185875af1925050503d80600081146105fc576040519150601f19603f3d011682016040523d82523d6000602084013e610601565b606091505b5050905080610645576040517f08c379a000000000000000000000000000000000000000000000000000000000815260040161063c90612a52565b60405180910390fd5b6000600981905550506000600f60006101000a81548160ff021916908315150217905550565b816005600082815260200190815260200160002060009054906101000a900473ffffffffffffffffffffffffffffffffffffffff1673ffffffffffffffffffffffffffffffffffffffff163373ffffffffffffffffffffffffffffffffffffffff161461070d576040517f08c379a000000000000000000000000000000000000000000000000000000000815260040161070490612ae4565b60405180910390fd5b6005600082815260200190815260200160002060006101000a81549073ffffffffffffffffffffffffffffffffffffffff0219169055807f7cc135e0cebb02c3480ae5d74d377283180a2601f8f644edf7987b009316c63a60405160405180910390a281601081905550505050565b6000600f60009054906101000a900460ff16156107ce576040517f08c379a00000000000000000000000000000000000000000000000000000000081526004016107c59061294b565b60405180910390fd5b6001600f60006101000a81548160ff021916908315150217905550600073ffffffffffffffffffffffffffffffffffffffff168473ffffffffffffffffffffffffffffffffffffffff16141580156108535750600073ffffffffffffffffffffffffffffffffffffffff168373ffffffffffffffffffffffffffffffffffffffff1614155b610892576040517f08c379a000000000000000000000000000000000000000000000000000000000815260040161088990612b76565b60405180910390fd5b61089c84836102bc565b506000601054116108e2576040517f08c379a00000000000000000000000000000000000000000000000000000000081526004016108d990612be2565b60405180910390fd5b600034905060006127106008546010546108fc9190612c31565b6109069190612ca2565b9050806009600082825461091a9190612cd3565b925050819055508060105461092f9190612cd3565b821015610971576040517f08c379a000000000000000000000000000000000000000000000000000000000815260040161096890612d53565b60405180910390fd5b60008673ffffffffffffffffffffffffffffffffffffffff16636352211e866040518263ffffffff1660e01b81526004016109ac91906124a6565b602060405180830381865afa1580156109c9573d6000803e3d6000fd5b505050506040513d601f19601f820116820180604052508101906109ed9190612d88565b73ffffffffffffffffffffffffffffffffffffffff16601054604051610a12906129cb565b60006040518083038185875af1925050503d8060008114610a4f576040519150601f19603f3d011682016040523d82523d6000602084013e610a54565b606091505b5050905080610a98576040517f08c379a0000000000000000000000000000000000000000000000000000000008152600401610a8f90612e27565b60405180910390fd5b600082601054610aa89190612cd3565b84610ab39190612e47565b90503373ffffffffffffffffffffffffffffffffffffffff1681604051610ad9906129cb565b60006040518083038185875af1925050503d8060008114610b16576040519150601f19603f3d011682016040523d82523d6000602084013e610b1b565b606091505b50508092505081610b61576040517f08c379a0000000000000000000000000000000000000000000000000000000008152600401610b5890612eed565b60405180910390fd5b8773ffffffffffffffffffffffffffffffffffffffff166342842e0e3389896040518463ffffffff1660e01b8152600401610b9e93929190612f0d565b600060405180830381600087803b158015610bb857600080fd5b505af1158015610bcc573d6000803e3d6000fd5b5050505060019450505050506000600f60006101000a81548160ff0219169083151502179055509392505050565b8060088190555050565b3373ffffffffffffffffffffffffffffffffffffffff16600c60009054906101000a900473ffffffffffffffffffffffffffffffffffffffff1673ffffffffffffffffffffffffffffffffffffffff1614610c94576040517f08c379a0000000000000000000000000000000000000000000000000000000008152600401610c8b906128df565b60405180910390fd5b600f60009054906101000a900460ff1615610ce4576040517f08c379a0000000000000000000000000000000000000000000000000000000008152600401610cdb9061294b565b60405180910390fd5b6001600f60006101000a81548160ff0219169083151502179055506000600d60009054906101000a900473ffffffffffffffffffffffffffffffffffffffff1673ffffffffffffffffffffffffffffffffffffffff166370a08231306040518263ffffffff1660e01b8152600401610d5c91906125f2565b602060405180830381865afa158015610d79573d6000803e3d6000fd5b505050506040513d601f19601f82011682018060405250810190610d9d9190612f59565b11610dab57610daa61296b565b5b600d60009054906101000a900473ffffffffffffffffffffffffffffffffffffffff1673ffffffffffffffffffffffffffffffffffffffff1663a9059cbb600c60009054906101000a900473ffffffffffffffffffffffffffffffffffffffff16600d60009054906101000a900473ffffffffffffffffffffffffffffffffffffffff1673ffffffffffffffffffffffffffffffffffffffff166370a08231306040518263ffffffff1660e01b8152600401610e6791906125f2565b602060405180830381865afa158015610e84573d6000803e3d6000fd5b505050506040513d601f19601f82011682018060405250810190610ea89190612f59565b6040518363ffffffff1660e01b8152600401610ec5929190612f86565b6020604051808303816000875af1158015610ee4573d6000803e3d6000fd5b505050506040513d601f19601f82011682018060405250810190610f089190612fdb565b506000600f60006101000a81548160ff021916908315150217905550565b600760009054906101000a900473ffffffffffffffffffffffffffffffffffffffff1673ffffffffffffffffffffffffffffffffffffffff163373ffffffffffffffffffffffffffffffffffffffff1614610fb6576040517f08c379a0000000000000000000000000000000000000000000000000000000008152600401610fad90613054565b60405180910390fd5b6000600660009054906101000a900473ffffffffffffffffffffffffffffffffffffffff16905033600660006101000a81548173ffffffffffffffffffffffffffffffffffffffff021916908373ffffffffffffffffffffffffffffffffffffffff1602179055506000600760006101000a81548173ffffffffffffffffffffffffffffffffffffffff021916908373ffffffffffffffffffffffffffffffffffffffff1602179055503373ffffffffffffffffffffffffffffffffffffffff168173ffffffffffffffffffffffffffffffffffffffff167f8be0079c531659141344cd1fd0a4f28419497f9722a3daafe3b4186f6b6457e060405160405180910390a350565b6000600660009054906101000a900473ffffffffffffffffffffffffffffffffffffffff16905090565b3373ffffffffffffffffffffffffffffffffffffffff16600c60009054906101000a900473ffffffffffffffffffffffffffffffffffffffff1673ffffffffffffffffffffffffffffffffffffffff1614611177576040517f08c379a000000000000000000000000000000000000000000000000000000000815260040161116e906128df565b60405180910390fd5b600073ffffffffffffffffffffffffffffffffffffffff168173ffffffffffffffffffffffffffffffffffffffff16036111e6576040517f08c379a00000000000000000000000000000000000000000000000000000000081526004016111dd906130c0565b60405180910390fd5b80600c60006101000a81548173ffffffffffffffffffffffffffffffffffffffff021916908373ffffffffffffffffffffffffffffffffffffffff16021790555050565b6000600d60009054906101000a900473ffffffffffffffffffffffffffffffffffffffff1673ffffffffffffffffffffffffffffffffffffffff166370a08231306040518263ffffffff1660e01b815260040161128791906125f2565b602060405180830381865afa1580156112a4573d6000803e3d6000fd5b505050506040513d601f19601f820116820180604052508101906112c89190612f59565b905090565b60105481565b6112db6116bf565b6112e481611751565b50565b6112ef612303565b6112f7612303565b61130e8585858461187f909392919063ffffffff16565b9150509392505050565b60606000600283600261132b9190612c31565b6113359190612cd3565b67ffffffffffffffff81111561134e5761134d6130e0565b5b6040519080825280601f01601f1916602001820160405280156113805781602001600182028036833780820191505090505b5090507f3000000000000000000000000000000000000000000000000000000000000000816000815181106113b8576113b761310f565b5b60200101907effffffffffffffffffffffffffffffffffffffffffffffffffffffffffffff1916908160001a9053507f78000000000000000000000000000000000000000000000000000000000000008160018151811061141c5761141b61310f565b5b60200101907effffffffffffffffffffffffffffffffffffffffffffffffffffffffffffff1916908160001a9053506000600184600261145c9190612c31565b6114669190612cd3565b90505b6001811115611506577f3031323334353637383961626364656600000000000000000000000000000000600f8616601081106114a8576114a761310f565b5b1a60f81b8282815181106114bf576114be61310f565b5b60200101907effffffffffffffffffffffffffffffffffffffffffffffffffffffffffffff1916908160001a905350600485901c9450806114ff9061313e565b9050611469565b506000841461154a576040517f08c379a0000000000000000000000000000000000000000000000000000000008152600401611541906131b3565b60405180910390fd5b8091505092915050565b6060600060016115638461192f565b01905060008167ffffffffffffffff811115611582576115816130e0565b5b6040519080825280601f01601f1916602001820160405280156115b45781602001600182028036833780820191505090505b509050600082602001820190505b600115611617578080600190039150507f3031323334353637383961626364656600000000000000000000000000000000600a86061a8153600a858161160b5761160a612c73565b5b049450600085036115c2575b819350505050919050565b611639828460800151611a8290919063ffffffff16565b611650818460800151611a8290919063ffffffff16565b505050565b61166c828460800151611a8290919063ffffffff16565b611683818460800151611aa790919063ffffffff16565b505050565b60006116b7600360009054906101000a900473ffffffffffffffffffffffffffffffffffffffff168484611b54565b905092915050565b600660009054906101000a900473ffffffffffffffffffffffffffffffffffffffff1673ffffffffffffffffffffffffffffffffffffffff163373ffffffffffffffffffffffffffffffffffffffff161461174f576040517f08c379a00000000000000000000000000000000000000000000000000000000081526004016117469061321f565b60405180910390fd5b565b3373ffffffffffffffffffffffffffffffffffffffff168173ffffffffffffffffffffffffffffffffffffffff16036117bf576040517f08c379a00000000000000000000000000000000000000000000000000000000081526004016117b69061328b565b60405180910390fd5b80600760006101000a81548173ffffffffffffffffffffffffffffffffffffffff021916908373ffffffffffffffffffffffffffffffffffffffff1602179055508073ffffffffffffffffffffffffffffffffffffffff16600660009054906101000a900473ffffffffffffffffffffffffffffffffffffffff1673ffffffffffffffffffffffffffffffffffffffff167fed8889f560326eb138920d842192f0eb3dd22b4f139c87a2c57538e05bae127860405160405180910390a350565b611887612303565b6118978560800151610100611c20565b508385600001818152505082856020019073ffffffffffffffffffffffffffffffffffffffff16908173ffffffffffffffffffffffffffffffffffffffff16815250508185604001907bffffffffffffffffffffffffffffffffffffffffffffffffffffffff191690817bffffffffffffffffffffffffffffffffffffffffffffffffffffffff191681525050849050949350505050565b600080600090507a184f03e93ff9f4daa797ed6e38ed64bf6a1f010000000000000000831061198d577a184f03e93ff9f4daa797ed6e38ed64bf6a1f010000000000000000838161198357611982612c73565b5b0492506040810190505b6d04ee2d6d415b85acef810000000083106119ca576d04ee2d6d415b85acef810000000083816119c0576119bf612c73565b5b0492506020810190505b662386f26fc1000083106119f957662386f26fc1000083816119ef576119ee612c73565b5b0492506010810190505b6305f5e1008310611a22576305f5e1008381611a1857611a17612c73565b5b0492506008810190505b6127108310611a47576127108381611a3d57611a3c612c73565b5b0492506004810190505b60648310611a6a5760648381611a6057611a5f612c73565b5b0492506002810190505b600a8310611a79576001810190505b80915050919050565b611a8f8260038351611c8a565b611aa28183611e0f90919063ffffffff16565b505050565b7fffffffffffffffffffffffffffffffffffffffffffffffff0000000000000000811215611ade57611ad98282611e31565b611b50565b67ffffffffffffffff811315611afd57611af88282611ea8565b611b4f565b60008112611b1657611b1182600083611c8a565b611b4e565b611b4d826001837fffffffffffffffffffffffffffffffffffffffffffffffffffffffffffffffff611b4891906132b5565b611c8a565b5b5b5b5050565b6000806004549050600181611b699190612cd3565b6004819055506000634042994660e01b60008087600001513089604001518760018c6080015160000151604051602401611baa989796959493929190613399565b604051602081830303815290604052907bffffffffffffffffffffffffffffffffffffffffffffffffffffffff19166020820180517bffffffffffffffffffffffffffffffffffffffffffffffffffffffff83818316178352505050509050611c1586838684611ef4565b925050509392505050565b611c28612370565b6000602083611c37919061341e565b14611c6357602082611c49919061341e565b6020611c559190612e47565b82611c609190612cd3565b91505b81836020018181525050604051808452600081528281016020016040525082905092915050565b60178167ffffffffffffffff1611611cc157611cbb8160058460ff16901b60ff16178461208990919063ffffffff16565b50611e0a565b60ff8167ffffffffffffffff1611611d1757611cf0601860058460ff16901b178461208990919063ffffffff16565b50611d118167ffffffffffffffff166001856120a99092919063ffffffff16565b50611e09565b61ffff8167ffffffffffffffff1611611d6e57611d47601960058460ff16901b178461208990919063ffffffff16565b50611d688167ffffffffffffffff166002856120a99092919063ffffffff16565b50611e08565b63ffffffff8167ffffffffffffffff1611611dc757611da0601a60058460ff16901b178461208990919063ffffffff16565b50611dc18167ffffffffffffffff166004856120a99092919063ffffffff16565b50611e07565b611de4601b60058460ff16901b178461208990919063ffffffff16565b50611e058167ffffffffffffffff166008856120a99092919063ffffffff16565b505b5b5b5b505050565b611e17612370565b611e29838460000151518485516120cb565b905092915050565b611e4f60036005600660ff16901b178361208990919063ffffffff16565b50611ea482827fffffffffffffffffffffffffffffffffffffffffffffffffffffffffffffffff611e8091906132b5565b604051602001611e9091906124a6565b6040516020818303038152906040526121ba565b5050565b611ec660026005600660ff16901b178361208990919063ffffffff16565b50611ef08282604051602001611edc91906124a6565b6040516020818303038152906040526121ba565b5050565b60003084604051602001611f09929190613508565b604051602081830303815290604052805190602001209050846005600083815260200190815260200160002060006101000a81548173ffffffffffffffffffffffffffffffffffffffff021916908373ffffffffffffffffffffffffffffffffffffffff160217905550807fb5e6e01e79f91267dc17b4e6314d5d4d03593d2ceee0fbb452b750bd70ea5af960405160405180910390a2600260009054906101000a900473ffffffffffffffffffffffffffffffffffffffff1673ffffffffffffffffffffffffffffffffffffffff16634000aea08685856040518463ffffffff1660e01b8152600401611fff93929190613534565b6020604051808303816000875af115801561201e573d6000803e3d6000fd5b505050506040513d601f19601f820116820180604052508101906120429190612fdb565b612081576040517f08c379a0000000000000000000000000000000000000000000000000000000008152600401612078906135e4565b60405180910390fd5b949350505050565b612091612370565b6120a183846000015151846121df565b905092915050565b6120b1612370565b6120c2848560000151518585612235565b90509392505050565b6120d3612370565b82518211156120e157600080fd5b846020015182856120f29190612cd3565b111561212757612126856002612117886020015188876121129190612cd3565b6122c3565b6121219190612c31565b6122df565b5b6000808651805187602083010193508088870111156121465787860182525b60208701925050505b6020841061218d57805182526020826121689190612cd3565b91506020816121779190612cd3565b90506020846121869190612e47565b935061214f565b60006001856020036101000a03905080198251168184511681811785525050508692505050949350505050565b6121c78260028351611c8a565b6121da8183611e0f90919063ffffffff16565b505050565b6121e7612370565b8360200151831061220d5761220c84600286602001516122079190612c31565b6122df565b5b83518051602085830101848153818603612228576001820183525b5050508390509392505050565b61223d612370565b8460200151848361224e9190612cd3565b11156122765761227585600286856122669190612cd3565b6122709190612c31565b6122df565b5b60006001836101006122889190613737565b6122929190612e47565b905085518386820101858319825116178152815185880111156122b55784870182525b505085915050949350505050565b6000818311156122d5578290506122d9565b8190505b92915050565b6000826000015190506122f28383611c20565b506122fd8382611e0f565b50505050565b6040518060a0016040528060008019168152602001600073ffffffffffffffffffffffffffffffffffffffff16815260200160007bffffffffffffffffffffffffffffffffffffffffffffffffffffffff191681526020016000815260200161236a612370565b81525090565b604051806040016040528060608152602001600081525090565b600080fd5b600073ffffffffffffffffffffffffffffffffffffffff82169050919050565b60006123ba8261238f565b9050919050565b6123ca816123af565b81146123d557600080fd5b50565b6000813590506123e7816123c1565b92915050565b6000819050919050565b612400816123ed565b811461240b57600080fd5b50565b60008135905061241d816123f7565b92915050565b6000806040838503121561243a5761243961238a565b5b6000612448858286016123d8565b92505060206124598582860161240e565b9150509250929050565b6000819050919050565b61247681612463565b82525050565b6000602082019050612491600083018461246d565b92915050565b6124a0816123ed565b82525050565b60006020820190506124bb6000830184612497565b92915050565b6124ca81612463565b81146124d557600080fd5b50565b6000813590506124e7816124c1565b92915050565b600080604083850312156125045761250361238a565b5b6000612512858286016124d8565b92505060206125238582860161240e565b9150509250929050565b6000806000606084860312156125465761254561238a565b5b6000612554868287016123d8565b9350506020612565868287016123d8565b92505060406125768682870161240e565b9150509250925092565b60008115159050919050565b61259581612580565b82525050565b60006020820190506125b0600083018461258c565b92915050565b6000602082840312156125cc576125cb61238a565b5b60006125da8482850161240e565b91505092915050565b6125ec816123af565b82525050565b600060208201905061260760008301846125e3565b92915050565b6000602082840312156126235761262261238a565b5b6000612631848285016123d8565b91505092915050565b7f4e487b7100000000000000000000000000000000000000000000000000000000600052602260045260246000fd5b6000600282049050600182168061268157607f821691505b6020821081036126945761269361263a565b5b50919050565b600081905092915050565b60008190508160005260206000209050919050565b600081546126c781612669565b6126d1818661269a565b945060018216600081146126ec576001811461270157612734565b60ff1983168652811515820286019350612734565b61270a856126a5565b60005b8381101561272c5781548189015260018201915060208101905061270d565b838801955050505b50505092915050565b7f3f616464726573733d0000000000000000000000000000000000000000000000600082015250565b600061277360098361269a565b915061277e8261273d565b600982019050919050565b600081519050919050565b60005b838110156127b2578082015181840152602081019050612797565b60008484015250505050565b60006127c982612789565b6127d3818561269a565b93506127e3818560208601612794565b80840191505092915050565b7f26746f6b656e49643d0000000000000000000000000000000000000000000000600082015250565b600061282560098361269a565b9150612830826127ef565b600982019050919050565b600061284782866126ba565b915061285282612766565b915061285e82856127be565b915061286982612818565b915061287582846127be565b9150819050949350505050565b600082825260208201905092915050565b7f4e6f20726967687420746f206163636573732100000000000000000000000000600082015250565b60006128c9601383612882565b91506128d482612893565b602082019050919050565b600060208201905081810360008301526128f8816128bc565b9050919050565b7f4e6f2072652d656e7472616e6379210000000000000000000000000000000000600082015250565b6000612935600f83612882565b9150612940826128ff565b602082019050919050565b6000602082019050818103600083015261296481612928565b9050919050565b7f4e487b7100000000000000000000000000000000000000000000000000000000600052600160045260246000fd5b600081905092915050565b50565b60006129b560008361299a565b91506129c0826129a5565b600082019050919050565b60006129d6826129a8565b9150819050919050565b7f4661696c656420746f2073656e642073657276696365206665657320746f206f60008201527f776e657221000000000000000000000000000000000000000000000000000000602082015250565b6000612a3c602583612882565b9150612a47826129e0565b604082019050919050565b60006020820190508181036000830152612a6b81612a2f565b9050919050565b7f536f75726365206d75737420626520746865206f7261636c65206f662074686560008201527f2072657175657374000000000000000000000000000000000000000000000000602082015250565b6000612ace602883612882565b9150612ad982612a72565b604082019050919050565b60006020820190508181036000830152612afd81612ac1565b9050919050565b7f546f6b656e202620726563697069656e742061646472657373657320636f6e6e60008201527f6f74206265205a65726f21000000000000000000000000000000000000000000602082015250565b6000612b60602b83612882565b9150612b6b82612b04565b604082019050919050565b60006020820190508181036000830152612b8f81612b53565b9050919050565b7f496e76616c696420746f6b656e204944206f7220636f6c6c656374696f6e0000600082015250565b6000612bcc601e83612882565b9150612bd782612b96565b602082019050919050565b60006020820190508181036000830152612bfb81612bbf565b9050919050565b7f4e487b7100000000000000000000000000000000000000000000000000000000600052601160045260246000fd5b6000612c3c826123ed565b9150612c47836123ed565b9250828202612c55816123ed565b91508282048414831517612c6c57612c6b612c02565b5b5092915050565b7f4e487b7100000000000000000000000000000000000000000000000000000000600052601260045260246000fd5b6000612cad826123ed565b9150612cb8836123ed565b925082612cc857612cc7612c73565b5b828204905092915050565b6000612cde826123ed565b9150612ce9836123ed565b9250828201905080821115612d0157612d00612c02565b5b92915050565b7f496e73756666696369656e742065746865722070726f76696465642100000000600082015250565b6000612d3d601c83612882565b9150612d4882612d07565b602082019050919050565b60006020820190508181036000830152612d6c81612d30565b9050919050565b600081519050612d82816123c1565b92915050565b600060208284031215612d9e57612d9d61238a565b5b6000612dac84828501612d73565b91505092915050565b7f4661696c656420746f2073656e64204e4654207072696365204574686572207460008201527f6f206f776e657221000000000000000000000000000000000000000000000000602082015250565b6000612e11602883612882565b9150612e1c82612db5565b604082019050919050565b60006020820190508181036000830152612e4081612e04565b9050919050565b6000612e52826123ed565b9150612e5d836123ed565b9250828203905081811115612e7557612e74612c02565b5b92915050565b7f4661696c656420746f2073656e642065786365737320457468657220746f207260008201527f65636970656e7421000000000000000000000000000000000000000000000000602082015250565b6000612ed7602883612882565b9150612ee282612e7b565b604082019050919050565b60006020820190508181036000830152612f0681612eca565b9050919050565b6000606082019050612f2260008301866125e3565b612f2f60208301856125e3565b612f3c6040830184612497565b949350505050565b600081519050612f53816123f7565b92915050565b600060208284031215612f6f57612f6e61238a565b5b6000612f7d84828501612f44565b91505092915050565b6000604082019050612f9b60008301856125e3565b612fa86020830184612497565b9392505050565b612fb881612580565b8114612fc357600080fd5b50565b600081519050612fd581612faf565b92915050565b600060208284031215612ff157612ff061238a565b5b6000612fff84828501612fc6565b91505092915050565b7f4d7573742062652070726f706f736564206f776e657200000000000000000000600082015250565b600061303e601683612882565b915061304982613008565b602082019050919050565b6000602082019050818103600083015261306d81613031565b9050919050565b7f416464726573732063616e6e6f74206265206e756c6c21000000000000000000600082015250565b60006130aa601783612882565b91506130b582613074565b602082019050919050565b600060208201905081810360008301526130d98161309d565b9050919050565b7f4e487b7100000000000000000000000000000000000000000000000000000000600052604160045260246000fd5b7f4e487b7100000000000000000000000000000000000000000000000000000000600052603260045260246000fd5b6000613149826123ed565b91506000820361315c5761315b612c02565b5b600182039050919050565b7f537472696e67733a20686578206c656e67746820696e73756666696369656e74600082015250565b600061319d602083612882565b91506131a882613167565b602082019050919050565b600060208201905081810360008301526131cc81613190565b9050919050565b7f4f6e6c792063616c6c61626c65206279206f776e657200000000000000000000600082015250565b6000613209601683612882565b9150613214826131d3565b602082019050919050565b60006020820190508181036000830152613238816131fc565b9050919050565b7f43616e6e6f74207472616e7366657220746f2073656c66000000000000000000600082015250565b6000613275601783612882565b91506132808261323f565b602082019050919050565b600060208201905081810360008301526132a481613268565b9050919050565b6000819050919050565b60006132c0826132ab565b91506132cb836132ab565b92508282039050818112600084121682821360008512151617156132f2576132f1612c02565b5b92915050565b60007fffffffff0000000000000000000000000000000000000000000000000000000082169050919050565b61332d816132f8565b82525050565b600081519050919050565b600082825260208201905092915050565b6000601f19601f8301169050919050565b600061336b82613333565b613375818561333e565b9350613385818560208601612794565b61338e8161334f565b840191505092915050565b6000610100820190506133af600083018b6125e3565b6133bc602083018a612497565b6133c9604083018961246d565b6133d660608301886125e3565b6133e36080830187613324565b6133f060a0830186612497565b6133fd60c0830185612497565b81810360e083015261340f8184613360565b90509998505050505050505050565b6000613429826123ed565b9150613434836123ed565b92508261344457613443612c73565b5b828206905092915050565b6000819050919050565b600061347461346f61346a8461238f565b61344f565b61238f565b9050919050565b600061348682613459565b9050919050565b60006134988261347b565b9050919050565b60008160601b9050919050565b60006134b78261349f565b9050919050565b60006134c9826134ac565b9050919050565b6134e16134dc8261348d565b6134be565b82525050565b6000819050919050565b6135026134fd826123ed565b6134e7565b82525050565b600061351482856134d0565b60148201915061352482846134f1565b6020820191508190509392505050565b600060608201905061354960008301866125e3565b6135566020830185612497565b81810360408301526135688184613360565b9050949350505050565b7f756e61626c6520746f207472616e73666572416e6443616c6c20746f206f726160008201527f636c650000000000000000000000000000000000000000000000000000000000602082015250565b60006135ce602383612882565b91506135d982613572565b604082019050919050565b600060208201905081810360008301526135fd816135c1565b9050919050565b60008160011c9050919050565b6000808291508390505b600185111561365b5780860481111561363757613636612c02565b5b60018516156136465780820291505b808102905061365485613604565b945061361b565b94509492505050565b6000826136745760019050613730565b816136825760009050613730565b816001811461369857600281146136a2576136d1565b6001915050613730565b60ff8411156136b4576136b3612c02565b5b8360020a9150848211156136cb576136ca612c02565b5b50613730565b5060208310610133831016604e8410600b84101617156137065782820a90508381111561370157613700612c02565b5b613730565b6137138484846001613611565b9250905081840481111561372a57613729612c02565b5b81810290505b9392505050565b6000613742826123ed565b915061374d836123ed565b925061377a7fffffffffffffffffffffffffffffffffffffffffffffffffffffffffffffffff8484613664565b90509291505056fea26469706673582212202d3c28e1f421718750135ab354d0be1deab22275e78ec0345b6f7c05e80060a864736f6c6343000811003368747470733a2f2f6d6f636b692e696f2f76312f31613437343765612d623563312d346131312d386362332d633834313036326135353835",
  "linkReferences": {},
  "deployedLinkReferences": {}
}