{"contracts/nftTransfer.sol":{"NFTMarket":{"abi":[{"inputs":[],"stateMutability":"nonpayable","type":"constructor"},{"anonymous":false,"inputs":[{"indexed":true,"internalType":"bytes32","name":"id","type":"bytes32"}],"name":"ChainlinkCancelled","type":"event"},{"anonymous":false,"inputs":[{"indexed":true,"internalType":"bytes32","name":"id","type":"bytes32"}],"name":"ChainlinkFulfilled","type":"event"},{"anonymous":false,"inputs":[{"indexed":true,"internalType":"bytes32","name":"id","type":"bytes32"}],"name":"ChainlinkRequested","type":"event"},{"anonymous":false,"inputs":[{"indexed":true,"internalType":"address","name":"from","type":"address"},{"indexed":true,"internalType":"address","name":"to","type":"address"}],"name":"OwnershipTransferRequested","type":"event"},{"anonymous":false,"inputs":[{"indexed":true,"internalType":"address","name":"from","type":"address"},{"indexed":true,"internalType":"address","name":"to","type":"address"}],"name":"OwnershipTransferred","type":"event"},{"inputs":[],"name":"acceptOwnership","outputs":[],"stateMutability":"nonpayable","type":"function"},{"inputs":[{"internalType":"address","name":"_owner","type":"address"}],"name":"changeOwner","outputs":[],"stateMutability":"nonpayable","type":"function"},{"inputs":[],"name":"claimServiceFee","outputs":[],"stateMutability":"payable","type":"function"},{"inputs":[{"internalType":"bytes32","name":"_requestId","type":"bytes32"},{"internalType":"uint256","name":"_volume","type":"uint256"}],"name":"fulfill","outputs":[],"stateMutability":"nonpayable","type":"function"},{"inputs":[],"name":"getServiceFee","outputs":[{"internalType":"uint256","name":"serviceCharges","type":"uint256"}],"stateMutability":"view","type":"function"},{"inputs":[],"name":"owner","outputs":[{"internalType":"address","name":"","type":"address"}],"stateMutability":"view","type":"function"},{"inputs":[],"name":"prices","outputs":[{"internalType":"uint256","name":"","type":"uint256"}],"stateMutability":"view","type":"function"},{"inputs":[{"internalType":"address","name":"_collection","type":"address"},{"internalType":"uint256","name":"_tokenId","type":"uint256"}],"name":"requestTokenPrice","outputs":[{"internalType":"bytes32","name":"reqestId","type":"bytes32"}],"stateMutability":"nonpayable","type":"function"},{"inputs":[{"internalType":"uint256","name":"basisPoints","type":"uint256"}],"name":"setServiceFee","outputs":[],"stateMutability":"nonpayable","type":"function"},{"inputs":[{"internalType":"address","name":"_token","type":"address"},{"internalType":"address","name":"_recipient","type":"address"},{"internalType":"uint256","name":"_tokenId","type":"uint256"}],"name":"swapOut","outputs":[],"stateMutability":"payable","type":"function"},{"inputs":[{"internalType":"address","name":"to","type":"address"}],"name":"transferOwnership","outputs":[],"stateMutability":"nonpayable","type":"function"}],"evm":{"bytecode":{"linkReferences":{},"object":"6080604052600160045560646008556000600c553480156200002057600080fd5b50338060008073ffffffffffffffffffffffffffffffffffffffff168273ffffffffffffffffffffffffffffffffffffffff160362000096576040517f08c379a00000000000000000000000000000000000000000000000000000000081526004016200008d9062000426565b60405180910390fd5b81600660006101000a81548173ffffffffffffffffffffffffffffffffffffffff021916908373ffffffffffffffffffffffffffffffffffffffff160217905550600073ffffffffffffffffffffffffffffffffffffffff168173ffffffffffffffffffffffffffffffffffffffff16146200011e576200011d816200020c60201b60201c565b5b505050600060098190555033600d60006101000a81548173ffffffffffffffffffffffffffffffffffffffff021916908373ffffffffffffffffffffffffffffffffffffffff1602179055506200018f73326c977e6efc84e512bb9c30f76e30c160ed06fb6200033d60201b60201c565b620001b473cc79157eb46f5624204f47ab42b3906caa40eab76200038160201b60201c565b7f6361393833363663633733313439353762386330313263373266303561656562600a81905550600a670de0b6b3a76400006001620001f4919062000481565b620002009190620004fb565b600b81905550620005a5565b3373ffffffffffffffffffffffffffffffffffffffff168173ffffffffffffffffffffffffffffffffffffffff16036200027d576040517f08c379a0000000000000000000000000000000000000000000000000000000008152600401620002749062000583565b60405180910390fd5b80600760006101000a81548173ffffffffffffffffffffffffffffffffffffffff021916908373ffffffffffffffffffffffffffffffffffffffff1602179055508073ffffffffffffffffffffffffffffffffffffffff16600660009054906101000a900473ffffffffffffffffffffffffffffffffffffffff1673ffffffffffffffffffffffffffffffffffffffff167fed8889f560326eb138920d842192f0eb3dd22b4f139c87a2c57538e05bae127860405160405180910390a350565b80600260006101000a81548173ffffffffffffffffffffffffffffffffffffffff021916908373ffffffffffffffffffffffffffffffffffffffff16021790555050565b80600360006101000a81548173ffffffffffffffffffffffffffffffffffffffff021916908373ffffffffffffffffffffffffffffffffffffffff16021790555050565b600082825260208201905092915050565b7f43616e6e6f7420736574206f776e657220746f207a65726f0000000000000000600082015250565b60006200040e601883620003c5565b91506200041b82620003d6565b602082019050919050565b600060208201905081810360008301526200044181620003ff565b9050919050565b6000819050919050565b7f4e487b7100000000000000000000000000000000000000000000000000000000600052601160045260246000fd5b60006200048e8262000448565b91506200049b8362000448565b9250828202620004ab8162000448565b91508282048414831517620004c557620004c462000452565b5b5092915050565b7f4e487b7100000000000000000000000000000000000000000000000000000000600052601260045260246000fd5b6000620005088262000448565b9150620005158362000448565b925082620005285762000527620004cc565b5b828204905092915050565b7f43616e6e6f74207472616e7366657220746f2073656c66000000000000000000600082015250565b60006200056b601783620003c5565b9150620005788262000533565b602082019050919050565b600060208201905081810360008301526200059e816200055c565b9050919050565b61315880620005b56000396000f3fe60806040526004361061009c5760003560e01c80635cdf76f8116100645780635cdf76f81461015857806379ba5097146101815780638da5cb5b14610198578063a6f9dae1146101c3578063d3419bf3146101ec578063f2fde38b146102175761009c565b80630bd4fe0f146100a157806311a1933c146100de57806333b3be77146101095780634357855e1461011357806348c314f41461013c575b600080fd5b3480156100ad57600080fd5b506100c860048036038101906100c39190611f53565b610240565b6040516100d59190611fac565b60405180910390f35b3480156100ea57600080fd5b506100f36103de565b6040516101009190611fd6565b60405180910390f35b6101116103e8565b005b34801561011f57600080fd5b5061013a6004803603810190610135919061201d565b6105ec565b005b6101566004803603810190610151919061205d565b6106fd565b005b34801561016457600080fd5b5061017f600480360381019061017a91906120b0565b610aef565b005b34801561018d57600080fd5b50610196610af9565b005b3480156101a457600080fd5b506101ad610c90565b6040516101ba91906120ec565b60405180910390f35b3480156101cf57600080fd5b506101ea60048036038101906101e59190612107565b610cba565b005b3480156101f857600080fd5b50610201610dfd565b60405161020e9190611fd6565b60405180910390f35b34801561022357600080fd5b5061023e60048036038101906102399190612107565b610e03565b005b600080610257600a5430634357855e60e01b610e17565b9050600061027c8573ffffffffffffffffffffffffffffffffffffffff166014610e48565b61028585611084565b604051602001610296929190612289565b60405160208183030381529060405290506102f16040518060400160405280600381526020017f676574000000000000000000000000000000000000000000000000000000000081525082846111529092919063ffffffff16565b6103706040518060400160405280600481526020017f70617468000000000000000000000000000000000000000000000000000000008152506040518060400160405280600581526020017f76616c7565000000000000000000000000000000000000000000000000000000815250846111529092919063ffffffff16565b6000670de0b6b3a764000090506103c76040518060400160405280600581526020017f74696d657300000000000000000000000000000000000000000000000000000081525082856111859092919063ffffffff16565b6103d383600b546111b8565b935050505092915050565b6000600854905090565b3373ffffffffffffffffffffffffffffffffffffffff16600d60009054906101000a900473ffffffffffffffffffffffffffffffffffffffff1673ffffffffffffffffffffffffffffffffffffffff1614610478576040517f08c379a000000000000000000000000000000000000000000000000000000000815260040161046f90612320565b60405180910390fd5b600d60149054906101000a900460ff16156104c8576040517f08c379a00000000000000000000000000000000000000000000000000000000081526004016104bf9061238c565b60405180910390fd5b6001600d60146101000a81548160ff0219169083151502179055506000600c54116104f6576104f56123ac565b5b6000600d60009054906101000a900473ffffffffffffffffffffffffffffffffffffffff1673ffffffffffffffffffffffffffffffffffffffff16600c546040516105409061240c565b60006040518083038185875af1925050503d806000811461057d576040519150601f19603f3d011682016040523d82523d6000602084013e610582565b606091505b50509050806105c6576040517f08c379a00000000000000000000000000000000000000000000000000000000081526004016105bd90612493565b60405180910390fd5b6000600c81905550506000600d60146101000a81548160ff021916908315150217905550565b816005600082815260200190815260200160002060009054906101000a900473ffffffffffffffffffffffffffffffffffffffff1673ffffffffffffffffffffffffffffffffffffffff163373ffffffffffffffffffffffffffffffffffffffff161461068e576040517f08c379a000000000000000000000000000000000000000000000000000000000815260040161068590612525565b60405180910390fd5b6005600082815260200190815260200160002060006101000a81549073ffffffffffffffffffffffffffffffffffffffff0219169055807f7cc135e0cebb02c3480ae5d74d377283180a2601f8f644edf7987b009316c63a60405160405180910390a281600981905550505050565b600d60149054906101000a900460ff161561074d576040517f08c379a00000000000000000000000000000000000000000000000000000000081526004016107449061238c565b60405180910390fd5b6001600d60146101000a81548160ff021916908315150217905550600073ffffffffffffffffffffffffffffffffffffffff168373ffffffffffffffffffffffffffffffffffffffff16141580156107d25750600073ffffffffffffffffffffffffffffffffffffffff168273ffffffffffffffffffffffffffffffffffffffff1614155b610811576040517f08c379a0000000000000000000000000000000000000000000000000000000008152600401610808906125b7565b60405180910390fd5b600060095411610856576040517f08c379a000000000000000000000000000000000000000000000000000000000815260040161084d90612623565b60405180910390fd5b600034905060006127106008546009546108709190612672565b61087a91906126e3565b905080600c600082825461088e9190612714565b92505081905550806009546108a39190612714565b8210156108e5576040517f08c379a00000000000000000000000000000000000000000000000000000000081526004016108dc90612794565b60405180910390fd5b8473ffffffffffffffffffffffffffffffffffffffff166342842e0e3386866040518463ffffffff1660e01b8152600401610922939291906127b4565b600060405180830381600087803b15801561093c57600080fd5b505af1158015610950573d6000803e3d6000fd5b505050506000816009546109649190612714565b8361096f91906127eb565b905060008573ffffffffffffffffffffffffffffffffffffffff16826040516109979061240c565b60006040518083038185875af1925050503d80600081146109d4576040519150601f19603f3d011682016040523d82523d6000602084013e6109d9565b606091505b5050905080610a1d576040517f08c379a0000000000000000000000000000000000000000000000000000000008152600401610a1490612891565b60405180910390fd5b8573ffffffffffffffffffffffffffffffffffffffff16600954604051610a439061240c565b60006040518083038185875af1925050503d8060008114610a80576040519150601f19603f3d011682016040523d82523d6000602084013e610a85565b606091505b50508091505080610acb576040517f08c379a0000000000000000000000000000000000000000000000000000000008152600401610ac290612923565b60405180910390fd5b505050506000600d60146101000a81548160ff021916908315150217905550505050565b8060088190555050565b600760009054906101000a900473ffffffffffffffffffffffffffffffffffffffff1673ffffffffffffffffffffffffffffffffffffffff163373ffffffffffffffffffffffffffffffffffffffff1614610b89576040517f08c379a0000000000000000000000000000000000000000000000000000000008152600401610b809061298f565b60405180910390fd5b6000600660009054906101000a900473ffffffffffffffffffffffffffffffffffffffff16905033600660006101000a81548173ffffffffffffffffffffffffffffffffffffffff021916908373ffffffffffffffffffffffffffffffffffffffff1602179055506000600760006101000a81548173ffffffffffffffffffffffffffffffffffffffff021916908373ffffffffffffffffffffffffffffffffffffffff1602179055503373ffffffffffffffffffffffffffffffffffffffff168173ffffffffffffffffffffffffffffffffffffffff167f8be0079c531659141344cd1fd0a4f28419497f9722a3daafe3b4186f6b6457e060405160405180910390a350565b6000600660009054906101000a900473ffffffffffffffffffffffffffffffffffffffff16905090565b3373ffffffffffffffffffffffffffffffffffffffff16600d60009054906101000a900473ffffffffffffffffffffffffffffffffffffffff1673ffffffffffffffffffffffffffffffffffffffff1614610d4a576040517f08c379a0000000000000000000000000000000000000000000000000000000008152600401610d4190612320565b60405180910390fd5b600073ffffffffffffffffffffffffffffffffffffffff168173ffffffffffffffffffffffffffffffffffffffff1603610db9576040517f08c379a0000000000000000000000000000000000000000000000000000000008152600401610db0906129fb565b60405180910390fd5b80600d60006101000a81548173ffffffffffffffffffffffffffffffffffffffff021916908373ffffffffffffffffffffffffffffffffffffffff16021790555050565b60095481565b610e0b6111ef565b610e1481611281565b50565b610e1f611e33565b610e27611e33565b610e3e858585846113af909392919063ffffffff16565b9150509392505050565b606060006002836002610e5b9190612672565b610e659190612714565b67ffffffffffffffff811115610e7e57610e7d612a1b565b5b6040519080825280601f01601f191660200182016040528015610eb05781602001600182028036833780820191505090505b5090507f300000000000000000000000000000000000000000000000000000000000000081600081518110610ee857610ee7612a4a565b5b60200101907effffffffffffffffffffffffffffffffffffffffffffffffffffffffffffff1916908160001a9053507f780000000000000000000000000000000000000000000000000000000000000081600181518110610f4c57610f4b612a4a565b5b60200101907effffffffffffffffffffffffffffffffffffffffffffffffffffffffffffff1916908160001a90535060006001846002610f8c9190612672565b610f969190612714565b90505b6001811115611036577f3031323334353637383961626364656600000000000000000000000000000000600f861660108110610fd857610fd7612a4a565b5b1a60f81b828281518110610fef57610fee612a4a565b5b60200101907effffffffffffffffffffffffffffffffffffffffffffffffffffffffffffff1916908160001a905350600485901c94508061102f90612a79565b9050610f99565b506000841461107a576040517f08c379a000000000000000000000000000000000000000000000000000000000815260040161107190612aee565b60405180910390fd5b8091505092915050565b6060600060016110938461145f565b01905060008167ffffffffffffffff8111156110b2576110b1612a1b565b5b6040519080825280601f01601f1916602001820160405280156110e45781602001600182028036833780820191505090505b509050600082602001820190505b600115611147578080600190039150507f3031323334353637383961626364656600000000000000000000000000000000600a86061a8153600a858161113b5761113a6126b4565b5b049450600085036110f2575b819350505050919050565b6111698284608001516115b290919063ffffffff16565b6111808184608001516115b290919063ffffffff16565b505050565b61119c8284608001516115b290919063ffffffff16565b6111b38184608001516115d790919063ffffffff16565b505050565b60006111e7600360009054906101000a900473ffffffffffffffffffffffffffffffffffffffff168484611684565b905092915050565b600660009054906101000a900473ffffffffffffffffffffffffffffffffffffffff1673ffffffffffffffffffffffffffffffffffffffff163373ffffffffffffffffffffffffffffffffffffffff161461127f576040517f08c379a000000000000000000000000000000000000000000000000000000000815260040161127690612b5a565b60405180910390fd5b565b3373ffffffffffffffffffffffffffffffffffffffff168173ffffffffffffffffffffffffffffffffffffffff16036112ef576040517f08c379a00000000000000000000000000000000000000000000000000000000081526004016112e690612bc6565b60405180910390fd5b80600760006101000a81548173ffffffffffffffffffffffffffffffffffffffff021916908373ffffffffffffffffffffffffffffffffffffffff1602179055508073ffffffffffffffffffffffffffffffffffffffff16600660009054906101000a900473ffffffffffffffffffffffffffffffffffffffff1673ffffffffffffffffffffffffffffffffffffffff167fed8889f560326eb138920d842192f0eb3dd22b4f139c87a2c57538e05bae127860405160405180910390a350565b6113b7611e33565b6113c78560800151610100611750565b508385600001818152505082856020019073ffffffffffffffffffffffffffffffffffffffff16908173ffffffffffffffffffffffffffffffffffffffff16815250508185604001907bffffffffffffffffffffffffffffffffffffffffffffffffffffffff191690817bffffffffffffffffffffffffffffffffffffffffffffffffffffffff191681525050849050949350505050565b600080600090507a184f03e93ff9f4daa797ed6e38ed64bf6a1f01000000000000000083106114bd577a184f03e93ff9f4daa797ed6e38ed64bf6a1f01000000000000000083816114b3576114b26126b4565b5b0492506040810190505b6d04ee2d6d415b85acef810000000083106114fa576d04ee2d6d415b85acef810000000083816114f0576114ef6126b4565b5b0492506020810190505b662386f26fc10000831061152957662386f26fc10000838161151f5761151e6126b4565b5b0492506010810190505b6305f5e1008310611552576305f5e1008381611548576115476126b4565b5b0492506008810190505b612710831061157757612710838161156d5761156c6126b4565b5b0492506004810190505b6064831061159a57606483816115905761158f6126b4565b5b0492506002810190505b600a83106115a9576001810190505b80915050919050565b6115bf82600383516117ba565b6115d2818361193f90919063ffffffff16565b505050565b7fffffffffffffffffffffffffffffffffffffffffffffffff000000000000000081121561160e576116098282611961565b611680565b67ffffffffffffffff81131561162d5761162882826119d8565b61167f565b6000811261164657611641826000836117ba565b61167e565b61167d826001837fffffffffffffffffffffffffffffffffffffffffffffffffffffffffffffffff6116789190612bf0565b6117ba565b5b5b5b5050565b60008060045490506001816116999190612714565b6004819055506000634042994660e01b60008087600001513089604001518760018c60800151600001516040516024016116da989796959493929190612cd4565b604051602081830303815290604052907bffffffffffffffffffffffffffffffffffffffffffffffffffffffff19166020820180517bffffffffffffffffffffffffffffffffffffffffffffffffffffffff8381831617835250505050905061174586838684611a24565b925050509392505050565b611758611ea0565b60006020836117679190612d59565b14611793576020826117799190612d59565b602061178591906127eb565b826117909190612714565b91505b81836020018181525050604051808452600081528281016020016040525082905092915050565b60178167ffffffffffffffff16116117f1576117eb8160058460ff16901b60ff161784611bb990919063ffffffff16565b5061193a565b60ff8167ffffffffffffffff161161184757611820601860058460ff16901b1784611bb990919063ffffffff16565b506118418167ffffffffffffffff16600185611bd99092919063ffffffff16565b50611939565b61ffff8167ffffffffffffffff161161189e57611877601960058460ff16901b1784611bb990919063ffffffff16565b506118988167ffffffffffffffff16600285611bd99092919063ffffffff16565b50611938565b63ffffffff8167ffffffffffffffff16116118f7576118d0601a60058460ff16901b1784611bb990919063ffffffff16565b506118f18167ffffffffffffffff16600485611bd99092919063ffffffff16565b50611937565b611914601b60058460ff16901b1784611bb990919063ffffffff16565b506119358167ffffffffffffffff16600885611bd99092919063ffffffff16565b505b5b5b5b505050565b611947611ea0565b61195983846000015151848551611bfb565b905092915050565b61197f60036005600660ff16901b1783611bb990919063ffffffff16565b506119d482827fffffffffffffffffffffffffffffffffffffffffffffffffffffffffffffffff6119b09190612bf0565b6040516020016119c09190611fd6565b604051602081830303815290604052611cea565b5050565b6119f660026005600660ff16901b1783611bb990919063ffffffff16565b50611a208282604051602001611a0c9190611fd6565b604051602081830303815290604052611cea565b5050565b60003084604051602001611a39929190612e43565b604051602081830303815290604052805190602001209050846005600083815260200190815260200160002060006101000a81548173ffffffffffffffffffffffffffffffffffffffff021916908373ffffffffffffffffffffffffffffffffffffffff160217905550807fb5e6e01e79f91267dc17b4e6314d5d4d03593d2ceee0fbb452b750bd70ea5af960405160405180910390a2600260009054906101000a900473ffffffffffffffffffffffffffffffffffffffff1673ffffffffffffffffffffffffffffffffffffffff16634000aea08685856040518463ffffffff1660e01b8152600401611b2f93929190612e6f565b6020604051808303816000875af1158015611b4e573d6000803e3d6000fd5b505050506040513d601f19601f82011682018060405250810190611b729190612ee5565b611bb1576040517f08c379a0000000000000000000000000000000000000000000000000000000008152600401611ba890612f84565b60405180910390fd5b949350505050565b611bc1611ea0565b611bd18384600001515184611d0f565b905092915050565b611be1611ea0565b611bf2848560000151518585611d65565b90509392505050565b611c03611ea0565b8251821115611c1157600080fd5b84602001518285611c229190612714565b1115611c5757611c56856002611c4788602001518887611c429190612714565b611df3565b611c519190612672565b611e0f565b5b600080865180518760208301019350808887011115611c765787860182525b60208701925050505b60208410611cbd5780518252602082611c989190612714565b9150602081611ca79190612714565b9050602084611cb691906127eb565b9350611c7f565b60006001856020036101000a03905080198251168184511681811785525050508692505050949350505050565b611cf782600283516117ba565b611d0a818361193f90919063ffffffff16565b505050565b611d17611ea0565b83602001518310611d3d57611d3c8460028660200151611d379190612672565b611e0f565b5b83518051602085830101848153818603611d58576001820183525b5050508390509392505050565b611d6d611ea0565b84602001518483611d7e9190612714565b1115611da657611da58560028685611d969190612714565b611da09190612672565b611e0f565b5b6000600183610100611db891906130d7565b611dc291906127eb565b90508551838682010185831982511617815281518588011115611de55784870182525b505085915050949350505050565b600081831115611e0557829050611e09565b8190505b92915050565b600082600001519050611e228383611750565b50611e2d838261193f565b50505050565b6040518060a0016040528060008019168152602001600073ffffffffffffffffffffffffffffffffffffffff16815260200160007bffffffffffffffffffffffffffffffffffffffffffffffffffffffff1916815260200160008152602001611e9a611ea0565b81525090565b604051806040016040528060608152602001600081525090565b600080fd5b600073ffffffffffffffffffffffffffffffffffffffff82169050919050565b6000611eea82611ebf565b9050919050565b611efa81611edf565b8114611f0557600080fd5b50565b600081359050611f1781611ef1565b92915050565b6000819050919050565b611f3081611f1d565b8114611f3b57600080fd5b50565b600081359050611f4d81611f27565b92915050565b60008060408385031215611f6a57611f69611eba565b5b6000611f7885828601611f08565b9250506020611f8985828601611f3e565b9150509250929050565b6000819050919050565b611fa681611f93565b82525050565b6000602082019050611fc16000830184611f9d565b92915050565b611fd081611f1d565b82525050565b6000602082019050611feb6000830184611fc7565b92915050565b611ffa81611f93565b811461200557600080fd5b50565b60008135905061201781611ff1565b92915050565b6000806040838503121561203457612033611eba565b5b600061204285828601612008565b925050602061205385828601611f3e565b9150509250929050565b60008060006060848603121561207657612075611eba565b5b600061208486828701611f08565b935050602061209586828701611f08565b92505060406120a686828701611f3e565b9150509250925092565b6000602082840312156120c6576120c5611eba565b5b60006120d484828501611f3e565b91505092915050565b6120e681611edf565b82525050565b600060208201905061210160008301846120dd565b92915050565b60006020828403121561211d5761211c611eba565b5b600061212b84828501611f08565b91505092915050565b600081905092915050565b7f68747470733a2f2f6d6f636b692e696f2f76312f31613437343765612d62356360008201527f312d346131312d386362332d6338343130363261353538353f6164647265737360208201527f3d00000000000000000000000000000000000000000000000000000000000000604082015250565b60006121c1604183612134565b91506121cc8261213f565b604182019050919050565b600081519050919050565b60005b838110156122005780820151818401526020810190506121e5565b60008484015250505050565b6000612217826121d7565b6122218185612134565b93506122318185602086016121e2565b80840191505092915050565b7f26746f6b656e49643d0000000000000000000000000000000000000000000000600082015250565b6000612273600983612134565b915061227e8261223d565b600982019050919050565b6000612294826121b4565b91506122a0828561220c565b91506122ab82612266565b91506122b7828461220c565b91508190509392505050565b600082825260208201905092915050565b7f4e6f20726967687420746f206163636573732100000000000000000000000000600082015250565b600061230a6013836122c3565b9150612315826122d4565b602082019050919050565b60006020820190508181036000830152612339816122fd565b9050919050565b7f4e6f2072652d656e7472616e6379000000000000000000000000000000000000600082015250565b6000612376600e836122c3565b915061238182612340565b602082019050919050565b600060208201905081810360008301526123a581612369565b9050919050565b7f4e487b7100000000000000000000000000000000000000000000000000000000600052600160045260246000fd5b600081905092915050565b50565b60006123f66000836123db565b9150612401826123e6565b600082019050919050565b6000612417826123e9565b9150819050919050565b7f4661696c656420746f2073656e642073657276696365206665657320746f206f60008201527f776e657221000000000000000000000000000000000000000000000000000000602082015250565b600061247d6025836122c3565b915061248882612421565b604082019050919050565b600060208201905081810360008301526124ac81612470565b9050919050565b7f536f75726365206d75737420626520746865206f7261636c65206f662074686560008201527f2072657175657374000000000000000000000000000000000000000000000000602082015250565b600061250f6028836122c3565b915061251a826124b3565b604082019050919050565b6000602082019050818103600083015261253e81612502565b9050919050565b7f546f6b656e202620726563697069656e742061646472657373657320636f6e6e60008201527f6f74206265205a65726f21000000000000000000000000000000000000000000602082015250565b60006125a1602b836122c3565b91506125ac82612545565b604082019050919050565b600060208201905081810360008301526125d081612594565b9050919050565b7f496e76616c696420746f6b656e204944206f7220636f6c6c656374696f6e0000600082015250565b600061260d601e836122c3565b9150612618826125d7565b602082019050919050565b6000602082019050818103600083015261263c81612600565b9050919050565b7f4e487b7100000000000000000000000000000000000000000000000000000000600052601160045260246000fd5b600061267d82611f1d565b915061268883611f1d565b925082820261269681611f1d565b915082820484148315176126ad576126ac612643565b5b5092915050565b7f4e487b7100000000000000000000000000000000000000000000000000000000600052601260045260246000fd5b60006126ee82611f1d565b91506126f983611f1d565b925082612709576127086126b4565b5b828204905092915050565b600061271f82611f1d565b915061272a83611f1d565b925082820190508082111561274257612741612643565b5b92915050565b7f496e73756666696369656e742065746865722070726f76696465642100000000600082015250565b600061277e601c836122c3565b915061278982612748565b602082019050919050565b600060208201905081810360008301526127ad81612771565b9050919050565b60006060820190506127c960008301866120dd565b6127d660208301856120dd565b6127e36040830184611fc7565b949350505050565b60006127f682611f1d565b915061280183611f1d565b925082820390508181111561281957612818612643565b5b92915050565b7f4661696c656420746f2073656e642065786365737320457468657220746f207260008201527f65636970656e7421000000000000000000000000000000000000000000000000602082015250565b600061287b6028836122c3565b91506128868261281f565b604082019050919050565b600060208201905081810360008301526128aa8161286e565b9050919050565b7f4661696c656420746f2073656e64204e4654207072696365204574686572207460008201527f6f206f776e657221000000000000000000000000000000000000000000000000602082015250565b600061290d6028836122c3565b9150612918826128b1565b604082019050919050565b6000602082019050818103600083015261293c81612900565b9050919050565b7f4d7573742062652070726f706f736564206f776e657200000000000000000000600082015250565b60006129796016836122c3565b915061298482612943565b602082019050919050565b600060208201905081810360008301526129a88161296c565b9050919050565b7f416464726573732063616e6e6f74206265206e756c6c21000000000000000000600082015250565b60006129e56017836122c3565b91506129f0826129af565b602082019050919050565b60006020820190508181036000830152612a14816129d8565b9050919050565b7f4e487b7100000000000000000000000000000000000000000000000000000000600052604160045260246000fd5b7f4e487b7100000000000000000000000000000000000000000000000000000000600052603260045260246000fd5b6000612a8482611f1d565b915060008203612a9757612a96612643565b5b600182039050919050565b7f537472696e67733a20686578206c656e67746820696e73756666696369656e74600082015250565b6000612ad86020836122c3565b9150612ae382612aa2565b602082019050919050565b60006020820190508181036000830152612b0781612acb565b9050919050565b7f4f6e6c792063616c6c61626c65206279206f776e657200000000000000000000600082015250565b6000612b446016836122c3565b9150612b4f82612b0e565b602082019050919050565b60006020820190508181036000830152612b7381612b37565b9050919050565b7f43616e6e6f74207472616e7366657220746f2073656c66000000000000000000600082015250565b6000612bb06017836122c3565b9150612bbb82612b7a565b602082019050919050565b60006020820190508181036000830152612bdf81612ba3565b9050919050565b6000819050919050565b6000612bfb82612be6565b9150612c0683612be6565b9250828203905081811260008412168282136000851215161715612c2d57612c2c612643565b5b92915050565b60007fffffffff0000000000000000000000000000000000000000000000000000000082169050919050565b612c6881612c33565b82525050565b600081519050919050565b600082825260208201905092915050565b6000601f19601f8301169050919050565b6000612ca682612c6e565b612cb08185612c79565b9350612cc08185602086016121e2565b612cc981612c8a565b840191505092915050565b600061010082019050612cea600083018b6120dd565b612cf7602083018a611fc7565b612d046040830189611f9d565b612d1160608301886120dd565b612d1e6080830187612c5f565b612d2b60a0830186611fc7565b612d3860c0830185611fc7565b81810360e0830152612d4a8184612c9b565b90509998505050505050505050565b6000612d6482611f1d565b9150612d6f83611f1d565b925082612d7f57612d7e6126b4565b5b828206905092915050565b6000819050919050565b6000612daf612daa612da584611ebf565b612d8a565b611ebf565b9050919050565b6000612dc182612d94565b9050919050565b6000612dd382612db6565b9050919050565b60008160601b9050919050565b6000612df282612dda565b9050919050565b6000612e0482612de7565b9050919050565b612e1c612e1782612dc8565b612df9565b82525050565b6000819050919050565b612e3d612e3882611f1d565b612e22565b82525050565b6000612e4f8285612e0b565b601482019150612e5f8284612e2c565b6020820191508190509392505050565b6000606082019050612e8460008301866120dd565b612e916020830185611fc7565b8181036040830152612ea38184612c9b565b9050949350505050565b60008115159050919050565b612ec281612ead565b8114612ecd57600080fd5b50565b600081519050612edf81612eb9565b92915050565b600060208284031215612efb57612efa611eba565b5b6000612f0984828501612ed0565b91505092915050565b7f756e61626c6520746f207472616e73666572416e6443616c6c20746f206f726160008201527f636c650000000000000000000000000000000000000000000000000000000000602082015250565b6000612f6e6023836122c3565b9150612f7982612f12565b604082019050919050565b60006020820190508181036000830152612f9d81612f61565b9050919050565b60008160011c9050919050565b6000808291508390505b6001851115612ffb57808604811115612fd757612fd6612643565b5b6001851615612fe65780820291505b8081029050612ff485612fa4565b9450612fbb565b94509492505050565b60008261301457600190506130d0565b8161302257600090506130d0565b8160018114613038576002811461304257613071565b60019150506130d0565b60ff84111561305457613053612643565b5b8360020a91508482111561306b5761306a612643565b5b506130d0565b5060208310610133831016604e8410600b84101617156130a65782820a9050838111156130a1576130a0612643565b5b6130d0565b6130b38484846001612fb1565b925090508184048111156130ca576130c9612643565b5b81810290505b9392505050565b60006130e282611f1d565b91506130ed83611f1d565b925061311a7fffffffffffffffffffffffffffffffffffffffffffffffffffffffffffffffff8484613004565b90509291505056fea2646970667358221220d4f87e4d27c8bdaf56775692eff3d29826601b0ec1721a7ec794dadf70bc417964736f6c63430008110033","opcodes":"PUSH1 0x80 PUSH1 0x40 MSTORE PUSH1 0x1 PUSH1 0x4 SSTORE PUSH1 0x64 PUSH1 0x8 SSTORE PUSH1 0x0 PUSH1 0xC SSTORE CALLVALUE DUP1 ISZERO PUSH3 0x20 JUMPI PUSH1 0x0 DUP1 REVERT JUMPDEST POP CALLER DUP1 PUSH1 0x0 DUP1 PUSH20 0xFFFFFFFFFFFFFFFFFFFFFFFFFFFFFFFFFFFFFFFF AND DUP3 PUSH20 0xFFFFFFFFFFFFFFFFFFFFFFFFFFFFFFFFFFFFFFFF AND SUB PUSH3 0x96 JUMPI PUSH1 0x40 MLOAD PUSH32 0x8C379A000000000000000000000000000000000000000000000000000000000 DUP2 MSTORE PUSH1 0x4 ADD PUSH3 0x8D SWAP1 PUSH3 0x426 JUMP JUMPDEST PUSH1 0x40 MLOAD DUP1 SWAP2 SUB SWAP1 REVERT JUMPDEST DUP2 PUSH1 0x6 PUSH1 0x0 PUSH2 0x100 EXP DUP2 SLOAD DUP2 PUSH20 0xFFFFFFFFFFFFFFFFFFFFFFFFFFFFFFFFFFFFFFFF MUL NOT AND SWAP1 DUP4 PUSH20 0xFFFFFFFFFFFFFFFFFFFFFFFFFFFFFFFFFFFFFFFF AND MUL OR SWAP1 SSTORE POP PUSH1 0x0 PUSH20 0xFFFFFFFFFFFFFFFFFFFFFFFFFFFFFFFFFFFFFFFF AND DUP2 PUSH20 0xFFFFFFFFFFFFFFFFFFFFFFFFFFFFFFFFFFFFFFFF AND EQ PUSH3 0x11E JUMPI PUSH3 0x11D DUP2 PUSH3 0x20C PUSH1 0x20 SHL PUSH1 0x20 SHR JUMP JUMPDEST JUMPDEST POP POP POP PUSH1 0x0 PUSH1 0x9 DUP2 SWAP1 SSTORE POP CALLER PUSH1 0xD PUSH1 0x0 PUSH2 0x100 EXP DUP2 SLOAD DUP2 PUSH20 0xFFFFFFFFFFFFFFFFFFFFFFFFFFFFFFFFFFFFFFFF MUL NOT AND SWAP1 DUP4 PUSH20 0xFFFFFFFFFFFFFFFFFFFFFFFFFFFFFFFFFFFFFFFF AND MUL OR SWAP1 SSTORE POP PUSH3 0x18F PUSH20 0x326C977E6EFC84E512BB9C30F76E30C160ED06FB PUSH3 0x33D PUSH1 0x20 SHL PUSH1 0x20 SHR JUMP JUMPDEST PUSH3 0x1B4 PUSH20 0xCC79157EB46F5624204F47AB42B3906CAA40EAB7 PUSH3 0x381 PUSH1 0x20 SHL PUSH1 0x20 SHR JUMP JUMPDEST PUSH32 0x6361393833363663633733313439353762386330313263373266303561656562 PUSH1 0xA DUP2 SWAP1 SSTORE POP PUSH1 0xA PUSH8 0xDE0B6B3A7640000 PUSH1 0x1 PUSH3 0x1F4 SWAP2 SWAP1 PUSH3 0x481 JUMP JUMPDEST PUSH3 0x200 SWAP2 SWAP1 PUSH3 0x4FB JUMP JUMPDEST PUSH1 0xB DUP2 SWAP1 SSTORE POP PUSH3 0x5A5 JUMP JUMPDEST CALLER PUSH20 0xFFFFFFFFFFFFFFFFFFFFFFFFFFFFFFFFFFFFFFFF AND DUP2 PUSH20 0xFFFFFFFFFFFFFFFFFFFFFFFFFFFFFFFFFFFFFFFF AND SUB PUSH3 0x27D JUMPI PUSH1 0x40 MLOAD PUSH32 0x8C379A000000000000000000000000000000000000000000000000000000000 DUP2 MSTORE PUSH1 0x4 ADD PUSH3 0x274 SWAP1 PUSH3 0x583 JUMP JUMPDEST PUSH1 0x40 MLOAD DUP1 SWAP2 SUB SWAP1 REVERT JUMPDEST DUP1 PUSH1 0x7 PUSH1 0x0 PUSH2 0x100 EXP DUP2 SLOAD DUP2 PUSH20 0xFFFFFFFFFFFFFFFFFFFFFFFFFFFFFFFFFFFFFFFF MUL NOT AND SWAP1 DUP4 PUSH20 0xFFFFFFFFFFFFFFFFFFFFFFFFFFFFFFFFFFFFFFFF AND MUL OR SWAP1 SSTORE POP DUP1 PUSH20 0xFFFFFFFFFFFFFFFFFFFFFFFFFFFFFFFFFFFFFFFF AND PUSH1 0x6 PUSH1 0x0 SWAP1 SLOAD SWAP1 PUSH2 0x100 EXP SWAP1 DIV PUSH20 0xFFFFFFFFFFFFFFFFFFFFFFFFFFFFFFFFFFFFFFFF AND PUSH20 0xFFFFFFFFFFFFFFFFFFFFFFFFFFFFFFFFFFFFFFFF AND PUSH32 0xED8889F560326EB138920D842192F0EB3DD22B4F139C87A2C57538E05BAE1278 PUSH1 0x40 MLOAD PUSH1 0x40 MLOAD DUP1 SWAP2 SUB SWAP1 LOG3 POP JUMP JUMPDEST DUP1 PUSH1 0x2 PUSH1 0x0 PUSH2 0x100 EXP DUP2 SLOAD DUP2 PUSH20 0xFFFFFFFFFFFFFFFFFFFFFFFFFFFFFFFFFFFFFFFF MUL NOT AND SWAP1 DUP4 PUSH20 0xFFFFFFFFFFFFFFFFFFFFFFFFFFFFFFFFFFFFFFFF AND MUL OR SWAP1 SSTORE POP POP JUMP JUMPDEST DUP1 PUSH1 0x3 PUSH1 0x0 PUSH2 0x100 EXP DUP2 SLOAD DUP2 PUSH20 0xFFFFFFFFFFFFFFFFFFFFFFFFFFFFFFFFFFFFFFFF MUL NOT AND SWAP1 DUP4 PUSH20 0xFFFFFFFFFFFFFFFFFFFFFFFFFFFFFFFFFFFFFFFF AND MUL OR SWAP1 SSTORE POP POP JUMP JUMPDEST PUSH1 0x0 DUP3 DUP3 MSTORE PUSH1 0x20 DUP3 ADD SWAP1 POP SWAP3 SWAP2 POP POP JUMP JUMPDEST PUSH32 0x43616E6E6F7420736574206F776E657220746F207A65726F0000000000000000 PUSH1 0x0 DUP3 ADD MSTORE POP JUMP JUMPDEST PUSH1 0x0 PUSH3 0x40E PUSH1 0x18 DUP4 PUSH3 0x3C5 JUMP JUMPDEST SWAP2 POP PUSH3 0x41B DUP3 PUSH3 0x3D6 JUMP JUMPDEST PUSH1 0x20 DUP3 ADD SWAP1 POP SWAP2 SWAP1 POP JUMP JUMPDEST PUSH1 0x0 PUSH1 0x20 DUP3 ADD SWAP1 POP DUP2 DUP2 SUB PUSH1 0x0 DUP4 ADD MSTORE PUSH3 0x441 DUP2 PUSH3 0x3FF JUMP JUMPDEST SWAP1 POP SWAP2 SWAP1 POP JUMP JUMPDEST PUSH1 0x0 DUP2 SWAP1 POP SWAP2 SWAP1 POP JUMP JUMPDEST PUSH32 0x4E487B7100000000000000000000000000000000000000000000000000000000 PUSH1 0x0 MSTORE PUSH1 0x11 PUSH1 0x4 MSTORE PUSH1 0x24 PUSH1 0x0 REVERT JUMPDEST PUSH1 0x0 PUSH3 0x48E DUP3 PUSH3 0x448 JUMP JUMPDEST SWAP2 POP PUSH3 0x49B DUP4 PUSH3 0x448 JUMP JUMPDEST SWAP3 POP DUP3 DUP3 MUL PUSH3 0x4AB DUP2 PUSH3 0x448 JUMP JUMPDEST SWAP2 POP DUP3 DUP3 DIV DUP5 EQ DUP4 ISZERO OR PUSH3 0x4C5 JUMPI PUSH3 0x4C4 PUSH3 0x452 JUMP JUMPDEST JUMPDEST POP SWAP3 SWAP2 POP POP JUMP JUMPDEST PUSH32 0x4E487B7100000000000000000000000000000000000000000000000000000000 PUSH1 0x0 MSTORE PUSH1 0x12 PUSH1 0x4 MSTORE PUSH1 0x24 PUSH1 0x0 REVERT JUMPDEST PUSH1 0x0 PUSH3 0x508 DUP3 PUSH3 0x448 JUMP JUMPDEST SWAP2 POP PUSH3 0x515 DUP4 PUSH3 0x448 JUMP JUMPDEST SWAP3 POP DUP3 PUSH3 0x528 JUMPI PUSH3 0x527 PUSH3 0x4CC JUMP JUMPDEST JUMPDEST DUP3 DUP3 DIV SWAP1 POP SWAP3 SWAP2 POP POP JUMP JUMPDEST PUSH32 0x43616E6E6F74207472616E7366657220746F2073656C66000000000000000000 PUSH1 0x0 DUP3 ADD MSTORE POP JUMP JUMPDEST PUSH1 0x0 PUSH3 0x56B PUSH1 0x17 DUP4 PUSH3 0x3C5 JUMP JUMPDEST SWAP2 POP PUSH3 0x578 DUP3 PUSH3 0x533 JUMP JUMPDEST PUSH1 0x20 DUP3 ADD SWAP1 POP SWAP2 SWAP1 POP JUMP JUMPDEST PUSH1 0x0 PUSH1 0x20 DUP3 ADD SWAP1 POP DUP2 DUP2 SUB PUSH1 0x0 DUP4 ADD MSTORE PUSH3 0x59E DUP2 PUSH3 0x55C JUMP JUMPDEST SWAP1 POP SWAP2 SWAP1 POP JUMP JUMPDEST PUSH2 0x3158 DUP1 PUSH3 0x5B5 PUSH1 0x0 CODECOPY PUSH1 0x0 RETURN INVALID PUSH1 0x80 PUSH1 0x40 MSTORE PUSH1 0x4 CALLDATASIZE LT PUSH2 0x9C JUMPI PUSH1 0x0 CALLDATALOAD PUSH1 0xE0 SHR DUP1 PUSH4 0x5CDF76F8 GT PUSH2 0x64 JUMPI DUP1 PUSH4 0x5CDF76F8 EQ PUSH2 0x158 JUMPI DUP1 PUSH4 0x79BA5097 EQ PUSH2 0x181 JUMPI DUP1 PUSH4 0x8DA5CB5B EQ PUSH2 0x198 JUMPI DUP1 PUSH4 0xA6F9DAE1 EQ PUSH2 0x1C3 JUMPI DUP1 PUSH4 0xD3419BF3 EQ PUSH2 0x1EC JUMPI DUP1 PUSH4 0xF2FDE38B EQ PUSH2 0x217 JUMPI PUSH2 0x9C JUMP JUMPDEST DUP1 PUSH4 0xBD4FE0F EQ PUSH2 0xA1 JUMPI DUP1 PUSH4 0x11A1933C EQ PUSH2 0xDE JUMPI DUP1 PUSH4 0x33B3BE77 EQ PUSH2 0x109 JUMPI DUP1 PUSH4 0x4357855E EQ PUSH2 0x113 JUMPI DUP1 PUSH4 0x48C314F4 EQ PUSH2 0x13C JUMPI JUMPDEST PUSH1 0x0 DUP1 REVERT JUMPDEST CALLVALUE DUP1 ISZERO PUSH2 0xAD JUMPI PUSH1 0x0 DUP1 REVERT JUMPDEST POP PUSH2 0xC8 PUSH1 0x4 DUP1 CALLDATASIZE SUB DUP2 ADD SWAP1 PUSH2 0xC3 SWAP2 SWAP1 PUSH2 0x1F53 JUMP JUMPDEST PUSH2 0x240 JUMP JUMPDEST PUSH1 0x40 MLOAD PUSH2 0xD5 SWAP2 SWAP1 PUSH2 0x1FAC JUMP JUMPDEST PUSH1 0x40 MLOAD DUP1 SWAP2 SUB SWAP1 RETURN JUMPDEST CALLVALUE DUP1 ISZERO PUSH2 0xEA JUMPI PUSH1 0x0 DUP1 REVERT JUMPDEST POP PUSH2 0xF3 PUSH2 0x3DE JUMP JUMPDEST PUSH1 0x40 MLOAD PUSH2 0x100 SWAP2 SWAP1 PUSH2 0x1FD6 JUMP JUMPDEST PUSH1 0x40 MLOAD DUP1 SWAP2 SUB SWAP1 RETURN JUMPDEST PUSH2 0x111 PUSH2 0x3E8 JUMP JUMPDEST STOP JUMPDEST CALLVALUE DUP1 ISZERO PUSH2 0x11F JUMPI PUSH1 0x0 DUP1 REVERT JUMPDEST POP PUSH2 0x13A PUSH1 0x4 DUP1 CALLDATASIZE SUB DUP2 ADD SWAP1 PUSH2 0x135 SWAP2 SWAP1 PUSH2 0x201D JUMP JUMPDEST PUSH2 0x5EC JUMP JUMPDEST STOP JUMPDEST PUSH2 0x156 PUSH1 0x4 DUP1 CALLDATASIZE SUB DUP2 ADD SWAP1 PUSH2 0x151 SWAP2 SWAP1 PUSH2 0x205D JUMP JUMPDEST PUSH2 0x6FD JUMP JUMPDEST STOP JUMPDEST CALLVALUE DUP1 ISZERO PUSH2 0x164 JUMPI PUSH1 0x0 DUP1 REVERT JUMPDEST POP PUSH2 0x17F PUSH1 0x4 DUP1 CALLDATASIZE SUB DUP2 ADD SWAP1 PUSH2 0x17A SWAP2 SWAP1 PUSH2 0x20B0 JUMP JUMPDEST PUSH2 0xAEF JUMP JUMPDEST STOP JUMPDEST CALLVALUE DUP1 ISZERO PUSH2 0x18D JUMPI PUSH1 0x0 DUP1 REVERT JUMPDEST POP PUSH2 0x196 PUSH2 0xAF9 JUMP JUMPDEST STOP JUMPDEST CALLVALUE DUP1 ISZERO PUSH2 0x1A4 JUMPI PUSH1 0x0 DUP1 REVERT JUMPDEST POP PUSH2 0x1AD PUSH2 0xC90 JUMP JUMPDEST PUSH1 0x40 MLOAD PUSH2 0x1BA SWAP2 SWAP1 PUSH2 0x20EC JUMP JUMPDEST PUSH1 0x40 MLOAD DUP1 SWAP2 SUB SWAP1 RETURN JUMPDEST CALLVALUE DUP1 ISZERO PUSH2 0x1CF JUMPI PUSH1 0x0 DUP1 REVERT JUMPDEST POP PUSH2 0x1EA PUSH1 0x4 DUP1 CALLDATASIZE SUB DUP2 ADD SWAP1 PUSH2 0x1E5 SWAP2 SWAP1 PUSH2 0x2107 JUMP JUMPDEST PUSH2 0xCBA JUMP JUMPDEST STOP JUMPDEST CALLVALUE DUP1 ISZERO PUSH2 0x1F8 JUMPI PUSH1 0x0 DUP1 REVERT JUMPDEST POP PUSH2 0x201 PUSH2 0xDFD JUMP JUMPDEST PUSH1 0x40 MLOAD PUSH2 0x20E SWAP2 SWAP1 PUSH2 0x1FD6 JUMP JUMPDEST PUSH1 0x40 MLOAD DUP1 SWAP2 SUB SWAP1 RETURN JUMPDEST CALLVALUE DUP1 ISZERO PUSH2 0x223 JUMPI PUSH1 0x0 DUP1 REVERT JUMPDEST POP PUSH2 0x23E PUSH1 0x4 DUP1 CALLDATASIZE SUB DUP2 ADD SWAP1 PUSH2 0x239 SWAP2 SWAP1 PUSH2 0x2107 JUMP JUMPDEST PUSH2 0xE03 JUMP JUMPDEST STOP JUMPDEST PUSH1 0x0 DUP1 PUSH2 0x257 PUSH1 0xA SLOAD ADDRESS PUSH4 0x4357855E PUSH1 0xE0 SHL PUSH2 0xE17 JUMP JUMPDEST SWAP1 POP PUSH1 0x0 PUSH2 0x27C DUP6 PUSH20 0xFFFFFFFFFFFFFFFFFFFFFFFFFFFFFFFFFFFFFFFF AND PUSH1 0x14 PUSH2 0xE48 JUMP JUMPDEST PUSH2 0x285 DUP6 PUSH2 0x1084 JUMP JUMPDEST PUSH1 0x40 MLOAD PUSH1 0x20 ADD PUSH2 0x296 SWAP3 SWAP2 SWAP1 PUSH2 0x2289 JUMP JUMPDEST PUSH1 0x40 MLOAD PUSH1 0x20 DUP2 DUP4 SUB SUB DUP2 MSTORE SWAP1 PUSH1 0x40 MSTORE SWAP1 POP PUSH2 0x2F1 PUSH1 0x40 MLOAD DUP1 PUSH1 0x40 ADD PUSH1 0x40 MSTORE DUP1 PUSH1 0x3 DUP2 MSTORE PUSH1 0x20 ADD PUSH32 0x6765740000000000000000000000000000000000000000000000000000000000 DUP2 MSTORE POP DUP3 DUP5 PUSH2 0x1152 SWAP1 SWAP3 SWAP2 SWAP1 PUSH4 0xFFFFFFFF AND JUMP JUMPDEST PUSH2 0x370 PUSH1 0x40 MLOAD DUP1 PUSH1 0x40 ADD PUSH1 0x40 MSTORE DUP1 PUSH1 0x4 DUP2 MSTORE PUSH1 0x20 ADD PUSH32 0x7061746800000000000000000000000000000000000000000000000000000000 DUP2 MSTORE POP PUSH1 0x40 MLOAD DUP1 PUSH1 0x40 ADD PUSH1 0x40 MSTORE DUP1 PUSH1 0x5 DUP2 MSTORE PUSH1 0x20 ADD PUSH32 0x76616C7565000000000000000000000000000000000000000000000000000000 DUP2 MSTORE POP DUP5 PUSH2 0x1152 SWAP1 SWAP3 SWAP2 SWAP1 PUSH4 0xFFFFFFFF AND JUMP JUMPDEST PUSH1 0x0 PUSH8 0xDE0B6B3A7640000 SWAP1 POP PUSH2 0x3C7 PUSH1 0x40 MLOAD DUP1 PUSH1 0x40 ADD PUSH1 0x40 MSTORE DUP1 PUSH1 0x5 DUP2 MSTORE PUSH1 0x20 ADD PUSH32 0x74696D6573000000000000000000000000000000000000000000000000000000 DUP2 MSTORE POP DUP3 DUP6 PUSH2 0x1185 SWAP1 SWAP3 SWAP2 SWAP1 PUSH4 0xFFFFFFFF AND JUMP JUMPDEST PUSH2 0x3D3 DUP4 PUSH1 0xB SLOAD PUSH2 0x11B8 JUMP JUMPDEST SWAP4 POP POP POP POP SWAP3 SWAP2 POP POP JUMP JUMPDEST PUSH1 0x0 PUSH1 0x8 SLOAD SWAP1 POP SWAP1 JUMP JUMPDEST CALLER PUSH20 0xFFFFFFFFFFFFFFFFFFFFFFFFFFFFFFFFFFFFFFFF AND PUSH1 0xD PUSH1 0x0 SWAP1 SLOAD SWAP1 PUSH2 0x100 EXP SWAP1 DIV PUSH20 0xFFFFFFFFFFFFFFFFFFFFFFFFFFFFFFFFFFFFFFFF AND PUSH20 0xFFFFFFFFFFFFFFFFFFFFFFFFFFFFFFFFFFFFFFFF AND EQ PUSH2 0x478 JUMPI PUSH1 0x40 MLOAD PUSH32 0x8C379A000000000000000000000000000000000000000000000000000000000 DUP2 MSTORE PUSH1 0x4 ADD PUSH2 0x46F SWAP1 PUSH2 0x2320 JUMP JUMPDEST PUSH1 0x40 MLOAD DUP1 SWAP2 SUB SWAP1 REVERT JUMPDEST PUSH1 0xD PUSH1 0x14 SWAP1 SLOAD SWAP1 PUSH2 0x100 EXP SWAP1 DIV PUSH1 0xFF AND ISZERO PUSH2 0x4C8 JUMPI PUSH1 0x40 MLOAD PUSH32 0x8C379A000000000000000000000000000000000000000000000000000000000 DUP2 MSTORE PUSH1 0x4 ADD PUSH2 0x4BF SWAP1 PUSH2 0x238C JUMP JUMPDEST PUSH1 0x40 MLOAD DUP1 SWAP2 SUB SWAP1 REVERT JUMPDEST PUSH1 0x1 PUSH1 0xD PUSH1 0x14 PUSH2 0x100 EXP DUP2 SLOAD DUP2 PUSH1 0xFF MUL NOT AND SWAP1 DUP4 ISZERO ISZERO MUL OR SWAP1 SSTORE POP PUSH1 0x0 PUSH1 0xC SLOAD GT PUSH2 0x4F6 JUMPI PUSH2 0x4F5 PUSH2 0x23AC JUMP JUMPDEST JUMPDEST PUSH1 0x0 PUSH1 0xD PUSH1 0x0 SWAP1 SLOAD SWAP1 PUSH2 0x100 EXP SWAP1 DIV PUSH20 0xFFFFFFFFFFFFFFFFFFFFFFFFFFFFFFFFFFFFFFFF AND PUSH20 0xFFFFFFFFFFFFFFFFFFFFFFFFFFFFFFFFFFFFFFFF AND PUSH1 0xC SLOAD PUSH1 0x40 MLOAD PUSH2 0x540 SWAP1 PUSH2 0x240C JUMP JUMPDEST PUSH1 0x0 PUSH1 0x40 MLOAD DUP1 DUP4 SUB DUP2 DUP6 DUP8 GAS CALL SWAP3 POP POP POP RETURNDATASIZE DUP1 PUSH1 0x0 DUP2 EQ PUSH2 0x57D JUMPI PUSH1 0x40 MLOAD SWAP2 POP PUSH1 0x1F NOT PUSH1 0x3F RETURNDATASIZE ADD AND DUP3 ADD PUSH1 0x40 MSTORE RETURNDATASIZE DUP3 MSTORE RETURNDATASIZE PUSH1 0x0 PUSH1 0x20 DUP5 ADD RETURNDATACOPY PUSH2 0x582 JUMP JUMPDEST PUSH1 0x60 SWAP2 POP JUMPDEST POP POP SWAP1 POP DUP1 PUSH2 0x5C6 JUMPI PUSH1 0x40 MLOAD PUSH32 0x8C379A000000000000000000000000000000000000000000000000000000000 DUP2 MSTORE PUSH1 0x4 ADD PUSH2 0x5BD SWAP1 PUSH2 0x2493 JUMP JUMPDEST PUSH1 0x40 MLOAD DUP1 SWAP2 SUB SWAP1 REVERT JUMPDEST PUSH1 0x0 PUSH1 0xC DUP2 SWAP1 SSTORE POP POP PUSH1 0x0 PUSH1 0xD PUSH1 0x14 PUSH2 0x100 EXP DUP2 SLOAD DUP2 PUSH1 0xFF MUL NOT AND SWAP1 DUP4 ISZERO ISZERO MUL OR SWAP1 SSTORE POP JUMP JUMPDEST DUP2 PUSH1 0x5 PUSH1 0x0 DUP3 DUP2 MSTORE PUSH1 0x20 ADD SWAP1 DUP2 MSTORE PUSH1 0x20 ADD PUSH1 0x0 KECCAK256 PUSH1 0x0 SWAP1 SLOAD SWAP1 PUSH2 0x100 EXP SWAP1 DIV PUSH20 0xFFFFFFFFFFFFFFFFFFFFFFFFFFFFFFFFFFFFFFFF AND PUSH20 0xFFFFFFFFFFFFFFFFFFFFFFFFFFFFFFFFFFFFFFFF AND CALLER PUSH20 0xFFFFFFFFFFFFFFFFFFFFFFFFFFFFFFFFFFFFFFFF AND EQ PUSH2 0x68E JUMPI PUSH1 0x40 MLOAD PUSH32 0x8C379A000000000000000000000000000000000000000000000000000000000 DUP2 MSTORE PUSH1 0x4 ADD PUSH2 0x685 SWAP1 PUSH2 0x2525 JUMP JUMPDEST PUSH1 0x40 MLOAD DUP1 SWAP2 SUB SWAP1 REVERT JUMPDEST PUSH1 0x5 PUSH1 0x0 DUP3 DUP2 MSTORE PUSH1 0x20 ADD SWAP1 DUP2 MSTORE PUSH1 0x20 ADD PUSH1 0x0 KECCAK256 PUSH1 0x0 PUSH2 0x100 EXP DUP2 SLOAD SWAP1 PUSH20 0xFFFFFFFFFFFFFFFFFFFFFFFFFFFFFFFFFFFFFFFF MUL NOT AND SWAP1 SSTORE DUP1 PUSH32 0x7CC135E0CEBB02C3480AE5D74D377283180A2601F8F644EDF7987B009316C63A PUSH1 0x40 MLOAD PUSH1 0x40 MLOAD DUP1 SWAP2 SUB SWAP1 LOG2 DUP2 PUSH1 0x9 DUP2 SWAP1 SSTORE POP POP POP POP JUMP JUMPDEST PUSH1 0xD PUSH1 0x14 SWAP1 SLOAD SWAP1 PUSH2 0x100 EXP SWAP1 DIV PUSH1 0xFF AND ISZERO PUSH2 0x74D JUMPI PUSH1 0x40 MLOAD PUSH32 0x8C379A000000000000000000000000000000000000000000000000000000000 DUP2 MSTORE PUSH1 0x4 ADD PUSH2 0x744 SWAP1 PUSH2 0x238C JUMP JUMPDEST PUSH1 0x40 MLOAD DUP1 SWAP2 SUB SWAP1 REVERT JUMPDEST PUSH1 0x1 PUSH1 0xD PUSH1 0x14 PUSH2 0x100 EXP DUP2 SLOAD DUP2 PUSH1 0xFF MUL NOT AND SWAP1 DUP4 ISZERO ISZERO MUL OR SWAP1 SSTORE POP PUSH1 0x0 PUSH20 0xFFFFFFFFFFFFFFFFFFFFFFFFFFFFFFFFFFFFFFFF AND DUP4 PUSH20 0xFFFFFFFFFFFFFFFFFFFFFFFFFFFFFFFFFFFFFFFF AND EQ ISZERO DUP1 ISZERO PUSH2 0x7D2 JUMPI POP PUSH1 0x0 PUSH20 0xFFFFFFFFFFFFFFFFFFFFFFFFFFFFFFFFFFFFFFFF AND DUP3 PUSH20 0xFFFFFFFFFFFFFFFFFFFFFFFFFFFFFFFFFFFFFFFF AND EQ ISZERO JUMPDEST PUSH2 0x811 JUMPI PUSH1 0x40 MLOAD PUSH32 0x8C379A000000000000000000000000000000000000000000000000000000000 DUP2 MSTORE PUSH1 0x4 ADD PUSH2 0x808 SWAP1 PUSH2 0x25B7 JUMP JUMPDEST PUSH1 0x40 MLOAD DUP1 SWAP2 SUB SWAP1 REVERT JUMPDEST PUSH1 0x0 PUSH1 0x9 SLOAD GT PUSH2 0x856 JUMPI PUSH1 0x40 MLOAD PUSH32 0x8C379A000000000000000000000000000000000000000000000000000000000 DUP2 MSTORE PUSH1 0x4 ADD PUSH2 0x84D SWAP1 PUSH2 0x2623 JUMP JUMPDEST PUSH1 0x40 MLOAD DUP1 SWAP2 SUB SWAP1 REVERT JUMPDEST PUSH1 0x0 CALLVALUE SWAP1 POP PUSH1 0x0 PUSH2 0x2710 PUSH1 0x8 SLOAD PUSH1 0x9 SLOAD PUSH2 0x870 SWAP2 SWAP1 PUSH2 0x2672 JUMP JUMPDEST PUSH2 0x87A SWAP2 SWAP1 PUSH2 0x26E3 JUMP JUMPDEST SWAP1 POP DUP1 PUSH1 0xC PUSH1 0x0 DUP3 DUP3 SLOAD PUSH2 0x88E SWAP2 SWAP1 PUSH2 0x2714 JUMP JUMPDEST SWAP3 POP POP DUP2 SWAP1 SSTORE POP DUP1 PUSH1 0x9 SLOAD PUSH2 0x8A3 SWAP2 SWAP1 PUSH2 0x2714 JUMP JUMPDEST DUP3 LT ISZERO PUSH2 0x8E5 JUMPI PUSH1 0x40 MLOAD PUSH32 0x8C379A000000000000000000000000000000000000000000000000000000000 DUP2 MSTORE PUSH1 0x4 ADD PUSH2 0x8DC SWAP1 PUSH2 0x2794 JUMP JUMPDEST PUSH1 0x40 MLOAD DUP1 SWAP2 SUB SWAP1 REVERT JUMPDEST DUP5 PUSH20 0xFFFFFFFFFFFFFFFFFFFFFFFFFFFFFFFFFFFFFFFF AND PUSH4 0x42842E0E CALLER DUP7 DUP7 PUSH1 0x40 MLOAD DUP5 PUSH4 0xFFFFFFFF AND PUSH1 0xE0 SHL DUP2 MSTORE PUSH1 0x4 ADD PUSH2 0x922 SWAP4 SWAP3 SWAP2 SWAP1 PUSH2 0x27B4 JUMP JUMPDEST PUSH1 0x0 PUSH1 0x40 MLOAD DUP1 DUP4 SUB DUP2 PUSH1 0x0 DUP8 DUP1 EXTCODESIZE ISZERO DUP1 ISZERO PUSH2 0x93C JUMPI PUSH1 0x0 DUP1 REVERT JUMPDEST POP GAS CALL ISZERO DUP1 ISZERO PUSH2 0x950 JUMPI RETURNDATASIZE PUSH1 0x0 DUP1 RETURNDATACOPY RETURNDATASIZE PUSH1 0x0 REVERT JUMPDEST POP POP POP POP PUSH1 0x0 DUP2 PUSH1 0x9 SLOAD PUSH2 0x964 SWAP2 SWAP1 PUSH2 0x2714 JUMP JUMPDEST DUP4 PUSH2 0x96F SWAP2 SWAP1 PUSH2 0x27EB JUMP JUMPDEST SWAP1 POP PUSH1 0x0 DUP6 PUSH20 0xFFFFFFFFFFFFFFFFFFFFFFFFFFFFFFFFFFFFFFFF AND DUP3 PUSH1 0x40 MLOAD PUSH2 0x997 SWAP1 PUSH2 0x240C JUMP JUMPDEST PUSH1 0x0 PUSH1 0x40 MLOAD DUP1 DUP4 SUB DUP2 DUP6 DUP8 GAS CALL SWAP3 POP POP POP RETURNDATASIZE DUP1 PUSH1 0x0 DUP2 EQ PUSH2 0x9D4 JUMPI PUSH1 0x40 MLOAD SWAP2 POP PUSH1 0x1F NOT PUSH1 0x3F RETURNDATASIZE ADD AND DUP3 ADD PUSH1 0x40 MSTORE RETURNDATASIZE DUP3 MSTORE RETURNDATASIZE PUSH1 0x0 PUSH1 0x20 DUP5 ADD RETURNDATACOPY PUSH2 0x9D9 JUMP JUMPDEST PUSH1 0x60 SWAP2 POP JUMPDEST POP POP SWAP1 POP DUP1 PUSH2 0xA1D JUMPI PUSH1 0x40 MLOAD PUSH32 0x8C379A000000000000000000000000000000000000000000000000000000000 DUP2 MSTORE PUSH1 0x4 ADD PUSH2 0xA14 SWAP1 PUSH2 0x2891 JUMP JUMPDEST PUSH1 0x40 MLOAD DUP1 SWAP2 SUB SWAP1 REVERT JUMPDEST DUP6 PUSH20 0xFFFFFFFFFFFFFFFFFFFFFFFFFFFFFFFFFFFFFFFF AND PUSH1 0x9 SLOAD PUSH1 0x40 MLOAD PUSH2 0xA43 SWAP1 PUSH2 0x240C JUMP JUMPDEST PUSH1 0x0 PUSH1 0x40 MLOAD DUP1 DUP4 SUB DUP2 DUP6 DUP8 GAS CALL SWAP3 POP POP POP RETURNDATASIZE DUP1 PUSH1 0x0 DUP2 EQ PUSH2 0xA80 JUMPI PUSH1 0x40 MLOAD SWAP2 POP PUSH1 0x1F NOT PUSH1 0x3F RETURNDATASIZE ADD AND DUP3 ADD PUSH1 0x40 MSTORE RETURNDATASIZE DUP3 MSTORE RETURNDATASIZE PUSH1 0x0 PUSH1 0x20 DUP5 ADD RETURNDATACOPY PUSH2 0xA85 JUMP JUMPDEST PUSH1 0x60 SWAP2 POP JUMPDEST POP POP DUP1 SWAP2 POP POP DUP1 PUSH2 0xACB JUMPI PUSH1 0x40 MLOAD PUSH32 0x8C379A000000000000000000000000000000000000000000000000000000000 DUP2 MSTORE PUSH1 0x4 ADD PUSH2 0xAC2 SWAP1 PUSH2 0x2923 JUMP JUMPDEST PUSH1 0x40 MLOAD DUP1 SWAP2 SUB SWAP1 REVERT JUMPDEST POP POP POP POP PUSH1 0x0 PUSH1 0xD PUSH1 0x14 PUSH2 0x100 EXP DUP2 SLOAD DUP2 PUSH1 0xFF MUL NOT AND SWAP1 DUP4 ISZERO ISZERO MUL OR SWAP1 SSTORE POP POP POP POP JUMP JUMPDEST DUP1 PUSH1 0x8 DUP2 SWAP1 SSTORE POP POP JUMP JUMPDEST PUSH1 0x7 PUSH1 0x0 SWAP1 SLOAD SWAP1 PUSH2 0x100 EXP SWAP1 DIV PUSH20 0xFFFFFFFFFFFFFFFFFFFFFFFFFFFFFFFFFFFFFFFF AND PUSH20 0xFFFFFFFFFFFFFFFFFFFFFFFFFFFFFFFFFFFFFFFF AND CALLER PUSH20 0xFFFFFFFFFFFFFFFFFFFFFFFFFFFFFFFFFFFFFFFF AND EQ PUSH2 0xB89 JUMPI PUSH1 0x40 MLOAD PUSH32 0x8C379A000000000000000000000000000000000000000000000000000000000 DUP2 MSTORE PUSH1 0x4 ADD PUSH2 0xB80 SWAP1 PUSH2 0x298F JUMP JUMPDEST PUSH1 0x40 MLOAD DUP1 SWAP2 SUB SWAP1 REVERT JUMPDEST PUSH1 0x0 PUSH1 0x6 PUSH1 0x0 SWAP1 SLOAD SWAP1 PUSH2 0x100 EXP SWAP1 DIV PUSH20 0xFFFFFFFFFFFFFFFFFFFFFFFFFFFFFFFFFFFFFFFF AND SWAP1 POP CALLER PUSH1 0x6 PUSH1 0x0 PUSH2 0x100 EXP DUP2 SLOAD DUP2 PUSH20 0xFFFFFFFFFFFFFFFFFFFFFFFFFFFFFFFFFFFFFFFF MUL NOT AND SWAP1 DUP4 PUSH20 0xFFFFFFFFFFFFFFFFFFFFFFFFFFFFFFFFFFFFFFFF AND MUL OR SWAP1 SSTORE POP PUSH1 0x0 PUSH1 0x7 PUSH1 0x0 PUSH2 0x100 EXP DUP2 SLOAD DUP2 PUSH20 0xFFFFFFFFFFFFFFFFFFFFFFFFFFFFFFFFFFFFFFFF MUL NOT AND SWAP1 DUP4 PUSH20 0xFFFFFFFFFFFFFFFFFFFFFFFFFFFFFFFFFFFFFFFF AND MUL OR SWAP1 SSTORE POP CALLER PUSH20 0xFFFFFFFFFFFFFFFFFFFFFFFFFFFFFFFFFFFFFFFF AND DUP2 PUSH20 0xFFFFFFFFFFFFFFFFFFFFFFFFFFFFFFFFFFFFFFFF AND PUSH32 0x8BE0079C531659141344CD1FD0A4F28419497F9722A3DAAFE3B4186F6B6457E0 PUSH1 0x40 MLOAD PUSH1 0x40 MLOAD DUP1 SWAP2 SUB SWAP1 LOG3 POP JUMP JUMPDEST PUSH1 0x0 PUSH1 0x6 PUSH1 0x0 SWAP1 SLOAD SWAP1 PUSH2 0x100 EXP SWAP1 DIV PUSH20 0xFFFFFFFFFFFFFFFFFFFFFFFFFFFFFFFFFFFFFFFF AND SWAP1 POP SWAP1 JUMP JUMPDEST CALLER PUSH20 0xFFFFFFFFFFFFFFFFFFFFFFFFFFFFFFFFFFFFFFFF AND PUSH1 0xD PUSH1 0x0 SWAP1 SLOAD SWAP1 PUSH2 0x100 EXP SWAP1 DIV PUSH20 0xFFFFFFFFFFFFFFFFFFFFFFFFFFFFFFFFFFFFFFFF AND PUSH20 0xFFFFFFFFFFFFFFFFFFFFFFFFFFFFFFFFFFFFFFFF AND EQ PUSH2 0xD4A JUMPI PUSH1 0x40 MLOAD PUSH32 0x8C379A000000000000000000000000000000000000000000000000000000000 DUP2 MSTORE PUSH1 0x4 ADD PUSH2 0xD41 SWAP1 PUSH2 0x2320 JUMP JUMPDEST PUSH1 0x40 MLOAD DUP1 SWAP2 SUB SWAP1 REVERT JUMPDEST PUSH1 0x0 PUSH20 0xFFFFFFFFFFFFFFFFFFFFFFFFFFFFFFFFFFFFFFFF AND DUP2 PUSH20 0xFFFFFFFFFFFFFFFFFFFFFFFFFFFFFFFFFFFFFFFF AND SUB PUSH2 0xDB9 JUMPI PUSH1 0x40 MLOAD PUSH32 0x8C379A000000000000000000000000000000000000000000000000000000000 DUP2 MSTORE PUSH1 0x4 ADD PUSH2 0xDB0 SWAP1 PUSH2 0x29FB JUMP JUMPDEST PUSH1 0x40 MLOAD DUP1 SWAP2 SUB SWAP1 REVERT JUMPDEST DUP1 PUSH1 0xD PUSH1 0x0 PUSH2 0x100 EXP DUP2 SLOAD DUP2 PUSH20 0xFFFFFFFFFFFFFFFFFFFFFFFFFFFFFFFFFFFFFFFF MUL NOT AND SWAP1 DUP4 PUSH20 0xFFFFFFFFFFFFFFFFFFFFFFFFFFFFFFFFFFFFFFFF AND MUL OR SWAP1 SSTORE POP POP JUMP JUMPDEST PUSH1 0x9 SLOAD DUP2 JUMP JUMPDEST PUSH2 0xE0B PUSH2 0x11EF JUMP JUMPDEST PUSH2 0xE14 DUP2 PUSH2 0x1281 JUMP JUMPDEST POP JUMP JUMPDEST PUSH2 0xE1F PUSH2 0x1E33 JUMP JUMPDEST PUSH2 0xE27 PUSH2 0x1E33 JUMP JUMPDEST PUSH2 0xE3E DUP6 DUP6 DUP6 DUP5 PUSH2 0x13AF SWAP1 SWAP4 SWAP3 SWAP2 SWAP1 PUSH4 0xFFFFFFFF AND JUMP JUMPDEST SWAP2 POP POP SWAP4 SWAP3 POP POP POP JUMP JUMPDEST PUSH1 0x60 PUSH1 0x0 PUSH1 0x2 DUP4 PUSH1 0x2 PUSH2 0xE5B SWAP2 SWAP1 PUSH2 0x2672 JUMP JUMPDEST PUSH2 0xE65 SWAP2 SWAP1 PUSH2 0x2714 JUMP JUMPDEST PUSH8 0xFFFFFFFFFFFFFFFF DUP2 GT ISZERO PUSH2 0xE7E JUMPI PUSH2 0xE7D PUSH2 0x2A1B JUMP JUMPDEST JUMPDEST PUSH1 0x40 MLOAD SWAP1 DUP1 DUP3 MSTORE DUP1 PUSH1 0x1F ADD PUSH1 0x1F NOT AND PUSH1 0x20 ADD DUP3 ADD PUSH1 0x40 MSTORE DUP1 ISZERO PUSH2 0xEB0 JUMPI DUP2 PUSH1 0x20 ADD PUSH1 0x1 DUP3 MUL DUP1 CALLDATASIZE DUP4 CALLDATACOPY DUP1 DUP3 ADD SWAP2 POP POP SWAP1 POP JUMPDEST POP SWAP1 POP PUSH32 0x3000000000000000000000000000000000000000000000000000000000000000 DUP2 PUSH1 0x0 DUP2 MLOAD DUP2 LT PUSH2 0xEE8 JUMPI PUSH2 0xEE7 PUSH2 0x2A4A JUMP JUMPDEST JUMPDEST PUSH1 0x20 ADD ADD SWAP1 PUSH31 0xFFFFFFFFFFFFFFFFFFFFFFFFFFFFFFFFFFFFFFFFFFFFFFFFFFFFFFFFFFFFFF NOT AND SWAP1 DUP2 PUSH1 0x0 BYTE SWAP1 MSTORE8 POP PUSH32 0x7800000000000000000000000000000000000000000000000000000000000000 DUP2 PUSH1 0x1 DUP2 MLOAD DUP2 LT PUSH2 0xF4C JUMPI PUSH2 0xF4B PUSH2 0x2A4A JUMP JUMPDEST JUMPDEST PUSH1 0x20 ADD ADD SWAP1 PUSH31 0xFFFFFFFFFFFFFFFFFFFFFFFFFFFFFFFFFFFFFFFFFFFFFFFFFFFFFFFFFFFFFF NOT AND SWAP1 DUP2 PUSH1 0x0 BYTE SWAP1 MSTORE8 POP PUSH1 0x0 PUSH1 0x1 DUP5 PUSH1 0x2 PUSH2 0xF8C SWAP2 SWAP1 PUSH2 0x2672 JUMP JUMPDEST PUSH2 0xF96 SWAP2 SWAP1 PUSH2 0x2714 JUMP JUMPDEST SWAP1 POP JUMPDEST PUSH1 0x1 DUP2 GT ISZERO PUSH2 0x1036 JUMPI PUSH32 0x3031323334353637383961626364656600000000000000000000000000000000 PUSH1 0xF DUP7 AND PUSH1 0x10 DUP2 LT PUSH2 0xFD8 JUMPI PUSH2 0xFD7 PUSH2 0x2A4A JUMP JUMPDEST JUMPDEST BYTE PUSH1 0xF8 SHL DUP3 DUP3 DUP2 MLOAD DUP2 LT PUSH2 0xFEF JUMPI PUSH2 0xFEE PUSH2 0x2A4A JUMP JUMPDEST JUMPDEST PUSH1 0x20 ADD ADD SWAP1 PUSH31 0xFFFFFFFFFFFFFFFFFFFFFFFFFFFFFFFFFFFFFFFFFFFFFFFFFFFFFFFFFFFFFF NOT AND SWAP1 DUP2 PUSH1 0x0 BYTE SWAP1 MSTORE8 POP PUSH1 0x4 DUP6 SWAP1 SHR SWAP5 POP DUP1 PUSH2 0x102F SWAP1 PUSH2 0x2A79 JUMP JUMPDEST SWAP1 POP PUSH2 0xF99 JUMP JUMPDEST POP PUSH1 0x0 DUP5 EQ PUSH2 0x107A JUMPI PUSH1 0x40 MLOAD PUSH32 0x8C379A000000000000000000000000000000000000000000000000000000000 DUP2 MSTORE PUSH1 0x4 ADD PUSH2 0x1071 SWAP1 PUSH2 0x2AEE JUMP JUMPDEST PUSH1 0x40 MLOAD DUP1 SWAP2 SUB SWAP1 REVERT JUMPDEST DUP1 SWAP2 POP POP SWAP3 SWAP2 POP POP JUMP JUMPDEST PUSH1 0x60 PUSH1 0x0 PUSH1 0x1 PUSH2 0x1093 DUP5 PUSH2 0x145F JUMP JUMPDEST ADD SWAP1 POP PUSH1 0x0 DUP2 PUSH8 0xFFFFFFFFFFFFFFFF DUP2 GT ISZERO PUSH2 0x10B2 JUMPI PUSH2 0x10B1 PUSH2 0x2A1B JUMP JUMPDEST JUMPDEST PUSH1 0x40 MLOAD SWAP1 DUP1 DUP3 MSTORE DUP1 PUSH1 0x1F ADD PUSH1 0x1F NOT AND PUSH1 0x20 ADD DUP3 ADD PUSH1 0x40 MSTORE DUP1 ISZERO PUSH2 0x10E4 JUMPI DUP2 PUSH1 0x20 ADD PUSH1 0x1 DUP3 MUL DUP1 CALLDATASIZE DUP4 CALLDATACOPY DUP1 DUP3 ADD SWAP2 POP POP SWAP1 POP JUMPDEST POP SWAP1 POP PUSH1 0x0 DUP3 PUSH1 0x20 ADD DUP3 ADD SWAP1 POP JUMPDEST PUSH1 0x1 ISZERO PUSH2 0x1147 JUMPI DUP1 DUP1 PUSH1 0x1 SWAP1 SUB SWAP2 POP POP PUSH32 0x3031323334353637383961626364656600000000000000000000000000000000 PUSH1 0xA DUP7 MOD BYTE DUP2 MSTORE8 PUSH1 0xA DUP6 DUP2 PUSH2 0x113B JUMPI PUSH2 0x113A PUSH2 0x26B4 JUMP JUMPDEST JUMPDEST DIV SWAP5 POP PUSH1 0x0 DUP6 SUB PUSH2 0x10F2 JUMPI JUMPDEST DUP2 SWAP4 POP POP POP POP SWAP2 SWAP1 POP JUMP JUMPDEST PUSH2 0x1169 DUP3 DUP5 PUSH1 0x80 ADD MLOAD PUSH2 0x15B2 SWAP1 SWAP2 SWAP1 PUSH4 0xFFFFFFFF AND JUMP JUMPDEST PUSH2 0x1180 DUP2 DUP5 PUSH1 0x80 ADD MLOAD PUSH2 0x15B2 SWAP1 SWAP2 SWAP1 PUSH4 0xFFFFFFFF AND JUMP JUMPDEST POP POP POP JUMP JUMPDEST PUSH2 0x119C DUP3 DUP5 PUSH1 0x80 ADD MLOAD PUSH2 0x15B2 SWAP1 SWAP2 SWAP1 PUSH4 0xFFFFFFFF AND JUMP JUMPDEST PUSH2 0x11B3 DUP2 DUP5 PUSH1 0x80 ADD MLOAD PUSH2 0x15D7 SWAP1 SWAP2 SWAP1 PUSH4 0xFFFFFFFF AND JUMP JUMPDEST POP POP POP JUMP JUMPDEST PUSH1 0x0 PUSH2 0x11E7 PUSH1 0x3 PUSH1 0x0 SWAP1 SLOAD SWAP1 PUSH2 0x100 EXP SWAP1 DIV PUSH20 0xFFFFFFFFFFFFFFFFFFFFFFFFFFFFFFFFFFFFFFFF AND DUP5 DUP5 PUSH2 0x1684 JUMP JUMPDEST SWAP1 POP SWAP3 SWAP2 POP POP JUMP JUMPDEST PUSH1 0x6 PUSH1 0x0 SWAP1 SLOAD SWAP1 PUSH2 0x100 EXP SWAP1 DIV PUSH20 0xFFFFFFFFFFFFFFFFFFFFFFFFFFFFFFFFFFFFFFFF AND PUSH20 0xFFFFFFFFFFFFFFFFFFFFFFFFFFFFFFFFFFFFFFFF AND CALLER PUSH20 0xFFFFFFFFFFFFFFFFFFFFFFFFFFFFFFFFFFFFFFFF AND EQ PUSH2 0x127F JUMPI PUSH1 0x40 MLOAD PUSH32 0x8C379A000000000000000000000000000000000000000000000000000000000 DUP2 MSTORE PUSH1 0x4 ADD PUSH2 0x1276 SWAP1 PUSH2 0x2B5A JUMP JUMPDEST PUSH1 0x40 MLOAD DUP1 SWAP2 SUB SWAP1 REVERT JUMPDEST JUMP JUMPDEST CALLER PUSH20 0xFFFFFFFFFFFFFFFFFFFFFFFFFFFFFFFFFFFFFFFF AND DUP2 PUSH20 0xFFFFFFFFFFFFFFFFFFFFFFFFFFFFFFFFFFFFFFFF AND SUB PUSH2 0x12EF JUMPI PUSH1 0x40 MLOAD PUSH32 0x8C379A000000000000000000000000000000000000000000000000000000000 DUP2 MSTORE PUSH1 0x4 ADD PUSH2 0x12E6 SWAP1 PUSH2 0x2BC6 JUMP JUMPDEST PUSH1 0x40 MLOAD DUP1 SWAP2 SUB SWAP1 REVERT JUMPDEST DUP1 PUSH1 0x7 PUSH1 0x0 PUSH2 0x100 EXP DUP2 SLOAD DUP2 PUSH20 0xFFFFFFFFFFFFFFFFFFFFFFFFFFFFFFFFFFFFFFFF MUL NOT AND SWAP1 DUP4 PUSH20 0xFFFFFFFFFFFFFFFFFFFFFFFFFFFFFFFFFFFFFFFF AND MUL OR SWAP1 SSTORE POP DUP1 PUSH20 0xFFFFFFFFFFFFFFFFFFFFFFFFFFFFFFFFFFFFFFFF AND PUSH1 0x6 PUSH1 0x0 SWAP1 SLOAD SWAP1 PUSH2 0x100 EXP SWAP1 DIV PUSH20 0xFFFFFFFFFFFFFFFFFFFFFFFFFFFFFFFFFFFFFFFF AND PUSH20 0xFFFFFFFFFFFFFFFFFFFFFFFFFFFFFFFFFFFFFFFF AND PUSH32 0xED8889F560326EB138920D842192F0EB3DD22B4F139C87A2C57538E05BAE1278 PUSH1 0x40 MLOAD PUSH1 0x40 MLOAD DUP1 SWAP2 SUB SWAP1 LOG3 POP JUMP JUMPDEST PUSH2 0x13B7 PUSH2 0x1E33 JUMP JUMPDEST PUSH2 0x13C7 DUP6 PUSH1 0x80 ADD MLOAD PUSH2 0x100 PUSH2 0x1750 JUMP JUMPDEST POP DUP4 DUP6 PUSH1 0x0 ADD DUP2 DUP2 MSTORE POP POP DUP3 DUP6 PUSH1 0x20 ADD SWAP1 PUSH20 0xFFFFFFFFFFFFFFFFFFFFFFFFFFFFFFFFFFFFFFFF AND SWAP1 DUP2 PUSH20 0xFFFFFFFFFFFFFFFFFFFFFFFFFFFFFFFFFFFFFFFF AND DUP2 MSTORE POP POP DUP2 DUP6 PUSH1 0x40 ADD SWAP1 PUSH28 0xFFFFFFFFFFFFFFFFFFFFFFFFFFFFFFFFFFFFFFFFFFFFFFFFFFFFFFFF NOT AND SWAP1 DUP2 PUSH28 0xFFFFFFFFFFFFFFFFFFFFFFFFFFFFFFFFFFFFFFFFFFFFFFFFFFFFFFFF NOT AND DUP2 MSTORE POP POP DUP5 SWAP1 POP SWAP5 SWAP4 POP POP POP POP JUMP JUMPDEST PUSH1 0x0 DUP1 PUSH1 0x0 SWAP1 POP PUSH27 0x184F03E93FF9F4DAA797ED6E38ED64BF6A1F010000000000000000 DUP4 LT PUSH2 0x14BD JUMPI PUSH27 0x184F03E93FF9F4DAA797ED6E38ED64BF6A1F010000000000000000 DUP4 DUP2 PUSH2 0x14B3 JUMPI PUSH2 0x14B2 PUSH2 0x26B4 JUMP JUMPDEST JUMPDEST DIV SWAP3 POP PUSH1 0x40 DUP2 ADD SWAP1 POP JUMPDEST PUSH14 0x4EE2D6D415B85ACEF8100000000 DUP4 LT PUSH2 0x14FA JUMPI PUSH14 0x4EE2D6D415B85ACEF8100000000 DUP4 DUP2 PUSH2 0x14F0 JUMPI PUSH2 0x14EF PUSH2 0x26B4 JUMP JUMPDEST JUMPDEST DIV SWAP3 POP PUSH1 0x20 DUP2 ADD SWAP1 POP JUMPDEST PUSH7 0x2386F26FC10000 DUP4 LT PUSH2 0x1529 JUMPI PUSH7 0x2386F26FC10000 DUP4 DUP2 PUSH2 0x151F JUMPI PUSH2 0x151E PUSH2 0x26B4 JUMP JUMPDEST JUMPDEST DIV SWAP3 POP PUSH1 0x10 DUP2 ADD SWAP1 POP JUMPDEST PUSH4 0x5F5E100 DUP4 LT PUSH2 0x1552 JUMPI PUSH4 0x5F5E100 DUP4 DUP2 PUSH2 0x1548 JUMPI PUSH2 0x1547 PUSH2 0x26B4 JUMP JUMPDEST JUMPDEST DIV SWAP3 POP PUSH1 0x8 DUP2 ADD SWAP1 POP JUMPDEST PUSH2 0x2710 DUP4 LT PUSH2 0x1577 JUMPI PUSH2 0x2710 DUP4 DUP2 PUSH2 0x156D JUMPI PUSH2 0x156C PUSH2 0x26B4 JUMP JUMPDEST JUMPDEST DIV SWAP3 POP PUSH1 0x4 DUP2 ADD SWAP1 POP JUMPDEST PUSH1 0x64 DUP4 LT PUSH2 0x159A JUMPI PUSH1 0x64 DUP4 DUP2 PUSH2 0x1590 JUMPI PUSH2 0x158F PUSH2 0x26B4 JUMP JUMPDEST JUMPDEST DIV SWAP3 POP PUSH1 0x2 DUP2 ADD SWAP1 POP JUMPDEST PUSH1 0xA DUP4 LT PUSH2 0x15A9 JUMPI PUSH1 0x1 DUP2 ADD SWAP1 POP JUMPDEST DUP1 SWAP2 POP POP SWAP2 SWAP1 POP JUMP JUMPDEST PUSH2 0x15BF DUP3 PUSH1 0x3 DUP4 MLOAD PUSH2 0x17BA JUMP JUMPDEST PUSH2 0x15D2 DUP2 DUP4 PUSH2 0x193F SWAP1 SWAP2 SWAP1 PUSH4 0xFFFFFFFF AND JUMP JUMPDEST POP POP POP JUMP JUMPDEST PUSH32 0xFFFFFFFFFFFFFFFFFFFFFFFFFFFFFFFFFFFFFFFFFFFFFFFF0000000000000000 DUP2 SLT ISZERO PUSH2 0x160E JUMPI PUSH2 0x1609 DUP3 DUP3 PUSH2 0x1961 JUMP JUMPDEST PUSH2 0x1680 JUMP JUMPDEST PUSH8 0xFFFFFFFFFFFFFFFF DUP2 SGT ISZERO PUSH2 0x162D JUMPI PUSH2 0x1628 DUP3 DUP3 PUSH2 0x19D8 JUMP JUMPDEST PUSH2 0x167F JUMP JUMPDEST PUSH1 0x0 DUP2 SLT PUSH2 0x1646 JUMPI PUSH2 0x1641 DUP3 PUSH1 0x0 DUP4 PUSH2 0x17BA JUMP JUMPDEST PUSH2 0x167E JUMP JUMPDEST PUSH2 0x167D DUP3 PUSH1 0x1 DUP4 PUSH32 0xFFFFFFFFFFFFFFFFFFFFFFFFFFFFFFFFFFFFFFFFFFFFFFFFFFFFFFFFFFFFFFFF PUSH2 0x1678 SWAP2 SWAP1 PUSH2 0x2BF0 JUMP JUMPDEST PUSH2 0x17BA JUMP JUMPDEST JUMPDEST JUMPDEST JUMPDEST POP POP JUMP JUMPDEST PUSH1 0x0 DUP1 PUSH1 0x4 SLOAD SWAP1 POP PUSH1 0x1 DUP2 PUSH2 0x1699 SWAP2 SWAP1 PUSH2 0x2714 JUMP JUMPDEST PUSH1 0x4 DUP2 SWAP1 SSTORE POP PUSH1 0x0 PUSH4 0x40429946 PUSH1 0xE0 SHL PUSH1 0x0 DUP1 DUP8 PUSH1 0x0 ADD MLOAD ADDRESS DUP10 PUSH1 0x40 ADD MLOAD DUP8 PUSH1 0x1 DUP13 PUSH1 0x80 ADD MLOAD PUSH1 0x0 ADD MLOAD PUSH1 0x40 MLOAD PUSH1 0x24 ADD PUSH2 0x16DA SWAP9 SWAP8 SWAP7 SWAP6 SWAP5 SWAP4 SWAP3 SWAP2 SWAP1 PUSH2 0x2CD4 JUMP JUMPDEST PUSH1 0x40 MLOAD PUSH1 0x20 DUP2 DUP4 SUB SUB DUP2 MSTORE SWAP1 PUSH1 0x40 MSTORE SWAP1 PUSH28 0xFFFFFFFFFFFFFFFFFFFFFFFFFFFFFFFFFFFFFFFFFFFFFFFFFFFFFFFF NOT AND PUSH1 0x20 DUP3 ADD DUP1 MLOAD PUSH28 0xFFFFFFFFFFFFFFFFFFFFFFFFFFFFFFFFFFFFFFFFFFFFFFFFFFFFFFFF DUP4 DUP2 DUP4 AND OR DUP4 MSTORE POP POP POP POP SWAP1 POP PUSH2 0x1745 DUP7 DUP4 DUP7 DUP5 PUSH2 0x1A24 JUMP JUMPDEST SWAP3 POP POP POP SWAP4 SWAP3 POP POP POP JUMP JUMPDEST PUSH2 0x1758 PUSH2 0x1EA0 JUMP JUMPDEST PUSH1 0x0 PUSH1 0x20 DUP4 PUSH2 0x1767 SWAP2 SWAP1 PUSH2 0x2D59 JUMP JUMPDEST EQ PUSH2 0x1793 JUMPI PUSH1 0x20 DUP3 PUSH2 0x1779 SWAP2 SWAP1 PUSH2 0x2D59 JUMP JUMPDEST PUSH1 0x20 PUSH2 0x1785 SWAP2 SWAP1 PUSH2 0x27EB JUMP JUMPDEST DUP3 PUSH2 0x1790 SWAP2 SWAP1 PUSH2 0x2714 JUMP JUMPDEST SWAP2 POP JUMPDEST DUP2 DUP4 PUSH1 0x20 ADD DUP2 DUP2 MSTORE POP POP PUSH1 0x40 MLOAD DUP1 DUP5 MSTORE PUSH1 0x0 DUP2 MSTORE DUP3 DUP2 ADD PUSH1 0x20 ADD PUSH1 0x40 MSTORE POP DUP3 SWAP1 POP SWAP3 SWAP2 POP POP JUMP JUMPDEST PUSH1 0x17 DUP2 PUSH8 0xFFFFFFFFFFFFFFFF AND GT PUSH2 0x17F1 JUMPI PUSH2 0x17EB DUP2 PUSH1 0x5 DUP5 PUSH1 0xFF AND SWAP1 SHL PUSH1 0xFF AND OR DUP5 PUSH2 0x1BB9 SWAP1 SWAP2 SWAP1 PUSH4 0xFFFFFFFF AND JUMP JUMPDEST POP PUSH2 0x193A JUMP JUMPDEST PUSH1 0xFF DUP2 PUSH8 0xFFFFFFFFFFFFFFFF AND GT PUSH2 0x1847 JUMPI PUSH2 0x1820 PUSH1 0x18 PUSH1 0x5 DUP5 PUSH1 0xFF AND SWAP1 SHL OR DUP5 PUSH2 0x1BB9 SWAP1 SWAP2 SWAP1 PUSH4 0xFFFFFFFF AND JUMP JUMPDEST POP PUSH2 0x1841 DUP2 PUSH8 0xFFFFFFFFFFFFFFFF AND PUSH1 0x1 DUP6 PUSH2 0x1BD9 SWAP1 SWAP3 SWAP2 SWAP1 PUSH4 0xFFFFFFFF AND JUMP JUMPDEST POP PUSH2 0x1939 JUMP JUMPDEST PUSH2 0xFFFF DUP2 PUSH8 0xFFFFFFFFFFFFFFFF AND GT PUSH2 0x189E JUMPI PUSH2 0x1877 PUSH1 0x19 PUSH1 0x5 DUP5 PUSH1 0xFF AND SWAP1 SHL OR DUP5 PUSH2 0x1BB9 SWAP1 SWAP2 SWAP1 PUSH4 0xFFFFFFFF AND JUMP JUMPDEST POP PUSH2 0x1898 DUP2 PUSH8 0xFFFFFFFFFFFFFFFF AND PUSH1 0x2 DUP6 PUSH2 0x1BD9 SWAP1 SWAP3 SWAP2 SWAP1 PUSH4 0xFFFFFFFF AND JUMP JUMPDEST POP PUSH2 0x1938 JUMP JUMPDEST PUSH4 0xFFFFFFFF DUP2 PUSH8 0xFFFFFFFFFFFFFFFF AND GT PUSH2 0x18F7 JUMPI PUSH2 0x18D0 PUSH1 0x1A PUSH1 0x5 DUP5 PUSH1 0xFF AND SWAP1 SHL OR DUP5 PUSH2 0x1BB9 SWAP1 SWAP2 SWAP1 PUSH4 0xFFFFFFFF AND JUMP JUMPDEST POP PUSH2 0x18F1 DUP2 PUSH8 0xFFFFFFFFFFFFFFFF AND PUSH1 0x4 DUP6 PUSH2 0x1BD9 SWAP1 SWAP3 SWAP2 SWAP1 PUSH4 0xFFFFFFFF AND JUMP JUMPDEST POP PUSH2 0x1937 JUMP JUMPDEST PUSH2 0x1914 PUSH1 0x1B PUSH1 0x5 DUP5 PUSH1 0xFF AND SWAP1 SHL OR DUP5 PUSH2 0x1BB9 SWAP1 SWAP2 SWAP1 PUSH4 0xFFFFFFFF AND JUMP JUMPDEST POP PUSH2 0x1935 DUP2 PUSH8 0xFFFFFFFFFFFFFFFF AND PUSH1 0x8 DUP6 PUSH2 0x1BD9 SWAP1 SWAP3 SWAP2 SWAP1 PUSH4 0xFFFFFFFF AND JUMP JUMPDEST POP JUMPDEST JUMPDEST JUMPDEST JUMPDEST POP POP POP JUMP JUMPDEST PUSH2 0x1947 PUSH2 0x1EA0 JUMP JUMPDEST PUSH2 0x1959 DUP4 DUP5 PUSH1 0x0 ADD MLOAD MLOAD DUP5 DUP6 MLOAD PUSH2 0x1BFB JUMP JUMPDEST SWAP1 POP SWAP3 SWAP2 POP POP JUMP JUMPDEST PUSH2 0x197F PUSH1 0x3 PUSH1 0x5 PUSH1 0x6 PUSH1 0xFF AND SWAP1 SHL OR DUP4 PUSH2 0x1BB9 SWAP1 SWAP2 SWAP1 PUSH4 0xFFFFFFFF AND JUMP JUMPDEST POP PUSH2 0x19D4 DUP3 DUP3 PUSH32 0xFFFFFFFFFFFFFFFFFFFFFFFFFFFFFFFFFFFFFFFFFFFFFFFFFFFFFFFFFFFFFFFF PUSH2 0x19B0 SWAP2 SWAP1 PUSH2 0x2BF0 JUMP JUMPDEST PUSH1 0x40 MLOAD PUSH1 0x20 ADD PUSH2 0x19C0 SWAP2 SWAP1 PUSH2 0x1FD6 JUMP JUMPDEST PUSH1 0x40 MLOAD PUSH1 0x20 DUP2 DUP4 SUB SUB DUP2 MSTORE SWAP1 PUSH1 0x40 MSTORE PUSH2 0x1CEA JUMP JUMPDEST POP POP JUMP JUMPDEST PUSH2 0x19F6 PUSH1 0x2 PUSH1 0x5 PUSH1 0x6 PUSH1 0xFF AND SWAP1 SHL OR DUP4 PUSH2 0x1BB9 SWAP1 SWAP2 SWAP1 PUSH4 0xFFFFFFFF AND JUMP JUMPDEST POP PUSH2 0x1A20 DUP3 DUP3 PUSH1 0x40 MLOAD PUSH1 0x20 ADD PUSH2 0x1A0C SWAP2 SWAP1 PUSH2 0x1FD6 JUMP JUMPDEST PUSH1 0x40 MLOAD PUSH1 0x20 DUP2 DUP4 SUB SUB DUP2 MSTORE SWAP1 PUSH1 0x40 MSTORE PUSH2 0x1CEA JUMP JUMPDEST POP POP JUMP JUMPDEST PUSH1 0x0 ADDRESS DUP5 PUSH1 0x40 MLOAD PUSH1 0x20 ADD PUSH2 0x1A39 SWAP3 SWAP2 SWAP1 PUSH2 0x2E43 JUMP JUMPDEST PUSH1 0x40 MLOAD PUSH1 0x20 DUP2 DUP4 SUB SUB DUP2 MSTORE SWAP1 PUSH1 0x40 MSTORE DUP1 MLOAD SWAP1 PUSH1 0x20 ADD KECCAK256 SWAP1 POP DUP5 PUSH1 0x5 PUSH1 0x0 DUP4 DUP2 MSTORE PUSH1 0x20 ADD SWAP1 DUP2 MSTORE PUSH1 0x20 ADD PUSH1 0x0 KECCAK256 PUSH1 0x0 PUSH2 0x100 EXP DUP2 SLOAD DUP2 PUSH20 0xFFFFFFFFFFFFFFFFFFFFFFFFFFFFFFFFFFFFFFFF MUL NOT AND SWAP1 DUP4 PUSH20 0xFFFFFFFFFFFFFFFFFFFFFFFFFFFFFFFFFFFFFFFF AND MUL OR SWAP1 SSTORE POP DUP1 PUSH32 0xB5E6E01E79F91267DC17B4E6314D5D4D03593D2CEEE0FBB452B750BD70EA5AF9 PUSH1 0x40 MLOAD PUSH1 0x40 MLOAD DUP1 SWAP2 SUB SWAP1 LOG2 PUSH1 0x2 PUSH1 0x0 SWAP1 SLOAD SWAP1 PUSH2 0x100 EXP SWAP1 DIV PUSH20 0xFFFFFFFFFFFFFFFFFFFFFFFFFFFFFFFFFFFFFFFF AND PUSH20 0xFFFFFFFFFFFFFFFFFFFFFFFFFFFFFFFFFFFFFFFF AND PUSH4 0x4000AEA0 DUP7 DUP6 DUP6 PUSH1 0x40 MLOAD DUP5 PUSH4 0xFFFFFFFF AND PUSH1 0xE0 SHL DUP2 MSTORE PUSH1 0x4 ADD PUSH2 0x1B2F SWAP4 SWAP3 SWAP2 SWAP1 PUSH2 0x2E6F JUMP JUMPDEST PUSH1 0x20 PUSH1 0x40 MLOAD DUP1 DUP4 SUB DUP2 PUSH1 0x0 DUP8 GAS CALL ISZERO DUP1 ISZERO PUSH2 0x1B4E JUMPI RETURNDATASIZE PUSH1 0x0 DUP1 RETURNDATACOPY RETURNDATASIZE PUSH1 0x0 REVERT JUMPDEST POP POP POP POP PUSH1 0x40 MLOAD RETURNDATASIZE PUSH1 0x1F NOT PUSH1 0x1F DUP3 ADD AND DUP3 ADD DUP1 PUSH1 0x40 MSTORE POP DUP2 ADD SWAP1 PUSH2 0x1B72 SWAP2 SWAP1 PUSH2 0x2EE5 JUMP JUMPDEST PUSH2 0x1BB1 JUMPI PUSH1 0x40 MLOAD PUSH32 0x8C379A000000000000000000000000000000000000000000000000000000000 DUP2 MSTORE PUSH1 0x4 ADD PUSH2 0x1BA8 SWAP1 PUSH2 0x2F84 JUMP JUMPDEST PUSH1 0x40 MLOAD DUP1 SWAP2 SUB SWAP1 REVERT JUMPDEST SWAP5 SWAP4 POP POP POP POP JUMP JUMPDEST PUSH2 0x1BC1 PUSH2 0x1EA0 JUMP JUMPDEST PUSH2 0x1BD1 DUP4 DUP5 PUSH1 0x0 ADD MLOAD MLOAD DUP5 PUSH2 0x1D0F JUMP JUMPDEST SWAP1 POP SWAP3 SWAP2 POP POP JUMP JUMPDEST PUSH2 0x1BE1 PUSH2 0x1EA0 JUMP JUMPDEST PUSH2 0x1BF2 DUP5 DUP6 PUSH1 0x0 ADD MLOAD MLOAD DUP6 DUP6 PUSH2 0x1D65 JUMP JUMPDEST SWAP1 POP SWAP4 SWAP3 POP POP POP JUMP JUMPDEST PUSH2 0x1C03 PUSH2 0x1EA0 JUMP JUMPDEST DUP3 MLOAD DUP3 GT ISZERO PUSH2 0x1C11 JUMPI PUSH1 0x0 DUP1 REVERT JUMPDEST DUP5 PUSH1 0x20 ADD MLOAD DUP3 DUP6 PUSH2 0x1C22 SWAP2 SWAP1 PUSH2 0x2714 JUMP JUMPDEST GT ISZERO PUSH2 0x1C57 JUMPI PUSH2 0x1C56 DUP6 PUSH1 0x2 PUSH2 0x1C47 DUP9 PUSH1 0x20 ADD MLOAD DUP9 DUP8 PUSH2 0x1C42 SWAP2 SWAP1 PUSH2 0x2714 JUMP JUMPDEST PUSH2 0x1DF3 JUMP JUMPDEST PUSH2 0x1C51 SWAP2 SWAP1 PUSH2 0x2672 JUMP JUMPDEST PUSH2 0x1E0F JUMP JUMPDEST JUMPDEST PUSH1 0x0 DUP1 DUP7 MLOAD DUP1 MLOAD DUP8 PUSH1 0x20 DUP4 ADD ADD SWAP4 POP DUP1 DUP9 DUP8 ADD GT ISZERO PUSH2 0x1C76 JUMPI DUP8 DUP7 ADD DUP3 MSTORE JUMPDEST PUSH1 0x20 DUP8 ADD SWAP3 POP POP POP JUMPDEST PUSH1 0x20 DUP5 LT PUSH2 0x1CBD JUMPI DUP1 MLOAD DUP3 MSTORE PUSH1 0x20 DUP3 PUSH2 0x1C98 SWAP2 SWAP1 PUSH2 0x2714 JUMP JUMPDEST SWAP2 POP PUSH1 0x20 DUP2 PUSH2 0x1CA7 SWAP2 SWAP1 PUSH2 0x2714 JUMP JUMPDEST SWAP1 POP PUSH1 0x20 DUP5 PUSH2 0x1CB6 SWAP2 SWAP1 PUSH2 0x27EB JUMP JUMPDEST SWAP4 POP PUSH2 0x1C7F JUMP JUMPDEST PUSH1 0x0 PUSH1 0x1 DUP6 PUSH1 0x20 SUB PUSH2 0x100 EXP SUB SWAP1 POP DUP1 NOT DUP3 MLOAD AND DUP2 DUP5 MLOAD AND DUP2 DUP2 OR DUP6 MSTORE POP POP POP DUP7 SWAP3 POP POP POP SWAP5 SWAP4 POP POP POP POP JUMP JUMPDEST PUSH2 0x1CF7 DUP3 PUSH1 0x2 DUP4 MLOAD PUSH2 0x17BA JUMP JUMPDEST PUSH2 0x1D0A DUP2 DUP4 PUSH2 0x193F SWAP1 SWAP2 SWAP1 PUSH4 0xFFFFFFFF AND JUMP JUMPDEST POP POP POP JUMP JUMPDEST PUSH2 0x1D17 PUSH2 0x1EA0 JUMP JUMPDEST DUP4 PUSH1 0x20 ADD MLOAD DUP4 LT PUSH2 0x1D3D JUMPI PUSH2 0x1D3C DUP5 PUSH1 0x2 DUP7 PUSH1 0x20 ADD MLOAD PUSH2 0x1D37 SWAP2 SWAP1 PUSH2 0x2672 JUMP JUMPDEST PUSH2 0x1E0F JUMP JUMPDEST JUMPDEST DUP4 MLOAD DUP1 MLOAD PUSH1 0x20 DUP6 DUP4 ADD ADD DUP5 DUP2 MSTORE8 DUP2 DUP7 SUB PUSH2 0x1D58 JUMPI PUSH1 0x1 DUP3 ADD DUP4 MSTORE JUMPDEST POP POP POP DUP4 SWAP1 POP SWAP4 SWAP3 POP POP POP JUMP JUMPDEST PUSH2 0x1D6D PUSH2 0x1EA0 JUMP JUMPDEST DUP5 PUSH1 0x20 ADD MLOAD DUP5 DUP4 PUSH2 0x1D7E SWAP2 SWAP1 PUSH2 0x2714 JUMP JUMPDEST GT ISZERO PUSH2 0x1DA6 JUMPI PUSH2 0x1DA5 DUP6 PUSH1 0x2 DUP7 DUP6 PUSH2 0x1D96 SWAP2 SWAP1 PUSH2 0x2714 JUMP JUMPDEST PUSH2 0x1DA0 SWAP2 SWAP1 PUSH2 0x2672 JUMP JUMPDEST PUSH2 0x1E0F JUMP JUMPDEST JUMPDEST PUSH1 0x0 PUSH1 0x1 DUP4 PUSH2 0x100 PUSH2 0x1DB8 SWAP2 SWAP1 PUSH2 0x30D7 JUMP JUMPDEST PUSH2 0x1DC2 SWAP2 SWAP1 PUSH2 0x27EB JUMP JUMPDEST SWAP1 POP DUP6 MLOAD DUP4 DUP7 DUP3 ADD ADD DUP6 DUP4 NOT DUP3 MLOAD AND OR DUP2 MSTORE DUP2 MLOAD DUP6 DUP9 ADD GT ISZERO PUSH2 0x1DE5 JUMPI DUP5 DUP8 ADD DUP3 MSTORE JUMPDEST POP POP DUP6 SWAP2 POP POP SWAP5 SWAP4 POP POP POP POP JUMP JUMPDEST PUSH1 0x0 DUP2 DUP4 GT ISZERO PUSH2 0x1E05 JUMPI DUP3 SWAP1 POP PUSH2 0x1E09 JUMP JUMPDEST DUP2 SWAP1 POP JUMPDEST SWAP3 SWAP2 POP POP JUMP JUMPDEST PUSH1 0x0 DUP3 PUSH1 0x0 ADD MLOAD SWAP1 POP PUSH2 0x1E22 DUP4 DUP4 PUSH2 0x1750 JUMP JUMPDEST POP PUSH2 0x1E2D DUP4 DUP3 PUSH2 0x193F JUMP JUMPDEST POP POP POP POP JUMP JUMPDEST PUSH1 0x40 MLOAD DUP1 PUSH1 0xA0 ADD PUSH1 0x40 MSTORE DUP1 PUSH1 0x0 DUP1 NOT AND DUP2 MSTORE PUSH1 0x20 ADD PUSH1 0x0 PUSH20 0xFFFFFFFFFFFFFFFFFFFFFFFFFFFFFFFFFFFFFFFF AND DUP2 MSTORE PUSH1 0x20 ADD PUSH1 0x0 PUSH28 0xFFFFFFFFFFFFFFFFFFFFFFFFFFFFFFFFFFFFFFFFFFFFFFFFFFFFFFFF NOT AND DUP2 MSTORE PUSH1 0x20 ADD PUSH1 0x0 DUP2 MSTORE PUSH1 0x20 ADD PUSH2 0x1E9A PUSH2 0x1EA0 JUMP JUMPDEST DUP2 MSTORE POP SWAP1 JUMP JUMPDEST PUSH1 0x40 MLOAD DUP1 PUSH1 0x40 ADD PUSH1 0x40 MSTORE DUP1 PUSH1 0x60 DUP2 MSTORE PUSH1 0x20 ADD PUSH1 0x0 DUP2 MSTORE POP SWAP1 JUMP JUMPDEST PUSH1 0x0 DUP1 REVERT JUMPDEST PUSH1 0x0 PUSH20 0xFFFFFFFFFFFFFFFFFFFFFFFFFFFFFFFFFFFFFFFF DUP3 AND SWAP1 POP SWAP2 SWAP1 POP JUMP JUMPDEST PUSH1 0x0 PUSH2 0x1EEA DUP3 PUSH2 0x1EBF JUMP JUMPDEST SWAP1 POP SWAP2 SWAP1 POP JUMP JUMPDEST PUSH2 0x1EFA DUP2 PUSH2 0x1EDF JUMP JUMPDEST DUP2 EQ PUSH2 0x1F05 JUMPI PUSH1 0x0 DUP1 REVERT JUMPDEST POP JUMP JUMPDEST PUSH1 0x0 DUP2 CALLDATALOAD SWAP1 POP PUSH2 0x1F17 DUP2 PUSH2 0x1EF1 JUMP JUMPDEST SWAP3 SWAP2 POP POP JUMP JUMPDEST PUSH1 0x0 DUP2 SWAP1 POP SWAP2 SWAP1 POP JUMP JUMPDEST PUSH2 0x1F30 DUP2 PUSH2 0x1F1D JUMP JUMPDEST DUP2 EQ PUSH2 0x1F3B JUMPI PUSH1 0x0 DUP1 REVERT JUMPDEST POP JUMP JUMPDEST PUSH1 0x0 DUP2 CALLDATALOAD SWAP1 POP PUSH2 0x1F4D DUP2 PUSH2 0x1F27 JUMP JUMPDEST SWAP3 SWAP2 POP POP JUMP JUMPDEST PUSH1 0x0 DUP1 PUSH1 0x40 DUP4 DUP6 SUB SLT ISZERO PUSH2 0x1F6A JUMPI PUSH2 0x1F69 PUSH2 0x1EBA JUMP JUMPDEST JUMPDEST PUSH1 0x0 PUSH2 0x1F78 DUP6 DUP3 DUP7 ADD PUSH2 0x1F08 JUMP JUMPDEST SWAP3 POP POP PUSH1 0x20 PUSH2 0x1F89 DUP6 DUP3 DUP7 ADD PUSH2 0x1F3E JUMP JUMPDEST SWAP2 POP POP SWAP3 POP SWAP3 SWAP1 POP JUMP JUMPDEST PUSH1 0x0 DUP2 SWAP1 POP SWAP2 SWAP1 POP JUMP JUMPDEST PUSH2 0x1FA6 DUP2 PUSH2 0x1F93 JUMP JUMPDEST DUP3 MSTORE POP POP JUMP JUMPDEST PUSH1 0x0 PUSH1 0x20 DUP3 ADD SWAP1 POP PUSH2 0x1FC1 PUSH1 0x0 DUP4 ADD DUP5 PUSH2 0x1F9D JUMP JUMPDEST SWAP3 SWAP2 POP POP JUMP JUMPDEST PUSH2 0x1FD0 DUP2 PUSH2 0x1F1D JUMP JUMPDEST DUP3 MSTORE POP POP JUMP JUMPDEST PUSH1 0x0 PUSH1 0x20 DUP3 ADD SWAP1 POP PUSH2 0x1FEB PUSH1 0x0 DUP4 ADD DUP5 PUSH2 0x1FC7 JUMP JUMPDEST SWAP3 SWAP2 POP POP JUMP JUMPDEST PUSH2 0x1FFA DUP2 PUSH2 0x1F93 JUMP JUMPDEST DUP2 EQ PUSH2 0x2005 JUMPI PUSH1 0x0 DUP1 REVERT JUMPDEST POP JUMP JUMPDEST PUSH1 0x0 DUP2 CALLDATALOAD SWAP1 POP PUSH2 0x2017 DUP2 PUSH2 0x1FF1 JUMP JUMPDEST SWAP3 SWAP2 POP POP JUMP JUMPDEST PUSH1 0x0 DUP1 PUSH1 0x40 DUP4 DUP6 SUB SLT ISZERO PUSH2 0x2034 JUMPI PUSH2 0x2033 PUSH2 0x1EBA JUMP JUMPDEST JUMPDEST PUSH1 0x0 PUSH2 0x2042 DUP6 DUP3 DUP7 ADD PUSH2 0x2008 JUMP JUMPDEST SWAP3 POP POP PUSH1 0x20 PUSH2 0x2053 DUP6 DUP3 DUP7 ADD PUSH2 0x1F3E JUMP JUMPDEST SWAP2 POP POP SWAP3 POP SWAP3 SWAP1 POP JUMP JUMPDEST PUSH1 0x0 DUP1 PUSH1 0x0 PUSH1 0x60 DUP5 DUP7 SUB SLT ISZERO PUSH2 0x2076 JUMPI PUSH2 0x2075 PUSH2 0x1EBA JUMP JUMPDEST JUMPDEST PUSH1 0x0 PUSH2 0x2084 DUP7 DUP3 DUP8 ADD PUSH2 0x1F08 JUMP JUMPDEST SWAP4 POP POP PUSH1 0x20 PUSH2 0x2095 DUP7 DUP3 DUP8 ADD PUSH2 0x1F08 JUMP JUMPDEST SWAP3 POP POP PUSH1 0x40 PUSH2 0x20A6 DUP7 DUP3 DUP8 ADD PUSH2 0x1F3E JUMP JUMPDEST SWAP2 POP POP SWAP3 POP SWAP3 POP SWAP3 JUMP JUMPDEST PUSH1 0x0 PUSH1 0x20 DUP3 DUP5 SUB SLT ISZERO PUSH2 0x20C6 JUMPI PUSH2 0x20C5 PUSH2 0x1EBA JUMP JUMPDEST JUMPDEST PUSH1 0x0 PUSH2 0x20D4 DUP5 DUP3 DUP6 ADD PUSH2 0x1F3E JUMP JUMPDEST SWAP2 POP POP SWAP3 SWAP2 POP POP JUMP JUMPDEST PUSH2 0x20E6 DUP2 PUSH2 0x1EDF JUMP JUMPDEST DUP3 MSTORE POP POP JUMP JUMPDEST PUSH1 0x0 PUSH1 0x20 DUP3 ADD SWAP1 POP PUSH2 0x2101 PUSH1 0x0 DUP4 ADD DUP5 PUSH2 0x20DD JUMP JUMPDEST SWAP3 SWAP2 POP POP JUMP JUMPDEST PUSH1 0x0 PUSH1 0x20 DUP3 DUP5 SUB SLT ISZERO PUSH2 0x211D JUMPI PUSH2 0x211C PUSH2 0x1EBA JUMP JUMPDEST JUMPDEST PUSH1 0x0 PUSH2 0x212B DUP5 DUP3 DUP6 ADD PUSH2 0x1F08 JUMP JUMPDEST SWAP2 POP POP SWAP3 SWAP2 POP POP JUMP JUMPDEST PUSH1 0x0 DUP2 SWAP1 POP SWAP3 SWAP2 POP POP JUMP JUMPDEST PUSH32 0x68747470733A2F2F6D6F636B692E696F2F76312F31613437343765612D623563 PUSH1 0x0 DUP3 ADD MSTORE PUSH32 0x312D346131312D386362332D6338343130363261353538353F61646472657373 PUSH1 0x20 DUP3 ADD MSTORE PUSH32 0x3D00000000000000000000000000000000000000000000000000000000000000 PUSH1 0x40 DUP3 ADD MSTORE POP JUMP JUMPDEST PUSH1 0x0 PUSH2 0x21C1 PUSH1 0x41 DUP4 PUSH2 0x2134 JUMP JUMPDEST SWAP2 POP PUSH2 0x21CC DUP3 PUSH2 0x213F JUMP JUMPDEST PUSH1 0x41 DUP3 ADD SWAP1 POP SWAP2 SWAP1 POP JUMP JUMPDEST PUSH1 0x0 DUP2 MLOAD SWAP1 POP SWAP2 SWAP1 POP JUMP JUMPDEST PUSH1 0x0 JUMPDEST DUP4 DUP2 LT ISZERO PUSH2 0x2200 JUMPI DUP1 DUP3 ADD MLOAD DUP2 DUP5 ADD MSTORE PUSH1 0x20 DUP2 ADD SWAP1 POP PUSH2 0x21E5 JUMP JUMPDEST PUSH1 0x0 DUP5 DUP5 ADD MSTORE POP POP POP POP JUMP JUMPDEST PUSH1 0x0 PUSH2 0x2217 DUP3 PUSH2 0x21D7 JUMP JUMPDEST PUSH2 0x2221 DUP2 DUP6 PUSH2 0x2134 JUMP JUMPDEST SWAP4 POP PUSH2 0x2231 DUP2 DUP6 PUSH1 0x20 DUP7 ADD PUSH2 0x21E2 JUMP JUMPDEST DUP1 DUP5 ADD SWAP2 POP POP SWAP3 SWAP2 POP POP JUMP JUMPDEST PUSH32 0x26746F6B656E49643D0000000000000000000000000000000000000000000000 PUSH1 0x0 DUP3 ADD MSTORE POP JUMP JUMPDEST PUSH1 0x0 PUSH2 0x2273 PUSH1 0x9 DUP4 PUSH2 0x2134 JUMP JUMPDEST SWAP2 POP PUSH2 0x227E DUP3 PUSH2 0x223D JUMP JUMPDEST PUSH1 0x9 DUP3 ADD SWAP1 POP SWAP2 SWAP1 POP JUMP JUMPDEST PUSH1 0x0 PUSH2 0x2294 DUP3 PUSH2 0x21B4 JUMP JUMPDEST SWAP2 POP PUSH2 0x22A0 DUP3 DUP6 PUSH2 0x220C JUMP JUMPDEST SWAP2 POP PUSH2 0x22AB DUP3 PUSH2 0x2266 JUMP JUMPDEST SWAP2 POP PUSH2 0x22B7 DUP3 DUP5 PUSH2 0x220C JUMP JUMPDEST SWAP2 POP DUP2 SWAP1 POP SWAP4 SWAP3 POP POP POP JUMP JUMPDEST PUSH1 0x0 DUP3 DUP3 MSTORE PUSH1 0x20 DUP3 ADD SWAP1 POP SWAP3 SWAP2 POP POP JUMP JUMPDEST PUSH32 0x4E6F20726967687420746F206163636573732100000000000000000000000000 PUSH1 0x0 DUP3 ADD MSTORE POP JUMP JUMPDEST PUSH1 0x0 PUSH2 0x230A PUSH1 0x13 DUP4 PUSH2 0x22C3 JUMP JUMPDEST SWAP2 POP PUSH2 0x2315 DUP3 PUSH2 0x22D4 JUMP JUMPDEST PUSH1 0x20 DUP3 ADD SWAP1 POP SWAP2 SWAP1 POP JUMP JUMPDEST PUSH1 0x0 PUSH1 0x20 DUP3 ADD SWAP1 POP DUP2 DUP2 SUB PUSH1 0x0 DUP4 ADD MSTORE PUSH2 0x2339 DUP2 PUSH2 0x22FD JUMP JUMPDEST SWAP1 POP SWAP2 SWAP1 POP JUMP JUMPDEST PUSH32 0x4E6F2072652D656E7472616E6379000000000000000000000000000000000000 PUSH1 0x0 DUP3 ADD MSTORE POP JUMP JUMPDEST PUSH1 0x0 PUSH2 0x2376 PUSH1 0xE DUP4 PUSH2 0x22C3 JUMP JUMPDEST SWAP2 POP PUSH2 0x2381 DUP3 PUSH2 0x2340 JUMP JUMPDEST PUSH1 0x20 DUP3 ADD SWAP1 POP SWAP2 SWAP1 POP JUMP JUMPDEST PUSH1 0x0 PUSH1 0x20 DUP3 ADD SWAP1 POP DUP2 DUP2 SUB PUSH1 0x0 DUP4 ADD MSTORE PUSH2 0x23A5 DUP2 PUSH2 0x2369 JUMP JUMPDEST SWAP1 POP SWAP2 SWAP1 POP JUMP JUMPDEST PUSH32 0x4E487B7100000000000000000000000000000000000000000000000000000000 PUSH1 0x0 MSTORE PUSH1 0x1 PUSH1 0x4 MSTORE PUSH1 0x24 PUSH1 0x0 REVERT JUMPDEST PUSH1 0x0 DUP2 SWAP1 POP SWAP3 SWAP2 POP POP JUMP JUMPDEST POP JUMP JUMPDEST PUSH1 0x0 PUSH2 0x23F6 PUSH1 0x0 DUP4 PUSH2 0x23DB JUMP JUMPDEST SWAP2 POP PUSH2 0x2401 DUP3 PUSH2 0x23E6 JUMP JUMPDEST PUSH1 0x0 DUP3 ADD SWAP1 POP SWAP2 SWAP1 POP JUMP JUMPDEST PUSH1 0x0 PUSH2 0x2417 DUP3 PUSH2 0x23E9 JUMP JUMPDEST SWAP2 POP DUP2 SWAP1 POP SWAP2 SWAP1 POP JUMP JUMPDEST PUSH32 0x4661696C656420746F2073656E642073657276696365206665657320746F206F PUSH1 0x0 DUP3 ADD MSTORE PUSH32 0x776E657221000000000000000000000000000000000000000000000000000000 PUSH1 0x20 DUP3 ADD MSTORE POP JUMP JUMPDEST PUSH1 0x0 PUSH2 0x247D PUSH1 0x25 DUP4 PUSH2 0x22C3 JUMP JUMPDEST SWAP2 POP PUSH2 0x2488 DUP3 PUSH2 0x2421 JUMP JUMPDEST PUSH1 0x40 DUP3 ADD SWAP1 POP SWAP2 SWAP1 POP JUMP JUMPDEST PUSH1 0x0 PUSH1 0x20 DUP3 ADD SWAP1 POP DUP2 DUP2 SUB PUSH1 0x0 DUP4 ADD MSTORE PUSH2 0x24AC DUP2 PUSH2 0x2470 JUMP JUMPDEST SWAP1 POP SWAP2 SWAP1 POP JUMP JUMPDEST PUSH32 0x536F75726365206D75737420626520746865206F7261636C65206F6620746865 PUSH1 0x0 DUP3 ADD MSTORE PUSH32 0x2072657175657374000000000000000000000000000000000000000000000000 PUSH1 0x20 DUP3 ADD MSTORE POP JUMP JUMPDEST PUSH1 0x0 PUSH2 0x250F PUSH1 0x28 DUP4 PUSH2 0x22C3 JUMP JUMPDEST SWAP2 POP PUSH2 0x251A DUP3 PUSH2 0x24B3 JUMP JUMPDEST PUSH1 0x40 DUP3 ADD SWAP1 POP SWAP2 SWAP1 POP JUMP JUMPDEST PUSH1 0x0 PUSH1 0x20 DUP3 ADD SWAP1 POP DUP2 DUP2 SUB PUSH1 0x0 DUP4 ADD MSTORE PUSH2 0x253E DUP2 PUSH2 0x2502 JUMP JUMPDEST SWAP1 POP SWAP2 SWAP1 POP JUMP JUMPDEST PUSH32 0x546F6B656E202620726563697069656E742061646472657373657320636F6E6E PUSH1 0x0 DUP3 ADD MSTORE PUSH32 0x6F74206265205A65726F21000000000000000000000000000000000000000000 PUSH1 0x20 DUP3 ADD MSTORE POP JUMP JUMPDEST PUSH1 0x0 PUSH2 0x25A1 PUSH1 0x2B DUP4 PUSH2 0x22C3 JUMP JUMPDEST SWAP2 POP PUSH2 0x25AC DUP3 PUSH2 0x2545 JUMP JUMPDEST PUSH1 0x40 DUP3 ADD SWAP1 POP SWAP2 SWAP1 POP JUMP JUMPDEST PUSH1 0x0 PUSH1 0x20 DUP3 ADD SWAP1 POP DUP2 DUP2 SUB PUSH1 0x0 DUP4 ADD MSTORE PUSH2 0x25D0 DUP2 PUSH2 0x2594 JUMP JUMPDEST SWAP1 POP SWAP2 SWAP1 POP JUMP JUMPDEST PUSH32 0x496E76616C696420746F6B656E204944206F7220636F6C6C656374696F6E0000 PUSH1 0x0 DUP3 ADD MSTORE POP JUMP JUMPDEST PUSH1 0x0 PUSH2 0x260D PUSH1 0x1E DUP4 PUSH2 0x22C3 JUMP JUMPDEST SWAP2 POP PUSH2 0x2618 DUP3 PUSH2 0x25D7 JUMP JUMPDEST PUSH1 0x20 DUP3 ADD SWAP1 POP SWAP2 SWAP1 POP JUMP JUMPDEST PUSH1 0x0 PUSH1 0x20 DUP3 ADD SWAP1 POP DUP2 DUP2 SUB PUSH1 0x0 DUP4 ADD MSTORE PUSH2 0x263C DUP2 PUSH2 0x2600 JUMP JUMPDEST SWAP1 POP SWAP2 SWAP1 POP JUMP JUMPDEST PUSH32 0x4E487B7100000000000000000000000000000000000000000000000000000000 PUSH1 0x0 MSTORE PUSH1 0x11 PUSH1 0x4 MSTORE PUSH1 0x24 PUSH1 0x0 REVERT JUMPDEST PUSH1 0x0 PUSH2 0x267D DUP3 PUSH2 0x1F1D JUMP JUMPDEST SWAP2 POP PUSH2 0x2688 DUP4 PUSH2 0x1F1D JUMP JUMPDEST SWAP3 POP DUP3 DUP3 MUL PUSH2 0x2696 DUP2 PUSH2 0x1F1D JUMP JUMPDEST SWAP2 POP DUP3 DUP3 DIV DUP5 EQ DUP4 ISZERO OR PUSH2 0x26AD JUMPI PUSH2 0x26AC PUSH2 0x2643 JUMP JUMPDEST JUMPDEST POP SWAP3 SWAP2 POP POP JUMP JUMPDEST PUSH32 0x4E487B7100000000000000000000000000000000000000000000000000000000 PUSH1 0x0 MSTORE PUSH1 0x12 PUSH1 0x4 MSTORE PUSH1 0x24 PUSH1 0x0 REVERT JUMPDEST PUSH1 0x0 PUSH2 0x26EE DUP3 PUSH2 0x1F1D JUMP JUMPDEST SWAP2 POP PUSH2 0x26F9 DUP4 PUSH2 0x1F1D JUMP JUMPDEST SWAP3 POP DUP3 PUSH2 0x2709 JUMPI PUSH2 0x2708 PUSH2 0x26B4 JUMP JUMPDEST JUMPDEST DUP3 DUP3 DIV SWAP1 POP SWAP3 SWAP2 POP POP JUMP JUMPDEST PUSH1 0x0 PUSH2 0x271F DUP3 PUSH2 0x1F1D JUMP JUMPDEST SWAP2 POP PUSH2 0x272A DUP4 PUSH2 0x1F1D JUMP JUMPDEST SWAP3 POP DUP3 DUP3 ADD SWAP1 POP DUP1 DUP3 GT ISZERO PUSH2 0x2742 JUMPI PUSH2 0x2741 PUSH2 0x2643 JUMP JUMPDEST JUMPDEST SWAP3 SWAP2 POP POP JUMP JUMPDEST PUSH32 0x496E73756666696369656E742065746865722070726F76696465642100000000 PUSH1 0x0 DUP3 ADD MSTORE POP JUMP JUMPDEST PUSH1 0x0 PUSH2 0x277E PUSH1 0x1C DUP4 PUSH2 0x22C3 JUMP JUMPDEST SWAP2 POP PUSH2 0x2789 DUP3 PUSH2 0x2748 JUMP JUMPDEST PUSH1 0x20 DUP3 ADD SWAP1 POP SWAP2 SWAP1 POP JUMP JUMPDEST PUSH1 0x0 PUSH1 0x20 DUP3 ADD SWAP1 POP DUP2 DUP2 SUB PUSH1 0x0 DUP4 ADD MSTORE PUSH2 0x27AD DUP2 PUSH2 0x2771 JUMP JUMPDEST SWAP1 POP SWAP2 SWAP1 POP JUMP JUMPDEST PUSH1 0x0 PUSH1 0x60 DUP3 ADD SWAP1 POP PUSH2 0x27C9 PUSH1 0x0 DUP4 ADD DUP7 PUSH2 0x20DD JUMP JUMPDEST PUSH2 0x27D6 PUSH1 0x20 DUP4 ADD DUP6 PUSH2 0x20DD JUMP JUMPDEST PUSH2 0x27E3 PUSH1 0x40 DUP4 ADD DUP5 PUSH2 0x1FC7 JUMP JUMPDEST SWAP5 SWAP4 POP POP POP POP JUMP JUMPDEST PUSH1 0x0 PUSH2 0x27F6 DUP3 PUSH2 0x1F1D JUMP JUMPDEST SWAP2 POP PUSH2 0x2801 DUP4 PUSH2 0x1F1D JUMP JUMPDEST SWAP3 POP DUP3 DUP3 SUB SWAP1 POP DUP2 DUP2 GT ISZERO PUSH2 0x2819 JUMPI PUSH2 0x2818 PUSH2 0x2643 JUMP JUMPDEST JUMPDEST SWAP3 SWAP2 POP POP JUMP JUMPDEST PUSH32 0x4661696C656420746F2073656E642065786365737320457468657220746F2072 PUSH1 0x0 DUP3 ADD MSTORE PUSH32 0x65636970656E7421000000000000000000000000000000000000000000000000 PUSH1 0x20 DUP3 ADD MSTORE POP JUMP JUMPDEST PUSH1 0x0 PUSH2 0x287B PUSH1 0x28 DUP4 PUSH2 0x22C3 JUMP JUMPDEST SWAP2 POP PUSH2 0x2886 DUP3 PUSH2 0x281F JUMP JUMPDEST PUSH1 0x40 DUP3 ADD SWAP1 POP SWAP2 SWAP1 POP JUMP JUMPDEST PUSH1 0x0 PUSH1 0x20 DUP3 ADD SWAP1 POP DUP2 DUP2 SUB PUSH1 0x0 DUP4 ADD MSTORE PUSH2 0x28AA DUP2 PUSH2 0x286E JUMP JUMPDEST SWAP1 POP SWAP2 SWAP1 POP JUMP JUMPDEST PUSH32 0x4661696C656420746F2073656E64204E46542070726963652045746865722074 PUSH1 0x0 DUP3 ADD MSTORE PUSH32 0x6F206F776E657221000000000000000000000000000000000000000000000000 PUSH1 0x20 DUP3 ADD MSTORE POP JUMP JUMPDEST PUSH1 0x0 PUSH2 0x290D PUSH1 0x28 DUP4 PUSH2 0x22C3 JUMP JUMPDEST SWAP2 POP PUSH2 0x2918 DUP3 PUSH2 0x28B1 JUMP JUMPDEST PUSH1 0x40 DUP3 ADD SWAP1 POP SWAP2 SWAP1 POP JUMP JUMPDEST PUSH1 0x0 PUSH1 0x20 DUP3 ADD SWAP1 POP DUP2 DUP2 SUB PUSH1 0x0 DUP4 ADD MSTORE PUSH2 0x293C DUP2 PUSH2 0x2900 JUMP JUMPDEST SWAP1 POP SWAP2 SWAP1 POP JUMP JUMPDEST PUSH32 0x4D7573742062652070726F706F736564206F776E657200000000000000000000 PUSH1 0x0 DUP3 ADD MSTORE POP JUMP JUMPDEST PUSH1 0x0 PUSH2 0x2979 PUSH1 0x16 DUP4 PUSH2 0x22C3 JUMP JUMPDEST SWAP2 POP PUSH2 0x2984 DUP3 PUSH2 0x2943 JUMP JUMPDEST PUSH1 0x20 DUP3 ADD SWAP1 POP SWAP2 SWAP1 POP JUMP JUMPDEST PUSH1 0x0 PUSH1 0x20 DUP3 ADD SWAP1 POP DUP2 DUP2 SUB PUSH1 0x0 DUP4 ADD MSTORE PUSH2 0x29A8 DUP2 PUSH2 0x296C JUMP JUMPDEST SWAP1 POP SWAP2 SWAP1 POP JUMP JUMPDEST PUSH32 0x416464726573732063616E6E6F74206265206E756C6C21000000000000000000 PUSH1 0x0 DUP3 ADD MSTORE POP JUMP JUMPDEST PUSH1 0x0 PUSH2 0x29E5 PUSH1 0x17 DUP4 PUSH2 0x22C3 JUMP JUMPDEST SWAP2 POP PUSH2 0x29F0 DUP3 PUSH2 0x29AF JUMP JUMPDEST PUSH1 0x20 DUP3 ADD SWAP1 POP SWAP2 SWAP1 POP JUMP JUMPDEST PUSH1 0x0 PUSH1 0x20 DUP3 ADD SWAP1 POP DUP2 DUP2 SUB PUSH1 0x0 DUP4 ADD MSTORE PUSH2 0x2A14 DUP2 PUSH2 0x29D8 JUMP JUMPDEST SWAP1 POP SWAP2 SWAP1 POP JUMP JUMPDEST PUSH32 0x4E487B7100000000000000000000000000000000000000000000000000000000 PUSH1 0x0 MSTORE PUSH1 0x41 PUSH1 0x4 MSTORE PUSH1 0x24 PUSH1 0x0 REVERT JUMPDEST PUSH32 0x4E487B7100000000000000000000000000000000000000000000000000000000 PUSH1 0x0 MSTORE PUSH1 0x32 PUSH1 0x4 MSTORE PUSH1 0x24 PUSH1 0x0 REVERT JUMPDEST PUSH1 0x0 PUSH2 0x2A84 DUP3 PUSH2 0x1F1D JUMP JUMPDEST SWAP2 POP PUSH1 0x0 DUP3 SUB PUSH2 0x2A97 JUMPI PUSH2 0x2A96 PUSH2 0x2643 JUMP JUMPDEST JUMPDEST PUSH1 0x1 DUP3 SUB SWAP1 POP SWAP2 SWAP1 POP JUMP JUMPDEST PUSH32 0x537472696E67733A20686578206C656E67746820696E73756666696369656E74 PUSH1 0x0 DUP3 ADD MSTORE POP JUMP JUMPDEST PUSH1 0x0 PUSH2 0x2AD8 PUSH1 0x20 DUP4 PUSH2 0x22C3 JUMP JUMPDEST SWAP2 POP PUSH2 0x2AE3 DUP3 PUSH2 0x2AA2 JUMP JUMPDEST PUSH1 0x20 DUP3 ADD SWAP1 POP SWAP2 SWAP1 POP JUMP JUMPDEST PUSH1 0x0 PUSH1 0x20 DUP3 ADD SWAP1 POP DUP2 DUP2 SUB PUSH1 0x0 DUP4 ADD MSTORE PUSH2 0x2B07 DUP2 PUSH2 0x2ACB JUMP JUMPDEST SWAP1 POP SWAP2 SWAP1 POP JUMP JUMPDEST PUSH32 0x4F6E6C792063616C6C61626C65206279206F776E657200000000000000000000 PUSH1 0x0 DUP3 ADD MSTORE POP JUMP JUMPDEST PUSH1 0x0 PUSH2 0x2B44 PUSH1 0x16 DUP4 PUSH2 0x22C3 JUMP JUMPDEST SWAP2 POP PUSH2 0x2B4F DUP3 PUSH2 0x2B0E JUMP JUMPDEST PUSH1 0x20 DUP3 ADD SWAP1 POP SWAP2 SWAP1 POP JUMP JUMPDEST PUSH1 0x0 PUSH1 0x20 DUP3 ADD SWAP1 POP DUP2 DUP2 SUB PUSH1 0x0 DUP4 ADD MSTORE PUSH2 0x2B73 DUP2 PUSH2 0x2B37 JUMP JUMPDEST SWAP1 POP SWAP2 SWAP1 POP JUMP JUMPDEST PUSH32 0x43616E6E6F74207472616E7366657220746F2073656C66000000000000000000 PUSH1 0x0 DUP3 ADD MSTORE POP JUMP JUMPDEST PUSH1 0x0 PUSH2 0x2BB0 PUSH1 0x17 DUP4 PUSH2 0x22C3 JUMP JUMPDEST SWAP2 POP PUSH2 0x2BBB DUP3 PUSH2 0x2B7A JUMP JUMPDEST PUSH1 0x20 DUP3 ADD SWAP1 POP SWAP2 SWAP1 POP JUMP JUMPDEST PUSH1 0x0 PUSH1 0x20 DUP3 ADD SWAP1 POP DUP2 DUP2 SUB PUSH1 0x0 DUP4 ADD MSTORE PUSH2 0x2BDF DUP2 PUSH2 0x2BA3 JUMP JUMPDEST SWAP1 POP SWAP2 SWAP1 POP JUMP JUMPDEST PUSH1 0x0 DUP2 SWAP1 POP SWAP2 SWAP1 POP JUMP JUMPDEST PUSH1 0x0 PUSH2 0x2BFB DUP3 PUSH2 0x2BE6 JUMP JUMPDEST SWAP2 POP PUSH2 0x2C06 DUP4 PUSH2 0x2BE6 JUMP JUMPDEST SWAP3 POP DUP3 DUP3 SUB SWAP1 POP DUP2 DUP2 SLT PUSH1 0x0 DUP5 SLT AND DUP3 DUP3 SGT PUSH1 0x0 DUP6 SLT ISZERO AND OR ISZERO PUSH2 0x2C2D JUMPI PUSH2 0x2C2C PUSH2 0x2643 JUMP JUMPDEST JUMPDEST SWAP3 SWAP2 POP POP JUMP JUMPDEST PUSH1 0x0 PUSH32 0xFFFFFFFF00000000000000000000000000000000000000000000000000000000 DUP3 AND SWAP1 POP SWAP2 SWAP1 POP JUMP JUMPDEST PUSH2 0x2C68 DUP2 PUSH2 0x2C33 JUMP JUMPDEST DUP3 MSTORE POP POP JUMP JUMPDEST PUSH1 0x0 DUP2 MLOAD SWAP1 POP SWAP2 SWAP1 POP JUMP JUMPDEST PUSH1 0x0 DUP3 DUP3 MSTORE PUSH1 0x20 DUP3 ADD SWAP1 POP SWAP3 SWAP2 POP POP JUMP JUMPDEST PUSH1 0x0 PUSH1 0x1F NOT PUSH1 0x1F DUP4 ADD AND SWAP1 POP SWAP2 SWAP1 POP JUMP JUMPDEST PUSH1 0x0 PUSH2 0x2CA6 DUP3 PUSH2 0x2C6E JUMP JUMPDEST PUSH2 0x2CB0 DUP2 DUP6 PUSH2 0x2C79 JUMP JUMPDEST SWAP4 POP PUSH2 0x2CC0 DUP2 DUP6 PUSH1 0x20 DUP7 ADD PUSH2 0x21E2 JUMP JUMPDEST PUSH2 0x2CC9 DUP2 PUSH2 0x2C8A JUMP JUMPDEST DUP5 ADD SWAP2 POP POP SWAP3 SWAP2 POP POP JUMP JUMPDEST PUSH1 0x0 PUSH2 0x100 DUP3 ADD SWAP1 POP PUSH2 0x2CEA PUSH1 0x0 DUP4 ADD DUP12 PUSH2 0x20DD JUMP JUMPDEST PUSH2 0x2CF7 PUSH1 0x20 DUP4 ADD DUP11 PUSH2 0x1FC7 JUMP JUMPDEST PUSH2 0x2D04 PUSH1 0x40 DUP4 ADD DUP10 PUSH2 0x1F9D JUMP JUMPDEST PUSH2 0x2D11 PUSH1 0x60 DUP4 ADD DUP9 PUSH2 0x20DD JUMP JUMPDEST PUSH2 0x2D1E PUSH1 0x80 DUP4 ADD DUP8 PUSH2 0x2C5F JUMP JUMPDEST PUSH2 0x2D2B PUSH1 0xA0 DUP4 ADD DUP7 PUSH2 0x1FC7 JUMP JUMPDEST PUSH2 0x2D38 PUSH1 0xC0 DUP4 ADD DUP6 PUSH2 0x1FC7 JUMP JUMPDEST DUP2 DUP2 SUB PUSH1 0xE0 DUP4 ADD MSTORE PUSH2 0x2D4A DUP2 DUP5 PUSH2 0x2C9B JUMP JUMPDEST SWAP1 POP SWAP10 SWAP9 POP POP POP POP POP POP POP POP POP JUMP JUMPDEST PUSH1 0x0 PUSH2 0x2D64 DUP3 PUSH2 0x1F1D JUMP JUMPDEST SWAP2 POP PUSH2 0x2D6F DUP4 PUSH2 0x1F1D JUMP JUMPDEST SWAP3 POP DUP3 PUSH2 0x2D7F JUMPI PUSH2 0x2D7E PUSH2 0x26B4 JUMP JUMPDEST JUMPDEST DUP3 DUP3 MOD SWAP1 POP SWAP3 SWAP2 POP POP JUMP JUMPDEST PUSH1 0x0 DUP2 SWAP1 POP SWAP2 SWAP1 POP JUMP JUMPDEST PUSH1 0x0 PUSH2 0x2DAF PUSH2 0x2DAA PUSH2 0x2DA5 DUP5 PUSH2 0x1EBF JUMP JUMPDEST PUSH2 0x2D8A JUMP JUMPDEST PUSH2 0x1EBF JUMP JUMPDEST SWAP1 POP SWAP2 SWAP1 POP JUMP JUMPDEST PUSH1 0x0 PUSH2 0x2DC1 DUP3 PUSH2 0x2D94 JUMP JUMPDEST SWAP1 POP SWAP2 SWAP1 POP JUMP JUMPDEST PUSH1 0x0 PUSH2 0x2DD3 DUP3 PUSH2 0x2DB6 JUMP JUMPDEST SWAP1 POP SWAP2 SWAP1 POP JUMP JUMPDEST PUSH1 0x0 DUP2 PUSH1 0x60 SHL SWAP1 POP SWAP2 SWAP1 POP JUMP JUMPDEST PUSH1 0x0 PUSH2 0x2DF2 DUP3 PUSH2 0x2DDA JUMP JUMPDEST SWAP1 POP SWAP2 SWAP1 POP JUMP JUMPDEST PUSH1 0x0 PUSH2 0x2E04 DUP3 PUSH2 0x2DE7 JUMP JUMPDEST SWAP1 POP SWAP2 SWAP1 POP JUMP JUMPDEST PUSH2 0x2E1C PUSH2 0x2E17 DUP3 PUSH2 0x2DC8 JUMP JUMPDEST PUSH2 0x2DF9 JUMP JUMPDEST DUP3 MSTORE POP POP JUMP JUMPDEST PUSH1 0x0 DUP2 SWAP1 POP SWAP2 SWAP1 POP JUMP JUMPDEST PUSH2 0x2E3D PUSH2 0x2E38 DUP3 PUSH2 0x1F1D JUMP JUMPDEST PUSH2 0x2E22 JUMP JUMPDEST DUP3 MSTORE POP POP JUMP JUMPDEST PUSH1 0x0 PUSH2 0x2E4F DUP3 DUP6 PUSH2 0x2E0B JUMP JUMPDEST PUSH1 0x14 DUP3 ADD SWAP2 POP PUSH2 0x2E5F DUP3 DUP5 PUSH2 0x2E2C JUMP JUMPDEST PUSH1 0x20 DUP3 ADD SWAP2 POP DUP2 SWAP1 POP SWAP4 SWAP3 POP POP POP JUMP JUMPDEST PUSH1 0x0 PUSH1 0x60 DUP3 ADD SWAP1 POP PUSH2 0x2E84 PUSH1 0x0 DUP4 ADD DUP7 PUSH2 0x20DD JUMP JUMPDEST PUSH2 0x2E91 PUSH1 0x20 DUP4 ADD DUP6 PUSH2 0x1FC7 JUMP JUMPDEST DUP2 DUP2 SUB PUSH1 0x40 DUP4 ADD MSTORE PUSH2 0x2EA3 DUP2 DUP5 PUSH2 0x2C9B JUMP JUMPDEST SWAP1 POP SWAP5 SWAP4 POP POP POP POP JUMP JUMPDEST PUSH1 0x0 DUP2 ISZERO ISZERO SWAP1 POP SWAP2 SWAP1 POP JUMP JUMPDEST PUSH2 0x2EC2 DUP2 PUSH2 0x2EAD JUMP JUMPDEST DUP2 EQ PUSH2 0x2ECD JUMPI PUSH1 0x0 DUP1 REVERT JUMPDEST POP JUMP JUMPDEST PUSH1 0x0 DUP2 MLOAD SWAP1 POP PUSH2 0x2EDF DUP2 PUSH2 0x2EB9 JUMP JUMPDEST SWAP3 SWAP2 POP POP JUMP JUMPDEST PUSH1 0x0 PUSH1 0x20 DUP3 DUP5 SUB SLT ISZERO PUSH2 0x2EFB JUMPI PUSH2 0x2EFA PUSH2 0x1EBA JUMP JUMPDEST JUMPDEST PUSH1 0x0 PUSH2 0x2F09 DUP5 DUP3 DUP6 ADD PUSH2 0x2ED0 JUMP JUMPDEST SWAP2 POP POP SWAP3 SWAP2 POP POP JUMP JUMPDEST PUSH32 0x756E61626C6520746F207472616E73666572416E6443616C6C20746F206F7261 PUSH1 0x0 DUP3 ADD MSTORE PUSH32 0x636C650000000000000000000000000000000000000000000000000000000000 PUSH1 0x20 DUP3 ADD MSTORE POP JUMP JUMPDEST PUSH1 0x0 PUSH2 0x2F6E PUSH1 0x23 DUP4 PUSH2 0x22C3 JUMP JUMPDEST SWAP2 POP PUSH2 0x2F79 DUP3 PUSH2 0x2F12 JUMP JUMPDEST PUSH1 0x40 DUP3 ADD SWAP1 POP SWAP2 SWAP1 POP JUMP JUMPDEST PUSH1 0x0 PUSH1 0x20 DUP3 ADD SWAP1 POP DUP2 DUP2 SUB PUSH1 0x0 DUP4 ADD MSTORE PUSH2 0x2F9D DUP2 PUSH2 0x2F61 JUMP JUMPDEST SWAP1 POP SWAP2 SWAP1 POP JUMP JUMPDEST PUSH1 0x0 DUP2 PUSH1 0x1 SHR SWAP1 POP SWAP2 SWAP1 POP JUMP JUMPDEST PUSH1 0x0 DUP1 DUP3 SWAP2 POP DUP4 SWAP1 POP JUMPDEST PUSH1 0x1 DUP6 GT ISZERO PUSH2 0x2FFB JUMPI DUP1 DUP7 DIV DUP2 GT ISZERO PUSH2 0x2FD7 JUMPI PUSH2 0x2FD6 PUSH2 0x2643 JUMP JUMPDEST JUMPDEST PUSH1 0x1 DUP6 AND ISZERO PUSH2 0x2FE6 JUMPI DUP1 DUP3 MUL SWAP2 POP JUMPDEST DUP1 DUP2 MUL SWAP1 POP PUSH2 0x2FF4 DUP6 PUSH2 0x2FA4 JUMP JUMPDEST SWAP5 POP PUSH2 0x2FBB JUMP JUMPDEST SWAP5 POP SWAP5 SWAP3 POP POP POP JUMP JUMPDEST PUSH1 0x0 DUP3 PUSH2 0x3014 JUMPI PUSH1 0x1 SWAP1 POP PUSH2 0x30D0 JUMP JUMPDEST DUP2 PUSH2 0x3022 JUMPI PUSH1 0x0 SWAP1 POP PUSH2 0x30D0 JUMP JUMPDEST DUP2 PUSH1 0x1 DUP2 EQ PUSH2 0x3038 JUMPI PUSH1 0x2 DUP2 EQ PUSH2 0x3042 JUMPI PUSH2 0x3071 JUMP JUMPDEST PUSH1 0x1 SWAP2 POP POP PUSH2 0x30D0 JUMP JUMPDEST PUSH1 0xFF DUP5 GT ISZERO PUSH2 0x3054 JUMPI PUSH2 0x3053 PUSH2 0x2643 JUMP JUMPDEST JUMPDEST DUP4 PUSH1 0x2 EXP SWAP2 POP DUP5 DUP3 GT ISZERO PUSH2 0x306B JUMPI PUSH2 0x306A PUSH2 0x2643 JUMP JUMPDEST JUMPDEST POP PUSH2 0x30D0 JUMP JUMPDEST POP PUSH1 0x20 DUP4 LT PUSH2 0x133 DUP4 LT AND PUSH1 0x4E DUP5 LT PUSH1 0xB DUP5 LT AND OR ISZERO PUSH2 0x30A6 JUMPI DUP3 DUP3 EXP SWAP1 POP DUP4 DUP2 GT ISZERO PUSH2 0x30A1 JUMPI PUSH2 0x30A0 PUSH2 0x2643 JUMP JUMPDEST JUMPDEST PUSH2 0x30D0 JUMP JUMPDEST PUSH2 0x30B3 DUP5 DUP5 DUP5 PUSH1 0x1 PUSH2 0x2FB1 JUMP JUMPDEST SWAP3 POP SWAP1 POP DUP2 DUP5 DIV DUP2 GT ISZERO PUSH2 0x30CA JUMPI PUSH2 0x30C9 PUSH2 0x2643 JUMP JUMPDEST JUMPDEST DUP2 DUP2 MUL SWAP1 POP JUMPDEST SWAP4 SWAP3 POP POP POP JUMP JUMPDEST PUSH1 0x0 PUSH2 0x30E2 DUP3 PUSH2 0x1F1D JUMP JUMPDEST SWAP2 POP PUSH2 0x30ED DUP4 PUSH2 0x1F1D JUMP JUMPDEST SWAP3 POP PUSH2 0x311A PUSH32 0xFFFFFFFFFFFFFFFFFFFFFFFFFFFFFFFFFFFFFFFFFFFFFFFFFFFFFFFFFFFFFFFF DUP5 DUP5 PUSH2 0x3004 JUMP JUMPDEST SWAP1 POP SWAP3 SWAP2 POP POP JUMP INVALID LOG2 PUSH5 0x6970667358 0x22 SLT KECCAK256 0xD4 0xF8 PUSH31 0x4D27C8BDAF56775692EFF3D29826601B0EC1721A7EC794DADF70BC41796473 PUSH16 0x6C634300081100330000000000000000 "},"methodIdentifiers":{"acceptOwnership()":"79ba5097","changeOwner(address)":"a6f9dae1","claimServiceFee()":"33b3be77","fulfill(bytes32,uint256)":"4357855e","getServiceFee()":"11a1933c","owner()":"8da5cb5b","prices()":"d3419bf3","requestTokenPrice(address,uint256)":"0bd4fe0f","setServiceFee(uint256)":"5cdf76f8","swapOut(address,address,uint256)":"48c314f4","transferOwnership(address)":"f2fde38b"}}}}}