{"contracts/nftTransfer.sol":{"NFTMarket":{"abi":[{"inputs":[],"stateMutability":"nonpayable","type":"constructor"},{"anonymous":false,"inputs":[{"indexed":true,"internalType":"bytes32","name":"id","type":"bytes32"}],"name":"ChainlinkCancelled","type":"event"},{"anonymous":false,"inputs":[{"indexed":true,"internalType":"bytes32","name":"id","type":"bytes32"}],"name":"ChainlinkFulfilled","type":"event"},{"anonymous":false,"inputs":[{"indexed":true,"internalType":"bytes32","name":"id","type":"bytes32"}],"name":"ChainlinkRequested","type":"event"},{"inputs":[{"internalType":"address","name":"_owner","type":"address"}],"name":"changeOwner","outputs":[],"stateMutability":"nonpayable","type":"function"},{"inputs":[],"name":"claimServiceFee","outputs":[],"stateMutability":"payable","type":"function"},{"inputs":[{"internalType":"bytes32","name":"_requestId","type":"bytes32"},{"internalType":"uint256","name":"_price","type":"uint256"}],"name":"fulfill","outputs":[],"stateMutability":"nonpayable","type":"function"},{"inputs":[],"name":"getServiceFee","outputs":[{"internalType":"uint256","name":"serviceCharges","type":"uint256"}],"stateMutability":"view","type":"function"},{"inputs":[],"name":"prices","outputs":[{"internalType":"uint256","name":"","type":"uint256"}],"stateMutability":"view","type":"function"},{"inputs":[{"internalType":"address","name":"_collection","type":"address"},{"internalType":"uint256","name":"_tokenId","type":"uint256"}],"name":"requestTokenPrice","outputs":[{"internalType":"bytes32","name":"reqestId","type":"bytes32"}],"stateMutability":"nonpayable","type":"function"},{"inputs":[{"internalType":"uint256","name":"basisPoints","type":"uint256"}],"name":"setServiceFee","outputs":[],"stateMutability":"nonpayable","type":"function"},{"inputs":[{"internalType":"address","name":"_token","type":"address"},{"internalType":"address","name":"_recipient","type":"address"},{"internalType":"uint256","name":"_tokenId","type":"uint256"}],"name":"swapOut","outputs":[],"stateMutability":"payable","type":"function"}],"evm":{"bytecode":{"linkReferences":{},"object":"6080604052600160045560646007556000600b553480156200002057600080fd5b506000600a8190555033600660006101000a81548173ffffffffffffffffffffffffffffffffffffffff021916908373ffffffffffffffffffffffffffffffffffffffff1602179055507f6361393833363663633733313439353762386330313263373266303561656562600881905550600a670de0b6b3a76400006001620000aa9190620001cd565b620000b6919062000247565b600981905550620000e173326c977e6efc84e512bb9c30f76e30c160ed06fb6200010c60201b60201c565b6200010673cc79157eb46f5624204f47ab42b3906caa40eab76200015060201b60201c565b6200027f565b80600260006101000a81548173ffffffffffffffffffffffffffffffffffffffff021916908373ffffffffffffffffffffffffffffffffffffffff16021790555050565b80600360006101000a81548173ffffffffffffffffffffffffffffffffffffffff021916908373ffffffffffffffffffffffffffffffffffffffff16021790555050565b6000819050919050565b7f4e487b7100000000000000000000000000000000000000000000000000000000600052601160045260246000fd5b6000620001da8262000194565b9150620001e78362000194565b9250828202620001f78162000194565b915082820484148315176200021157620002106200019e565b5b5092915050565b7f4e487b7100000000000000000000000000000000000000000000000000000000600052601260045260246000fd5b6000620002548262000194565b9150620002618362000194565b92508262000274576200027362000218565b5b828204905092915050565b612292806200028f6000396000f3fe60806040526004361061007b5760003560e01c806348c314f41161004e57806348c314f41461011b5780635cdf76f814610137578063a6f9dae114610160578063d3419bf3146101895761007b565b80630bd4fe0f1461008057806311a1933c146100bd57806333b3be77146100e85780634357855e146100f2575b600080fd5b34801561008c57600080fd5b506100a760048036038101906100a2919061149f565b6101b4565b6040516100b491906114f8565b60405180910390f35b3480156100c957600080fd5b506100d26102c3565b6040516100df9190611522565b60405180910390f35b6100f06102cd565b005b3480156100fe57600080fd5b5061011960048036038101906101149190611569565b6104d1565b005b610135600480360381019061013091906115a9565b6105e2565b005b34801561014357600080fd5b5061015e600480360381019061015991906115fc565b6109d4565b005b34801561016c57600080fd5b5061018760048036038101906101829190611629565b610a6e565b005b34801561019557600080fd5b5061019e610b42565b6040516101ab9190611522565b60405180910390f35b6000806101cb60085430634357855e60e01b610b48565b905061022f6040518060400160405280600381526020017f67657400000000000000000000000000000000000000000000000000000000008152506040518060600160405280603881526020016122256038913983610b799092919063ffffffff16565b6102ae6040518060400160405280600481526020017f70617468000000000000000000000000000000000000000000000000000000008152506040518060400160405280600581526020017f76616c756500000000000000000000000000000000000000000000000000000081525083610b799092919063ffffffff16565b6102ba81600954610bac565b91505092915050565b6000600754905090565b600660009054906101000a900473ffffffffffffffffffffffffffffffffffffffff1673ffffffffffffffffffffffffffffffffffffffff163373ffffffffffffffffffffffffffffffffffffffff161461035d576040517f08c379a0000000000000000000000000000000000000000000000000000000008152600401610354906116d9565b60405180910390fd5b600c60009054906101000a900460ff16156103ad576040517f08c379a00000000000000000000000000000000000000000000000000000000081526004016103a490611745565b60405180910390fd5b6001600c60006101000a81548160ff0219169083151502179055506000600b54116103db576103da611765565b5b6000600660009054906101000a900473ffffffffffffffffffffffffffffffffffffffff1673ffffffffffffffffffffffffffffffffffffffff16600b54604051610425906117c5565b60006040518083038185875af1925050503d8060008114610462576040519150601f19603f3d011682016040523d82523d6000602084013e610467565b606091505b50509050806104ab576040517f08c379a00000000000000000000000000000000000000000000000000000000081526004016104a29061184c565b60405180910390fd5b6000600b81905550506000600c60006101000a81548160ff021916908315150217905550565b816005600082815260200190815260200160002060009054906101000a900473ffffffffffffffffffffffffffffffffffffffff1673ffffffffffffffffffffffffffffffffffffffff163373ffffffffffffffffffffffffffffffffffffffff1614610573576040517f08c379a000000000000000000000000000000000000000000000000000000000815260040161056a906118de565b60405180910390fd5b6005600082815260200190815260200160002060006101000a81549073ffffffffffffffffffffffffffffffffffffffff0219169055807f7cc135e0cebb02c3480ae5d74d377283180a2601f8f644edf7987b009316c63a60405160405180910390a281600a81905550505050565b600c60009054906101000a900460ff1615610632576040517f08c379a000000000000000000000000000000000000000000000000000000000815260040161062990611745565b60405180910390fd5b6001600c60006101000a81548160ff021916908315150217905550600073ffffffffffffffffffffffffffffffffffffffff168373ffffffffffffffffffffffffffffffffffffffff16141580156106b75750600073ffffffffffffffffffffffffffffffffffffffff168273ffffffffffffffffffffffffffffffffffffffff1614155b6106f6576040517f08c379a00000000000000000000000000000000000000000000000000000000081526004016106ed90611970565b60405180910390fd5b6000600a541161073b576040517f08c379a0000000000000000000000000000000000000000000000000000000008152600401610732906119dc565b60405180910390fd5b60003490506000612710600754600a546107559190611a2b565b61075f9190611a9c565b905080600b60008282546107739190611acd565b9250508190555080600a546107889190611acd565b8210156107ca576040517f08c379a00000000000000000000000000000000000000000000000000000000081526004016107c190611b4d565b60405180910390fd5b8473ffffffffffffffffffffffffffffffffffffffff166342842e0e3386866040518463ffffffff1660e01b815260040161080793929190611b7c565b600060405180830381600087803b15801561082157600080fd5b505af1158015610835573d6000803e3d6000fd5b50505050600081600a546108499190611acd565b836108549190611bb3565b905060008573ffffffffffffffffffffffffffffffffffffffff168260405161087c906117c5565b60006040518083038185875af1925050503d80600081146108b9576040519150601f19603f3d011682016040523d82523d6000602084013e6108be565b606091505b5050905080610902576040517f08c379a00000000000000000000000000000000000000000000000000000000081526004016108f990611c59565b60405180910390fd5b8573ffffffffffffffffffffffffffffffffffffffff16600a54604051610928906117c5565b60006040518083038185875af1925050503d8060008114610965576040519150601f19603f3d011682016040523d82523d6000602084013e61096a565b606091505b505080915050806109b0576040517f08c379a00000000000000000000000000000000000000000000000000000000081526004016109a790611ceb565b60405180910390fd5b505050506000600c60006101000a81548160ff021916908315150217905550505050565b600660009054906101000a900473ffffffffffffffffffffffffffffffffffffffff1673ffffffffffffffffffffffffffffffffffffffff163373ffffffffffffffffffffffffffffffffffffffff1614610a64576040517f08c379a0000000000000000000000000000000000000000000000000000000008152600401610a5b906116d9565b60405180910390fd5b8060078190555050565b600660009054906101000a900473ffffffffffffffffffffffffffffffffffffffff1673ffffffffffffffffffffffffffffffffffffffff163373ffffffffffffffffffffffffffffffffffffffff1614610afe576040517f08c379a0000000000000000000000000000000000000000000000000000000008152600401610af5906116d9565b60405180910390fd5b80600660006101000a81548173ffffffffffffffffffffffffffffffffffffffff021916908373ffffffffffffffffffffffffffffffffffffffff16021790555050565b600a5481565b610b5061137f565b610b5861137f565b610b6f85858584610be3909392919063ffffffff16565b9150509392505050565b610b90828460800151610c9390919063ffffffff16565b610ba7818460800151610c9390919063ffffffff16565b505050565b6000610bdb600360009054906101000a900473ffffffffffffffffffffffffffffffffffffffff168484610cb8565b905092915050565b610beb61137f565b610bfb8560800151610100610d84565b508385600001818152505082856020019073ffffffffffffffffffffffffffffffffffffffff16908173ffffffffffffffffffffffffffffffffffffffff16815250508185604001907bffffffffffffffffffffffffffffffffffffffffffffffffffffffff191690817bffffffffffffffffffffffffffffffffffffffffffffffffffffffff191681525050849050949350505050565b610ca08260038351610dee565b610cb38183610f7390919063ffffffff16565b505050565b6000806004549050600181610ccd9190611acd565b6004819055506000634042994660e01b60008087600001513089604001518760018c6080015160000151604051602401610d0e989796959493929190611dd6565b604051602081830303815290604052907bffffffffffffffffffffffffffffffffffffffffffffffffffffffff19166020820180517bffffffffffffffffffffffffffffffffffffffffffffffffffffffff83818316178352505050509050610d7986838684610f95565b925050509392505050565b610d8c6113ec565b6000602083610d9b9190611e5b565b14610dc757602082610dad9190611e5b565b6020610db99190611bb3565b82610dc49190611acd565b91505b81836020018181525050604051808452600081528281016020016040525082905092915050565b60178167ffffffffffffffff1611610e2557610e1f8160058460ff16901b60ff16178461112a90919063ffffffff16565b50610f6e565b60ff8167ffffffffffffffff1611610e7b57610e54601860058460ff16901b178461112a90919063ffffffff16565b50610e758167ffffffffffffffff1660018561114a9092919063ffffffff16565b50610f6d565b61ffff8167ffffffffffffffff1611610ed257610eab601960058460ff16901b178461112a90919063ffffffff16565b50610ecc8167ffffffffffffffff1660028561114a9092919063ffffffff16565b50610f6c565b63ffffffff8167ffffffffffffffff1611610f2b57610f04601a60058460ff16901b178461112a90919063ffffffff16565b50610f258167ffffffffffffffff1660048561114a9092919063ffffffff16565b50610f6b565b610f48601b60058460ff16901b178461112a90919063ffffffff16565b50610f698167ffffffffffffffff1660088561114a9092919063ffffffff16565b505b5b5b5b505050565b610f7b6113ec565b610f8d8384600001515184855161116c565b905092915050565b60003084604051602001610faa929190611f45565b604051602081830303815290604052805190602001209050846005600083815260200190815260200160002060006101000a81548173ffffffffffffffffffffffffffffffffffffffff021916908373ffffffffffffffffffffffffffffffffffffffff160217905550807fb5e6e01e79f91267dc17b4e6314d5d4d03593d2ceee0fbb452b750bd70ea5af960405160405180910390a2600260009054906101000a900473ffffffffffffffffffffffffffffffffffffffff1673ffffffffffffffffffffffffffffffffffffffff16634000aea08685856040518463ffffffff1660e01b81526004016110a093929190611f71565b6020604051808303816000875af11580156110bf573d6000803e3d6000fd5b505050506040513d601f19601f820116820180604052508101906110e39190611fe7565b611122576040517f08c379a000000000000000000000000000000000000000000000000000000000815260040161111990612086565b60405180910390fd5b949350505050565b6111326113ec565b611142838460000151518461125b565b905092915050565b6111526113ec565b6111638485600001515185856112b1565b90509392505050565b6111746113ec565b825182111561118257600080fd5b846020015182856111939190611acd565b11156111c8576111c78560026111b8886020015188876111b39190611acd565b61133f565b6111c29190611a2b565b61135b565b5b6000808651805187602083010193508088870111156111e75787860182525b60208701925050505b6020841061122e57805182526020826112099190611acd565b91506020816112189190611acd565b90506020846112279190611bb3565b93506111f0565b60006001856020036101000a03905080198251168184511681811785525050508692505050949350505050565b6112636113ec565b836020015183106112895761128884600286602001516112839190611a2b565b61135b565b5b835180516020858301018481538186036112a4576001820183525b5050508390509392505050565b6112b96113ec565b846020015184836112ca9190611acd565b11156112f2576112f185600286856112e29190611acd565b6112ec9190611a2b565b61135b565b5b600060018361010061130491906121d9565b61130e9190611bb3565b905085518386820101858319825116178152815185880111156113315784870182525b505085915050949350505050565b60008183111561135157829050611355565b8190505b92915050565b60008260000151905061136e8383610d84565b506113798382610f73565b50505050565b6040518060a0016040528060008019168152602001600073ffffffffffffffffffffffffffffffffffffffff16815260200160007bffffffffffffffffffffffffffffffffffffffffffffffffffffffff19168152602001600081526020016113e66113ec565b81525090565b604051806040016040528060608152602001600081525090565b600080fd5b600073ffffffffffffffffffffffffffffffffffffffff82169050919050565b60006114368261140b565b9050919050565b6114468161142b565b811461145157600080fd5b50565b6000813590506114638161143d565b92915050565b6000819050919050565b61147c81611469565b811461148757600080fd5b50565b60008135905061149981611473565b92915050565b600080604083850312156114b6576114b5611406565b5b60006114c485828601611454565b92505060206114d58582860161148a565b9150509250929050565b6000819050919050565b6114f2816114df565b82525050565b600060208201905061150d60008301846114e9565b92915050565b61151c81611469565b82525050565b60006020820190506115376000830184611513565b92915050565b611546816114df565b811461155157600080fd5b50565b6000813590506115638161153d565b92915050565b600080604083850312156115805761157f611406565b5b600061158e85828601611554565b925050602061159f8582860161148a565b9150509250929050565b6000806000606084860312156115c2576115c1611406565b5b60006115d086828701611454565b93505060206115e186828701611454565b92505060406115f28682870161148a565b9150509250925092565b60006020828403121561161257611611611406565b5b60006116208482850161148a565b91505092915050565b60006020828403121561163f5761163e611406565b5b600061164d84828501611454565b91505092915050565b600082825260208201905092915050565b7f52696768747320726573657276656420666f7220746865206f776e6572206f6e60008201527f6c79210000000000000000000000000000000000000000000000000000000000602082015250565b60006116c3602383611656565b91506116ce82611667565b604082019050919050565b600060208201905081810360008301526116f2816116b6565b9050919050565b7f4e6f2072652d656e7472616e6379000000000000000000000000000000000000600082015250565b600061172f600e83611656565b915061173a826116f9565b602082019050919050565b6000602082019050818103600083015261175e81611722565b9050919050565b7f4e487b7100000000000000000000000000000000000000000000000000000000600052600160045260246000fd5b600081905092915050565b50565b60006117af600083611794565b91506117ba8261179f565b600082019050919050565b60006117d0826117a2565b9150819050919050565b7f4661696c656420746f2073656e642073657276696365206665657320746f206f60008201527f776e657221000000000000000000000000000000000000000000000000000000602082015250565b6000611836602583611656565b9150611841826117da565b604082019050919050565b6000602082019050818103600083015261186581611829565b9050919050565b7f536f75726365206d75737420626520746865206f7261636c65206f662074686560008201527f2072657175657374000000000000000000000000000000000000000000000000602082015250565b60006118c8602883611656565b91506118d38261186c565b604082019050919050565b600060208201905081810360008301526118f7816118bb565b9050919050565b7f546f6b656e202620726563697069656e742061646472657373657320636f6e6e60008201527f6f74206265205a65726f21000000000000000000000000000000000000000000602082015250565b600061195a602b83611656565b9150611965826118fe565b604082019050919050565b600060208201905081810360008301526119898161194d565b9050919050565b7f496e76616c696420746f6b656e204944206f7220636f6c6c656374696f6e0000600082015250565b60006119c6601e83611656565b91506119d182611990565b602082019050919050565b600060208201905081810360008301526119f5816119b9565b9050919050565b7f4e487b7100000000000000000000000000000000000000000000000000000000600052601160045260246000fd5b6000611a3682611469565b9150611a4183611469565b9250828202611a4f81611469565b91508282048414831517611a6657611a656119fc565b5b5092915050565b7f4e487b7100000000000000000000000000000000000000000000000000000000600052601260045260246000fd5b6000611aa782611469565b9150611ab283611469565b925082611ac257611ac1611a6d565b5b828204905092915050565b6000611ad882611469565b9150611ae383611469565b9250828201905080821115611afb57611afa6119fc565b5b92915050565b7f496e73756666696369656e742065746865722070726f76696465642100000000600082015250565b6000611b37601c83611656565b9150611b4282611b01565b602082019050919050565b60006020820190508181036000830152611b6681611b2a565b9050919050565b611b768161142b565b82525050565b6000606082019050611b916000830186611b6d565b611b9e6020830185611b6d565b611bab6040830184611513565b949350505050565b6000611bbe82611469565b9150611bc983611469565b9250828203905081811115611be157611be06119fc565b5b92915050565b7f4661696c656420746f2073656e642065786365737320457468657220746f207260008201527f65636970656e7421000000000000000000000000000000000000000000000000602082015250565b6000611c43602883611656565b9150611c4e82611be7565b604082019050919050565b60006020820190508181036000830152611c7281611c36565b9050919050565b7f4661696c656420746f2073656e64204e4654207072696365204574686572207460008201527f6f206f776e657221000000000000000000000000000000000000000000000000602082015250565b6000611cd5602883611656565b9150611ce082611c79565b604082019050919050565b60006020820190508181036000830152611d0481611cc8565b9050919050565b60007fffffffff0000000000000000000000000000000000000000000000000000000082169050919050565b611d4081611d0b565b82525050565b600081519050919050565b600082825260208201905092915050565b60005b83811015611d80578082015181840152602081019050611d65565b60008484015250505050565b6000601f19601f8301169050919050565b6000611da882611d46565b611db28185611d51565b9350611dc2818560208601611d62565b611dcb81611d8c565b840191505092915050565b600061010082019050611dec600083018b611b6d565b611df9602083018a611513565b611e0660408301896114e9565b611e136060830188611b6d565b611e206080830187611d37565b611e2d60a0830186611513565b611e3a60c0830185611513565b81810360e0830152611e4c8184611d9d565b90509998505050505050505050565b6000611e6682611469565b9150611e7183611469565b925082611e8157611e80611a6d565b5b828206905092915050565b6000819050919050565b6000611eb1611eac611ea78461140b565b611e8c565b61140b565b9050919050565b6000611ec382611e96565b9050919050565b6000611ed582611eb8565b9050919050565b60008160601b9050919050565b6000611ef482611edc565b9050919050565b6000611f0682611ee9565b9050919050565b611f1e611f1982611eca565b611efb565b82525050565b6000819050919050565b611f3f611f3a82611469565b611f24565b82525050565b6000611f518285611f0d565b601482019150611f618284611f2e565b6020820191508190509392505050565b6000606082019050611f866000830186611b6d565b611f936020830185611513565b8181036040830152611fa58184611d9d565b9050949350505050565b60008115159050919050565b611fc481611faf565b8114611fcf57600080fd5b50565b600081519050611fe181611fbb565b92915050565b600060208284031215611ffd57611ffc611406565b5b600061200b84828501611fd2565b91505092915050565b7f756e61626c6520746f207472616e73666572416e6443616c6c20746f206f726160008201527f636c650000000000000000000000000000000000000000000000000000000000602082015250565b6000612070602383611656565b915061207b82612014565b604082019050919050565b6000602082019050818103600083015261209f81612063565b9050919050565b60008160011c9050919050565b6000808291508390505b60018511156120fd578086048111156120d9576120d86119fc565b5b60018516156120e85780820291505b80810290506120f6856120a6565b94506120bd565b94509492505050565b60008261211657600190506121d2565b8161212457600090506121d2565b816001811461213a576002811461214457612173565b60019150506121d2565b60ff841115612156576121556119fc565b5b8360020a91508482111561216d5761216c6119fc565b5b506121d2565b5060208310610133831016604e8410600b84101617156121a85782820a9050838111156121a3576121a26119fc565b5b6121d2565b6121b584848460016120b3565b925090508184048111156121cc576121cb6119fc565b5b81810290505b9392505050565b60006121e482611469565b91506121ef83611469565b925061221c7fffffffffffffffffffffffffffffffffffffffffffffffffffffffffffffffff8484612106565b90509291505056fe68747470733a2f2f6d6f636b692e696f2f76312f65316135656661632d386531382d346637302d393934372d313035666134656466343636a2646970667358221220be12f1a65dfc97d7fa49a221f17386a5ae62184ba97b6a1c38913b941e9c1c5964736f6c63430008110033","opcodes":"PUSH1 0x80 PUSH1 0x40 MSTORE PUSH1 0x1 PUSH1 0x4 SSTORE PUSH1 0x64 PUSH1 0x7 SSTORE PUSH1 0x0 PUSH1 0xB SSTORE CALLVALUE DUP1 ISZERO PUSH3 0x20 JUMPI PUSH1 0x0 DUP1 REVERT JUMPDEST POP PUSH1 0x0 PUSH1 0xA DUP2 SWAP1 SSTORE POP CALLER PUSH1 0x6 PUSH1 0x0 PUSH2 0x100 EXP DUP2 SLOAD DUP2 PUSH20 0xFFFFFFFFFFFFFFFFFFFFFFFFFFFFFFFFFFFFFFFF MUL NOT AND SWAP1 DUP4 PUSH20 0xFFFFFFFFFFFFFFFFFFFFFFFFFFFFFFFFFFFFFFFF AND MUL OR SWAP1 SSTORE POP PUSH32 0x6361393833363663633733313439353762386330313263373266303561656562 PUSH1 0x8 DUP2 SWAP1 SSTORE POP PUSH1 0xA PUSH8 0xDE0B6B3A7640000 PUSH1 0x1 PUSH3 0xAA SWAP2 SWAP1 PUSH3 0x1CD JUMP JUMPDEST PUSH3 0xB6 SWAP2 SWAP1 PUSH3 0x247 JUMP JUMPDEST PUSH1 0x9 DUP2 SWAP1 SSTORE POP PUSH3 0xE1 PUSH20 0x326C977E6EFC84E512BB9C30F76E30C160ED06FB PUSH3 0x10C PUSH1 0x20 SHL PUSH1 0x20 SHR JUMP JUMPDEST PUSH3 0x106 PUSH20 0xCC79157EB46F5624204F47AB42B3906CAA40EAB7 PUSH3 0x150 PUSH1 0x20 SHL PUSH1 0x20 SHR JUMP JUMPDEST PUSH3 0x27F JUMP JUMPDEST DUP1 PUSH1 0x2 PUSH1 0x0 PUSH2 0x100 EXP DUP2 SLOAD DUP2 PUSH20 0xFFFFFFFFFFFFFFFFFFFFFFFFFFFFFFFFFFFFFFFF MUL NOT AND SWAP1 DUP4 PUSH20 0xFFFFFFFFFFFFFFFFFFFFFFFFFFFFFFFFFFFFFFFF AND MUL OR SWAP1 SSTORE POP POP JUMP JUMPDEST DUP1 PUSH1 0x3 PUSH1 0x0 PUSH2 0x100 EXP DUP2 SLOAD DUP2 PUSH20 0xFFFFFFFFFFFFFFFFFFFFFFFFFFFFFFFFFFFFFFFF MUL NOT AND SWAP1 DUP4 PUSH20 0xFFFFFFFFFFFFFFFFFFFFFFFFFFFFFFFFFFFFFFFF AND MUL OR SWAP1 SSTORE POP POP JUMP JUMPDEST PUSH1 0x0 DUP2 SWAP1 POP SWAP2 SWAP1 POP JUMP JUMPDEST PUSH32 0x4E487B7100000000000000000000000000000000000000000000000000000000 PUSH1 0x0 MSTORE PUSH1 0x11 PUSH1 0x4 MSTORE PUSH1 0x24 PUSH1 0x0 REVERT JUMPDEST PUSH1 0x0 PUSH3 0x1DA DUP3 PUSH3 0x194 JUMP JUMPDEST SWAP2 POP PUSH3 0x1E7 DUP4 PUSH3 0x194 JUMP JUMPDEST SWAP3 POP DUP3 DUP3 MUL PUSH3 0x1F7 DUP2 PUSH3 0x194 JUMP JUMPDEST SWAP2 POP DUP3 DUP3 DIV DUP5 EQ DUP4 ISZERO OR PUSH3 0x211 JUMPI PUSH3 0x210 PUSH3 0x19E JUMP JUMPDEST JUMPDEST POP SWAP3 SWAP2 POP POP JUMP JUMPDEST PUSH32 0x4E487B7100000000000000000000000000000000000000000000000000000000 PUSH1 0x0 MSTORE PUSH1 0x12 PUSH1 0x4 MSTORE PUSH1 0x24 PUSH1 0x0 REVERT JUMPDEST PUSH1 0x0 PUSH3 0x254 DUP3 PUSH3 0x194 JUMP JUMPDEST SWAP2 POP PUSH3 0x261 DUP4 PUSH3 0x194 JUMP JUMPDEST SWAP3 POP DUP3 PUSH3 0x274 JUMPI PUSH3 0x273 PUSH3 0x218 JUMP JUMPDEST JUMPDEST DUP3 DUP3 DIV SWAP1 POP SWAP3 SWAP2 POP POP JUMP JUMPDEST PUSH2 0x2292 DUP1 PUSH3 0x28F PUSH1 0x0 CODECOPY PUSH1 0x0 RETURN INVALID PUSH1 0x80 PUSH1 0x40 MSTORE PUSH1 0x4 CALLDATASIZE LT PUSH2 0x7B JUMPI PUSH1 0x0 CALLDATALOAD PUSH1 0xE0 SHR DUP1 PUSH4 0x48C314F4 GT PUSH2 0x4E JUMPI DUP1 PUSH4 0x48C314F4 EQ PUSH2 0x11B JUMPI DUP1 PUSH4 0x5CDF76F8 EQ PUSH2 0x137 JUMPI DUP1 PUSH4 0xA6F9DAE1 EQ PUSH2 0x160 JUMPI DUP1 PUSH4 0xD3419BF3 EQ PUSH2 0x189 JUMPI PUSH2 0x7B JUMP JUMPDEST DUP1 PUSH4 0xBD4FE0F EQ PUSH2 0x80 JUMPI DUP1 PUSH4 0x11A1933C EQ PUSH2 0xBD JUMPI DUP1 PUSH4 0x33B3BE77 EQ PUSH2 0xE8 JUMPI DUP1 PUSH4 0x4357855E EQ PUSH2 0xF2 JUMPI JUMPDEST PUSH1 0x0 DUP1 REVERT JUMPDEST CALLVALUE DUP1 ISZERO PUSH2 0x8C JUMPI PUSH1 0x0 DUP1 REVERT JUMPDEST POP PUSH2 0xA7 PUSH1 0x4 DUP1 CALLDATASIZE SUB DUP2 ADD SWAP1 PUSH2 0xA2 SWAP2 SWAP1 PUSH2 0x149F JUMP JUMPDEST PUSH2 0x1B4 JUMP JUMPDEST PUSH1 0x40 MLOAD PUSH2 0xB4 SWAP2 SWAP1 PUSH2 0x14F8 JUMP JUMPDEST PUSH1 0x40 MLOAD DUP1 SWAP2 SUB SWAP1 RETURN JUMPDEST CALLVALUE DUP1 ISZERO PUSH2 0xC9 JUMPI PUSH1 0x0 DUP1 REVERT JUMPDEST POP PUSH2 0xD2 PUSH2 0x2C3 JUMP JUMPDEST PUSH1 0x40 MLOAD PUSH2 0xDF SWAP2 SWAP1 PUSH2 0x1522 JUMP JUMPDEST PUSH1 0x40 MLOAD DUP1 SWAP2 SUB SWAP1 RETURN JUMPDEST PUSH2 0xF0 PUSH2 0x2CD JUMP JUMPDEST STOP JUMPDEST CALLVALUE DUP1 ISZERO PUSH2 0xFE JUMPI PUSH1 0x0 DUP1 REVERT JUMPDEST POP PUSH2 0x119 PUSH1 0x4 DUP1 CALLDATASIZE SUB DUP2 ADD SWAP1 PUSH2 0x114 SWAP2 SWAP1 PUSH2 0x1569 JUMP JUMPDEST PUSH2 0x4D1 JUMP JUMPDEST STOP JUMPDEST PUSH2 0x135 PUSH1 0x4 DUP1 CALLDATASIZE SUB DUP2 ADD SWAP1 PUSH2 0x130 SWAP2 SWAP1 PUSH2 0x15A9 JUMP JUMPDEST PUSH2 0x5E2 JUMP JUMPDEST STOP JUMPDEST CALLVALUE DUP1 ISZERO PUSH2 0x143 JUMPI PUSH1 0x0 DUP1 REVERT JUMPDEST POP PUSH2 0x15E PUSH1 0x4 DUP1 CALLDATASIZE SUB DUP2 ADD SWAP1 PUSH2 0x159 SWAP2 SWAP1 PUSH2 0x15FC JUMP JUMPDEST PUSH2 0x9D4 JUMP JUMPDEST STOP JUMPDEST CALLVALUE DUP1 ISZERO PUSH2 0x16C JUMPI PUSH1 0x0 DUP1 REVERT JUMPDEST POP PUSH2 0x187 PUSH1 0x4 DUP1 CALLDATASIZE SUB DUP2 ADD SWAP1 PUSH2 0x182 SWAP2 SWAP1 PUSH2 0x1629 JUMP JUMPDEST PUSH2 0xA6E JUMP JUMPDEST STOP JUMPDEST CALLVALUE DUP1 ISZERO PUSH2 0x195 JUMPI PUSH1 0x0 DUP1 REVERT JUMPDEST POP PUSH2 0x19E PUSH2 0xB42 JUMP JUMPDEST PUSH1 0x40 MLOAD PUSH2 0x1AB SWAP2 SWAP1 PUSH2 0x1522 JUMP JUMPDEST PUSH1 0x40 MLOAD DUP1 SWAP2 SUB SWAP1 RETURN JUMPDEST PUSH1 0x0 DUP1 PUSH2 0x1CB PUSH1 0x8 SLOAD ADDRESS PUSH4 0x4357855E PUSH1 0xE0 SHL PUSH2 0xB48 JUMP JUMPDEST SWAP1 POP PUSH2 0x22F PUSH1 0x40 MLOAD DUP1 PUSH1 0x40 ADD PUSH1 0x40 MSTORE DUP1 PUSH1 0x3 DUP2 MSTORE PUSH1 0x20 ADD PUSH32 0x6765740000000000000000000000000000000000000000000000000000000000 DUP2 MSTORE POP PUSH1 0x40 MLOAD DUP1 PUSH1 0x60 ADD PUSH1 0x40 MSTORE DUP1 PUSH1 0x38 DUP2 MSTORE PUSH1 0x20 ADD PUSH2 0x2225 PUSH1 0x38 SWAP2 CODECOPY DUP4 PUSH2 0xB79 SWAP1 SWAP3 SWAP2 SWAP1 PUSH4 0xFFFFFFFF AND JUMP JUMPDEST PUSH2 0x2AE PUSH1 0x40 MLOAD DUP1 PUSH1 0x40 ADD PUSH1 0x40 MSTORE DUP1 PUSH1 0x4 DUP2 MSTORE PUSH1 0x20 ADD PUSH32 0x7061746800000000000000000000000000000000000000000000000000000000 DUP2 MSTORE POP PUSH1 0x40 MLOAD DUP1 PUSH1 0x40 ADD PUSH1 0x40 MSTORE DUP1 PUSH1 0x5 DUP2 MSTORE PUSH1 0x20 ADD PUSH32 0x76616C7565000000000000000000000000000000000000000000000000000000 DUP2 MSTORE POP DUP4 PUSH2 0xB79 SWAP1 SWAP3 SWAP2 SWAP1 PUSH4 0xFFFFFFFF AND JUMP JUMPDEST PUSH2 0x2BA DUP2 PUSH1 0x9 SLOAD PUSH2 0xBAC JUMP JUMPDEST SWAP2 POP POP SWAP3 SWAP2 POP POP JUMP JUMPDEST PUSH1 0x0 PUSH1 0x7 SLOAD SWAP1 POP SWAP1 JUMP JUMPDEST PUSH1 0x6 PUSH1 0x0 SWAP1 SLOAD SWAP1 PUSH2 0x100 EXP SWAP1 DIV PUSH20 0xFFFFFFFFFFFFFFFFFFFFFFFFFFFFFFFFFFFFFFFF AND PUSH20 0xFFFFFFFFFFFFFFFFFFFFFFFFFFFFFFFFFFFFFFFF AND CALLER PUSH20 0xFFFFFFFFFFFFFFFFFFFFFFFFFFFFFFFFFFFFFFFF AND EQ PUSH2 0x35D JUMPI PUSH1 0x40 MLOAD PUSH32 0x8C379A000000000000000000000000000000000000000000000000000000000 DUP2 MSTORE PUSH1 0x4 ADD PUSH2 0x354 SWAP1 PUSH2 0x16D9 JUMP JUMPDEST PUSH1 0x40 MLOAD DUP1 SWAP2 SUB SWAP1 REVERT JUMPDEST PUSH1 0xC PUSH1 0x0 SWAP1 SLOAD SWAP1 PUSH2 0x100 EXP SWAP1 DIV PUSH1 0xFF AND ISZERO PUSH2 0x3AD JUMPI PUSH1 0x40 MLOAD PUSH32 0x8C379A000000000000000000000000000000000000000000000000000000000 DUP2 MSTORE PUSH1 0x4 ADD PUSH2 0x3A4 SWAP1 PUSH2 0x1745 JUMP JUMPDEST PUSH1 0x40 MLOAD DUP1 SWAP2 SUB SWAP1 REVERT JUMPDEST PUSH1 0x1 PUSH1 0xC PUSH1 0x0 PUSH2 0x100 EXP DUP2 SLOAD DUP2 PUSH1 0xFF MUL NOT AND SWAP1 DUP4 ISZERO ISZERO MUL OR SWAP1 SSTORE POP PUSH1 0x0 PUSH1 0xB SLOAD GT PUSH2 0x3DB JUMPI PUSH2 0x3DA PUSH2 0x1765 JUMP JUMPDEST JUMPDEST PUSH1 0x0 PUSH1 0x6 PUSH1 0x0 SWAP1 SLOAD SWAP1 PUSH2 0x100 EXP SWAP1 DIV PUSH20 0xFFFFFFFFFFFFFFFFFFFFFFFFFFFFFFFFFFFFFFFF AND PUSH20 0xFFFFFFFFFFFFFFFFFFFFFFFFFFFFFFFFFFFFFFFF AND PUSH1 0xB SLOAD PUSH1 0x40 MLOAD PUSH2 0x425 SWAP1 PUSH2 0x17C5 JUMP JUMPDEST PUSH1 0x0 PUSH1 0x40 MLOAD DUP1 DUP4 SUB DUP2 DUP6 DUP8 GAS CALL SWAP3 POP POP POP RETURNDATASIZE DUP1 PUSH1 0x0 DUP2 EQ PUSH2 0x462 JUMPI PUSH1 0x40 MLOAD SWAP2 POP PUSH1 0x1F NOT PUSH1 0x3F RETURNDATASIZE ADD AND DUP3 ADD PUSH1 0x40 MSTORE RETURNDATASIZE DUP3 MSTORE RETURNDATASIZE PUSH1 0x0 PUSH1 0x20 DUP5 ADD RETURNDATACOPY PUSH2 0x467 JUMP JUMPDEST PUSH1 0x60 SWAP2 POP JUMPDEST POP POP SWAP1 POP DUP1 PUSH2 0x4AB JUMPI PUSH1 0x40 MLOAD PUSH32 0x8C379A000000000000000000000000000000000000000000000000000000000 DUP2 MSTORE PUSH1 0x4 ADD PUSH2 0x4A2 SWAP1 PUSH2 0x184C JUMP JUMPDEST PUSH1 0x40 MLOAD DUP1 SWAP2 SUB SWAP1 REVERT JUMPDEST PUSH1 0x0 PUSH1 0xB DUP2 SWAP1 SSTORE POP POP PUSH1 0x0 PUSH1 0xC PUSH1 0x0 PUSH2 0x100 EXP DUP2 SLOAD DUP2 PUSH1 0xFF MUL NOT AND SWAP1 DUP4 ISZERO ISZERO MUL OR SWAP1 SSTORE POP JUMP JUMPDEST DUP2 PUSH1 0x5 PUSH1 0x0 DUP3 DUP2 MSTORE PUSH1 0x20 ADD SWAP1 DUP2 MSTORE PUSH1 0x20 ADD PUSH1 0x0 KECCAK256 PUSH1 0x0 SWAP1 SLOAD SWAP1 PUSH2 0x100 EXP SWAP1 DIV PUSH20 0xFFFFFFFFFFFFFFFFFFFFFFFFFFFFFFFFFFFFFFFF AND PUSH20 0xFFFFFFFFFFFFFFFFFFFFFFFFFFFFFFFFFFFFFFFF AND CALLER PUSH20 0xFFFFFFFFFFFFFFFFFFFFFFFFFFFFFFFFFFFFFFFF AND EQ PUSH2 0x573 JUMPI PUSH1 0x40 MLOAD PUSH32 0x8C379A000000000000000000000000000000000000000000000000000000000 DUP2 MSTORE PUSH1 0x4 ADD PUSH2 0x56A SWAP1 PUSH2 0x18DE JUMP JUMPDEST PUSH1 0x40 MLOAD DUP1 SWAP2 SUB SWAP1 REVERT JUMPDEST PUSH1 0x5 PUSH1 0x0 DUP3 DUP2 MSTORE PUSH1 0x20 ADD SWAP1 DUP2 MSTORE PUSH1 0x20 ADD PUSH1 0x0 KECCAK256 PUSH1 0x0 PUSH2 0x100 EXP DUP2 SLOAD SWAP1 PUSH20 0xFFFFFFFFFFFFFFFFFFFFFFFFFFFFFFFFFFFFFFFF MUL NOT AND SWAP1 SSTORE DUP1 PUSH32 0x7CC135E0CEBB02C3480AE5D74D377283180A2601F8F644EDF7987B009316C63A PUSH1 0x40 MLOAD PUSH1 0x40 MLOAD DUP1 SWAP2 SUB SWAP1 LOG2 DUP2 PUSH1 0xA DUP2 SWAP1 SSTORE POP POP POP POP JUMP JUMPDEST PUSH1 0xC PUSH1 0x0 SWAP1 SLOAD SWAP1 PUSH2 0x100 EXP SWAP1 DIV PUSH1 0xFF AND ISZERO PUSH2 0x632 JUMPI PUSH1 0x40 MLOAD PUSH32 0x8C379A000000000000000000000000000000000000000000000000000000000 DUP2 MSTORE PUSH1 0x4 ADD PUSH2 0x629 SWAP1 PUSH2 0x1745 JUMP JUMPDEST PUSH1 0x40 MLOAD DUP1 SWAP2 SUB SWAP1 REVERT JUMPDEST PUSH1 0x1 PUSH1 0xC PUSH1 0x0 PUSH2 0x100 EXP DUP2 SLOAD DUP2 PUSH1 0xFF MUL NOT AND SWAP1 DUP4 ISZERO ISZERO MUL OR SWAP1 SSTORE POP PUSH1 0x0 PUSH20 0xFFFFFFFFFFFFFFFFFFFFFFFFFFFFFFFFFFFFFFFF AND DUP4 PUSH20 0xFFFFFFFFFFFFFFFFFFFFFFFFFFFFFFFFFFFFFFFF AND EQ ISZERO DUP1 ISZERO PUSH2 0x6B7 JUMPI POP PUSH1 0x0 PUSH20 0xFFFFFFFFFFFFFFFFFFFFFFFFFFFFFFFFFFFFFFFF AND DUP3 PUSH20 0xFFFFFFFFFFFFFFFFFFFFFFFFFFFFFFFFFFFFFFFF AND EQ ISZERO JUMPDEST PUSH2 0x6F6 JUMPI PUSH1 0x40 MLOAD PUSH32 0x8C379A000000000000000000000000000000000000000000000000000000000 DUP2 MSTORE PUSH1 0x4 ADD PUSH2 0x6ED SWAP1 PUSH2 0x1970 JUMP JUMPDEST PUSH1 0x40 MLOAD DUP1 SWAP2 SUB SWAP1 REVERT JUMPDEST PUSH1 0x0 PUSH1 0xA SLOAD GT PUSH2 0x73B JUMPI PUSH1 0x40 MLOAD PUSH32 0x8C379A000000000000000000000000000000000000000000000000000000000 DUP2 MSTORE PUSH1 0x4 ADD PUSH2 0x732 SWAP1 PUSH2 0x19DC JUMP JUMPDEST PUSH1 0x40 MLOAD DUP1 SWAP2 SUB SWAP1 REVERT JUMPDEST PUSH1 0x0 CALLVALUE SWAP1 POP PUSH1 0x0 PUSH2 0x2710 PUSH1 0x7 SLOAD PUSH1 0xA SLOAD PUSH2 0x755 SWAP2 SWAP1 PUSH2 0x1A2B JUMP JUMPDEST PUSH2 0x75F SWAP2 SWAP1 PUSH2 0x1A9C JUMP JUMPDEST SWAP1 POP DUP1 PUSH1 0xB PUSH1 0x0 DUP3 DUP3 SLOAD PUSH2 0x773 SWAP2 SWAP1 PUSH2 0x1ACD JUMP JUMPDEST SWAP3 POP POP DUP2 SWAP1 SSTORE POP DUP1 PUSH1 0xA SLOAD PUSH2 0x788 SWAP2 SWAP1 PUSH2 0x1ACD JUMP JUMPDEST DUP3 LT ISZERO PUSH2 0x7CA JUMPI PUSH1 0x40 MLOAD PUSH32 0x8C379A000000000000000000000000000000000000000000000000000000000 DUP2 MSTORE PUSH1 0x4 ADD PUSH2 0x7C1 SWAP1 PUSH2 0x1B4D JUMP JUMPDEST PUSH1 0x40 MLOAD DUP1 SWAP2 SUB SWAP1 REVERT JUMPDEST DUP5 PUSH20 0xFFFFFFFFFFFFFFFFFFFFFFFFFFFFFFFFFFFFFFFF AND PUSH4 0x42842E0E CALLER DUP7 DUP7 PUSH1 0x40 MLOAD DUP5 PUSH4 0xFFFFFFFF AND PUSH1 0xE0 SHL DUP2 MSTORE PUSH1 0x4 ADD PUSH2 0x807 SWAP4 SWAP3 SWAP2 SWAP1 PUSH2 0x1B7C JUMP JUMPDEST PUSH1 0x0 PUSH1 0x40 MLOAD DUP1 DUP4 SUB DUP2 PUSH1 0x0 DUP8 DUP1 EXTCODESIZE ISZERO DUP1 ISZERO PUSH2 0x821 JUMPI PUSH1 0x0 DUP1 REVERT JUMPDEST POP GAS CALL ISZERO DUP1 ISZERO PUSH2 0x835 JUMPI RETURNDATASIZE PUSH1 0x0 DUP1 RETURNDATACOPY RETURNDATASIZE PUSH1 0x0 REVERT JUMPDEST POP POP POP POP PUSH1 0x0 DUP2 PUSH1 0xA SLOAD PUSH2 0x849 SWAP2 SWAP1 PUSH2 0x1ACD JUMP JUMPDEST DUP4 PUSH2 0x854 SWAP2 SWAP1 PUSH2 0x1BB3 JUMP JUMPDEST SWAP1 POP PUSH1 0x0 DUP6 PUSH20 0xFFFFFFFFFFFFFFFFFFFFFFFFFFFFFFFFFFFFFFFF AND DUP3 PUSH1 0x40 MLOAD PUSH2 0x87C SWAP1 PUSH2 0x17C5 JUMP JUMPDEST PUSH1 0x0 PUSH1 0x40 MLOAD DUP1 DUP4 SUB DUP2 DUP6 DUP8 GAS CALL SWAP3 POP POP POP RETURNDATASIZE DUP1 PUSH1 0x0 DUP2 EQ PUSH2 0x8B9 JUMPI PUSH1 0x40 MLOAD SWAP2 POP PUSH1 0x1F NOT PUSH1 0x3F RETURNDATASIZE ADD AND DUP3 ADD PUSH1 0x40 MSTORE RETURNDATASIZE DUP3 MSTORE RETURNDATASIZE PUSH1 0x0 PUSH1 0x20 DUP5 ADD RETURNDATACOPY PUSH2 0x8BE JUMP JUMPDEST PUSH1 0x60 SWAP2 POP JUMPDEST POP POP SWAP1 POP DUP1 PUSH2 0x902 JUMPI PUSH1 0x40 MLOAD PUSH32 0x8C379A000000000000000000000000000000000000000000000000000000000 DUP2 MSTORE PUSH1 0x4 ADD PUSH2 0x8F9 SWAP1 PUSH2 0x1C59 JUMP JUMPDEST PUSH1 0x40 MLOAD DUP1 SWAP2 SUB SWAP1 REVERT JUMPDEST DUP6 PUSH20 0xFFFFFFFFFFFFFFFFFFFFFFFFFFFFFFFFFFFFFFFF AND PUSH1 0xA SLOAD PUSH1 0x40 MLOAD PUSH2 0x928 SWAP1 PUSH2 0x17C5 JUMP JUMPDEST PUSH1 0x0 PUSH1 0x40 MLOAD DUP1 DUP4 SUB DUP2 DUP6 DUP8 GAS CALL SWAP3 POP POP POP RETURNDATASIZE DUP1 PUSH1 0x0 DUP2 EQ PUSH2 0x965 JUMPI PUSH1 0x40 MLOAD SWAP2 POP PUSH1 0x1F NOT PUSH1 0x3F RETURNDATASIZE ADD AND DUP3 ADD PUSH1 0x40 MSTORE RETURNDATASIZE DUP3 MSTORE RETURNDATASIZE PUSH1 0x0 PUSH1 0x20 DUP5 ADD RETURNDATACOPY PUSH2 0x96A JUMP JUMPDEST PUSH1 0x60 SWAP2 POP JUMPDEST POP POP DUP1 SWAP2 POP POP DUP1 PUSH2 0x9B0 JUMPI PUSH1 0x40 MLOAD PUSH32 0x8C379A000000000000000000000000000000000000000000000000000000000 DUP2 MSTORE PUSH1 0x4 ADD PUSH2 0x9A7 SWAP1 PUSH2 0x1CEB JUMP JUMPDEST PUSH1 0x40 MLOAD DUP1 SWAP2 SUB SWAP1 REVERT JUMPDEST POP POP POP POP PUSH1 0x0 PUSH1 0xC PUSH1 0x0 PUSH2 0x100 EXP DUP2 SLOAD DUP2 PUSH1 0xFF MUL NOT AND SWAP1 DUP4 ISZERO ISZERO MUL OR SWAP1 SSTORE POP POP POP POP JUMP JUMPDEST PUSH1 0x6 PUSH1 0x0 SWAP1 SLOAD SWAP1 PUSH2 0x100 EXP SWAP1 DIV PUSH20 0xFFFFFFFFFFFFFFFFFFFFFFFFFFFFFFFFFFFFFFFF AND PUSH20 0xFFFFFFFFFFFFFFFFFFFFFFFFFFFFFFFFFFFFFFFF AND CALLER PUSH20 0xFFFFFFFFFFFFFFFFFFFFFFFFFFFFFFFFFFFFFFFF AND EQ PUSH2 0xA64 JUMPI PUSH1 0x40 MLOAD PUSH32 0x8C379A000000000000000000000000000000000000000000000000000000000 DUP2 MSTORE PUSH1 0x4 ADD PUSH2 0xA5B SWAP1 PUSH2 0x16D9 JUMP JUMPDEST PUSH1 0x40 MLOAD DUP1 SWAP2 SUB SWAP1 REVERT JUMPDEST DUP1 PUSH1 0x7 DUP2 SWAP1 SSTORE POP POP JUMP JUMPDEST PUSH1 0x6 PUSH1 0x0 SWAP1 SLOAD SWAP1 PUSH2 0x100 EXP SWAP1 DIV PUSH20 0xFFFFFFFFFFFFFFFFFFFFFFFFFFFFFFFFFFFFFFFF AND PUSH20 0xFFFFFFFFFFFFFFFFFFFFFFFFFFFFFFFFFFFFFFFF AND CALLER PUSH20 0xFFFFFFFFFFFFFFFFFFFFFFFFFFFFFFFFFFFFFFFF AND EQ PUSH2 0xAFE JUMPI PUSH1 0x40 MLOAD PUSH32 0x8C379A000000000000000000000000000000000000000000000000000000000 DUP2 MSTORE PUSH1 0x4 ADD PUSH2 0xAF5 SWAP1 PUSH2 0x16D9 JUMP JUMPDEST PUSH1 0x40 MLOAD DUP1 SWAP2 SUB SWAP1 REVERT JUMPDEST DUP1 PUSH1 0x6 PUSH1 0x0 PUSH2 0x100 EXP DUP2 SLOAD DUP2 PUSH20 0xFFFFFFFFFFFFFFFFFFFFFFFFFFFFFFFFFFFFFFFF MUL NOT AND SWAP1 DUP4 PUSH20 0xFFFFFFFFFFFFFFFFFFFFFFFFFFFFFFFFFFFFFFFF AND MUL OR SWAP1 SSTORE POP POP JUMP JUMPDEST PUSH1 0xA SLOAD DUP2 JUMP JUMPDEST PUSH2 0xB50 PUSH2 0x137F JUMP JUMPDEST PUSH2 0xB58 PUSH2 0x137F JUMP JUMPDEST PUSH2 0xB6F DUP6 DUP6 DUP6 DUP5 PUSH2 0xBE3 SWAP1 SWAP4 SWAP3 SWAP2 SWAP1 PUSH4 0xFFFFFFFF AND JUMP JUMPDEST SWAP2 POP POP SWAP4 SWAP3 POP POP POP JUMP JUMPDEST PUSH2 0xB90 DUP3 DUP5 PUSH1 0x80 ADD MLOAD PUSH2 0xC93 SWAP1 SWAP2 SWAP1 PUSH4 0xFFFFFFFF AND JUMP JUMPDEST PUSH2 0xBA7 DUP2 DUP5 PUSH1 0x80 ADD MLOAD PUSH2 0xC93 SWAP1 SWAP2 SWAP1 PUSH4 0xFFFFFFFF AND JUMP JUMPDEST POP POP POP JUMP JUMPDEST PUSH1 0x0 PUSH2 0xBDB PUSH1 0x3 PUSH1 0x0 SWAP1 SLOAD SWAP1 PUSH2 0x100 EXP SWAP1 DIV PUSH20 0xFFFFFFFFFFFFFFFFFFFFFFFFFFFFFFFFFFFFFFFF AND DUP5 DUP5 PUSH2 0xCB8 JUMP JUMPDEST SWAP1 POP SWAP3 SWAP2 POP POP JUMP JUMPDEST PUSH2 0xBEB PUSH2 0x137F JUMP JUMPDEST PUSH2 0xBFB DUP6 PUSH1 0x80 ADD MLOAD PUSH2 0x100 PUSH2 0xD84 JUMP JUMPDEST POP DUP4 DUP6 PUSH1 0x0 ADD DUP2 DUP2 MSTORE POP POP DUP3 DUP6 PUSH1 0x20 ADD SWAP1 PUSH20 0xFFFFFFFFFFFFFFFFFFFFFFFFFFFFFFFFFFFFFFFF AND SWAP1 DUP2 PUSH20 0xFFFFFFFFFFFFFFFFFFFFFFFFFFFFFFFFFFFFFFFF AND DUP2 MSTORE POP POP DUP2 DUP6 PUSH1 0x40 ADD SWAP1 PUSH28 0xFFFFFFFFFFFFFFFFFFFFFFFFFFFFFFFFFFFFFFFFFFFFFFFFFFFFFFFF NOT AND SWAP1 DUP2 PUSH28 0xFFFFFFFFFFFFFFFFFFFFFFFFFFFFFFFFFFFFFFFFFFFFFFFFFFFFFFFF NOT AND DUP2 MSTORE POP POP DUP5 SWAP1 POP SWAP5 SWAP4 POP POP POP POP JUMP JUMPDEST PUSH2 0xCA0 DUP3 PUSH1 0x3 DUP4 MLOAD PUSH2 0xDEE JUMP JUMPDEST PUSH2 0xCB3 DUP2 DUP4 PUSH2 0xF73 SWAP1 SWAP2 SWAP1 PUSH4 0xFFFFFFFF AND JUMP JUMPDEST POP POP POP JUMP JUMPDEST PUSH1 0x0 DUP1 PUSH1 0x4 SLOAD SWAP1 POP PUSH1 0x1 DUP2 PUSH2 0xCCD SWAP2 SWAP1 PUSH2 0x1ACD JUMP JUMPDEST PUSH1 0x4 DUP2 SWAP1 SSTORE POP PUSH1 0x0 PUSH4 0x40429946 PUSH1 0xE0 SHL PUSH1 0x0 DUP1 DUP8 PUSH1 0x0 ADD MLOAD ADDRESS DUP10 PUSH1 0x40 ADD MLOAD DUP8 PUSH1 0x1 DUP13 PUSH1 0x80 ADD MLOAD PUSH1 0x0 ADD MLOAD PUSH1 0x40 MLOAD PUSH1 0x24 ADD PUSH2 0xD0E SWAP9 SWAP8 SWAP7 SWAP6 SWAP5 SWAP4 SWAP3 SWAP2 SWAP1 PUSH2 0x1DD6 JUMP JUMPDEST PUSH1 0x40 MLOAD PUSH1 0x20 DUP2 DUP4 SUB SUB DUP2 MSTORE SWAP1 PUSH1 0x40 MSTORE SWAP1 PUSH28 0xFFFFFFFFFFFFFFFFFFFFFFFFFFFFFFFFFFFFFFFFFFFFFFFFFFFFFFFF NOT AND PUSH1 0x20 DUP3 ADD DUP1 MLOAD PUSH28 0xFFFFFFFFFFFFFFFFFFFFFFFFFFFFFFFFFFFFFFFFFFFFFFFFFFFFFFFF DUP4 DUP2 DUP4 AND OR DUP4 MSTORE POP POP POP POP SWAP1 POP PUSH2 0xD79 DUP7 DUP4 DUP7 DUP5 PUSH2 0xF95 JUMP JUMPDEST SWAP3 POP POP POP SWAP4 SWAP3 POP POP POP JUMP JUMPDEST PUSH2 0xD8C PUSH2 0x13EC JUMP JUMPDEST PUSH1 0x0 PUSH1 0x20 DUP4 PUSH2 0xD9B SWAP2 SWAP1 PUSH2 0x1E5B JUMP JUMPDEST EQ PUSH2 0xDC7 JUMPI PUSH1 0x20 DUP3 PUSH2 0xDAD SWAP2 SWAP1 PUSH2 0x1E5B JUMP JUMPDEST PUSH1 0x20 PUSH2 0xDB9 SWAP2 SWAP1 PUSH2 0x1BB3 JUMP JUMPDEST DUP3 PUSH2 0xDC4 SWAP2 SWAP1 PUSH2 0x1ACD JUMP JUMPDEST SWAP2 POP JUMPDEST DUP2 DUP4 PUSH1 0x20 ADD DUP2 DUP2 MSTORE POP POP PUSH1 0x40 MLOAD DUP1 DUP5 MSTORE PUSH1 0x0 DUP2 MSTORE DUP3 DUP2 ADD PUSH1 0x20 ADD PUSH1 0x40 MSTORE POP DUP3 SWAP1 POP SWAP3 SWAP2 POP POP JUMP JUMPDEST PUSH1 0x17 DUP2 PUSH8 0xFFFFFFFFFFFFFFFF AND GT PUSH2 0xE25 JUMPI PUSH2 0xE1F DUP2 PUSH1 0x5 DUP5 PUSH1 0xFF AND SWAP1 SHL PUSH1 0xFF AND OR DUP5 PUSH2 0x112A SWAP1 SWAP2 SWAP1 PUSH4 0xFFFFFFFF AND JUMP JUMPDEST POP PUSH2 0xF6E JUMP JUMPDEST PUSH1 0xFF DUP2 PUSH8 0xFFFFFFFFFFFFFFFF AND GT PUSH2 0xE7B JUMPI PUSH2 0xE54 PUSH1 0x18 PUSH1 0x5 DUP5 PUSH1 0xFF AND SWAP1 SHL OR DUP5 PUSH2 0x112A SWAP1 SWAP2 SWAP1 PUSH4 0xFFFFFFFF AND JUMP JUMPDEST POP PUSH2 0xE75 DUP2 PUSH8 0xFFFFFFFFFFFFFFFF AND PUSH1 0x1 DUP6 PUSH2 0x114A SWAP1 SWAP3 SWAP2 SWAP1 PUSH4 0xFFFFFFFF AND JUMP JUMPDEST POP PUSH2 0xF6D JUMP JUMPDEST PUSH2 0xFFFF DUP2 PUSH8 0xFFFFFFFFFFFFFFFF AND GT PUSH2 0xED2 JUMPI PUSH2 0xEAB PUSH1 0x19 PUSH1 0x5 DUP5 PUSH1 0xFF AND SWAP1 SHL OR DUP5 PUSH2 0x112A SWAP1 SWAP2 SWAP1 PUSH4 0xFFFFFFFF AND JUMP JUMPDEST POP PUSH2 0xECC DUP2 PUSH8 0xFFFFFFFFFFFFFFFF AND PUSH1 0x2 DUP6 PUSH2 0x114A SWAP1 SWAP3 SWAP2 SWAP1 PUSH4 0xFFFFFFFF AND JUMP JUMPDEST POP PUSH2 0xF6C JUMP JUMPDEST PUSH4 0xFFFFFFFF DUP2 PUSH8 0xFFFFFFFFFFFFFFFF AND GT PUSH2 0xF2B JUMPI PUSH2 0xF04 PUSH1 0x1A PUSH1 0x5 DUP5 PUSH1 0xFF AND SWAP1 SHL OR DUP5 PUSH2 0x112A SWAP1 SWAP2 SWAP1 PUSH4 0xFFFFFFFF AND JUMP JUMPDEST POP PUSH2 0xF25 DUP2 PUSH8 0xFFFFFFFFFFFFFFFF AND PUSH1 0x4 DUP6 PUSH2 0x114A SWAP1 SWAP3 SWAP2 SWAP1 PUSH4 0xFFFFFFFF AND JUMP JUMPDEST POP PUSH2 0xF6B JUMP JUMPDEST PUSH2 0xF48 PUSH1 0x1B PUSH1 0x5 DUP5 PUSH1 0xFF AND SWAP1 SHL OR DUP5 PUSH2 0x112A SWAP1 SWAP2 SWAP1 PUSH4 0xFFFFFFFF AND JUMP JUMPDEST POP PUSH2 0xF69 DUP2 PUSH8 0xFFFFFFFFFFFFFFFF AND PUSH1 0x8 DUP6 PUSH2 0x114A SWAP1 SWAP3 SWAP2 SWAP1 PUSH4 0xFFFFFFFF AND JUMP JUMPDEST POP JUMPDEST JUMPDEST JUMPDEST JUMPDEST POP POP POP JUMP JUMPDEST PUSH2 0xF7B PUSH2 0x13EC JUMP JUMPDEST PUSH2 0xF8D DUP4 DUP5 PUSH1 0x0 ADD MLOAD MLOAD DUP5 DUP6 MLOAD PUSH2 0x116C JUMP JUMPDEST SWAP1 POP SWAP3 SWAP2 POP POP JUMP JUMPDEST PUSH1 0x0 ADDRESS DUP5 PUSH1 0x40 MLOAD PUSH1 0x20 ADD PUSH2 0xFAA SWAP3 SWAP2 SWAP1 PUSH2 0x1F45 JUMP JUMPDEST PUSH1 0x40 MLOAD PUSH1 0x20 DUP2 DUP4 SUB SUB DUP2 MSTORE SWAP1 PUSH1 0x40 MSTORE DUP1 MLOAD SWAP1 PUSH1 0x20 ADD KECCAK256 SWAP1 POP DUP5 PUSH1 0x5 PUSH1 0x0 DUP4 DUP2 MSTORE PUSH1 0x20 ADD SWAP1 DUP2 MSTORE PUSH1 0x20 ADD PUSH1 0x0 KECCAK256 PUSH1 0x0 PUSH2 0x100 EXP DUP2 SLOAD DUP2 PUSH20 0xFFFFFFFFFFFFFFFFFFFFFFFFFFFFFFFFFFFFFFFF MUL NOT AND SWAP1 DUP4 PUSH20 0xFFFFFFFFFFFFFFFFFFFFFFFFFFFFFFFFFFFFFFFF AND MUL OR SWAP1 SSTORE POP DUP1 PUSH32 0xB5E6E01E79F91267DC17B4E6314D5D4D03593D2CEEE0FBB452B750BD70EA5AF9 PUSH1 0x40 MLOAD PUSH1 0x40 MLOAD DUP1 SWAP2 SUB SWAP1 LOG2 PUSH1 0x2 PUSH1 0x0 SWAP1 SLOAD SWAP1 PUSH2 0x100 EXP SWAP1 DIV PUSH20 0xFFFFFFFFFFFFFFFFFFFFFFFFFFFFFFFFFFFFFFFF AND PUSH20 0xFFFFFFFFFFFFFFFFFFFFFFFFFFFFFFFFFFFFFFFF AND PUSH4 0x4000AEA0 DUP7 DUP6 DUP6 PUSH1 0x40 MLOAD DUP5 PUSH4 0xFFFFFFFF AND PUSH1 0xE0 SHL DUP2 MSTORE PUSH1 0x4 ADD PUSH2 0x10A0 SWAP4 SWAP3 SWAP2 SWAP1 PUSH2 0x1F71 JUMP JUMPDEST PUSH1 0x20 PUSH1 0x40 MLOAD DUP1 DUP4 SUB DUP2 PUSH1 0x0 DUP8 GAS CALL ISZERO DUP1 ISZERO PUSH2 0x10BF JUMPI RETURNDATASIZE PUSH1 0x0 DUP1 RETURNDATACOPY RETURNDATASIZE PUSH1 0x0 REVERT JUMPDEST POP POP POP POP PUSH1 0x40 MLOAD RETURNDATASIZE PUSH1 0x1F NOT PUSH1 0x1F DUP3 ADD AND DUP3 ADD DUP1 PUSH1 0x40 MSTORE POP DUP2 ADD SWAP1 PUSH2 0x10E3 SWAP2 SWAP1 PUSH2 0x1FE7 JUMP JUMPDEST PUSH2 0x1122 JUMPI PUSH1 0x40 MLOAD PUSH32 0x8C379A000000000000000000000000000000000000000000000000000000000 DUP2 MSTORE PUSH1 0x4 ADD PUSH2 0x1119 SWAP1 PUSH2 0x2086 JUMP JUMPDEST PUSH1 0x40 MLOAD DUP1 SWAP2 SUB SWAP1 REVERT JUMPDEST SWAP5 SWAP4 POP POP POP POP JUMP JUMPDEST PUSH2 0x1132 PUSH2 0x13EC JUMP JUMPDEST PUSH2 0x1142 DUP4 DUP5 PUSH1 0x0 ADD MLOAD MLOAD DUP5 PUSH2 0x125B JUMP JUMPDEST SWAP1 POP SWAP3 SWAP2 POP POP JUMP JUMPDEST PUSH2 0x1152 PUSH2 0x13EC JUMP JUMPDEST PUSH2 0x1163 DUP5 DUP6 PUSH1 0x0 ADD MLOAD MLOAD DUP6 DUP6 PUSH2 0x12B1 JUMP JUMPDEST SWAP1 POP SWAP4 SWAP3 POP POP POP JUMP JUMPDEST PUSH2 0x1174 PUSH2 0x13EC JUMP JUMPDEST DUP3 MLOAD DUP3 GT ISZERO PUSH2 0x1182 JUMPI PUSH1 0x0 DUP1 REVERT JUMPDEST DUP5 PUSH1 0x20 ADD MLOAD DUP3 DUP6 PUSH2 0x1193 SWAP2 SWAP1 PUSH2 0x1ACD JUMP JUMPDEST GT ISZERO PUSH2 0x11C8 JUMPI PUSH2 0x11C7 DUP6 PUSH1 0x2 PUSH2 0x11B8 DUP9 PUSH1 0x20 ADD MLOAD DUP9 DUP8 PUSH2 0x11B3 SWAP2 SWAP1 PUSH2 0x1ACD JUMP JUMPDEST PUSH2 0x133F JUMP JUMPDEST PUSH2 0x11C2 SWAP2 SWAP1 PUSH2 0x1A2B JUMP JUMPDEST PUSH2 0x135B JUMP JUMPDEST JUMPDEST PUSH1 0x0 DUP1 DUP7 MLOAD DUP1 MLOAD DUP8 PUSH1 0x20 DUP4 ADD ADD SWAP4 POP DUP1 DUP9 DUP8 ADD GT ISZERO PUSH2 0x11E7 JUMPI DUP8 DUP7 ADD DUP3 MSTORE JUMPDEST PUSH1 0x20 DUP8 ADD SWAP3 POP POP POP JUMPDEST PUSH1 0x20 DUP5 LT PUSH2 0x122E JUMPI DUP1 MLOAD DUP3 MSTORE PUSH1 0x20 DUP3 PUSH2 0x1209 SWAP2 SWAP1 PUSH2 0x1ACD JUMP JUMPDEST SWAP2 POP PUSH1 0x20 DUP2 PUSH2 0x1218 SWAP2 SWAP1 PUSH2 0x1ACD JUMP JUMPDEST SWAP1 POP PUSH1 0x20 DUP5 PUSH2 0x1227 SWAP2 SWAP1 PUSH2 0x1BB3 JUMP JUMPDEST SWAP4 POP PUSH2 0x11F0 JUMP JUMPDEST PUSH1 0x0 PUSH1 0x1 DUP6 PUSH1 0x20 SUB PUSH2 0x100 EXP SUB SWAP1 POP DUP1 NOT DUP3 MLOAD AND DUP2 DUP5 MLOAD AND DUP2 DUP2 OR DUP6 MSTORE POP POP POP DUP7 SWAP3 POP POP POP SWAP5 SWAP4 POP POP POP POP JUMP JUMPDEST PUSH2 0x1263 PUSH2 0x13EC JUMP JUMPDEST DUP4 PUSH1 0x20 ADD MLOAD DUP4 LT PUSH2 0x1289 JUMPI PUSH2 0x1288 DUP5 PUSH1 0x2 DUP7 PUSH1 0x20 ADD MLOAD PUSH2 0x1283 SWAP2 SWAP1 PUSH2 0x1A2B JUMP JUMPDEST PUSH2 0x135B JUMP JUMPDEST JUMPDEST DUP4 MLOAD DUP1 MLOAD PUSH1 0x20 DUP6 DUP4 ADD ADD DUP5 DUP2 MSTORE8 DUP2 DUP7 SUB PUSH2 0x12A4 JUMPI PUSH1 0x1 DUP3 ADD DUP4 MSTORE JUMPDEST POP POP POP DUP4 SWAP1 POP SWAP4 SWAP3 POP POP POP JUMP JUMPDEST PUSH2 0x12B9 PUSH2 0x13EC JUMP JUMPDEST DUP5 PUSH1 0x20 ADD MLOAD DUP5 DUP4 PUSH2 0x12CA SWAP2 SWAP1 PUSH2 0x1ACD JUMP JUMPDEST GT ISZERO PUSH2 0x12F2 JUMPI PUSH2 0x12F1 DUP6 PUSH1 0x2 DUP7 DUP6 PUSH2 0x12E2 SWAP2 SWAP1 PUSH2 0x1ACD JUMP JUMPDEST PUSH2 0x12EC SWAP2 SWAP1 PUSH2 0x1A2B JUMP JUMPDEST PUSH2 0x135B JUMP JUMPDEST JUMPDEST PUSH1 0x0 PUSH1 0x1 DUP4 PUSH2 0x100 PUSH2 0x1304 SWAP2 SWAP1 PUSH2 0x21D9 JUMP JUMPDEST PUSH2 0x130E SWAP2 SWAP1 PUSH2 0x1BB3 JUMP JUMPDEST SWAP1 POP DUP6 MLOAD DUP4 DUP7 DUP3 ADD ADD DUP6 DUP4 NOT DUP3 MLOAD AND OR DUP2 MSTORE DUP2 MLOAD DUP6 DUP9 ADD GT ISZERO PUSH2 0x1331 JUMPI DUP5 DUP8 ADD DUP3 MSTORE JUMPDEST POP POP DUP6 SWAP2 POP POP SWAP5 SWAP4 POP POP POP POP JUMP JUMPDEST PUSH1 0x0 DUP2 DUP4 GT ISZERO PUSH2 0x1351 JUMPI DUP3 SWAP1 POP PUSH2 0x1355 JUMP JUMPDEST DUP2 SWAP1 POP JUMPDEST SWAP3 SWAP2 POP POP JUMP JUMPDEST PUSH1 0x0 DUP3 PUSH1 0x0 ADD MLOAD SWAP1 POP PUSH2 0x136E DUP4 DUP4 PUSH2 0xD84 JUMP JUMPDEST POP PUSH2 0x1379 DUP4 DUP3 PUSH2 0xF73 JUMP JUMPDEST POP POP POP POP JUMP JUMPDEST PUSH1 0x40 MLOAD DUP1 PUSH1 0xA0 ADD PUSH1 0x40 MSTORE DUP1 PUSH1 0x0 DUP1 NOT AND DUP2 MSTORE PUSH1 0x20 ADD PUSH1 0x0 PUSH20 0xFFFFFFFFFFFFFFFFFFFFFFFFFFFFFFFFFFFFFFFF AND DUP2 MSTORE PUSH1 0x20 ADD PUSH1 0x0 PUSH28 0xFFFFFFFFFFFFFFFFFFFFFFFFFFFFFFFFFFFFFFFFFFFFFFFFFFFFFFFF NOT AND DUP2 MSTORE PUSH1 0x20 ADD PUSH1 0x0 DUP2 MSTORE PUSH1 0x20 ADD PUSH2 0x13E6 PUSH2 0x13EC JUMP JUMPDEST DUP2 MSTORE POP SWAP1 JUMP JUMPDEST PUSH1 0x40 MLOAD DUP1 PUSH1 0x40 ADD PUSH1 0x40 MSTORE DUP1 PUSH1 0x60 DUP2 MSTORE PUSH1 0x20 ADD PUSH1 0x0 DUP2 MSTORE POP SWAP1 JUMP JUMPDEST PUSH1 0x0 DUP1 REVERT JUMPDEST PUSH1 0x0 PUSH20 0xFFFFFFFFFFFFFFFFFFFFFFFFFFFFFFFFFFFFFFFF DUP3 AND SWAP1 POP SWAP2 SWAP1 POP JUMP JUMPDEST PUSH1 0x0 PUSH2 0x1436 DUP3 PUSH2 0x140B JUMP JUMPDEST SWAP1 POP SWAP2 SWAP1 POP JUMP JUMPDEST PUSH2 0x1446 DUP2 PUSH2 0x142B JUMP JUMPDEST DUP2 EQ PUSH2 0x1451 JUMPI PUSH1 0x0 DUP1 REVERT JUMPDEST POP JUMP JUMPDEST PUSH1 0x0 DUP2 CALLDATALOAD SWAP1 POP PUSH2 0x1463 DUP2 PUSH2 0x143D JUMP JUMPDEST SWAP3 SWAP2 POP POP JUMP JUMPDEST PUSH1 0x0 DUP2 SWAP1 POP SWAP2 SWAP1 POP JUMP JUMPDEST PUSH2 0x147C DUP2 PUSH2 0x1469 JUMP JUMPDEST DUP2 EQ PUSH2 0x1487 JUMPI PUSH1 0x0 DUP1 REVERT JUMPDEST POP JUMP JUMPDEST PUSH1 0x0 DUP2 CALLDATALOAD SWAP1 POP PUSH2 0x1499 DUP2 PUSH2 0x1473 JUMP JUMPDEST SWAP3 SWAP2 POP POP JUMP JUMPDEST PUSH1 0x0 DUP1 PUSH1 0x40 DUP4 DUP6 SUB SLT ISZERO PUSH2 0x14B6 JUMPI PUSH2 0x14B5 PUSH2 0x1406 JUMP JUMPDEST JUMPDEST PUSH1 0x0 PUSH2 0x14C4 DUP6 DUP3 DUP7 ADD PUSH2 0x1454 JUMP JUMPDEST SWAP3 POP POP PUSH1 0x20 PUSH2 0x14D5 DUP6 DUP3 DUP7 ADD PUSH2 0x148A JUMP JUMPDEST SWAP2 POP POP SWAP3 POP SWAP3 SWAP1 POP JUMP JUMPDEST PUSH1 0x0 DUP2 SWAP1 POP SWAP2 SWAP1 POP JUMP JUMPDEST PUSH2 0x14F2 DUP2 PUSH2 0x14DF JUMP JUMPDEST DUP3 MSTORE POP POP JUMP JUMPDEST PUSH1 0x0 PUSH1 0x20 DUP3 ADD SWAP1 POP PUSH2 0x150D PUSH1 0x0 DUP4 ADD DUP5 PUSH2 0x14E9 JUMP JUMPDEST SWAP3 SWAP2 POP POP JUMP JUMPDEST PUSH2 0x151C DUP2 PUSH2 0x1469 JUMP JUMPDEST DUP3 MSTORE POP POP JUMP JUMPDEST PUSH1 0x0 PUSH1 0x20 DUP3 ADD SWAP1 POP PUSH2 0x1537 PUSH1 0x0 DUP4 ADD DUP5 PUSH2 0x1513 JUMP JUMPDEST SWAP3 SWAP2 POP POP JUMP JUMPDEST PUSH2 0x1546 DUP2 PUSH2 0x14DF JUMP JUMPDEST DUP2 EQ PUSH2 0x1551 JUMPI PUSH1 0x0 DUP1 REVERT JUMPDEST POP JUMP JUMPDEST PUSH1 0x0 DUP2 CALLDATALOAD SWAP1 POP PUSH2 0x1563 DUP2 PUSH2 0x153D JUMP JUMPDEST SWAP3 SWAP2 POP POP JUMP JUMPDEST PUSH1 0x0 DUP1 PUSH1 0x40 DUP4 DUP6 SUB SLT ISZERO PUSH2 0x1580 JUMPI PUSH2 0x157F PUSH2 0x1406 JUMP JUMPDEST JUMPDEST PUSH1 0x0 PUSH2 0x158E DUP6 DUP3 DUP7 ADD PUSH2 0x1554 JUMP JUMPDEST SWAP3 POP POP PUSH1 0x20 PUSH2 0x159F DUP6 DUP3 DUP7 ADD PUSH2 0x148A JUMP JUMPDEST SWAP2 POP POP SWAP3 POP SWAP3 SWAP1 POP JUMP JUMPDEST PUSH1 0x0 DUP1 PUSH1 0x0 PUSH1 0x60 DUP5 DUP7 SUB SLT ISZERO PUSH2 0x15C2 JUMPI PUSH2 0x15C1 PUSH2 0x1406 JUMP JUMPDEST JUMPDEST PUSH1 0x0 PUSH2 0x15D0 DUP7 DUP3 DUP8 ADD PUSH2 0x1454 JUMP JUMPDEST SWAP4 POP POP PUSH1 0x20 PUSH2 0x15E1 DUP7 DUP3 DUP8 ADD PUSH2 0x1454 JUMP JUMPDEST SWAP3 POP POP PUSH1 0x40 PUSH2 0x15F2 DUP7 DUP3 DUP8 ADD PUSH2 0x148A JUMP JUMPDEST SWAP2 POP POP SWAP3 POP SWAP3 POP SWAP3 JUMP JUMPDEST PUSH1 0x0 PUSH1 0x20 DUP3 DUP5 SUB SLT ISZERO PUSH2 0x1612 JUMPI PUSH2 0x1611 PUSH2 0x1406 JUMP JUMPDEST JUMPDEST PUSH1 0x0 PUSH2 0x1620 DUP5 DUP3 DUP6 ADD PUSH2 0x148A JUMP JUMPDEST SWAP2 POP POP SWAP3 SWAP2 POP POP JUMP JUMPDEST PUSH1 0x0 PUSH1 0x20 DUP3 DUP5 SUB SLT ISZERO PUSH2 0x163F JUMPI PUSH2 0x163E PUSH2 0x1406 JUMP JUMPDEST JUMPDEST PUSH1 0x0 PUSH2 0x164D DUP5 DUP3 DUP6 ADD PUSH2 0x1454 JUMP JUMPDEST SWAP2 POP POP SWAP3 SWAP2 POP POP JUMP JUMPDEST PUSH1 0x0 DUP3 DUP3 MSTORE PUSH1 0x20 DUP3 ADD SWAP1 POP SWAP3 SWAP2 POP POP JUMP JUMPDEST PUSH32 0x52696768747320726573657276656420666F7220746865206F776E6572206F6E PUSH1 0x0 DUP3 ADD MSTORE PUSH32 0x6C79210000000000000000000000000000000000000000000000000000000000 PUSH1 0x20 DUP3 ADD MSTORE POP JUMP JUMPDEST PUSH1 0x0 PUSH2 0x16C3 PUSH1 0x23 DUP4 PUSH2 0x1656 JUMP JUMPDEST SWAP2 POP PUSH2 0x16CE DUP3 PUSH2 0x1667 JUMP JUMPDEST PUSH1 0x40 DUP3 ADD SWAP1 POP SWAP2 SWAP1 POP JUMP JUMPDEST PUSH1 0x0 PUSH1 0x20 DUP3 ADD SWAP1 POP DUP2 DUP2 SUB PUSH1 0x0 DUP4 ADD MSTORE PUSH2 0x16F2 DUP2 PUSH2 0x16B6 JUMP JUMPDEST SWAP1 POP SWAP2 SWAP1 POP JUMP JUMPDEST PUSH32 0x4E6F2072652D656E7472616E6379000000000000000000000000000000000000 PUSH1 0x0 DUP3 ADD MSTORE POP JUMP JUMPDEST PUSH1 0x0 PUSH2 0x172F PUSH1 0xE DUP4 PUSH2 0x1656 JUMP JUMPDEST SWAP2 POP PUSH2 0x173A DUP3 PUSH2 0x16F9 JUMP JUMPDEST PUSH1 0x20 DUP3 ADD SWAP1 POP SWAP2 SWAP1 POP JUMP JUMPDEST PUSH1 0x0 PUSH1 0x20 DUP3 ADD SWAP1 POP DUP2 DUP2 SUB PUSH1 0x0 DUP4 ADD MSTORE PUSH2 0x175E DUP2 PUSH2 0x1722 JUMP JUMPDEST SWAP1 POP SWAP2 SWAP1 POP JUMP JUMPDEST PUSH32 0x4E487B7100000000000000000000000000000000000000000000000000000000 PUSH1 0x0 MSTORE PUSH1 0x1 PUSH1 0x4 MSTORE PUSH1 0x24 PUSH1 0x0 REVERT JUMPDEST PUSH1 0x0 DUP2 SWAP1 POP SWAP3 SWAP2 POP POP JUMP JUMPDEST POP JUMP JUMPDEST PUSH1 0x0 PUSH2 0x17AF PUSH1 0x0 DUP4 PUSH2 0x1794 JUMP JUMPDEST SWAP2 POP PUSH2 0x17BA DUP3 PUSH2 0x179F JUMP JUMPDEST PUSH1 0x0 DUP3 ADD SWAP1 POP SWAP2 SWAP1 POP JUMP JUMPDEST PUSH1 0x0 PUSH2 0x17D0 DUP3 PUSH2 0x17A2 JUMP JUMPDEST SWAP2 POP DUP2 SWAP1 POP SWAP2 SWAP1 POP JUMP JUMPDEST PUSH32 0x4661696C656420746F2073656E642073657276696365206665657320746F206F PUSH1 0x0 DUP3 ADD MSTORE PUSH32 0x776E657221000000000000000000000000000000000000000000000000000000 PUSH1 0x20 DUP3 ADD MSTORE POP JUMP JUMPDEST PUSH1 0x0 PUSH2 0x1836 PUSH1 0x25 DUP4 PUSH2 0x1656 JUMP JUMPDEST SWAP2 POP PUSH2 0x1841 DUP3 PUSH2 0x17DA JUMP JUMPDEST PUSH1 0x40 DUP3 ADD SWAP1 POP SWAP2 SWAP1 POP JUMP JUMPDEST PUSH1 0x0 PUSH1 0x20 DUP3 ADD SWAP1 POP DUP2 DUP2 SUB PUSH1 0x0 DUP4 ADD MSTORE PUSH2 0x1865 DUP2 PUSH2 0x1829 JUMP JUMPDEST SWAP1 POP SWAP2 SWAP1 POP JUMP JUMPDEST PUSH32 0x536F75726365206D75737420626520746865206F7261636C65206F6620746865 PUSH1 0x0 DUP3 ADD MSTORE PUSH32 0x2072657175657374000000000000000000000000000000000000000000000000 PUSH1 0x20 DUP3 ADD MSTORE POP JUMP JUMPDEST PUSH1 0x0 PUSH2 0x18C8 PUSH1 0x28 DUP4 PUSH2 0x1656 JUMP JUMPDEST SWAP2 POP PUSH2 0x18D3 DUP3 PUSH2 0x186C JUMP JUMPDEST PUSH1 0x40 DUP3 ADD SWAP1 POP SWAP2 SWAP1 POP JUMP JUMPDEST PUSH1 0x0 PUSH1 0x20 DUP3 ADD SWAP1 POP DUP2 DUP2 SUB PUSH1 0x0 DUP4 ADD MSTORE PUSH2 0x18F7 DUP2 PUSH2 0x18BB JUMP JUMPDEST SWAP1 POP SWAP2 SWAP1 POP JUMP JUMPDEST PUSH32 0x546F6B656E202620726563697069656E742061646472657373657320636F6E6E PUSH1 0x0 DUP3 ADD MSTORE PUSH32 0x6F74206265205A65726F21000000000000000000000000000000000000000000 PUSH1 0x20 DUP3 ADD MSTORE POP JUMP JUMPDEST PUSH1 0x0 PUSH2 0x195A PUSH1 0x2B DUP4 PUSH2 0x1656 JUMP JUMPDEST SWAP2 POP PUSH2 0x1965 DUP3 PUSH2 0x18FE JUMP JUMPDEST PUSH1 0x40 DUP3 ADD SWAP1 POP SWAP2 SWAP1 POP JUMP JUMPDEST PUSH1 0x0 PUSH1 0x20 DUP3 ADD SWAP1 POP DUP2 DUP2 SUB PUSH1 0x0 DUP4 ADD MSTORE PUSH2 0x1989 DUP2 PUSH2 0x194D JUMP JUMPDEST SWAP1 POP SWAP2 SWAP1 POP JUMP JUMPDEST PUSH32 0x496E76616C696420746F6B656E204944206F7220636F6C6C656374696F6E0000 PUSH1 0x0 DUP3 ADD MSTORE POP JUMP JUMPDEST PUSH1 0x0 PUSH2 0x19C6 PUSH1 0x1E DUP4 PUSH2 0x1656 JUMP JUMPDEST SWAP2 POP PUSH2 0x19D1 DUP3 PUSH2 0x1990 JUMP JUMPDEST PUSH1 0x20 DUP3 ADD SWAP1 POP SWAP2 SWAP1 POP JUMP JUMPDEST PUSH1 0x0 PUSH1 0x20 DUP3 ADD SWAP1 POP DUP2 DUP2 SUB PUSH1 0x0 DUP4 ADD MSTORE PUSH2 0x19F5 DUP2 PUSH2 0x19B9 JUMP JUMPDEST SWAP1 POP SWAP2 SWAP1 POP JUMP JUMPDEST PUSH32 0x4E487B7100000000000000000000000000000000000000000000000000000000 PUSH1 0x0 MSTORE PUSH1 0x11 PUSH1 0x4 MSTORE PUSH1 0x24 PUSH1 0x0 REVERT JUMPDEST PUSH1 0x0 PUSH2 0x1A36 DUP3 PUSH2 0x1469 JUMP JUMPDEST SWAP2 POP PUSH2 0x1A41 DUP4 PUSH2 0x1469 JUMP JUMPDEST SWAP3 POP DUP3 DUP3 MUL PUSH2 0x1A4F DUP2 PUSH2 0x1469 JUMP JUMPDEST SWAP2 POP DUP3 DUP3 DIV DUP5 EQ DUP4 ISZERO OR PUSH2 0x1A66 JUMPI PUSH2 0x1A65 PUSH2 0x19FC JUMP JUMPDEST JUMPDEST POP SWAP3 SWAP2 POP POP JUMP JUMPDEST PUSH32 0x4E487B7100000000000000000000000000000000000000000000000000000000 PUSH1 0x0 MSTORE PUSH1 0x12 PUSH1 0x4 MSTORE PUSH1 0x24 PUSH1 0x0 REVERT JUMPDEST PUSH1 0x0 PUSH2 0x1AA7 DUP3 PUSH2 0x1469 JUMP JUMPDEST SWAP2 POP PUSH2 0x1AB2 DUP4 PUSH2 0x1469 JUMP JUMPDEST SWAP3 POP DUP3 PUSH2 0x1AC2 JUMPI PUSH2 0x1AC1 PUSH2 0x1A6D JUMP JUMPDEST JUMPDEST DUP3 DUP3 DIV SWAP1 POP SWAP3 SWAP2 POP POP JUMP JUMPDEST PUSH1 0x0 PUSH2 0x1AD8 DUP3 PUSH2 0x1469 JUMP JUMPDEST SWAP2 POP PUSH2 0x1AE3 DUP4 PUSH2 0x1469 JUMP JUMPDEST SWAP3 POP DUP3 DUP3 ADD SWAP1 POP DUP1 DUP3 GT ISZERO PUSH2 0x1AFB JUMPI PUSH2 0x1AFA PUSH2 0x19FC JUMP JUMPDEST JUMPDEST SWAP3 SWAP2 POP POP JUMP JUMPDEST PUSH32 0x496E73756666696369656E742065746865722070726F76696465642100000000 PUSH1 0x0 DUP3 ADD MSTORE POP JUMP JUMPDEST PUSH1 0x0 PUSH2 0x1B37 PUSH1 0x1C DUP4 PUSH2 0x1656 JUMP JUMPDEST SWAP2 POP PUSH2 0x1B42 DUP3 PUSH2 0x1B01 JUMP JUMPDEST PUSH1 0x20 DUP3 ADD SWAP1 POP SWAP2 SWAP1 POP JUMP JUMPDEST PUSH1 0x0 PUSH1 0x20 DUP3 ADD SWAP1 POP DUP2 DUP2 SUB PUSH1 0x0 DUP4 ADD MSTORE PUSH2 0x1B66 DUP2 PUSH2 0x1B2A JUMP JUMPDEST SWAP1 POP SWAP2 SWAP1 POP JUMP JUMPDEST PUSH2 0x1B76 DUP2 PUSH2 0x142B JUMP JUMPDEST DUP3 MSTORE POP POP JUMP JUMPDEST PUSH1 0x0 PUSH1 0x60 DUP3 ADD SWAP1 POP PUSH2 0x1B91 PUSH1 0x0 DUP4 ADD DUP7 PUSH2 0x1B6D JUMP JUMPDEST PUSH2 0x1B9E PUSH1 0x20 DUP4 ADD DUP6 PUSH2 0x1B6D JUMP JUMPDEST PUSH2 0x1BAB PUSH1 0x40 DUP4 ADD DUP5 PUSH2 0x1513 JUMP JUMPDEST SWAP5 SWAP4 POP POP POP POP JUMP JUMPDEST PUSH1 0x0 PUSH2 0x1BBE DUP3 PUSH2 0x1469 JUMP JUMPDEST SWAP2 POP PUSH2 0x1BC9 DUP4 PUSH2 0x1469 JUMP JUMPDEST SWAP3 POP DUP3 DUP3 SUB SWAP1 POP DUP2 DUP2 GT ISZERO PUSH2 0x1BE1 JUMPI PUSH2 0x1BE0 PUSH2 0x19FC JUMP JUMPDEST JUMPDEST SWAP3 SWAP2 POP POP JUMP JUMPDEST PUSH32 0x4661696C656420746F2073656E642065786365737320457468657220746F2072 PUSH1 0x0 DUP3 ADD MSTORE PUSH32 0x65636970656E7421000000000000000000000000000000000000000000000000 PUSH1 0x20 DUP3 ADD MSTORE POP JUMP JUMPDEST PUSH1 0x0 PUSH2 0x1C43 PUSH1 0x28 DUP4 PUSH2 0x1656 JUMP JUMPDEST SWAP2 POP PUSH2 0x1C4E DUP3 PUSH2 0x1BE7 JUMP JUMPDEST PUSH1 0x40 DUP3 ADD SWAP1 POP SWAP2 SWAP1 POP JUMP JUMPDEST PUSH1 0x0 PUSH1 0x20 DUP3 ADD SWAP1 POP DUP2 DUP2 SUB PUSH1 0x0 DUP4 ADD MSTORE PUSH2 0x1C72 DUP2 PUSH2 0x1C36 JUMP JUMPDEST SWAP1 POP SWAP2 SWAP1 POP JUMP JUMPDEST PUSH32 0x4661696C656420746F2073656E64204E46542070726963652045746865722074 PUSH1 0x0 DUP3 ADD MSTORE PUSH32 0x6F206F776E657221000000000000000000000000000000000000000000000000 PUSH1 0x20 DUP3 ADD MSTORE POP JUMP JUMPDEST PUSH1 0x0 PUSH2 0x1CD5 PUSH1 0x28 DUP4 PUSH2 0x1656 JUMP JUMPDEST SWAP2 POP PUSH2 0x1CE0 DUP3 PUSH2 0x1C79 JUMP JUMPDEST PUSH1 0x40 DUP3 ADD SWAP1 POP SWAP2 SWAP1 POP JUMP JUMPDEST PUSH1 0x0 PUSH1 0x20 DUP3 ADD SWAP1 POP DUP2 DUP2 SUB PUSH1 0x0 DUP4 ADD MSTORE PUSH2 0x1D04 DUP2 PUSH2 0x1CC8 JUMP JUMPDEST SWAP1 POP SWAP2 SWAP1 POP JUMP JUMPDEST PUSH1 0x0 PUSH32 0xFFFFFFFF00000000000000000000000000000000000000000000000000000000 DUP3 AND SWAP1 POP SWAP2 SWAP1 POP JUMP JUMPDEST PUSH2 0x1D40 DUP2 PUSH2 0x1D0B JUMP JUMPDEST DUP3 MSTORE POP POP JUMP JUMPDEST PUSH1 0x0 DUP2 MLOAD SWAP1 POP SWAP2 SWAP1 POP JUMP JUMPDEST PUSH1 0x0 DUP3 DUP3 MSTORE PUSH1 0x20 DUP3 ADD SWAP1 POP SWAP3 SWAP2 POP POP JUMP JUMPDEST PUSH1 0x0 JUMPDEST DUP4 DUP2 LT ISZERO PUSH2 0x1D80 JUMPI DUP1 DUP3 ADD MLOAD DUP2 DUP5 ADD MSTORE PUSH1 0x20 DUP2 ADD SWAP1 POP PUSH2 0x1D65 JUMP JUMPDEST PUSH1 0x0 DUP5 DUP5 ADD MSTORE POP POP POP POP JUMP JUMPDEST PUSH1 0x0 PUSH1 0x1F NOT PUSH1 0x1F DUP4 ADD AND SWAP1 POP SWAP2 SWAP1 POP JUMP JUMPDEST PUSH1 0x0 PUSH2 0x1DA8 DUP3 PUSH2 0x1D46 JUMP JUMPDEST PUSH2 0x1DB2 DUP2 DUP6 PUSH2 0x1D51 JUMP JUMPDEST SWAP4 POP PUSH2 0x1DC2 DUP2 DUP6 PUSH1 0x20 DUP7 ADD PUSH2 0x1D62 JUMP JUMPDEST PUSH2 0x1DCB DUP2 PUSH2 0x1D8C JUMP JUMPDEST DUP5 ADD SWAP2 POP POP SWAP3 SWAP2 POP POP JUMP JUMPDEST PUSH1 0x0 PUSH2 0x100 DUP3 ADD SWAP1 POP PUSH2 0x1DEC PUSH1 0x0 DUP4 ADD DUP12 PUSH2 0x1B6D JUMP JUMPDEST PUSH2 0x1DF9 PUSH1 0x20 DUP4 ADD DUP11 PUSH2 0x1513 JUMP JUMPDEST PUSH2 0x1E06 PUSH1 0x40 DUP4 ADD DUP10 PUSH2 0x14E9 JUMP JUMPDEST PUSH2 0x1E13 PUSH1 0x60 DUP4 ADD DUP9 PUSH2 0x1B6D JUMP JUMPDEST PUSH2 0x1E20 PUSH1 0x80 DUP4 ADD DUP8 PUSH2 0x1D37 JUMP JUMPDEST PUSH2 0x1E2D PUSH1 0xA0 DUP4 ADD DUP7 PUSH2 0x1513 JUMP JUMPDEST PUSH2 0x1E3A PUSH1 0xC0 DUP4 ADD DUP6 PUSH2 0x1513 JUMP JUMPDEST DUP2 DUP2 SUB PUSH1 0xE0 DUP4 ADD MSTORE PUSH2 0x1E4C DUP2 DUP5 PUSH2 0x1D9D JUMP JUMPDEST SWAP1 POP SWAP10 SWAP9 POP POP POP POP POP POP POP POP POP JUMP JUMPDEST PUSH1 0x0 PUSH2 0x1E66 DUP3 PUSH2 0x1469 JUMP JUMPDEST SWAP2 POP PUSH2 0x1E71 DUP4 PUSH2 0x1469 JUMP JUMPDEST SWAP3 POP DUP3 PUSH2 0x1E81 JUMPI PUSH2 0x1E80 PUSH2 0x1A6D JUMP JUMPDEST JUMPDEST DUP3 DUP3 MOD SWAP1 POP SWAP3 SWAP2 POP POP JUMP JUMPDEST PUSH1 0x0 DUP2 SWAP1 POP SWAP2 SWAP1 POP JUMP JUMPDEST PUSH1 0x0 PUSH2 0x1EB1 PUSH2 0x1EAC PUSH2 0x1EA7 DUP5 PUSH2 0x140B JUMP JUMPDEST PUSH2 0x1E8C JUMP JUMPDEST PUSH2 0x140B JUMP JUMPDEST SWAP1 POP SWAP2 SWAP1 POP JUMP JUMPDEST PUSH1 0x0 PUSH2 0x1EC3 DUP3 PUSH2 0x1E96 JUMP JUMPDEST SWAP1 POP SWAP2 SWAP1 POP JUMP JUMPDEST PUSH1 0x0 PUSH2 0x1ED5 DUP3 PUSH2 0x1EB8 JUMP JUMPDEST SWAP1 POP SWAP2 SWAP1 POP JUMP JUMPDEST PUSH1 0x0 DUP2 PUSH1 0x60 SHL SWAP1 POP SWAP2 SWAP1 POP JUMP JUMPDEST PUSH1 0x0 PUSH2 0x1EF4 DUP3 PUSH2 0x1EDC JUMP JUMPDEST SWAP1 POP SWAP2 SWAP1 POP JUMP JUMPDEST PUSH1 0x0 PUSH2 0x1F06 DUP3 PUSH2 0x1EE9 JUMP JUMPDEST SWAP1 POP SWAP2 SWAP1 POP JUMP JUMPDEST PUSH2 0x1F1E PUSH2 0x1F19 DUP3 PUSH2 0x1ECA JUMP JUMPDEST PUSH2 0x1EFB JUMP JUMPDEST DUP3 MSTORE POP POP JUMP JUMPDEST PUSH1 0x0 DUP2 SWAP1 POP SWAP2 SWAP1 POP JUMP JUMPDEST PUSH2 0x1F3F PUSH2 0x1F3A DUP3 PUSH2 0x1469 JUMP JUMPDEST PUSH2 0x1F24 JUMP JUMPDEST DUP3 MSTORE POP POP JUMP JUMPDEST PUSH1 0x0 PUSH2 0x1F51 DUP3 DUP6 PUSH2 0x1F0D JUMP JUMPDEST PUSH1 0x14 DUP3 ADD SWAP2 POP PUSH2 0x1F61 DUP3 DUP5 PUSH2 0x1F2E JUMP JUMPDEST PUSH1 0x20 DUP3 ADD SWAP2 POP DUP2 SWAP1 POP SWAP4 SWAP3 POP POP POP JUMP JUMPDEST PUSH1 0x0 PUSH1 0x60 DUP3 ADD SWAP1 POP PUSH2 0x1F86 PUSH1 0x0 DUP4 ADD DUP7 PUSH2 0x1B6D JUMP JUMPDEST PUSH2 0x1F93 PUSH1 0x20 DUP4 ADD DUP6 PUSH2 0x1513 JUMP JUMPDEST DUP2 DUP2 SUB PUSH1 0x40 DUP4 ADD MSTORE PUSH2 0x1FA5 DUP2 DUP5 PUSH2 0x1D9D JUMP JUMPDEST SWAP1 POP SWAP5 SWAP4 POP POP POP POP JUMP JUMPDEST PUSH1 0x0 DUP2 ISZERO ISZERO SWAP1 POP SWAP2 SWAP1 POP JUMP JUMPDEST PUSH2 0x1FC4 DUP2 PUSH2 0x1FAF JUMP JUMPDEST DUP2 EQ PUSH2 0x1FCF JUMPI PUSH1 0x0 DUP1 REVERT JUMPDEST POP JUMP JUMPDEST PUSH1 0x0 DUP2 MLOAD SWAP1 POP PUSH2 0x1FE1 DUP2 PUSH2 0x1FBB JUMP JUMPDEST SWAP3 SWAP2 POP POP JUMP JUMPDEST PUSH1 0x0 PUSH1 0x20 DUP3 DUP5 SUB SLT ISZERO PUSH2 0x1FFD JUMPI PUSH2 0x1FFC PUSH2 0x1406 JUMP JUMPDEST JUMPDEST PUSH1 0x0 PUSH2 0x200B DUP5 DUP3 DUP6 ADD PUSH2 0x1FD2 JUMP JUMPDEST SWAP2 POP POP SWAP3 SWAP2 POP POP JUMP JUMPDEST PUSH32 0x756E61626C6520746F207472616E73666572416E6443616C6C20746F206F7261 PUSH1 0x0 DUP3 ADD MSTORE PUSH32 0x636C650000000000000000000000000000000000000000000000000000000000 PUSH1 0x20 DUP3 ADD MSTORE POP JUMP JUMPDEST PUSH1 0x0 PUSH2 0x2070 PUSH1 0x23 DUP4 PUSH2 0x1656 JUMP JUMPDEST SWAP2 POP PUSH2 0x207B DUP3 PUSH2 0x2014 JUMP JUMPDEST PUSH1 0x40 DUP3 ADD SWAP1 POP SWAP2 SWAP1 POP JUMP JUMPDEST PUSH1 0x0 PUSH1 0x20 DUP3 ADD SWAP1 POP DUP2 DUP2 SUB PUSH1 0x0 DUP4 ADD MSTORE PUSH2 0x209F DUP2 PUSH2 0x2063 JUMP JUMPDEST SWAP1 POP SWAP2 SWAP1 POP JUMP JUMPDEST PUSH1 0x0 DUP2 PUSH1 0x1 SHR SWAP1 POP SWAP2 SWAP1 POP JUMP JUMPDEST PUSH1 0x0 DUP1 DUP3 SWAP2 POP DUP4 SWAP1 POP JUMPDEST PUSH1 0x1 DUP6 GT ISZERO PUSH2 0x20FD JUMPI DUP1 DUP7 DIV DUP2 GT ISZERO PUSH2 0x20D9 JUMPI PUSH2 0x20D8 PUSH2 0x19FC JUMP JUMPDEST JUMPDEST PUSH1 0x1 DUP6 AND ISZERO PUSH2 0x20E8 JUMPI DUP1 DUP3 MUL SWAP2 POP JUMPDEST DUP1 DUP2 MUL SWAP1 POP PUSH2 0x20F6 DUP6 PUSH2 0x20A6 JUMP JUMPDEST SWAP5 POP PUSH2 0x20BD JUMP JUMPDEST SWAP5 POP SWAP5 SWAP3 POP POP POP JUMP JUMPDEST PUSH1 0x0 DUP3 PUSH2 0x2116 JUMPI PUSH1 0x1 SWAP1 POP PUSH2 0x21D2 JUMP JUMPDEST DUP2 PUSH2 0x2124 JUMPI PUSH1 0x0 SWAP1 POP PUSH2 0x21D2 JUMP JUMPDEST DUP2 PUSH1 0x1 DUP2 EQ PUSH2 0x213A JUMPI PUSH1 0x2 DUP2 EQ PUSH2 0x2144 JUMPI PUSH2 0x2173 JUMP JUMPDEST PUSH1 0x1 SWAP2 POP POP PUSH2 0x21D2 JUMP JUMPDEST PUSH1 0xFF DUP5 GT ISZERO PUSH2 0x2156 JUMPI PUSH2 0x2155 PUSH2 0x19FC JUMP JUMPDEST JUMPDEST DUP4 PUSH1 0x2 EXP SWAP2 POP DUP5 DUP3 GT ISZERO PUSH2 0x216D JUMPI PUSH2 0x216C PUSH2 0x19FC JUMP JUMPDEST JUMPDEST POP PUSH2 0x21D2 JUMP JUMPDEST POP PUSH1 0x20 DUP4 LT PUSH2 0x133 DUP4 LT AND PUSH1 0x4E DUP5 LT PUSH1 0xB DUP5 LT AND OR ISZERO PUSH2 0x21A8 JUMPI DUP3 DUP3 EXP SWAP1 POP DUP4 DUP2 GT ISZERO PUSH2 0x21A3 JUMPI PUSH2 0x21A2 PUSH2 0x19FC JUMP JUMPDEST JUMPDEST PUSH2 0x21D2 JUMP JUMPDEST PUSH2 0x21B5 DUP5 DUP5 DUP5 PUSH1 0x1 PUSH2 0x20B3 JUMP JUMPDEST SWAP3 POP SWAP1 POP DUP2 DUP5 DIV DUP2 GT ISZERO PUSH2 0x21CC JUMPI PUSH2 0x21CB PUSH2 0x19FC JUMP JUMPDEST JUMPDEST DUP2 DUP2 MUL SWAP1 POP JUMPDEST SWAP4 SWAP3 POP POP POP JUMP JUMPDEST PUSH1 0x0 PUSH2 0x21E4 DUP3 PUSH2 0x1469 JUMP JUMPDEST SWAP2 POP PUSH2 0x21EF DUP4 PUSH2 0x1469 JUMP JUMPDEST SWAP3 POP PUSH2 0x221C PUSH32 0xFFFFFFFFFFFFFFFFFFFFFFFFFFFFFFFFFFFFFFFFFFFFFFFFFFFFFFFFFFFFFFFF DUP5 DUP5 PUSH2 0x2106 JUMP JUMPDEST SWAP1 POP SWAP3 SWAP2 POP POP JUMP INVALID PUSH9 0x747470733A2F2F6D6F PUSH4 0x6B692E69 PUSH16 0x2F76312F65316135656661632D386531 CODESIZE 0x2D CALLVALUE PUSH7 0x37302D39393437 0x2D BALANCE ADDRESS CALLDATALOAD PUSH7 0x61346564663436 CALLDATASIZE LOG2 PUSH5 0x6970667358 0x22 SLT KECCAK256 0xBE SLT CALL 0xA6 0x5D 0xFC SWAP8 0xD7 STATICCALL 0x49 LOG2 0x21 CALL PUSH20 0x86A5AE62184BA97B6A1C38913B941E9C1C596473 PUSH16 0x6C634300081100330000000000000000 "},"methodIdentifiers":{"changeOwner(address)":"a6f9dae1","claimServiceFee()":"33b3be77","fulfill(bytes32,uint256)":"4357855e","getServiceFee()":"11a1933c","prices()":"d3419bf3","requestTokenPrice(address,uint256)":"0bd4fe0f","setServiceFee(uint256)":"5cdf76f8","swapOut(address,address,uint256)":"48c314f4"}}}}}