{"contracts/nftTransfer.sol":{"NFTMarket":{"abi":[{"inputs":[],"stateMutability":"nonpayable","type":"constructor"},{"anonymous":false,"inputs":[{"indexed":true,"internalType":"bytes32","name":"id","type":"bytes32"}],"name":"ChainlinkCancelled","type":"event"},{"anonymous":false,"inputs":[{"indexed":true,"internalType":"bytes32","name":"id","type":"bytes32"}],"name":"ChainlinkFulfilled","type":"event"},{"anonymous":false,"inputs":[{"indexed":true,"internalType":"bytes32","name":"id","type":"bytes32"}],"name":"ChainlinkRequested","type":"event"},{"anonymous":false,"inputs":[{"indexed":true,"internalType":"address","name":"from","type":"address"},{"indexed":true,"internalType":"address","name":"to","type":"address"}],"name":"OwnershipTransferRequested","type":"event"},{"anonymous":false,"inputs":[{"indexed":true,"internalType":"address","name":"from","type":"address"},{"indexed":true,"internalType":"address","name":"to","type":"address"}],"name":"OwnershipTransferred","type":"event"},{"inputs":[],"name":"acceptOwnership","outputs":[],"stateMutability":"nonpayable","type":"function"},{"inputs":[],"name":"chainLinkBalance","outputs":[{"internalType":"uint256","name":"_tokens","type":"uint256"}],"stateMutability":"view","type":"function"},{"inputs":[{"internalType":"address","name":"_owner","type":"address"}],"name":"changeOwner","outputs":[],"stateMutability":"nonpayable","type":"function"},{"inputs":[],"name":"claimChainLinkTokens","outputs":[],"stateMutability":"nonpayable","type":"function"},{"inputs":[],"name":"claimServiceFee","outputs":[],"stateMutability":"payable","type":"function"},{"inputs":[{"internalType":"bytes32","name":"_requestId","type":"bytes32"},{"internalType":"uint256","name":"_volume","type":"uint256"}],"name":"fulfill","outputs":[],"stateMutability":"nonpayable","type":"function"},{"inputs":[],"name":"getServiceFee","outputs":[{"internalType":"uint256","name":"serviceCharges","type":"uint256"}],"stateMutability":"view","type":"function"},{"inputs":[],"name":"owner","outputs":[{"internalType":"address","name":"","type":"address"}],"stateMutability":"view","type":"function"},{"inputs":[],"name":"prices","outputs":[{"internalType":"uint256","name":"","type":"uint256"}],"stateMutability":"view","type":"function"},{"inputs":[{"internalType":"address","name":"_collection","type":"address"},{"internalType":"uint256","name":"_tokenId","type":"uint256"}],"name":"requestTokenPrice","outputs":[{"internalType":"bytes32","name":"reqestId","type":"bytes32"}],"stateMutability":"nonpayable","type":"function"},{"inputs":[{"internalType":"uint256","name":"basisPoints","type":"uint256"}],"name":"setServiceFee","outputs":[],"stateMutability":"nonpayable","type":"function"},{"inputs":[{"internalType":"address","name":"_token","type":"address"},{"internalType":"address","name":"_recipient","type":"address"},{"internalType":"uint256","name":"_tokenId","type":"uint256"}],"name":"swapOut","outputs":[{"internalType":"bool","name":"swapStatus","type":"bool"}],"stateMutability":"payable","type":"function"},{"inputs":[{"internalType":"address","name":"to","type":"address"}],"name":"transferOwnership","outputs":[],"stateMutability":"nonpayable","type":"function"}],"evm":{"bytecode":{"linkReferences":{},"object":"608060405260016004556064600855600060095573326c977e6efc84e512bb9c30f76e30c160ed06fb600d60006101000a81548173ffffffffffffffffffffffffffffffffffffffff021916908373ffffffffffffffffffffffffffffffffffffffff1602179055506040518060600160405280603881526020016200414460389139600e9081620000929190620006bf565b50348015620000a057600080fd5b50338060008073ffffffffffffffffffffffffffffffffffffffff168273ffffffffffffffffffffffffffffffffffffffff160362000116576040517f08c379a00000000000000000000000000000000000000000000000000000000081526004016200010d9062000807565b60405180910390fd5b81600660006101000a81548173ffffffffffffffffffffffffffffffffffffffff021916908373ffffffffffffffffffffffffffffffffffffffff160217905550600073ffffffffffffffffffffffffffffffffffffffff168173ffffffffffffffffffffffffffffffffffffffff16146200019e576200019d816200028c60201b60201c565b5b505050600060108190555033600c60006101000a81548173ffffffffffffffffffffffffffffffffffffffff021916908373ffffffffffffffffffffffffffffffffffffffff1602179055506200020f73326c977e6efc84e512bb9c30f76e30c160ed06fb620003bd60201b60201c565b6200023473cc79157eb46f5624204f47ab42b3906caa40eab76200040160201b60201c565b7f6361393833363663633733313439353762386330313263373266303561656562600b81905550600a670de0b6b3a7640000600162000274919062000858565b620002809190620008d2565b600a819055506200097c565b3373ffffffffffffffffffffffffffffffffffffffff168173ffffffffffffffffffffffffffffffffffffffff1603620002fd576040517f08c379a0000000000000000000000000000000000000000000000000000000008152600401620002f4906200095a565b60405180910390fd5b80600760006101000a81548173ffffffffffffffffffffffffffffffffffffffff021916908373ffffffffffffffffffffffffffffffffffffffff1602179055508073ffffffffffffffffffffffffffffffffffffffff16600660009054906101000a900473ffffffffffffffffffffffffffffffffffffffff1673ffffffffffffffffffffffffffffffffffffffff167fed8889f560326eb138920d842192f0eb3dd22b4f139c87a2c57538e05bae127860405160405180910390a350565b80600260006101000a81548173ffffffffffffffffffffffffffffffffffffffff021916908373ffffffffffffffffffffffffffffffffffffffff16021790555050565b80600360006101000a81548173ffffffffffffffffffffffffffffffffffffffff021916908373ffffffffffffffffffffffffffffffffffffffff16021790555050565b600081519050919050565b7f4e487b7100000000000000000000000000000000000000000000000000000000600052604160045260246000fd5b7f4e487b7100000000000000000000000000000000000000000000000000000000600052602260045260246000fd5b60006002820490506001821680620004c757607f821691505b602082108103620004dd57620004dc6200047f565b5b50919050565b60008190508160005260206000209050919050565b60006020601f8301049050919050565b600082821b905092915050565b600060088302620005477fffffffffffffffffffffffffffffffffffffffffffffffffffffffffffffffff8262000508565b62000553868362000508565b95508019841693508086168417925050509392505050565b6000819050919050565b6000819050919050565b6000620005a06200059a62000594846200056b565b62000575565b6200056b565b9050919050565b6000819050919050565b620005bc836200057f565b620005d4620005cb82620005a7565b84845462000515565b825550505050565b600090565b620005eb620005dc565b620005f8818484620005b1565b505050565b5b81811015620006205762000614600082620005e1565b600181019050620005fe565b5050565b601f8211156200066f576200063981620004e3565b6200064484620004f8565b8101602085101562000654578190505b6200066c6200066385620004f8565b830182620005fd565b50505b505050565b600082821c905092915050565b6000620006946000198460080262000674565b1980831691505092915050565b6000620006af838362000681565b9150826002028217905092915050565b620006ca8262000445565b67ffffffffffffffff811115620006e657620006e562000450565b5b620006f28254620004ae565b620006ff82828562000624565b600060209050601f83116001811462000737576000841562000722578287015190505b6200072e8582620006a1565b8655506200079e565b601f1984166200074786620004e3565b60005b8281101562000771578489015182556001820191506020850194506020810190506200074a565b868310156200079157848901516200078d601f89168262000681565b8355505b6001600288020188555050505b505050505050565b600082825260208201905092915050565b7f43616e6e6f7420736574206f776e657220746f207a65726f0000000000000000600082015250565b6000620007ef601883620007a6565b9150620007fc82620007b7565b602082019050919050565b600060208201905081810360008301526200082281620007e0565b9050919050565b7f4e487b7100000000000000000000000000000000000000000000000000000000600052601160045260246000fd5b600062000865826200056b565b915062000872836200056b565b925082820262000882816200056b565b915082820484148315176200089c576200089b62000829565b5b5092915050565b7f4e487b7100000000000000000000000000000000000000000000000000000000600052601260045260246000fd5b6000620008df826200056b565b9150620008ec836200056b565b925082620008ff57620008fe620008a3565b5b828204905092915050565b7f43616e6e6f74207472616e7366657220746f2073656c66000000000000000000600082015250565b600062000942601783620007a6565b91506200094f826200090a565b602082019050919050565b60006020820190508181036000830152620009758162000933565b9050919050565b6137b8806200098c6000396000f3fe6080604052600436106100c25760003560e01c806363638ad21161007f578063a6f9dae111610059578063a6f9dae114610214578063cd85f6221461023d578063d3419bf314610268578063f2fde38b14610293576100c2565b806363638ad2146101bb57806379ba5097146101d25780638da5cb5b146101e9576100c2565b80630bd4fe0f146100c757806311a1933c1461010457806333b3be771461012f5780634357855e1461013957806348c314f4146101625780635cdf76f814610192575b600080fd5b3480156100d357600080fd5b506100ee60048036038101906100e99190612423565b6102bc565b6040516100fb919061247c565b60405180910390f35b34801561011057600080fd5b5061011961045d565b60405161012691906124a6565b60405180910390f35b610137610467565b005b34801561014557600080fd5b50610160600480360381019061015b91906124ed565b61066b565b005b61017c6004803603810190610177919061252d565b61077c565b604051610189919061259b565b60405180910390f35b34801561019e57600080fd5b506101b960048036038101906101b491906125b6565b610bfa565b005b3480156101c757600080fd5b506101d0610c04565b005b3480156101de57600080fd5b506101e7610f26565b005b3480156101f557600080fd5b506101fe6110bd565b60405161020b91906125f2565b60405180910390f35b34801561022057600080fd5b5061023b6004803603810190610236919061260d565b6110e7565b005b34801561024957600080fd5b5061025261122a565b60405161025f91906124a6565b60405180910390f35b34801561027457600080fd5b5061027d6112cd565b60405161028a91906124a6565b60405180910390f35b34801561029f57600080fd5b506102ba60048036038101906102b5919061260d565b6112d3565b005b6000806102d3600b5430634357855e60e01b6112e7565b90506000600e6102fa8673ffffffffffffffffffffffffffffffffffffffff166014611318565b61030386611554565b6040516020016103159392919061283b565b60405160208183030381529060405290506103706040518060400160405280600381526020017f676574000000000000000000000000000000000000000000000000000000000081525082846116229092919063ffffffff16565b6103ef6040518060400160405280600481526020017f70617468000000000000000000000000000000000000000000000000000000008152506040518060400160405280600581526020017f76616c7565000000000000000000000000000000000000000000000000000000815250846116229092919063ffffffff16565b6000670de0b6b3a764000090506104466040518060400160405280600581526020017f74696d657300000000000000000000000000000000000000000000000000000081525082856116559092919063ffffffff16565b61045283600a54611688565b935050505092915050565b6000600854905090565b3373ffffffffffffffffffffffffffffffffffffffff16600c60009054906101000a900473ffffffffffffffffffffffffffffffffffffffff1673ffffffffffffffffffffffffffffffffffffffff16146104f7576040517f08c379a00000000000000000000000000000000000000000000000000000000081526004016104ee906128df565b60405180910390fd5b600f60009054906101000a900460ff1615610547576040517f08c379a000000000000000000000000000000000000000000000000000000000815260040161053e9061294b565b60405180910390fd5b6001600f60006101000a81548160ff0219169083151502179055506000600954116105755761057461296b565b5b6000600c60009054906101000a900473ffffffffffffffffffffffffffffffffffffffff1673ffffffffffffffffffffffffffffffffffffffff166009546040516105bf906129cb565b60006040518083038185875af1925050503d80600081146105fc576040519150601f19603f3d011682016040523d82523d6000602084013e610601565b606091505b5050905080610645576040517f08c379a000000000000000000000000000000000000000000000000000000000815260040161063c90612a52565b60405180910390fd5b6000600981905550506000600f60006101000a81548160ff021916908315150217905550565b816005600082815260200190815260200160002060009054906101000a900473ffffffffffffffffffffffffffffffffffffffff1673ffffffffffffffffffffffffffffffffffffffff163373ffffffffffffffffffffffffffffffffffffffff161461070d576040517f08c379a000000000000000000000000000000000000000000000000000000000815260040161070490612ae4565b60405180910390fd5b6005600082815260200190815260200160002060006101000a81549073ffffffffffffffffffffffffffffffffffffffff0219169055807f7cc135e0cebb02c3480ae5d74d377283180a2601f8f644edf7987b009316c63a60405160405180910390a281601081905550505050565b6000600f60009054906101000a900460ff16156107ce576040517f08c379a00000000000000000000000000000000000000000000000000000000081526004016107c59061294b565b60405180910390fd5b6001600f60006101000a81548160ff021916908315150217905550600073ffffffffffffffffffffffffffffffffffffffff168473ffffffffffffffffffffffffffffffffffffffff16141580156108535750600073ffffffffffffffffffffffffffffffffffffffff168373ffffffffffffffffffffffffffffffffffffffff1614155b610892576040517f08c379a000000000000000000000000000000000000000000000000000000000815260040161088990612b76565b60405180910390fd5b61089c84836102bc565b506000601054116108e2576040517f08c379a00000000000000000000000000000000000000000000000000000000081526004016108d990612be2565b60405180910390fd5b600034905060006127106008546010546108fc9190612c31565b6109069190612ca2565b9050806009600082825461091a9190612cd3565b925050819055508060105461092f9190612cd3565b821015610971576040517f08c379a000000000000000000000000000000000000000000000000000000000815260040161096890612d53565b60405180910390fd5b60008673ffffffffffffffffffffffffffffffffffffffff16636352211e866040518263ffffffff1660e01b81526004016109ac91906124a6565b602060405180830381865afa1580156109c9573d6000803e3d6000fd5b505050506040513d601f19601f820116820180604052508101906109ed9190612d88565b73ffffffffffffffffffffffffffffffffffffffff16601054604051610a12906129cb565b60006040518083038185875af1925050503d8060008114610a4f576040519150601f19603f3d011682016040523d82523d6000602084013e610a54565b606091505b5050905080610a98576040517f08c379a0000000000000000000000000000000000000000000000000000000008152600401610a8f90612e27565b60405180910390fd5b600082601054610aa89190612cd3565b84610ab39190612e47565b90503373ffffffffffffffffffffffffffffffffffffffff1681604051610ad9906129cb565b60006040518083038185875af1925050503d8060008114610b16576040519150601f19603f3d011682016040523d82523d6000602084013e610b1b565b606091505b50508092505081610b61576040517f08c379a0000000000000000000000000000000000000000000000000000000008152600401610b5890612eed565b60405180910390fd5b8773ffffffffffffffffffffffffffffffffffffffff166342842e0e3389896040518463ffffffff1660e01b8152600401610b9e93929190612f0d565b600060405180830381600087803b158015610bb857600080fd5b505af1158015610bcc573d6000803e3d6000fd5b5050505060019450505050506000600f60006101000a81548160ff0219169083151502179055509392505050565b8060088190555050565b3373ffffffffffffffffffffffffffffffffffffffff16600c60009054906101000a900473ffffffffffffffffffffffffffffffffffffffff1673ffffffffffffffffffffffffffffffffffffffff1614610c94576040517f08c379a0000000000000000000000000000000000000000000000000000000008152600401610c8b906128df565b60405180910390fd5b600f60009054906101000a900460ff1615610ce4576040517f08c379a0000000000000000000000000000000000000000000000000000000008152600401610cdb9061294b565b60405180910390fd5b6001600f60006101000a81548160ff0219169083151502179055506000600d60009054906101000a900473ffffffffffffffffffffffffffffffffffffffff1673ffffffffffffffffffffffffffffffffffffffff166370a08231306040518263ffffffff1660e01b8152600401610d5c91906125f2565b602060405180830381865afa158015610d79573d6000803e3d6000fd5b505050506040513d601f19601f82011682018060405250810190610d9d9190612f59565b11610dab57610daa61296b565b5b600d60009054906101000a900473ffffffffffffffffffffffffffffffffffffffff1673ffffffffffffffffffffffffffffffffffffffff1663a9059cbb600c60009054906101000a900473ffffffffffffffffffffffffffffffffffffffff16600d60009054906101000a900473ffffffffffffffffffffffffffffffffffffffff1673ffffffffffffffffffffffffffffffffffffffff166370a08231306040518263ffffffff1660e01b8152600401610e6791906125f2565b602060405180830381865afa158015610e84573d6000803e3d6000fd5b505050506040513d601f19601f82011682018060405250810190610ea89190612f59565b6040518363ffffffff1660e01b8152600401610ec5929190612f86565b6020604051808303816000875af1158015610ee4573d6000803e3d6000fd5b505050506040513d601f19601f82011682018060405250810190610f089190612fdb565b506000600f60006101000a81548160ff021916908315150217905550565b600760009054906101000a900473ffffffffffffffffffffffffffffffffffffffff1673ffffffffffffffffffffffffffffffffffffffff163373ffffffffffffffffffffffffffffffffffffffff1614610fb6576040517f08c379a0000000000000000000000000000000000000000000000000000000008152600401610fad90613054565b60405180910390fd5b6000600660009054906101000a900473ffffffffffffffffffffffffffffffffffffffff16905033600660006101000a81548173ffffffffffffffffffffffffffffffffffffffff021916908373ffffffffffffffffffffffffffffffffffffffff1602179055506000600760006101000a81548173ffffffffffffffffffffffffffffffffffffffff021916908373ffffffffffffffffffffffffffffffffffffffff1602179055503373ffffffffffffffffffffffffffffffffffffffff168173ffffffffffffffffffffffffffffffffffffffff167f8be0079c531659141344cd1fd0a4f28419497f9722a3daafe3b4186f6b6457e060405160405180910390a350565b6000600660009054906101000a900473ffffffffffffffffffffffffffffffffffffffff16905090565b3373ffffffffffffffffffffffffffffffffffffffff16600c60009054906101000a900473ffffffffffffffffffffffffffffffffffffffff1673ffffffffffffffffffffffffffffffffffffffff1614611177576040517f08c379a000000000000000000000000000000000000000000000000000000000815260040161116e906128df565b60405180910390fd5b600073ffffffffffffffffffffffffffffffffffffffff168173ffffffffffffffffffffffffffffffffffffffff16036111e6576040517f08c379a00000000000000000000000000000000000000000000000000000000081526004016111dd906130c0565b60405180910390fd5b80600c60006101000a81548173ffffffffffffffffffffffffffffffffffffffff021916908373ffffffffffffffffffffffffffffffffffffffff16021790555050565b6000600d60009054906101000a900473ffffffffffffffffffffffffffffffffffffffff1673ffffffffffffffffffffffffffffffffffffffff166370a08231306040518263ffffffff1660e01b815260040161128791906125f2565b602060405180830381865afa1580156112a4573d6000803e3d6000fd5b505050506040513d601f19601f820116820180604052508101906112c89190612f59565b905090565b60105481565b6112db6116bf565b6112e481611751565b50565b6112ef612303565b6112f7612303565b61130e8585858461187f909392919063ffffffff16565b9150509392505050565b60606000600283600261132b9190612c31565b6113359190612cd3565b67ffffffffffffffff81111561134e5761134d6130e0565b5b6040519080825280601f01601f1916602001820160405280156113805781602001600182028036833780820191505090505b5090507f3000000000000000000000000000000000000000000000000000000000000000816000815181106113b8576113b761310f565b5b60200101907effffffffffffffffffffffffffffffffffffffffffffffffffffffffffffff1916908160001a9053507f78000000000000000000000000000000000000000000000000000000000000008160018151811061141c5761141b61310f565b5b60200101907effffffffffffffffffffffffffffffffffffffffffffffffffffffffffffff1916908160001a9053506000600184600261145c9190612c31565b6114669190612cd3565b90505b6001811115611506577f3031323334353637383961626364656600000000000000000000000000000000600f8616601081106114a8576114a761310f565b5b1a60f81b8282815181106114bf576114be61310f565b5b60200101907effffffffffffffffffffffffffffffffffffffffffffffffffffffffffffff1916908160001a905350600485901c9450806114ff9061313e565b9050611469565b506000841461154a576040517f08c379a0000000000000000000000000000000000000000000000000000000008152600401611541906131b3565b60405180910390fd5b8091505092915050565b6060600060016115638461192f565b01905060008167ffffffffffffffff811115611582576115816130e0565b5b6040519080825280601f01601f1916602001820160405280156115b45781602001600182028036833780820191505090505b509050600082602001820190505b600115611617578080600190039150507f3031323334353637383961626364656600000000000000000000000000000000600a86061a8153600a858161160b5761160a612c73565b5b049450600085036115c2575b819350505050919050565b611639828460800151611a8290919063ffffffff16565b611650818460800151611a8290919063ffffffff16565b505050565b61166c828460800151611a8290919063ffffffff16565b611683818460800151611aa790919063ffffffff16565b505050565b60006116b7600360009054906101000a900473ffffffffffffffffffffffffffffffffffffffff168484611b54565b905092915050565b600660009054906101000a900473ffffffffffffffffffffffffffffffffffffffff1673ffffffffffffffffffffffffffffffffffffffff163373ffffffffffffffffffffffffffffffffffffffff161461174f576040517f08c379a00000000000000000000000000000000000000000000000000000000081526004016117469061321f565b60405180910390fd5b565b3373ffffffffffffffffffffffffffffffffffffffff168173ffffffffffffffffffffffffffffffffffffffff16036117bf576040517f08c379a00000000000000000000000000000000000000000000000000000000081526004016117b69061328b565b60405180910390fd5b80600760006101000a81548173ffffffffffffffffffffffffffffffffffffffff021916908373ffffffffffffffffffffffffffffffffffffffff1602179055508073ffffffffffffffffffffffffffffffffffffffff16600660009054906101000a900473ffffffffffffffffffffffffffffffffffffffff1673ffffffffffffffffffffffffffffffffffffffff167fed8889f560326eb138920d842192f0eb3dd22b4f139c87a2c57538e05bae127860405160405180910390a350565b611887612303565b6118978560800151610100611c20565b508385600001818152505082856020019073ffffffffffffffffffffffffffffffffffffffff16908173ffffffffffffffffffffffffffffffffffffffff16815250508185604001907bffffffffffffffffffffffffffffffffffffffffffffffffffffffff191690817bffffffffffffffffffffffffffffffffffffffffffffffffffffffff191681525050849050949350505050565b600080600090507a184f03e93ff9f4daa797ed6e38ed64bf6a1f010000000000000000831061198d577a184f03e93ff9f4daa797ed6e38ed64bf6a1f010000000000000000838161198357611982612c73565b5b0492506040810190505b6d04ee2d6d415b85acef810000000083106119ca576d04ee2d6d415b85acef810000000083816119c0576119bf612c73565b5b0492506020810190505b662386f26fc1000083106119f957662386f26fc1000083816119ef576119ee612c73565b5b0492506010810190505b6305f5e1008310611a22576305f5e1008381611a1857611a17612c73565b5b0492506008810190505b6127108310611a47576127108381611a3d57611a3c612c73565b5b0492506004810190505b60648310611a6a5760648381611a6057611a5f612c73565b5b0492506002810190505b600a8310611a79576001810190505b80915050919050565b611a8f8260038351611c8a565b611aa28183611e0f90919063ffffffff16565b505050565b7fffffffffffffffffffffffffffffffffffffffffffffffff0000000000000000811215611ade57611ad98282611e31565b611b50565b67ffffffffffffffff811315611afd57611af88282611ea8565b611b4f565b60008112611b1657611b1182600083611c8a565b611b4e565b611b4d826001837fffffffffffffffffffffffffffffffffffffffffffffffffffffffffffffffff611b4891906132b5565b611c8a565b5b5b5b5050565b6000806004549050600181611b699190612cd3565b6004819055506000634042994660e01b60008087600001513089604001518760018c6080015160000151604051602401611baa989796959493929190613399565b604051602081830303815290604052907bffffffffffffffffffffffffffffffffffffffffffffffffffffffff19166020820180517bffffffffffffffffffffffffffffffffffffffffffffffffffffffff83818316178352505050509050611c1586838684611ef4565b925050509392505050565b611c28612370565b6000602083611c37919061341e565b14611c6357602082611c49919061341e565b6020611c559190612e47565b82611c609190612cd3565b91505b81836020018181525050604051808452600081528281016020016040525082905092915050565b60178167ffffffffffffffff1611611cc157611cbb8160058460ff16901b60ff16178461208990919063ffffffff16565b50611e0a565b60ff8167ffffffffffffffff1611611d1757611cf0601860058460ff16901b178461208990919063ffffffff16565b50611d118167ffffffffffffffff166001856120a99092919063ffffffff16565b50611e09565b61ffff8167ffffffffffffffff1611611d6e57611d47601960058460ff16901b178461208990919063ffffffff16565b50611d688167ffffffffffffffff166002856120a99092919063ffffffff16565b50611e08565b63ffffffff8167ffffffffffffffff1611611dc757611da0601a60058460ff16901b178461208990919063ffffffff16565b50611dc18167ffffffffffffffff166004856120a99092919063ffffffff16565b50611e07565b611de4601b60058460ff16901b178461208990919063ffffffff16565b50611e058167ffffffffffffffff166008856120a99092919063ffffffff16565b505b5b5b5b505050565b611e17612370565b611e29838460000151518485516120cb565b905092915050565b611e4f60036005600660ff16901b178361208990919063ffffffff16565b50611ea482827fffffffffffffffffffffffffffffffffffffffffffffffffffffffffffffffff611e8091906132b5565b604051602001611e9091906124a6565b6040516020818303038152906040526121ba565b5050565b611ec660026005600660ff16901b178361208990919063ffffffff16565b50611ef08282604051602001611edc91906124a6565b6040516020818303038152906040526121ba565b5050565b60003084604051602001611f09929190613508565b604051602081830303815290604052805190602001209050846005600083815260200190815260200160002060006101000a81548173ffffffffffffffffffffffffffffffffffffffff021916908373ffffffffffffffffffffffffffffffffffffffff160217905550807fb5e6e01e79f91267dc17b4e6314d5d4d03593d2ceee0fbb452b750bd70ea5af960405160405180910390a2600260009054906101000a900473ffffffffffffffffffffffffffffffffffffffff1673ffffffffffffffffffffffffffffffffffffffff16634000aea08685856040518463ffffffff1660e01b8152600401611fff93929190613534565b6020604051808303816000875af115801561201e573d6000803e3d6000fd5b505050506040513d601f19601f820116820180604052508101906120429190612fdb565b612081576040517f08c379a0000000000000000000000000000000000000000000000000000000008152600401612078906135e4565b60405180910390fd5b949350505050565b612091612370565b6120a183846000015151846121df565b905092915050565b6120b1612370565b6120c2848560000151518585612235565b90509392505050565b6120d3612370565b82518211156120e157600080fd5b846020015182856120f29190612cd3565b111561212757612126856002612117886020015188876121129190612cd3565b6122c3565b6121219190612c31565b6122df565b5b6000808651805187602083010193508088870111156121465787860182525b60208701925050505b6020841061218d57805182526020826121689190612cd3565b91506020816121779190612cd3565b90506020846121869190612e47565b935061214f565b60006001856020036101000a03905080198251168184511681811785525050508692505050949350505050565b6121c78260028351611c8a565b6121da8183611e0f90919063ffffffff16565b505050565b6121e7612370565b8360200151831061220d5761220c84600286602001516122079190612c31565b6122df565b5b83518051602085830101848153818603612228576001820183525b5050508390509392505050565b61223d612370565b8460200151848361224e9190612cd3565b11156122765761227585600286856122669190612cd3565b6122709190612c31565b6122df565b5b60006001836101006122889190613737565b6122929190612e47565b905085518386820101858319825116178152815185880111156122b55784870182525b505085915050949350505050565b6000818311156122d5578290506122d9565b8190505b92915050565b6000826000015190506122f28383611c20565b506122fd8382611e0f565b50505050565b6040518060a0016040528060008019168152602001600073ffffffffffffffffffffffffffffffffffffffff16815260200160007bffffffffffffffffffffffffffffffffffffffffffffffffffffffff191681526020016000815260200161236a612370565b81525090565b604051806040016040528060608152602001600081525090565b600080fd5b600073ffffffffffffffffffffffffffffffffffffffff82169050919050565b60006123ba8261238f565b9050919050565b6123ca816123af565b81146123d557600080fd5b50565b6000813590506123e7816123c1565b92915050565b6000819050919050565b612400816123ed565b811461240b57600080fd5b50565b60008135905061241d816123f7565b92915050565b6000806040838503121561243a5761243961238a565b5b6000612448858286016123d8565b92505060206124598582860161240e565b9150509250929050565b6000819050919050565b61247681612463565b82525050565b6000602082019050612491600083018461246d565b92915050565b6124a0816123ed565b82525050565b60006020820190506124bb6000830184612497565b92915050565b6124ca81612463565b81146124d557600080fd5b50565b6000813590506124e7816124c1565b92915050565b600080604083850312156125045761250361238a565b5b6000612512858286016124d8565b92505060206125238582860161240e565b9150509250929050565b6000806000606084860312156125465761254561238a565b5b6000612554868287016123d8565b9350506020612565868287016123d8565b92505060406125768682870161240e565b9150509250925092565b60008115159050919050565b61259581612580565b82525050565b60006020820190506125b0600083018461258c565b92915050565b6000602082840312156125cc576125cb61238a565b5b60006125da8482850161240e565b91505092915050565b6125ec816123af565b82525050565b600060208201905061260760008301846125e3565b92915050565b6000602082840312156126235761262261238a565b5b6000612631848285016123d8565b91505092915050565b7f4e487b7100000000000000000000000000000000000000000000000000000000600052602260045260246000fd5b6000600282049050600182168061268157607f821691505b6020821081036126945761269361263a565b5b50919050565b600081905092915050565b60008190508160005260206000209050919050565b600081546126c781612669565b6126d1818661269a565b945060018216600081146126ec576001811461270157612734565b60ff1983168652811515820286019350612734565b61270a856126a5565b60005b8381101561272c5781548189015260018201915060208101905061270d565b838801955050505b50505092915050565b7f3f616464726573733d0000000000000000000000000000000000000000000000600082015250565b600061277360098361269a565b915061277e8261273d565b600982019050919050565b600081519050919050565b60005b838110156127b2578082015181840152602081019050612797565b60008484015250505050565b60006127c982612789565b6127d3818561269a565b93506127e3818560208601612794565b80840191505092915050565b7f26746f6b656e49643d0000000000000000000000000000000000000000000000600082015250565b600061282560098361269a565b9150612830826127ef565b600982019050919050565b600061284782866126ba565b915061285282612766565b915061285e82856127be565b915061286982612818565b915061287582846127be565b9150819050949350505050565b600082825260208201905092915050565b7f4e6f20726967687420746f206163636573732100000000000000000000000000600082015250565b60006128c9601383612882565b91506128d482612893565b602082019050919050565b600060208201905081810360008301526128f8816128bc565b9050919050565b7f4e6f2072652d656e7472616e6379210000000000000000000000000000000000600082015250565b6000612935600f83612882565b9150612940826128ff565b602082019050919050565b6000602082019050818103600083015261296481612928565b9050919050565b7f4e487b7100000000000000000000000000000000000000000000000000000000600052600160045260246000fd5b600081905092915050565b50565b60006129b560008361299a565b91506129c0826129a5565b600082019050919050565b60006129d6826129a8565b9150819050919050565b7f4661696c656420746f2073656e642073657276696365206665657320746f206f60008201527f776e657221000000000000000000000000000000000000000000000000000000602082015250565b6000612a3c602583612882565b9150612a47826129e0565b604082019050919050565b60006020820190508181036000830152612a6b81612a2f565b9050919050565b7f536f75726365206d75737420626520746865206f7261636c65206f662074686560008201527f2072657175657374000000000000000000000000000000000000000000000000602082015250565b6000612ace602883612882565b9150612ad982612a72565b604082019050919050565b60006020820190508181036000830152612afd81612ac1565b9050919050565b7f546f6b656e202620726563697069656e742061646472657373657320636f6e6e60008201527f6f74206265205a65726f21000000000000000000000000000000000000000000602082015250565b6000612b60602b83612882565b9150612b6b82612b04565b604082019050919050565b60006020820190508181036000830152612b8f81612b53565b9050919050565b7f496e76616c696420746f6b656e204944206f7220636f6c6c656374696f6e0000600082015250565b6000612bcc601e83612882565b9150612bd782612b96565b602082019050919050565b60006020820190508181036000830152612bfb81612bbf565b9050919050565b7f4e487b7100000000000000000000000000000000000000000000000000000000600052601160045260246000fd5b6000612c3c826123ed565b9150612c47836123ed565b9250828202612c55816123ed565b91508282048414831517612c6c57612c6b612c02565b5b5092915050565b7f4e487b7100000000000000000000000000000000000000000000000000000000600052601260045260246000fd5b6000612cad826123ed565b9150612cb8836123ed565b925082612cc857612cc7612c73565b5b828204905092915050565b6000612cde826123ed565b9150612ce9836123ed565b9250828201905080821115612d0157612d00612c02565b5b92915050565b7f496e73756666696369656e742065746865722070726f76696465642100000000600082015250565b6000612d3d601c83612882565b9150612d4882612d07565b602082019050919050565b60006020820190508181036000830152612d6c81612d30565b9050919050565b600081519050612d82816123c1565b92915050565b600060208284031215612d9e57612d9d61238a565b5b6000612dac84828501612d73565b91505092915050565b7f4661696c656420746f2073656e64204e4654207072696365204574686572207460008201527f6f206f776e657221000000000000000000000000000000000000000000000000602082015250565b6000612e11602883612882565b9150612e1c82612db5565b604082019050919050565b60006020820190508181036000830152612e4081612e04565b9050919050565b6000612e52826123ed565b9150612e5d836123ed565b9250828203905081811115612e7557612e74612c02565b5b92915050565b7f4661696c656420746f2073656e642065786365737320457468657220746f207260008201527f65636970656e7421000000000000000000000000000000000000000000000000602082015250565b6000612ed7602883612882565b9150612ee282612e7b565b604082019050919050565b60006020820190508181036000830152612f0681612eca565b9050919050565b6000606082019050612f2260008301866125e3565b612f2f60208301856125e3565b612f3c6040830184612497565b949350505050565b600081519050612f53816123f7565b92915050565b600060208284031215612f6f57612f6e61238a565b5b6000612f7d84828501612f44565b91505092915050565b6000604082019050612f9b60008301856125e3565b612fa86020830184612497565b9392505050565b612fb881612580565b8114612fc357600080fd5b50565b600081519050612fd581612faf565b92915050565b600060208284031215612ff157612ff061238a565b5b6000612fff84828501612fc6565b91505092915050565b7f4d7573742062652070726f706f736564206f776e657200000000000000000000600082015250565b600061303e601683612882565b915061304982613008565b602082019050919050565b6000602082019050818103600083015261306d81613031565b9050919050565b7f416464726573732063616e6e6f74206265206e756c6c21000000000000000000600082015250565b60006130aa601783612882565b91506130b582613074565b602082019050919050565b600060208201905081810360008301526130d98161309d565b9050919050565b7f4e487b7100000000000000000000000000000000000000000000000000000000600052604160045260246000fd5b7f4e487b7100000000000000000000000000000000000000000000000000000000600052603260045260246000fd5b6000613149826123ed565b91506000820361315c5761315b612c02565b5b600182039050919050565b7f537472696e67733a20686578206c656e67746820696e73756666696369656e74600082015250565b600061319d602083612882565b91506131a882613167565b602082019050919050565b600060208201905081810360008301526131cc81613190565b9050919050565b7f4f6e6c792063616c6c61626c65206279206f776e657200000000000000000000600082015250565b6000613209601683612882565b9150613214826131d3565b602082019050919050565b60006020820190508181036000830152613238816131fc565b9050919050565b7f43616e6e6f74207472616e7366657220746f2073656c66000000000000000000600082015250565b6000613275601783612882565b91506132808261323f565b602082019050919050565b600060208201905081810360008301526132a481613268565b9050919050565b6000819050919050565b60006132c0826132ab565b91506132cb836132ab565b92508282039050818112600084121682821360008512151617156132f2576132f1612c02565b5b92915050565b60007fffffffff0000000000000000000000000000000000000000000000000000000082169050919050565b61332d816132f8565b82525050565b600081519050919050565b600082825260208201905092915050565b6000601f19601f8301169050919050565b600061336b82613333565b613375818561333e565b9350613385818560208601612794565b61338e8161334f565b840191505092915050565b6000610100820190506133af600083018b6125e3565b6133bc602083018a612497565b6133c9604083018961246d565b6133d660608301886125e3565b6133e36080830187613324565b6133f060a0830186612497565b6133fd60c0830185612497565b81810360e083015261340f8184613360565b90509998505050505050505050565b6000613429826123ed565b9150613434836123ed565b92508261344457613443612c73565b5b828206905092915050565b6000819050919050565b600061347461346f61346a8461238f565b61344f565b61238f565b9050919050565b600061348682613459565b9050919050565b60006134988261347b565b9050919050565b60008160601b9050919050565b60006134b78261349f565b9050919050565b60006134c9826134ac565b9050919050565b6134e16134dc8261348d565b6134be565b82525050565b6000819050919050565b6135026134fd826123ed565b6134e7565b82525050565b600061351482856134d0565b60148201915061352482846134f1565b6020820191508190509392505050565b600060608201905061354960008301866125e3565b6135566020830185612497565b81810360408301526135688184613360565b9050949350505050565b7f756e61626c6520746f207472616e73666572416e6443616c6c20746f206f726160008201527f636c650000000000000000000000000000000000000000000000000000000000602082015250565b60006135ce602383612882565b91506135d982613572565b604082019050919050565b600060208201905081810360008301526135fd816135c1565b9050919050565b60008160011c9050919050565b6000808291508390505b600185111561365b5780860481111561363757613636612c02565b5b60018516156136465780820291505b808102905061365485613604565b945061361b565b94509492505050565b6000826136745760019050613730565b816136825760009050613730565b816001811461369857600281146136a2576136d1565b6001915050613730565b60ff8411156136b4576136b3612c02565b5b8360020a9150848211156136cb576136ca612c02565b5b50613730565b5060208310610133831016604e8410600b84101617156137065782820a90508381111561370157613700612c02565b5b613730565b6137138484846001613611565b9250905081840481111561372a57613729612c02565b5b81810290505b9392505050565b6000613742826123ed565b915061374d836123ed565b925061377a7fffffffffffffffffffffffffffffffffffffffffffffffffffffffffffffffff8484613664565b90509291505056fea26469706673582212202d3c28e1f421718750135ab354d0be1deab22275e78ec0345b6f7c05e80060a864736f6c6343000811003368747470733a2f2f6d6f636b692e696f2f76312f31613437343765612d623563312d346131312d386362332d633834313036326135353835","opcodes":"PUSH1 0x80 PUSH1 0x40 MSTORE PUSH1 0x1 PUSH1 0x4 SSTORE PUSH1 0x64 PUSH1 0x8 SSTORE PUSH1 0x0 PUSH1 0x9 SSTORE PUSH20 0x326C977E6EFC84E512BB9C30F76E30C160ED06FB PUSH1 0xD PUSH1 0x0 PUSH2 0x100 EXP DUP2 SLOAD DUP2 PUSH20 0xFFFFFFFFFFFFFFFFFFFFFFFFFFFFFFFFFFFFFFFF MUL NOT AND SWAP1 DUP4 PUSH20 0xFFFFFFFFFFFFFFFFFFFFFFFFFFFFFFFFFFFFFFFF AND MUL OR SWAP1 SSTORE POP PUSH1 0x40 MLOAD DUP1 PUSH1 0x60 ADD PUSH1 0x40 MSTORE DUP1 PUSH1 0x38 DUP2 MSTORE PUSH1 0x20 ADD PUSH3 0x4144 PUSH1 0x38 SWAP2 CODECOPY PUSH1 0xE SWAP1 DUP2 PUSH3 0x92 SWAP2 SWAP1 PUSH3 0x6BF JUMP JUMPDEST POP CALLVALUE DUP1 ISZERO PUSH3 0xA0 JUMPI PUSH1 0x0 DUP1 REVERT JUMPDEST POP CALLER DUP1 PUSH1 0x0 DUP1 PUSH20 0xFFFFFFFFFFFFFFFFFFFFFFFFFFFFFFFFFFFFFFFF AND DUP3 PUSH20 0xFFFFFFFFFFFFFFFFFFFFFFFFFFFFFFFFFFFFFFFF AND SUB PUSH3 0x116 JUMPI PUSH1 0x40 MLOAD PUSH32 0x8C379A000000000000000000000000000000000000000000000000000000000 DUP2 MSTORE PUSH1 0x4 ADD PUSH3 0x10D SWAP1 PUSH3 0x807 JUMP JUMPDEST PUSH1 0x40 MLOAD DUP1 SWAP2 SUB SWAP1 REVERT JUMPDEST DUP2 PUSH1 0x6 PUSH1 0x0 PUSH2 0x100 EXP DUP2 SLOAD DUP2 PUSH20 0xFFFFFFFFFFFFFFFFFFFFFFFFFFFFFFFFFFFFFFFF MUL NOT AND SWAP1 DUP4 PUSH20 0xFFFFFFFFFFFFFFFFFFFFFFFFFFFFFFFFFFFFFFFF AND MUL OR SWAP1 SSTORE POP PUSH1 0x0 PUSH20 0xFFFFFFFFFFFFFFFFFFFFFFFFFFFFFFFFFFFFFFFF AND DUP2 PUSH20 0xFFFFFFFFFFFFFFFFFFFFFFFFFFFFFFFFFFFFFFFF AND EQ PUSH3 0x19E JUMPI PUSH3 0x19D DUP2 PUSH3 0x28C PUSH1 0x20 SHL PUSH1 0x20 SHR JUMP JUMPDEST JUMPDEST POP POP POP PUSH1 0x0 PUSH1 0x10 DUP2 SWAP1 SSTORE POP CALLER PUSH1 0xC PUSH1 0x0 PUSH2 0x100 EXP DUP2 SLOAD DUP2 PUSH20 0xFFFFFFFFFFFFFFFFFFFFFFFFFFFFFFFFFFFFFFFF MUL NOT AND SWAP1 DUP4 PUSH20 0xFFFFFFFFFFFFFFFFFFFFFFFFFFFFFFFFFFFFFFFF AND MUL OR SWAP1 SSTORE POP PUSH3 0x20F PUSH20 0x326C977E6EFC84E512BB9C30F76E30C160ED06FB PUSH3 0x3BD PUSH1 0x20 SHL PUSH1 0x20 SHR JUMP JUMPDEST PUSH3 0x234 PUSH20 0xCC79157EB46F5624204F47AB42B3906CAA40EAB7 PUSH3 0x401 PUSH1 0x20 SHL PUSH1 0x20 SHR JUMP JUMPDEST PUSH32 0x6361393833363663633733313439353762386330313263373266303561656562 PUSH1 0xB DUP2 SWAP1 SSTORE POP PUSH1 0xA PUSH8 0xDE0B6B3A7640000 PUSH1 0x1 PUSH3 0x274 SWAP2 SWAP1 PUSH3 0x858 JUMP JUMPDEST PUSH3 0x280 SWAP2 SWAP1 PUSH3 0x8D2 JUMP JUMPDEST PUSH1 0xA DUP2 SWAP1 SSTORE POP PUSH3 0x97C JUMP JUMPDEST CALLER PUSH20 0xFFFFFFFFFFFFFFFFFFFFFFFFFFFFFFFFFFFFFFFF AND DUP2 PUSH20 0xFFFFFFFFFFFFFFFFFFFFFFFFFFFFFFFFFFFFFFFF AND SUB PUSH3 0x2FD JUMPI PUSH1 0x40 MLOAD PUSH32 0x8C379A000000000000000000000000000000000000000000000000000000000 DUP2 MSTORE PUSH1 0x4 ADD PUSH3 0x2F4 SWAP1 PUSH3 0x95A JUMP JUMPDEST PUSH1 0x40 MLOAD DUP1 SWAP2 SUB SWAP1 REVERT JUMPDEST DUP1 PUSH1 0x7 PUSH1 0x0 PUSH2 0x100 EXP DUP2 SLOAD DUP2 PUSH20 0xFFFFFFFFFFFFFFFFFFFFFFFFFFFFFFFFFFFFFFFF MUL NOT AND SWAP1 DUP4 PUSH20 0xFFFFFFFFFFFFFFFFFFFFFFFFFFFFFFFFFFFFFFFF AND MUL OR SWAP1 SSTORE POP DUP1 PUSH20 0xFFFFFFFFFFFFFFFFFFFFFFFFFFFFFFFFFFFFFFFF AND PUSH1 0x6 PUSH1 0x0 SWAP1 SLOAD SWAP1 PUSH2 0x100 EXP SWAP1 DIV PUSH20 0xFFFFFFFFFFFFFFFFFFFFFFFFFFFFFFFFFFFFFFFF AND PUSH20 0xFFFFFFFFFFFFFFFFFFFFFFFFFFFFFFFFFFFFFFFF AND PUSH32 0xED8889F560326EB138920D842192F0EB3DD22B4F139C87A2C57538E05BAE1278 PUSH1 0x40 MLOAD PUSH1 0x40 MLOAD DUP1 SWAP2 SUB SWAP1 LOG3 POP JUMP JUMPDEST DUP1 PUSH1 0x2 PUSH1 0x0 PUSH2 0x100 EXP DUP2 SLOAD DUP2 PUSH20 0xFFFFFFFFFFFFFFFFFFFFFFFFFFFFFFFFFFFFFFFF MUL NOT AND SWAP1 DUP4 PUSH20 0xFFFFFFFFFFFFFFFFFFFFFFFFFFFFFFFFFFFFFFFF AND MUL OR SWAP1 SSTORE POP POP JUMP JUMPDEST DUP1 PUSH1 0x3 PUSH1 0x0 PUSH2 0x100 EXP DUP2 SLOAD DUP2 PUSH20 0xFFFFFFFFFFFFFFFFFFFFFFFFFFFFFFFFFFFFFFFF MUL NOT AND SWAP1 DUP4 PUSH20 0xFFFFFFFFFFFFFFFFFFFFFFFFFFFFFFFFFFFFFFFF AND MUL OR SWAP1 SSTORE POP POP JUMP JUMPDEST PUSH1 0x0 DUP2 MLOAD SWAP1 POP SWAP2 SWAP1 POP JUMP JUMPDEST PUSH32 0x4E487B7100000000000000000000000000000000000000000000000000000000 PUSH1 0x0 MSTORE PUSH1 0x41 PUSH1 0x4 MSTORE PUSH1 0x24 PUSH1 0x0 REVERT JUMPDEST PUSH32 0x4E487B7100000000000000000000000000000000000000000000000000000000 PUSH1 0x0 MSTORE PUSH1 0x22 PUSH1 0x4 MSTORE PUSH1 0x24 PUSH1 0x0 REVERT JUMPDEST PUSH1 0x0 PUSH1 0x2 DUP3 DIV SWAP1 POP PUSH1 0x1 DUP3 AND DUP1 PUSH3 0x4C7 JUMPI PUSH1 0x7F DUP3 AND SWAP2 POP JUMPDEST PUSH1 0x20 DUP3 LT DUP2 SUB PUSH3 0x4DD JUMPI PUSH3 0x4DC PUSH3 0x47F JUMP JUMPDEST JUMPDEST POP SWAP2 SWAP1 POP JUMP JUMPDEST PUSH1 0x0 DUP2 SWAP1 POP DUP2 PUSH1 0x0 MSTORE PUSH1 0x20 PUSH1 0x0 KECCAK256 SWAP1 POP SWAP2 SWAP1 POP JUMP JUMPDEST PUSH1 0x0 PUSH1 0x20 PUSH1 0x1F DUP4 ADD DIV SWAP1 POP SWAP2 SWAP1 POP JUMP JUMPDEST PUSH1 0x0 DUP3 DUP3 SHL SWAP1 POP SWAP3 SWAP2 POP POP JUMP JUMPDEST PUSH1 0x0 PUSH1 0x8 DUP4 MUL PUSH3 0x547 PUSH32 0xFFFFFFFFFFFFFFFFFFFFFFFFFFFFFFFFFFFFFFFFFFFFFFFFFFFFFFFFFFFFFFFF DUP3 PUSH3 0x508 JUMP JUMPDEST PUSH3 0x553 DUP7 DUP4 PUSH3 0x508 JUMP JUMPDEST SWAP6 POP DUP1 NOT DUP5 AND SWAP4 POP DUP1 DUP7 AND DUP5 OR SWAP3 POP POP POP SWAP4 SWAP3 POP POP POP JUMP JUMPDEST PUSH1 0x0 DUP2 SWAP1 POP SWAP2 SWAP1 POP JUMP JUMPDEST PUSH1 0x0 DUP2 SWAP1 POP SWAP2 SWAP1 POP JUMP JUMPDEST PUSH1 0x0 PUSH3 0x5A0 PUSH3 0x59A PUSH3 0x594 DUP5 PUSH3 0x56B JUMP JUMPDEST PUSH3 0x575 JUMP JUMPDEST PUSH3 0x56B JUMP JUMPDEST SWAP1 POP SWAP2 SWAP1 POP JUMP JUMPDEST PUSH1 0x0 DUP2 SWAP1 POP SWAP2 SWAP1 POP JUMP JUMPDEST PUSH3 0x5BC DUP4 PUSH3 0x57F JUMP JUMPDEST PUSH3 0x5D4 PUSH3 0x5CB DUP3 PUSH3 0x5A7 JUMP JUMPDEST DUP5 DUP5 SLOAD PUSH3 0x515 JUMP JUMPDEST DUP3 SSTORE POP POP POP POP JUMP JUMPDEST PUSH1 0x0 SWAP1 JUMP JUMPDEST PUSH3 0x5EB PUSH3 0x5DC JUMP JUMPDEST PUSH3 0x5F8 DUP2 DUP5 DUP5 PUSH3 0x5B1 JUMP JUMPDEST POP POP POP JUMP JUMPDEST JUMPDEST DUP2 DUP2 LT ISZERO PUSH3 0x620 JUMPI PUSH3 0x614 PUSH1 0x0 DUP3 PUSH3 0x5E1 JUMP JUMPDEST PUSH1 0x1 DUP2 ADD SWAP1 POP PUSH3 0x5FE JUMP JUMPDEST POP POP JUMP JUMPDEST PUSH1 0x1F DUP3 GT ISZERO PUSH3 0x66F JUMPI PUSH3 0x639 DUP2 PUSH3 0x4E3 JUMP JUMPDEST PUSH3 0x644 DUP5 PUSH3 0x4F8 JUMP JUMPDEST DUP2 ADD PUSH1 0x20 DUP6 LT ISZERO PUSH3 0x654 JUMPI DUP2 SWAP1 POP JUMPDEST PUSH3 0x66C PUSH3 0x663 DUP6 PUSH3 0x4F8 JUMP JUMPDEST DUP4 ADD DUP3 PUSH3 0x5FD JUMP JUMPDEST POP POP JUMPDEST POP POP POP JUMP JUMPDEST PUSH1 0x0 DUP3 DUP3 SHR SWAP1 POP SWAP3 SWAP2 POP POP JUMP JUMPDEST PUSH1 0x0 PUSH3 0x694 PUSH1 0x0 NOT DUP5 PUSH1 0x8 MUL PUSH3 0x674 JUMP JUMPDEST NOT DUP1 DUP4 AND SWAP2 POP POP SWAP3 SWAP2 POP POP JUMP JUMPDEST PUSH1 0x0 PUSH3 0x6AF DUP4 DUP4 PUSH3 0x681 JUMP JUMPDEST SWAP2 POP DUP3 PUSH1 0x2 MUL DUP3 OR SWAP1 POP SWAP3 SWAP2 POP POP JUMP JUMPDEST PUSH3 0x6CA DUP3 PUSH3 0x445 JUMP JUMPDEST PUSH8 0xFFFFFFFFFFFFFFFF DUP2 GT ISZERO PUSH3 0x6E6 JUMPI PUSH3 0x6E5 PUSH3 0x450 JUMP JUMPDEST JUMPDEST PUSH3 0x6F2 DUP3 SLOAD PUSH3 0x4AE JUMP JUMPDEST PUSH3 0x6FF DUP3 DUP3 DUP6 PUSH3 0x624 JUMP JUMPDEST PUSH1 0x0 PUSH1 0x20 SWAP1 POP PUSH1 0x1F DUP4 GT PUSH1 0x1 DUP2 EQ PUSH3 0x737 JUMPI PUSH1 0x0 DUP5 ISZERO PUSH3 0x722 JUMPI DUP3 DUP8 ADD MLOAD SWAP1 POP JUMPDEST PUSH3 0x72E DUP6 DUP3 PUSH3 0x6A1 JUMP JUMPDEST DUP7 SSTORE POP PUSH3 0x79E JUMP JUMPDEST PUSH1 0x1F NOT DUP5 AND PUSH3 0x747 DUP7 PUSH3 0x4E3 JUMP JUMPDEST PUSH1 0x0 JUMPDEST DUP3 DUP2 LT ISZERO PUSH3 0x771 JUMPI DUP5 DUP10 ADD MLOAD DUP3 SSTORE PUSH1 0x1 DUP3 ADD SWAP2 POP PUSH1 0x20 DUP6 ADD SWAP5 POP PUSH1 0x20 DUP2 ADD SWAP1 POP PUSH3 0x74A JUMP JUMPDEST DUP7 DUP4 LT ISZERO PUSH3 0x791 JUMPI DUP5 DUP10 ADD MLOAD PUSH3 0x78D PUSH1 0x1F DUP10 AND DUP3 PUSH3 0x681 JUMP JUMPDEST DUP4 SSTORE POP JUMPDEST PUSH1 0x1 PUSH1 0x2 DUP9 MUL ADD DUP9 SSTORE POP POP POP JUMPDEST POP POP POP POP POP POP JUMP JUMPDEST PUSH1 0x0 DUP3 DUP3 MSTORE PUSH1 0x20 DUP3 ADD SWAP1 POP SWAP3 SWAP2 POP POP JUMP JUMPDEST PUSH32 0x43616E6E6F7420736574206F776E657220746F207A65726F0000000000000000 PUSH1 0x0 DUP3 ADD MSTORE POP JUMP JUMPDEST PUSH1 0x0 PUSH3 0x7EF PUSH1 0x18 DUP4 PUSH3 0x7A6 JUMP JUMPDEST SWAP2 POP PUSH3 0x7FC DUP3 PUSH3 0x7B7 JUMP JUMPDEST PUSH1 0x20 DUP3 ADD SWAP1 POP SWAP2 SWAP1 POP JUMP JUMPDEST PUSH1 0x0 PUSH1 0x20 DUP3 ADD SWAP1 POP DUP2 DUP2 SUB PUSH1 0x0 DUP4 ADD MSTORE PUSH3 0x822 DUP2 PUSH3 0x7E0 JUMP JUMPDEST SWAP1 POP SWAP2 SWAP1 POP JUMP JUMPDEST PUSH32 0x4E487B7100000000000000000000000000000000000000000000000000000000 PUSH1 0x0 MSTORE PUSH1 0x11 PUSH1 0x4 MSTORE PUSH1 0x24 PUSH1 0x0 REVERT JUMPDEST PUSH1 0x0 PUSH3 0x865 DUP3 PUSH3 0x56B JUMP JUMPDEST SWAP2 POP PUSH3 0x872 DUP4 PUSH3 0x56B JUMP JUMPDEST SWAP3 POP DUP3 DUP3 MUL PUSH3 0x882 DUP2 PUSH3 0x56B JUMP JUMPDEST SWAP2 POP DUP3 DUP3 DIV DUP5 EQ DUP4 ISZERO OR PUSH3 0x89C JUMPI PUSH3 0x89B PUSH3 0x829 JUMP JUMPDEST JUMPDEST POP SWAP3 SWAP2 POP POP JUMP JUMPDEST PUSH32 0x4E487B7100000000000000000000000000000000000000000000000000000000 PUSH1 0x0 MSTORE PUSH1 0x12 PUSH1 0x4 MSTORE PUSH1 0x24 PUSH1 0x0 REVERT JUMPDEST PUSH1 0x0 PUSH3 0x8DF DUP3 PUSH3 0x56B JUMP JUMPDEST SWAP2 POP PUSH3 0x8EC DUP4 PUSH3 0x56B JUMP JUMPDEST SWAP3 POP DUP3 PUSH3 0x8FF JUMPI PUSH3 0x8FE PUSH3 0x8A3 JUMP JUMPDEST JUMPDEST DUP3 DUP3 DIV SWAP1 POP SWAP3 SWAP2 POP POP JUMP JUMPDEST PUSH32 0x43616E6E6F74207472616E7366657220746F2073656C66000000000000000000 PUSH1 0x0 DUP3 ADD MSTORE POP JUMP JUMPDEST PUSH1 0x0 PUSH3 0x942 PUSH1 0x17 DUP4 PUSH3 0x7A6 JUMP JUMPDEST SWAP2 POP PUSH3 0x94F DUP3 PUSH3 0x90A JUMP JUMPDEST PUSH1 0x20 DUP3 ADD SWAP1 POP SWAP2 SWAP1 POP JUMP JUMPDEST PUSH1 0x0 PUSH1 0x20 DUP3 ADD SWAP1 POP DUP2 DUP2 SUB PUSH1 0x0 DUP4 ADD MSTORE PUSH3 0x975 DUP2 PUSH3 0x933 JUMP JUMPDEST SWAP1 POP SWAP2 SWAP1 POP JUMP JUMPDEST PUSH2 0x37B8 DUP1 PUSH3 0x98C PUSH1 0x0 CODECOPY PUSH1 0x0 RETURN INVALID PUSH1 0x80 PUSH1 0x40 MSTORE PUSH1 0x4 CALLDATASIZE LT PUSH2 0xC2 JUMPI PUSH1 0x0 CALLDATALOAD PUSH1 0xE0 SHR DUP1 PUSH4 0x63638AD2 GT PUSH2 0x7F JUMPI DUP1 PUSH4 0xA6F9DAE1 GT PUSH2 0x59 JUMPI DUP1 PUSH4 0xA6F9DAE1 EQ PUSH2 0x214 JUMPI DUP1 PUSH4 0xCD85F622 EQ PUSH2 0x23D JUMPI DUP1 PUSH4 0xD3419BF3 EQ PUSH2 0x268 JUMPI DUP1 PUSH4 0xF2FDE38B EQ PUSH2 0x293 JUMPI PUSH2 0xC2 JUMP JUMPDEST DUP1 PUSH4 0x63638AD2 EQ PUSH2 0x1BB JUMPI DUP1 PUSH4 0x79BA5097 EQ PUSH2 0x1D2 JUMPI DUP1 PUSH4 0x8DA5CB5B EQ PUSH2 0x1E9 JUMPI PUSH2 0xC2 JUMP JUMPDEST DUP1 PUSH4 0xBD4FE0F EQ PUSH2 0xC7 JUMPI DUP1 PUSH4 0x11A1933C EQ PUSH2 0x104 JUMPI DUP1 PUSH4 0x33B3BE77 EQ PUSH2 0x12F JUMPI DUP1 PUSH4 0x4357855E EQ PUSH2 0x139 JUMPI DUP1 PUSH4 0x48C314F4 EQ PUSH2 0x162 JUMPI DUP1 PUSH4 0x5CDF76F8 EQ PUSH2 0x192 JUMPI JUMPDEST PUSH1 0x0 DUP1 REVERT JUMPDEST CALLVALUE DUP1 ISZERO PUSH2 0xD3 JUMPI PUSH1 0x0 DUP1 REVERT JUMPDEST POP PUSH2 0xEE PUSH1 0x4 DUP1 CALLDATASIZE SUB DUP2 ADD SWAP1 PUSH2 0xE9 SWAP2 SWAP1 PUSH2 0x2423 JUMP JUMPDEST PUSH2 0x2BC JUMP JUMPDEST PUSH1 0x40 MLOAD PUSH2 0xFB SWAP2 SWAP1 PUSH2 0x247C JUMP JUMPDEST PUSH1 0x40 MLOAD DUP1 SWAP2 SUB SWAP1 RETURN JUMPDEST CALLVALUE DUP1 ISZERO PUSH2 0x110 JUMPI PUSH1 0x0 DUP1 REVERT JUMPDEST POP PUSH2 0x119 PUSH2 0x45D JUMP JUMPDEST PUSH1 0x40 MLOAD PUSH2 0x126 SWAP2 SWAP1 PUSH2 0x24A6 JUMP JUMPDEST PUSH1 0x40 MLOAD DUP1 SWAP2 SUB SWAP1 RETURN JUMPDEST PUSH2 0x137 PUSH2 0x467 JUMP JUMPDEST STOP JUMPDEST CALLVALUE DUP1 ISZERO PUSH2 0x145 JUMPI PUSH1 0x0 DUP1 REVERT JUMPDEST POP PUSH2 0x160 PUSH1 0x4 DUP1 CALLDATASIZE SUB DUP2 ADD SWAP1 PUSH2 0x15B SWAP2 SWAP1 PUSH2 0x24ED JUMP JUMPDEST PUSH2 0x66B JUMP JUMPDEST STOP JUMPDEST PUSH2 0x17C PUSH1 0x4 DUP1 CALLDATASIZE SUB DUP2 ADD SWAP1 PUSH2 0x177 SWAP2 SWAP1 PUSH2 0x252D JUMP JUMPDEST PUSH2 0x77C JUMP JUMPDEST PUSH1 0x40 MLOAD PUSH2 0x189 SWAP2 SWAP1 PUSH2 0x259B JUMP JUMPDEST PUSH1 0x40 MLOAD DUP1 SWAP2 SUB SWAP1 RETURN JUMPDEST CALLVALUE DUP1 ISZERO PUSH2 0x19E JUMPI PUSH1 0x0 DUP1 REVERT JUMPDEST POP PUSH2 0x1B9 PUSH1 0x4 DUP1 CALLDATASIZE SUB DUP2 ADD SWAP1 PUSH2 0x1B4 SWAP2 SWAP1 PUSH2 0x25B6 JUMP JUMPDEST PUSH2 0xBFA JUMP JUMPDEST STOP JUMPDEST CALLVALUE DUP1 ISZERO PUSH2 0x1C7 JUMPI PUSH1 0x0 DUP1 REVERT JUMPDEST POP PUSH2 0x1D0 PUSH2 0xC04 JUMP JUMPDEST STOP JUMPDEST CALLVALUE DUP1 ISZERO PUSH2 0x1DE JUMPI PUSH1 0x0 DUP1 REVERT JUMPDEST POP PUSH2 0x1E7 PUSH2 0xF26 JUMP JUMPDEST STOP JUMPDEST CALLVALUE DUP1 ISZERO PUSH2 0x1F5 JUMPI PUSH1 0x0 DUP1 REVERT JUMPDEST POP PUSH2 0x1FE PUSH2 0x10BD JUMP JUMPDEST PUSH1 0x40 MLOAD PUSH2 0x20B SWAP2 SWAP1 PUSH2 0x25F2 JUMP JUMPDEST PUSH1 0x40 MLOAD DUP1 SWAP2 SUB SWAP1 RETURN JUMPDEST CALLVALUE DUP1 ISZERO PUSH2 0x220 JUMPI PUSH1 0x0 DUP1 REVERT JUMPDEST POP PUSH2 0x23B PUSH1 0x4 DUP1 CALLDATASIZE SUB DUP2 ADD SWAP1 PUSH2 0x236 SWAP2 SWAP1 PUSH2 0x260D JUMP JUMPDEST PUSH2 0x10E7 JUMP JUMPDEST STOP JUMPDEST CALLVALUE DUP1 ISZERO PUSH2 0x249 JUMPI PUSH1 0x0 DUP1 REVERT JUMPDEST POP PUSH2 0x252 PUSH2 0x122A JUMP JUMPDEST PUSH1 0x40 MLOAD PUSH2 0x25F SWAP2 SWAP1 PUSH2 0x24A6 JUMP JUMPDEST PUSH1 0x40 MLOAD DUP1 SWAP2 SUB SWAP1 RETURN JUMPDEST CALLVALUE DUP1 ISZERO PUSH2 0x274 JUMPI PUSH1 0x0 DUP1 REVERT JUMPDEST POP PUSH2 0x27D PUSH2 0x12CD JUMP JUMPDEST PUSH1 0x40 MLOAD PUSH2 0x28A SWAP2 SWAP1 PUSH2 0x24A6 JUMP JUMPDEST PUSH1 0x40 MLOAD DUP1 SWAP2 SUB SWAP1 RETURN JUMPDEST CALLVALUE DUP1 ISZERO PUSH2 0x29F JUMPI PUSH1 0x0 DUP1 REVERT JUMPDEST POP PUSH2 0x2BA PUSH1 0x4 DUP1 CALLDATASIZE SUB DUP2 ADD SWAP1 PUSH2 0x2B5 SWAP2 SWAP1 PUSH2 0x260D JUMP JUMPDEST PUSH2 0x12D3 JUMP JUMPDEST STOP JUMPDEST PUSH1 0x0 DUP1 PUSH2 0x2D3 PUSH1 0xB SLOAD ADDRESS PUSH4 0x4357855E PUSH1 0xE0 SHL PUSH2 0x12E7 JUMP JUMPDEST SWAP1 POP PUSH1 0x0 PUSH1 0xE PUSH2 0x2FA DUP7 PUSH20 0xFFFFFFFFFFFFFFFFFFFFFFFFFFFFFFFFFFFFFFFF AND PUSH1 0x14 PUSH2 0x1318 JUMP JUMPDEST PUSH2 0x303 DUP7 PUSH2 0x1554 JUMP JUMPDEST PUSH1 0x40 MLOAD PUSH1 0x20 ADD PUSH2 0x315 SWAP4 SWAP3 SWAP2 SWAP1 PUSH2 0x283B JUMP JUMPDEST PUSH1 0x40 MLOAD PUSH1 0x20 DUP2 DUP4 SUB SUB DUP2 MSTORE SWAP1 PUSH1 0x40 MSTORE SWAP1 POP PUSH2 0x370 PUSH1 0x40 MLOAD DUP1 PUSH1 0x40 ADD PUSH1 0x40 MSTORE DUP1 PUSH1 0x3 DUP2 MSTORE PUSH1 0x20 ADD PUSH32 0x6765740000000000000000000000000000000000000000000000000000000000 DUP2 MSTORE POP DUP3 DUP5 PUSH2 0x1622 SWAP1 SWAP3 SWAP2 SWAP1 PUSH4 0xFFFFFFFF AND JUMP JUMPDEST PUSH2 0x3EF PUSH1 0x40 MLOAD DUP1 PUSH1 0x40 ADD PUSH1 0x40 MSTORE DUP1 PUSH1 0x4 DUP2 MSTORE PUSH1 0x20 ADD PUSH32 0x7061746800000000000000000000000000000000000000000000000000000000 DUP2 MSTORE POP PUSH1 0x40 MLOAD DUP1 PUSH1 0x40 ADD PUSH1 0x40 MSTORE DUP1 PUSH1 0x5 DUP2 MSTORE PUSH1 0x20 ADD PUSH32 0x76616C7565000000000000000000000000000000000000000000000000000000 DUP2 MSTORE POP DUP5 PUSH2 0x1622 SWAP1 SWAP3 SWAP2 SWAP1 PUSH4 0xFFFFFFFF AND JUMP JUMPDEST PUSH1 0x0 PUSH8 0xDE0B6B3A7640000 SWAP1 POP PUSH2 0x446 PUSH1 0x40 MLOAD DUP1 PUSH1 0x40 ADD PUSH1 0x40 MSTORE DUP1 PUSH1 0x5 DUP2 MSTORE PUSH1 0x20 ADD PUSH32 0x74696D6573000000000000000000000000000000000000000000000000000000 DUP2 MSTORE POP DUP3 DUP6 PUSH2 0x1655 SWAP1 SWAP3 SWAP2 SWAP1 PUSH4 0xFFFFFFFF AND JUMP JUMPDEST PUSH2 0x452 DUP4 PUSH1 0xA SLOAD PUSH2 0x1688 JUMP JUMPDEST SWAP4 POP POP POP POP SWAP3 SWAP2 POP POP JUMP JUMPDEST PUSH1 0x0 PUSH1 0x8 SLOAD SWAP1 POP SWAP1 JUMP JUMPDEST CALLER PUSH20 0xFFFFFFFFFFFFFFFFFFFFFFFFFFFFFFFFFFFFFFFF AND PUSH1 0xC PUSH1 0x0 SWAP1 SLOAD SWAP1 PUSH2 0x100 EXP SWAP1 DIV PUSH20 0xFFFFFFFFFFFFFFFFFFFFFFFFFFFFFFFFFFFFFFFF AND PUSH20 0xFFFFFFFFFFFFFFFFFFFFFFFFFFFFFFFFFFFFFFFF AND EQ PUSH2 0x4F7 JUMPI PUSH1 0x40 MLOAD PUSH32 0x8C379A000000000000000000000000000000000000000000000000000000000 DUP2 MSTORE PUSH1 0x4 ADD PUSH2 0x4EE SWAP1 PUSH2 0x28DF JUMP JUMPDEST PUSH1 0x40 MLOAD DUP1 SWAP2 SUB SWAP1 REVERT JUMPDEST PUSH1 0xF PUSH1 0x0 SWAP1 SLOAD SWAP1 PUSH2 0x100 EXP SWAP1 DIV PUSH1 0xFF AND ISZERO PUSH2 0x547 JUMPI PUSH1 0x40 MLOAD PUSH32 0x8C379A000000000000000000000000000000000000000000000000000000000 DUP2 MSTORE PUSH1 0x4 ADD PUSH2 0x53E SWAP1 PUSH2 0x294B JUMP JUMPDEST PUSH1 0x40 MLOAD DUP1 SWAP2 SUB SWAP1 REVERT JUMPDEST PUSH1 0x1 PUSH1 0xF PUSH1 0x0 PUSH2 0x100 EXP DUP2 SLOAD DUP2 PUSH1 0xFF MUL NOT AND SWAP1 DUP4 ISZERO ISZERO MUL OR SWAP1 SSTORE POP PUSH1 0x0 PUSH1 0x9 SLOAD GT PUSH2 0x575 JUMPI PUSH2 0x574 PUSH2 0x296B JUMP JUMPDEST JUMPDEST PUSH1 0x0 PUSH1 0xC PUSH1 0x0 SWAP1 SLOAD SWAP1 PUSH2 0x100 EXP SWAP1 DIV PUSH20 0xFFFFFFFFFFFFFFFFFFFFFFFFFFFFFFFFFFFFFFFF AND PUSH20 0xFFFFFFFFFFFFFFFFFFFFFFFFFFFFFFFFFFFFFFFF AND PUSH1 0x9 SLOAD PUSH1 0x40 MLOAD PUSH2 0x5BF SWAP1 PUSH2 0x29CB JUMP JUMPDEST PUSH1 0x0 PUSH1 0x40 MLOAD DUP1 DUP4 SUB DUP2 DUP6 DUP8 GAS CALL SWAP3 POP POP POP RETURNDATASIZE DUP1 PUSH1 0x0 DUP2 EQ PUSH2 0x5FC JUMPI PUSH1 0x40 MLOAD SWAP2 POP PUSH1 0x1F NOT PUSH1 0x3F RETURNDATASIZE ADD AND DUP3 ADD PUSH1 0x40 MSTORE RETURNDATASIZE DUP3 MSTORE RETURNDATASIZE PUSH1 0x0 PUSH1 0x20 DUP5 ADD RETURNDATACOPY PUSH2 0x601 JUMP JUMPDEST PUSH1 0x60 SWAP2 POP JUMPDEST POP POP SWAP1 POP DUP1 PUSH2 0x645 JUMPI PUSH1 0x40 MLOAD PUSH32 0x8C379A000000000000000000000000000000000000000000000000000000000 DUP2 MSTORE PUSH1 0x4 ADD PUSH2 0x63C SWAP1 PUSH2 0x2A52 JUMP JUMPDEST PUSH1 0x40 MLOAD DUP1 SWAP2 SUB SWAP1 REVERT JUMPDEST PUSH1 0x0 PUSH1 0x9 DUP2 SWAP1 SSTORE POP POP PUSH1 0x0 PUSH1 0xF PUSH1 0x0 PUSH2 0x100 EXP DUP2 SLOAD DUP2 PUSH1 0xFF MUL NOT AND SWAP1 DUP4 ISZERO ISZERO MUL OR SWAP1 SSTORE POP JUMP JUMPDEST DUP2 PUSH1 0x5 PUSH1 0x0 DUP3 DUP2 MSTORE PUSH1 0x20 ADD SWAP1 DUP2 MSTORE PUSH1 0x20 ADD PUSH1 0x0 KECCAK256 PUSH1 0x0 SWAP1 SLOAD SWAP1 PUSH2 0x100 EXP SWAP1 DIV PUSH20 0xFFFFFFFFFFFFFFFFFFFFFFFFFFFFFFFFFFFFFFFF AND PUSH20 0xFFFFFFFFFFFFFFFFFFFFFFFFFFFFFFFFFFFFFFFF AND CALLER PUSH20 0xFFFFFFFFFFFFFFFFFFFFFFFFFFFFFFFFFFFFFFFF AND EQ PUSH2 0x70D JUMPI PUSH1 0x40 MLOAD PUSH32 0x8C379A000000000000000000000000000000000000000000000000000000000 DUP2 MSTORE PUSH1 0x4 ADD PUSH2 0x704 SWAP1 PUSH2 0x2AE4 JUMP JUMPDEST PUSH1 0x40 MLOAD DUP1 SWAP2 SUB SWAP1 REVERT JUMPDEST PUSH1 0x5 PUSH1 0x0 DUP3 DUP2 MSTORE PUSH1 0x20 ADD SWAP1 DUP2 MSTORE PUSH1 0x20 ADD PUSH1 0x0 KECCAK256 PUSH1 0x0 PUSH2 0x100 EXP DUP2 SLOAD SWAP1 PUSH20 0xFFFFFFFFFFFFFFFFFFFFFFFFFFFFFFFFFFFFFFFF MUL NOT AND SWAP1 SSTORE DUP1 PUSH32 0x7CC135E0CEBB02C3480AE5D74D377283180A2601F8F644EDF7987B009316C63A PUSH1 0x40 MLOAD PUSH1 0x40 MLOAD DUP1 SWAP2 SUB SWAP1 LOG2 DUP2 PUSH1 0x10 DUP2 SWAP1 SSTORE POP POP POP POP JUMP JUMPDEST PUSH1 0x0 PUSH1 0xF PUSH1 0x0 SWAP1 SLOAD SWAP1 PUSH2 0x100 EXP SWAP1 DIV PUSH1 0xFF AND ISZERO PUSH2 0x7CE JUMPI PUSH1 0x40 MLOAD PUSH32 0x8C379A000000000000000000000000000000000000000000000000000000000 DUP2 MSTORE PUSH1 0x4 ADD PUSH2 0x7C5 SWAP1 PUSH2 0x294B JUMP JUMPDEST PUSH1 0x40 MLOAD DUP1 SWAP2 SUB SWAP1 REVERT JUMPDEST PUSH1 0x1 PUSH1 0xF PUSH1 0x0 PUSH2 0x100 EXP DUP2 SLOAD DUP2 PUSH1 0xFF MUL NOT AND SWAP1 DUP4 ISZERO ISZERO MUL OR SWAP1 SSTORE POP PUSH1 0x0 PUSH20 0xFFFFFFFFFFFFFFFFFFFFFFFFFFFFFFFFFFFFFFFF AND DUP5 PUSH20 0xFFFFFFFFFFFFFFFFFFFFFFFFFFFFFFFFFFFFFFFF AND EQ ISZERO DUP1 ISZERO PUSH2 0x853 JUMPI POP PUSH1 0x0 PUSH20 0xFFFFFFFFFFFFFFFFFFFFFFFFFFFFFFFFFFFFFFFF AND DUP4 PUSH20 0xFFFFFFFFFFFFFFFFFFFFFFFFFFFFFFFFFFFFFFFF AND EQ ISZERO JUMPDEST PUSH2 0x892 JUMPI PUSH1 0x40 MLOAD PUSH32 0x8C379A000000000000000000000000000000000000000000000000000000000 DUP2 MSTORE PUSH1 0x4 ADD PUSH2 0x889 SWAP1 PUSH2 0x2B76 JUMP JUMPDEST PUSH1 0x40 MLOAD DUP1 SWAP2 SUB SWAP1 REVERT JUMPDEST PUSH2 0x89C DUP5 DUP4 PUSH2 0x2BC JUMP JUMPDEST POP PUSH1 0x0 PUSH1 0x10 SLOAD GT PUSH2 0x8E2 JUMPI PUSH1 0x40 MLOAD PUSH32 0x8C379A000000000000000000000000000000000000000000000000000000000 DUP2 MSTORE PUSH1 0x4 ADD PUSH2 0x8D9 SWAP1 PUSH2 0x2BE2 JUMP JUMPDEST PUSH1 0x40 MLOAD DUP1 SWAP2 SUB SWAP1 REVERT JUMPDEST PUSH1 0x0 CALLVALUE SWAP1 POP PUSH1 0x0 PUSH2 0x2710 PUSH1 0x8 SLOAD PUSH1 0x10 SLOAD PUSH2 0x8FC SWAP2 SWAP1 PUSH2 0x2C31 JUMP JUMPDEST PUSH2 0x906 SWAP2 SWAP1 PUSH2 0x2CA2 JUMP JUMPDEST SWAP1 POP DUP1 PUSH1 0x9 PUSH1 0x0 DUP3 DUP3 SLOAD PUSH2 0x91A SWAP2 SWAP1 PUSH2 0x2CD3 JUMP JUMPDEST SWAP3 POP POP DUP2 SWAP1 SSTORE POP DUP1 PUSH1 0x10 SLOAD PUSH2 0x92F SWAP2 SWAP1 PUSH2 0x2CD3 JUMP JUMPDEST DUP3 LT ISZERO PUSH2 0x971 JUMPI PUSH1 0x40 MLOAD PUSH32 0x8C379A000000000000000000000000000000000000000000000000000000000 DUP2 MSTORE PUSH1 0x4 ADD PUSH2 0x968 SWAP1 PUSH2 0x2D53 JUMP JUMPDEST PUSH1 0x40 MLOAD DUP1 SWAP2 SUB SWAP1 REVERT JUMPDEST PUSH1 0x0 DUP7 PUSH20 0xFFFFFFFFFFFFFFFFFFFFFFFFFFFFFFFFFFFFFFFF AND PUSH4 0x6352211E DUP7 PUSH1 0x40 MLOAD DUP3 PUSH4 0xFFFFFFFF AND PUSH1 0xE0 SHL DUP2 MSTORE PUSH1 0x4 ADD PUSH2 0x9AC SWAP2 SWAP1 PUSH2 0x24A6 JUMP JUMPDEST PUSH1 0x20 PUSH1 0x40 MLOAD DUP1 DUP4 SUB DUP2 DUP7 GAS STATICCALL ISZERO DUP1 ISZERO PUSH2 0x9C9 JUMPI RETURNDATASIZE PUSH1 0x0 DUP1 RETURNDATACOPY RETURNDATASIZE PUSH1 0x0 REVERT JUMPDEST POP POP POP POP PUSH1 0x40 MLOAD RETURNDATASIZE PUSH1 0x1F NOT PUSH1 0x1F DUP3 ADD AND DUP3 ADD DUP1 PUSH1 0x40 MSTORE POP DUP2 ADD SWAP1 PUSH2 0x9ED SWAP2 SWAP1 PUSH2 0x2D88 JUMP JUMPDEST PUSH20 0xFFFFFFFFFFFFFFFFFFFFFFFFFFFFFFFFFFFFFFFF AND PUSH1 0x10 SLOAD PUSH1 0x40 MLOAD PUSH2 0xA12 SWAP1 PUSH2 0x29CB JUMP JUMPDEST PUSH1 0x0 PUSH1 0x40 MLOAD DUP1 DUP4 SUB DUP2 DUP6 DUP8 GAS CALL SWAP3 POP POP POP RETURNDATASIZE DUP1 PUSH1 0x0 DUP2 EQ PUSH2 0xA4F JUMPI PUSH1 0x40 MLOAD SWAP2 POP PUSH1 0x1F NOT PUSH1 0x3F RETURNDATASIZE ADD AND DUP3 ADD PUSH1 0x40 MSTORE RETURNDATASIZE DUP3 MSTORE RETURNDATASIZE PUSH1 0x0 PUSH1 0x20 DUP5 ADD RETURNDATACOPY PUSH2 0xA54 JUMP JUMPDEST PUSH1 0x60 SWAP2 POP JUMPDEST POP POP SWAP1 POP DUP1 PUSH2 0xA98 JUMPI PUSH1 0x40 MLOAD PUSH32 0x8C379A000000000000000000000000000000000000000000000000000000000 DUP2 MSTORE PUSH1 0x4 ADD PUSH2 0xA8F SWAP1 PUSH2 0x2E27 JUMP JUMPDEST PUSH1 0x40 MLOAD DUP1 SWAP2 SUB SWAP1 REVERT JUMPDEST PUSH1 0x0 DUP3 PUSH1 0x10 SLOAD PUSH2 0xAA8 SWAP2 SWAP1 PUSH2 0x2CD3 JUMP JUMPDEST DUP5 PUSH2 0xAB3 SWAP2 SWAP1 PUSH2 0x2E47 JUMP JUMPDEST SWAP1 POP CALLER PUSH20 0xFFFFFFFFFFFFFFFFFFFFFFFFFFFFFFFFFFFFFFFF AND DUP2 PUSH1 0x40 MLOAD PUSH2 0xAD9 SWAP1 PUSH2 0x29CB JUMP JUMPDEST PUSH1 0x0 PUSH1 0x40 MLOAD DUP1 DUP4 SUB DUP2 DUP6 DUP8 GAS CALL SWAP3 POP POP POP RETURNDATASIZE DUP1 PUSH1 0x0 DUP2 EQ PUSH2 0xB16 JUMPI PUSH1 0x40 MLOAD SWAP2 POP PUSH1 0x1F NOT PUSH1 0x3F RETURNDATASIZE ADD AND DUP3 ADD PUSH1 0x40 MSTORE RETURNDATASIZE DUP3 MSTORE RETURNDATASIZE PUSH1 0x0 PUSH1 0x20 DUP5 ADD RETURNDATACOPY PUSH2 0xB1B JUMP JUMPDEST PUSH1 0x60 SWAP2 POP JUMPDEST POP POP DUP1 SWAP3 POP POP DUP2 PUSH2 0xB61 JUMPI PUSH1 0x40 MLOAD PUSH32 0x8C379A000000000000000000000000000000000000000000000000000000000 DUP2 MSTORE PUSH1 0x4 ADD PUSH2 0xB58 SWAP1 PUSH2 0x2EED JUMP JUMPDEST PUSH1 0x40 MLOAD DUP1 SWAP2 SUB SWAP1 REVERT JUMPDEST DUP8 PUSH20 0xFFFFFFFFFFFFFFFFFFFFFFFFFFFFFFFFFFFFFFFF AND PUSH4 0x42842E0E CALLER DUP10 DUP10 PUSH1 0x40 MLOAD DUP5 PUSH4 0xFFFFFFFF AND PUSH1 0xE0 SHL DUP2 MSTORE PUSH1 0x4 ADD PUSH2 0xB9E SWAP4 SWAP3 SWAP2 SWAP1 PUSH2 0x2F0D JUMP JUMPDEST PUSH1 0x0 PUSH1 0x40 MLOAD DUP1 DUP4 SUB DUP2 PUSH1 0x0 DUP8 DUP1 EXTCODESIZE ISZERO DUP1 ISZERO PUSH2 0xBB8 JUMPI PUSH1 0x0 DUP1 REVERT JUMPDEST POP GAS CALL ISZERO DUP1 ISZERO PUSH2 0xBCC JUMPI RETURNDATASIZE PUSH1 0x0 DUP1 RETURNDATACOPY RETURNDATASIZE PUSH1 0x0 REVERT JUMPDEST POP POP POP POP PUSH1 0x1 SWAP5 POP POP POP POP POP PUSH1 0x0 PUSH1 0xF PUSH1 0x0 PUSH2 0x100 EXP DUP2 SLOAD DUP2 PUSH1 0xFF MUL NOT AND SWAP1 DUP4 ISZERO ISZERO MUL OR SWAP1 SSTORE POP SWAP4 SWAP3 POP POP POP JUMP JUMPDEST DUP1 PUSH1 0x8 DUP2 SWAP1 SSTORE POP POP JUMP JUMPDEST CALLER PUSH20 0xFFFFFFFFFFFFFFFFFFFFFFFFFFFFFFFFFFFFFFFF AND PUSH1 0xC PUSH1 0x0 SWAP1 SLOAD SWAP1 PUSH2 0x100 EXP SWAP1 DIV PUSH20 0xFFFFFFFFFFFFFFFFFFFFFFFFFFFFFFFFFFFFFFFF AND PUSH20 0xFFFFFFFFFFFFFFFFFFFFFFFFFFFFFFFFFFFFFFFF AND EQ PUSH2 0xC94 JUMPI PUSH1 0x40 MLOAD PUSH32 0x8C379A000000000000000000000000000000000000000000000000000000000 DUP2 MSTORE PUSH1 0x4 ADD PUSH2 0xC8B SWAP1 PUSH2 0x28DF JUMP JUMPDEST PUSH1 0x40 MLOAD DUP1 SWAP2 SUB SWAP1 REVERT JUMPDEST PUSH1 0xF PUSH1 0x0 SWAP1 SLOAD SWAP1 PUSH2 0x100 EXP SWAP1 DIV PUSH1 0xFF AND ISZERO PUSH2 0xCE4 JUMPI PUSH1 0x40 MLOAD PUSH32 0x8C379A000000000000000000000000000000000000000000000000000000000 DUP2 MSTORE PUSH1 0x4 ADD PUSH2 0xCDB SWAP1 PUSH2 0x294B JUMP JUMPDEST PUSH1 0x40 MLOAD DUP1 SWAP2 SUB SWAP1 REVERT JUMPDEST PUSH1 0x1 PUSH1 0xF PUSH1 0x0 PUSH2 0x100 EXP DUP2 SLOAD DUP2 PUSH1 0xFF MUL NOT AND SWAP1 DUP4 ISZERO ISZERO MUL OR SWAP1 SSTORE POP PUSH1 0x0 PUSH1 0xD PUSH1 0x0 SWAP1 SLOAD SWAP1 PUSH2 0x100 EXP SWAP1 DIV PUSH20 0xFFFFFFFFFFFFFFFFFFFFFFFFFFFFFFFFFFFFFFFF AND PUSH20 0xFFFFFFFFFFFFFFFFFFFFFFFFFFFFFFFFFFFFFFFF AND PUSH4 0x70A08231 ADDRESS PUSH1 0x40 MLOAD DUP3 PUSH4 0xFFFFFFFF AND PUSH1 0xE0 SHL DUP2 MSTORE PUSH1 0x4 ADD PUSH2 0xD5C SWAP2 SWAP1 PUSH2 0x25F2 JUMP JUMPDEST PUSH1 0x20 PUSH1 0x40 MLOAD DUP1 DUP4 SUB DUP2 DUP7 GAS STATICCALL ISZERO DUP1 ISZERO PUSH2 0xD79 JUMPI RETURNDATASIZE PUSH1 0x0 DUP1 RETURNDATACOPY RETURNDATASIZE PUSH1 0x0 REVERT JUMPDEST POP POP POP POP PUSH1 0x40 MLOAD RETURNDATASIZE PUSH1 0x1F NOT PUSH1 0x1F DUP3 ADD AND DUP3 ADD DUP1 PUSH1 0x40 MSTORE POP DUP2 ADD SWAP1 PUSH2 0xD9D SWAP2 SWAP1 PUSH2 0x2F59 JUMP JUMPDEST GT PUSH2 0xDAB JUMPI PUSH2 0xDAA PUSH2 0x296B JUMP JUMPDEST JUMPDEST PUSH1 0xD PUSH1 0x0 SWAP1 SLOAD SWAP1 PUSH2 0x100 EXP SWAP1 DIV PUSH20 0xFFFFFFFFFFFFFFFFFFFFFFFFFFFFFFFFFFFFFFFF AND PUSH20 0xFFFFFFFFFFFFFFFFFFFFFFFFFFFFFFFFFFFFFFFF AND PUSH4 0xA9059CBB PUSH1 0xC PUSH1 0x0 SWAP1 SLOAD SWAP1 PUSH2 0x100 EXP SWAP1 DIV PUSH20 0xFFFFFFFFFFFFFFFFFFFFFFFFFFFFFFFFFFFFFFFF AND PUSH1 0xD PUSH1 0x0 SWAP1 SLOAD SWAP1 PUSH2 0x100 EXP SWAP1 DIV PUSH20 0xFFFFFFFFFFFFFFFFFFFFFFFFFFFFFFFFFFFFFFFF AND PUSH20 0xFFFFFFFFFFFFFFFFFFFFFFFFFFFFFFFFFFFFFFFF AND PUSH4 0x70A08231 ADDRESS PUSH1 0x40 MLOAD DUP3 PUSH4 0xFFFFFFFF AND PUSH1 0xE0 SHL DUP2 MSTORE PUSH1 0x4 ADD PUSH2 0xE67 SWAP2 SWAP1 PUSH2 0x25F2 JUMP JUMPDEST PUSH1 0x20 PUSH1 0x40 MLOAD DUP1 DUP4 SUB DUP2 DUP7 GAS STATICCALL ISZERO DUP1 ISZERO PUSH2 0xE84 JUMPI RETURNDATASIZE PUSH1 0x0 DUP1 RETURNDATACOPY RETURNDATASIZE PUSH1 0x0 REVERT JUMPDEST POP POP POP POP PUSH1 0x40 MLOAD RETURNDATASIZE PUSH1 0x1F NOT PUSH1 0x1F DUP3 ADD AND DUP3 ADD DUP1 PUSH1 0x40 MSTORE POP DUP2 ADD SWAP1 PUSH2 0xEA8 SWAP2 SWAP1 PUSH2 0x2F59 JUMP JUMPDEST PUSH1 0x40 MLOAD DUP4 PUSH4 0xFFFFFFFF AND PUSH1 0xE0 SHL DUP2 MSTORE PUSH1 0x4 ADD PUSH2 0xEC5 SWAP3 SWAP2 SWAP1 PUSH2 0x2F86 JUMP JUMPDEST PUSH1 0x20 PUSH1 0x40 MLOAD DUP1 DUP4 SUB DUP2 PUSH1 0x0 DUP8 GAS CALL ISZERO DUP1 ISZERO PUSH2 0xEE4 JUMPI RETURNDATASIZE PUSH1 0x0 DUP1 RETURNDATACOPY RETURNDATASIZE PUSH1 0x0 REVERT JUMPDEST POP POP POP POP PUSH1 0x40 MLOAD RETURNDATASIZE PUSH1 0x1F NOT PUSH1 0x1F DUP3 ADD AND DUP3 ADD DUP1 PUSH1 0x40 MSTORE POP DUP2 ADD SWAP1 PUSH2 0xF08 SWAP2 SWAP1 PUSH2 0x2FDB JUMP JUMPDEST POP PUSH1 0x0 PUSH1 0xF PUSH1 0x0 PUSH2 0x100 EXP DUP2 SLOAD DUP2 PUSH1 0xFF MUL NOT AND SWAP1 DUP4 ISZERO ISZERO MUL OR SWAP1 SSTORE POP JUMP JUMPDEST PUSH1 0x7 PUSH1 0x0 SWAP1 SLOAD SWAP1 PUSH2 0x100 EXP SWAP1 DIV PUSH20 0xFFFFFFFFFFFFFFFFFFFFFFFFFFFFFFFFFFFFFFFF AND PUSH20 0xFFFFFFFFFFFFFFFFFFFFFFFFFFFFFFFFFFFFFFFF AND CALLER PUSH20 0xFFFFFFFFFFFFFFFFFFFFFFFFFFFFFFFFFFFFFFFF AND EQ PUSH2 0xFB6 JUMPI PUSH1 0x40 MLOAD PUSH32 0x8C379A000000000000000000000000000000000000000000000000000000000 DUP2 MSTORE PUSH1 0x4 ADD PUSH2 0xFAD SWAP1 PUSH2 0x3054 JUMP JUMPDEST PUSH1 0x40 MLOAD DUP1 SWAP2 SUB SWAP1 REVERT JUMPDEST PUSH1 0x0 PUSH1 0x6 PUSH1 0x0 SWAP1 SLOAD SWAP1 PUSH2 0x100 EXP SWAP1 DIV PUSH20 0xFFFFFFFFFFFFFFFFFFFFFFFFFFFFFFFFFFFFFFFF AND SWAP1 POP CALLER PUSH1 0x6 PUSH1 0x0 PUSH2 0x100 EXP DUP2 SLOAD DUP2 PUSH20 0xFFFFFFFFFFFFFFFFFFFFFFFFFFFFFFFFFFFFFFFF MUL NOT AND SWAP1 DUP4 PUSH20 0xFFFFFFFFFFFFFFFFFFFFFFFFFFFFFFFFFFFFFFFF AND MUL OR SWAP1 SSTORE POP PUSH1 0x0 PUSH1 0x7 PUSH1 0x0 PUSH2 0x100 EXP DUP2 SLOAD DUP2 PUSH20 0xFFFFFFFFFFFFFFFFFFFFFFFFFFFFFFFFFFFFFFFF MUL NOT AND SWAP1 DUP4 PUSH20 0xFFFFFFFFFFFFFFFFFFFFFFFFFFFFFFFFFFFFFFFF AND MUL OR SWAP1 SSTORE POP CALLER PUSH20 0xFFFFFFFFFFFFFFFFFFFFFFFFFFFFFFFFFFFFFFFF AND DUP2 PUSH20 0xFFFFFFFFFFFFFFFFFFFFFFFFFFFFFFFFFFFFFFFF AND PUSH32 0x8BE0079C531659141344CD1FD0A4F28419497F9722A3DAAFE3B4186F6B6457E0 PUSH1 0x40 MLOAD PUSH1 0x40 MLOAD DUP1 SWAP2 SUB SWAP1 LOG3 POP JUMP JUMPDEST PUSH1 0x0 PUSH1 0x6 PUSH1 0x0 SWAP1 SLOAD SWAP1 PUSH2 0x100 EXP SWAP1 DIV PUSH20 0xFFFFFFFFFFFFFFFFFFFFFFFFFFFFFFFFFFFFFFFF AND SWAP1 POP SWAP1 JUMP JUMPDEST CALLER PUSH20 0xFFFFFFFFFFFFFFFFFFFFFFFFFFFFFFFFFFFFFFFF AND PUSH1 0xC PUSH1 0x0 SWAP1 SLOAD SWAP1 PUSH2 0x100 EXP SWAP1 DIV PUSH20 0xFFFFFFFFFFFFFFFFFFFFFFFFFFFFFFFFFFFFFFFF AND PUSH20 0xFFFFFFFFFFFFFFFFFFFFFFFFFFFFFFFFFFFFFFFF AND EQ PUSH2 0x1177 JUMPI PUSH1 0x40 MLOAD PUSH32 0x8C379A000000000000000000000000000000000000000000000000000000000 DUP2 MSTORE PUSH1 0x4 ADD PUSH2 0x116E SWAP1 PUSH2 0x28DF JUMP JUMPDEST PUSH1 0x40 MLOAD DUP1 SWAP2 SUB SWAP1 REVERT JUMPDEST PUSH1 0x0 PUSH20 0xFFFFFFFFFFFFFFFFFFFFFFFFFFFFFFFFFFFFFFFF AND DUP2 PUSH20 0xFFFFFFFFFFFFFFFFFFFFFFFFFFFFFFFFFFFFFFFF AND SUB PUSH2 0x11E6 JUMPI PUSH1 0x40 MLOAD PUSH32 0x8C379A000000000000000000000000000000000000000000000000000000000 DUP2 MSTORE PUSH1 0x4 ADD PUSH2 0x11DD SWAP1 PUSH2 0x30C0 JUMP JUMPDEST PUSH1 0x40 MLOAD DUP1 SWAP2 SUB SWAP1 REVERT JUMPDEST DUP1 PUSH1 0xC PUSH1 0x0 PUSH2 0x100 EXP DUP2 SLOAD DUP2 PUSH20 0xFFFFFFFFFFFFFFFFFFFFFFFFFFFFFFFFFFFFFFFF MUL NOT AND SWAP1 DUP4 PUSH20 0xFFFFFFFFFFFFFFFFFFFFFFFFFFFFFFFFFFFFFFFF AND MUL OR SWAP1 SSTORE POP POP JUMP JUMPDEST PUSH1 0x0 PUSH1 0xD PUSH1 0x0 SWAP1 SLOAD SWAP1 PUSH2 0x100 EXP SWAP1 DIV PUSH20 0xFFFFFFFFFFFFFFFFFFFFFFFFFFFFFFFFFFFFFFFF AND PUSH20 0xFFFFFFFFFFFFFFFFFFFFFFFFFFFFFFFFFFFFFFFF AND PUSH4 0x70A08231 ADDRESS PUSH1 0x40 MLOAD DUP3 PUSH4 0xFFFFFFFF AND PUSH1 0xE0 SHL DUP2 MSTORE PUSH1 0x4 ADD PUSH2 0x1287 SWAP2 SWAP1 PUSH2 0x25F2 JUMP JUMPDEST PUSH1 0x20 PUSH1 0x40 MLOAD DUP1 DUP4 SUB DUP2 DUP7 GAS STATICCALL ISZERO DUP1 ISZERO PUSH2 0x12A4 JUMPI RETURNDATASIZE PUSH1 0x0 DUP1 RETURNDATACOPY RETURNDATASIZE PUSH1 0x0 REVERT JUMPDEST POP POP POP POP PUSH1 0x40 MLOAD RETURNDATASIZE PUSH1 0x1F NOT PUSH1 0x1F DUP3 ADD AND DUP3 ADD DUP1 PUSH1 0x40 MSTORE POP DUP2 ADD SWAP1 PUSH2 0x12C8 SWAP2 SWAP1 PUSH2 0x2F59 JUMP JUMPDEST SWAP1 POP SWAP1 JUMP JUMPDEST PUSH1 0x10 SLOAD DUP2 JUMP JUMPDEST PUSH2 0x12DB PUSH2 0x16BF JUMP JUMPDEST PUSH2 0x12E4 DUP2 PUSH2 0x1751 JUMP JUMPDEST POP JUMP JUMPDEST PUSH2 0x12EF PUSH2 0x2303 JUMP JUMPDEST PUSH2 0x12F7 PUSH2 0x2303 JUMP JUMPDEST PUSH2 0x130E DUP6 DUP6 DUP6 DUP5 PUSH2 0x187F SWAP1 SWAP4 SWAP3 SWAP2 SWAP1 PUSH4 0xFFFFFFFF AND JUMP JUMPDEST SWAP2 POP POP SWAP4 SWAP3 POP POP POP JUMP JUMPDEST PUSH1 0x60 PUSH1 0x0 PUSH1 0x2 DUP4 PUSH1 0x2 PUSH2 0x132B SWAP2 SWAP1 PUSH2 0x2C31 JUMP JUMPDEST PUSH2 0x1335 SWAP2 SWAP1 PUSH2 0x2CD3 JUMP JUMPDEST PUSH8 0xFFFFFFFFFFFFFFFF DUP2 GT ISZERO PUSH2 0x134E JUMPI PUSH2 0x134D PUSH2 0x30E0 JUMP JUMPDEST JUMPDEST PUSH1 0x40 MLOAD SWAP1 DUP1 DUP3 MSTORE DUP1 PUSH1 0x1F ADD PUSH1 0x1F NOT AND PUSH1 0x20 ADD DUP3 ADD PUSH1 0x40 MSTORE DUP1 ISZERO PUSH2 0x1380 JUMPI DUP2 PUSH1 0x20 ADD PUSH1 0x1 DUP3 MUL DUP1 CALLDATASIZE DUP4 CALLDATACOPY DUP1 DUP3 ADD SWAP2 POP POP SWAP1 POP JUMPDEST POP SWAP1 POP PUSH32 0x3000000000000000000000000000000000000000000000000000000000000000 DUP2 PUSH1 0x0 DUP2 MLOAD DUP2 LT PUSH2 0x13B8 JUMPI PUSH2 0x13B7 PUSH2 0x310F JUMP JUMPDEST JUMPDEST PUSH1 0x20 ADD ADD SWAP1 PUSH31 0xFFFFFFFFFFFFFFFFFFFFFFFFFFFFFFFFFFFFFFFFFFFFFFFFFFFFFFFFFFFFFF NOT AND SWAP1 DUP2 PUSH1 0x0 BYTE SWAP1 MSTORE8 POP PUSH32 0x7800000000000000000000000000000000000000000000000000000000000000 DUP2 PUSH1 0x1 DUP2 MLOAD DUP2 LT PUSH2 0x141C JUMPI PUSH2 0x141B PUSH2 0x310F JUMP JUMPDEST JUMPDEST PUSH1 0x20 ADD ADD SWAP1 PUSH31 0xFFFFFFFFFFFFFFFFFFFFFFFFFFFFFFFFFFFFFFFFFFFFFFFFFFFFFFFFFFFFFF NOT AND SWAP1 DUP2 PUSH1 0x0 BYTE SWAP1 MSTORE8 POP PUSH1 0x0 PUSH1 0x1 DUP5 PUSH1 0x2 PUSH2 0x145C SWAP2 SWAP1 PUSH2 0x2C31 JUMP JUMPDEST PUSH2 0x1466 SWAP2 SWAP1 PUSH2 0x2CD3 JUMP JUMPDEST SWAP1 POP JUMPDEST PUSH1 0x1 DUP2 GT ISZERO PUSH2 0x1506 JUMPI PUSH32 0x3031323334353637383961626364656600000000000000000000000000000000 PUSH1 0xF DUP7 AND PUSH1 0x10 DUP2 LT PUSH2 0x14A8 JUMPI PUSH2 0x14A7 PUSH2 0x310F JUMP JUMPDEST JUMPDEST BYTE PUSH1 0xF8 SHL DUP3 DUP3 DUP2 MLOAD DUP2 LT PUSH2 0x14BF JUMPI PUSH2 0x14BE PUSH2 0x310F JUMP JUMPDEST JUMPDEST PUSH1 0x20 ADD ADD SWAP1 PUSH31 0xFFFFFFFFFFFFFFFFFFFFFFFFFFFFFFFFFFFFFFFFFFFFFFFFFFFFFFFFFFFFFF NOT AND SWAP1 DUP2 PUSH1 0x0 BYTE SWAP1 MSTORE8 POP PUSH1 0x4 DUP6 SWAP1 SHR SWAP5 POP DUP1 PUSH2 0x14FF SWAP1 PUSH2 0x313E JUMP JUMPDEST SWAP1 POP PUSH2 0x1469 JUMP JUMPDEST POP PUSH1 0x0 DUP5 EQ PUSH2 0x154A JUMPI PUSH1 0x40 MLOAD PUSH32 0x8C379A000000000000000000000000000000000000000000000000000000000 DUP2 MSTORE PUSH1 0x4 ADD PUSH2 0x1541 SWAP1 PUSH2 0x31B3 JUMP JUMPDEST PUSH1 0x40 MLOAD DUP1 SWAP2 SUB SWAP1 REVERT JUMPDEST DUP1 SWAP2 POP POP SWAP3 SWAP2 POP POP JUMP JUMPDEST PUSH1 0x60 PUSH1 0x0 PUSH1 0x1 PUSH2 0x1563 DUP5 PUSH2 0x192F JUMP JUMPDEST ADD SWAP1 POP PUSH1 0x0 DUP2 PUSH8 0xFFFFFFFFFFFFFFFF DUP2 GT ISZERO PUSH2 0x1582 JUMPI PUSH2 0x1581 PUSH2 0x30E0 JUMP JUMPDEST JUMPDEST PUSH1 0x40 MLOAD SWAP1 DUP1 DUP3 MSTORE DUP1 PUSH1 0x1F ADD PUSH1 0x1F NOT AND PUSH1 0x20 ADD DUP3 ADD PUSH1 0x40 MSTORE DUP1 ISZERO PUSH2 0x15B4 JUMPI DUP2 PUSH1 0x20 ADD PUSH1 0x1 DUP3 MUL DUP1 CALLDATASIZE DUP4 CALLDATACOPY DUP1 DUP3 ADD SWAP2 POP POP SWAP1 POP JUMPDEST POP SWAP1 POP PUSH1 0x0 DUP3 PUSH1 0x20 ADD DUP3 ADD SWAP1 POP JUMPDEST PUSH1 0x1 ISZERO PUSH2 0x1617 JUMPI DUP1 DUP1 PUSH1 0x1 SWAP1 SUB SWAP2 POP POP PUSH32 0x3031323334353637383961626364656600000000000000000000000000000000 PUSH1 0xA DUP7 MOD BYTE DUP2 MSTORE8 PUSH1 0xA DUP6 DUP2 PUSH2 0x160B JUMPI PUSH2 0x160A PUSH2 0x2C73 JUMP JUMPDEST JUMPDEST DIV SWAP5 POP PUSH1 0x0 DUP6 SUB PUSH2 0x15C2 JUMPI JUMPDEST DUP2 SWAP4 POP POP POP POP SWAP2 SWAP1 POP JUMP JUMPDEST PUSH2 0x1639 DUP3 DUP5 PUSH1 0x80 ADD MLOAD PUSH2 0x1A82 SWAP1 SWAP2 SWAP1 PUSH4 0xFFFFFFFF AND JUMP JUMPDEST PUSH2 0x1650 DUP2 DUP5 PUSH1 0x80 ADD MLOAD PUSH2 0x1A82 SWAP1 SWAP2 SWAP1 PUSH4 0xFFFFFFFF AND JUMP JUMPDEST POP POP POP JUMP JUMPDEST PUSH2 0x166C DUP3 DUP5 PUSH1 0x80 ADD MLOAD PUSH2 0x1A82 SWAP1 SWAP2 SWAP1 PUSH4 0xFFFFFFFF AND JUMP JUMPDEST PUSH2 0x1683 DUP2 DUP5 PUSH1 0x80 ADD MLOAD PUSH2 0x1AA7 SWAP1 SWAP2 SWAP1 PUSH4 0xFFFFFFFF AND JUMP JUMPDEST POP POP POP JUMP JUMPDEST PUSH1 0x0 PUSH2 0x16B7 PUSH1 0x3 PUSH1 0x0 SWAP1 SLOAD SWAP1 PUSH2 0x100 EXP SWAP1 DIV PUSH20 0xFFFFFFFFFFFFFFFFFFFFFFFFFFFFFFFFFFFFFFFF AND DUP5 DUP5 PUSH2 0x1B54 JUMP JUMPDEST SWAP1 POP SWAP3 SWAP2 POP POP JUMP JUMPDEST PUSH1 0x6 PUSH1 0x0 SWAP1 SLOAD SWAP1 PUSH2 0x100 EXP SWAP1 DIV PUSH20 0xFFFFFFFFFFFFFFFFFFFFFFFFFFFFFFFFFFFFFFFF AND PUSH20 0xFFFFFFFFFFFFFFFFFFFFFFFFFFFFFFFFFFFFFFFF AND CALLER PUSH20 0xFFFFFFFFFFFFFFFFFFFFFFFFFFFFFFFFFFFFFFFF AND EQ PUSH2 0x174F JUMPI PUSH1 0x40 MLOAD PUSH32 0x8C379A000000000000000000000000000000000000000000000000000000000 DUP2 MSTORE PUSH1 0x4 ADD PUSH2 0x1746 SWAP1 PUSH2 0x321F JUMP JUMPDEST PUSH1 0x40 MLOAD DUP1 SWAP2 SUB SWAP1 REVERT JUMPDEST JUMP JUMPDEST CALLER PUSH20 0xFFFFFFFFFFFFFFFFFFFFFFFFFFFFFFFFFFFFFFFF AND DUP2 PUSH20 0xFFFFFFFFFFFFFFFFFFFFFFFFFFFFFFFFFFFFFFFF AND SUB PUSH2 0x17BF JUMPI PUSH1 0x40 MLOAD PUSH32 0x8C379A000000000000000000000000000000000000000000000000000000000 DUP2 MSTORE PUSH1 0x4 ADD PUSH2 0x17B6 SWAP1 PUSH2 0x328B JUMP JUMPDEST PUSH1 0x40 MLOAD DUP1 SWAP2 SUB SWAP1 REVERT JUMPDEST DUP1 PUSH1 0x7 PUSH1 0x0 PUSH2 0x100 EXP DUP2 SLOAD DUP2 PUSH20 0xFFFFFFFFFFFFFFFFFFFFFFFFFFFFFFFFFFFFFFFF MUL NOT AND SWAP1 DUP4 PUSH20 0xFFFFFFFFFFFFFFFFFFFFFFFFFFFFFFFFFFFFFFFF AND MUL OR SWAP1 SSTORE POP DUP1 PUSH20 0xFFFFFFFFFFFFFFFFFFFFFFFFFFFFFFFFFFFFFFFF AND PUSH1 0x6 PUSH1 0x0 SWAP1 SLOAD SWAP1 PUSH2 0x100 EXP SWAP1 DIV PUSH20 0xFFFFFFFFFFFFFFFFFFFFFFFFFFFFFFFFFFFFFFFF AND PUSH20 0xFFFFFFFFFFFFFFFFFFFFFFFFFFFFFFFFFFFFFFFF AND PUSH32 0xED8889F560326EB138920D842192F0EB3DD22B4F139C87A2C57538E05BAE1278 PUSH1 0x40 MLOAD PUSH1 0x40 MLOAD DUP1 SWAP2 SUB SWAP1 LOG3 POP JUMP JUMPDEST PUSH2 0x1887 PUSH2 0x2303 JUMP JUMPDEST PUSH2 0x1897 DUP6 PUSH1 0x80 ADD MLOAD PUSH2 0x100 PUSH2 0x1C20 JUMP JUMPDEST POP DUP4 DUP6 PUSH1 0x0 ADD DUP2 DUP2 MSTORE POP POP DUP3 DUP6 PUSH1 0x20 ADD SWAP1 PUSH20 0xFFFFFFFFFFFFFFFFFFFFFFFFFFFFFFFFFFFFFFFF AND SWAP1 DUP2 PUSH20 0xFFFFFFFFFFFFFFFFFFFFFFFFFFFFFFFFFFFFFFFF AND DUP2 MSTORE POP POP DUP2 DUP6 PUSH1 0x40 ADD SWAP1 PUSH28 0xFFFFFFFFFFFFFFFFFFFFFFFFFFFFFFFFFFFFFFFFFFFFFFFFFFFFFFFF NOT AND SWAP1 DUP2 PUSH28 0xFFFFFFFFFFFFFFFFFFFFFFFFFFFFFFFFFFFFFFFFFFFFFFFFFFFFFFFF NOT AND DUP2 MSTORE POP POP DUP5 SWAP1 POP SWAP5 SWAP4 POP POP POP POP JUMP JUMPDEST PUSH1 0x0 DUP1 PUSH1 0x0 SWAP1 POP PUSH27 0x184F03E93FF9F4DAA797ED6E38ED64BF6A1F010000000000000000 DUP4 LT PUSH2 0x198D JUMPI PUSH27 0x184F03E93FF9F4DAA797ED6E38ED64BF6A1F010000000000000000 DUP4 DUP2 PUSH2 0x1983 JUMPI PUSH2 0x1982 PUSH2 0x2C73 JUMP JUMPDEST JUMPDEST DIV SWAP3 POP PUSH1 0x40 DUP2 ADD SWAP1 POP JUMPDEST PUSH14 0x4EE2D6D415B85ACEF8100000000 DUP4 LT PUSH2 0x19CA JUMPI PUSH14 0x4EE2D6D415B85ACEF8100000000 DUP4 DUP2 PUSH2 0x19C0 JUMPI PUSH2 0x19BF PUSH2 0x2C73 JUMP JUMPDEST JUMPDEST DIV SWAP3 POP PUSH1 0x20 DUP2 ADD SWAP1 POP JUMPDEST PUSH7 0x2386F26FC10000 DUP4 LT PUSH2 0x19F9 JUMPI PUSH7 0x2386F26FC10000 DUP4 DUP2 PUSH2 0x19EF JUMPI PUSH2 0x19EE PUSH2 0x2C73 JUMP JUMPDEST JUMPDEST DIV SWAP3 POP PUSH1 0x10 DUP2 ADD SWAP1 POP JUMPDEST PUSH4 0x5F5E100 DUP4 LT PUSH2 0x1A22 JUMPI PUSH4 0x5F5E100 DUP4 DUP2 PUSH2 0x1A18 JUMPI PUSH2 0x1A17 PUSH2 0x2C73 JUMP JUMPDEST JUMPDEST DIV SWAP3 POP PUSH1 0x8 DUP2 ADD SWAP1 POP JUMPDEST PUSH2 0x2710 DUP4 LT PUSH2 0x1A47 JUMPI PUSH2 0x2710 DUP4 DUP2 PUSH2 0x1A3D JUMPI PUSH2 0x1A3C PUSH2 0x2C73 JUMP JUMPDEST JUMPDEST DIV SWAP3 POP PUSH1 0x4 DUP2 ADD SWAP1 POP JUMPDEST PUSH1 0x64 DUP4 LT PUSH2 0x1A6A JUMPI PUSH1 0x64 DUP4 DUP2 PUSH2 0x1A60 JUMPI PUSH2 0x1A5F PUSH2 0x2C73 JUMP JUMPDEST JUMPDEST DIV SWAP3 POP PUSH1 0x2 DUP2 ADD SWAP1 POP JUMPDEST PUSH1 0xA DUP4 LT PUSH2 0x1A79 JUMPI PUSH1 0x1 DUP2 ADD SWAP1 POP JUMPDEST DUP1 SWAP2 POP POP SWAP2 SWAP1 POP JUMP JUMPDEST PUSH2 0x1A8F DUP3 PUSH1 0x3 DUP4 MLOAD PUSH2 0x1C8A JUMP JUMPDEST PUSH2 0x1AA2 DUP2 DUP4 PUSH2 0x1E0F SWAP1 SWAP2 SWAP1 PUSH4 0xFFFFFFFF AND JUMP JUMPDEST POP POP POP JUMP JUMPDEST PUSH32 0xFFFFFFFFFFFFFFFFFFFFFFFFFFFFFFFFFFFFFFFFFFFFFFFF0000000000000000 DUP2 SLT ISZERO PUSH2 0x1ADE JUMPI PUSH2 0x1AD9 DUP3 DUP3 PUSH2 0x1E31 JUMP JUMPDEST PUSH2 0x1B50 JUMP JUMPDEST PUSH8 0xFFFFFFFFFFFFFFFF DUP2 SGT ISZERO PUSH2 0x1AFD JUMPI PUSH2 0x1AF8 DUP3 DUP3 PUSH2 0x1EA8 JUMP JUMPDEST PUSH2 0x1B4F JUMP JUMPDEST PUSH1 0x0 DUP2 SLT PUSH2 0x1B16 JUMPI PUSH2 0x1B11 DUP3 PUSH1 0x0 DUP4 PUSH2 0x1C8A JUMP JUMPDEST PUSH2 0x1B4E JUMP JUMPDEST PUSH2 0x1B4D DUP3 PUSH1 0x1 DUP4 PUSH32 0xFFFFFFFFFFFFFFFFFFFFFFFFFFFFFFFFFFFFFFFFFFFFFFFFFFFFFFFFFFFFFFFF PUSH2 0x1B48 SWAP2 SWAP1 PUSH2 0x32B5 JUMP JUMPDEST PUSH2 0x1C8A JUMP JUMPDEST JUMPDEST JUMPDEST JUMPDEST POP POP JUMP JUMPDEST PUSH1 0x0 DUP1 PUSH1 0x4 SLOAD SWAP1 POP PUSH1 0x1 DUP2 PUSH2 0x1B69 SWAP2 SWAP1 PUSH2 0x2CD3 JUMP JUMPDEST PUSH1 0x4 DUP2 SWAP1 SSTORE POP PUSH1 0x0 PUSH4 0x40429946 PUSH1 0xE0 SHL PUSH1 0x0 DUP1 DUP8 PUSH1 0x0 ADD MLOAD ADDRESS DUP10 PUSH1 0x40 ADD MLOAD DUP8 PUSH1 0x1 DUP13 PUSH1 0x80 ADD MLOAD PUSH1 0x0 ADD MLOAD PUSH1 0x40 MLOAD PUSH1 0x24 ADD PUSH2 0x1BAA SWAP9 SWAP8 SWAP7 SWAP6 SWAP5 SWAP4 SWAP3 SWAP2 SWAP1 PUSH2 0x3399 JUMP JUMPDEST PUSH1 0x40 MLOAD PUSH1 0x20 DUP2 DUP4 SUB SUB DUP2 MSTORE SWAP1 PUSH1 0x40 MSTORE SWAP1 PUSH28 0xFFFFFFFFFFFFFFFFFFFFFFFFFFFFFFFFFFFFFFFFFFFFFFFFFFFFFFFF NOT AND PUSH1 0x20 DUP3 ADD DUP1 MLOAD PUSH28 0xFFFFFFFFFFFFFFFFFFFFFFFFFFFFFFFFFFFFFFFFFFFFFFFFFFFFFFFF DUP4 DUP2 DUP4 AND OR DUP4 MSTORE POP POP POP POP SWAP1 POP PUSH2 0x1C15 DUP7 DUP4 DUP7 DUP5 PUSH2 0x1EF4 JUMP JUMPDEST SWAP3 POP POP POP SWAP4 SWAP3 POP POP POP JUMP JUMPDEST PUSH2 0x1C28 PUSH2 0x2370 JUMP JUMPDEST PUSH1 0x0 PUSH1 0x20 DUP4 PUSH2 0x1C37 SWAP2 SWAP1 PUSH2 0x341E JUMP JUMPDEST EQ PUSH2 0x1C63 JUMPI PUSH1 0x20 DUP3 PUSH2 0x1C49 SWAP2 SWAP1 PUSH2 0x341E JUMP JUMPDEST PUSH1 0x20 PUSH2 0x1C55 SWAP2 SWAP1 PUSH2 0x2E47 JUMP JUMPDEST DUP3 PUSH2 0x1C60 SWAP2 SWAP1 PUSH2 0x2CD3 JUMP JUMPDEST SWAP2 POP JUMPDEST DUP2 DUP4 PUSH1 0x20 ADD DUP2 DUP2 MSTORE POP POP PUSH1 0x40 MLOAD DUP1 DUP5 MSTORE PUSH1 0x0 DUP2 MSTORE DUP3 DUP2 ADD PUSH1 0x20 ADD PUSH1 0x40 MSTORE POP DUP3 SWAP1 POP SWAP3 SWAP2 POP POP JUMP JUMPDEST PUSH1 0x17 DUP2 PUSH8 0xFFFFFFFFFFFFFFFF AND GT PUSH2 0x1CC1 JUMPI PUSH2 0x1CBB DUP2 PUSH1 0x5 DUP5 PUSH1 0xFF AND SWAP1 SHL PUSH1 0xFF AND OR DUP5 PUSH2 0x2089 SWAP1 SWAP2 SWAP1 PUSH4 0xFFFFFFFF AND JUMP JUMPDEST POP PUSH2 0x1E0A JUMP JUMPDEST PUSH1 0xFF DUP2 PUSH8 0xFFFFFFFFFFFFFFFF AND GT PUSH2 0x1D17 JUMPI PUSH2 0x1CF0 PUSH1 0x18 PUSH1 0x5 DUP5 PUSH1 0xFF AND SWAP1 SHL OR DUP5 PUSH2 0x2089 SWAP1 SWAP2 SWAP1 PUSH4 0xFFFFFFFF AND JUMP JUMPDEST POP PUSH2 0x1D11 DUP2 PUSH8 0xFFFFFFFFFFFFFFFF AND PUSH1 0x1 DUP6 PUSH2 0x20A9 SWAP1 SWAP3 SWAP2 SWAP1 PUSH4 0xFFFFFFFF AND JUMP JUMPDEST POP PUSH2 0x1E09 JUMP JUMPDEST PUSH2 0xFFFF DUP2 PUSH8 0xFFFFFFFFFFFFFFFF AND GT PUSH2 0x1D6E JUMPI PUSH2 0x1D47 PUSH1 0x19 PUSH1 0x5 DUP5 PUSH1 0xFF AND SWAP1 SHL OR DUP5 PUSH2 0x2089 SWAP1 SWAP2 SWAP1 PUSH4 0xFFFFFFFF AND JUMP JUMPDEST POP PUSH2 0x1D68 DUP2 PUSH8 0xFFFFFFFFFFFFFFFF AND PUSH1 0x2 DUP6 PUSH2 0x20A9 SWAP1 SWAP3 SWAP2 SWAP1 PUSH4 0xFFFFFFFF AND JUMP JUMPDEST POP PUSH2 0x1E08 JUMP JUMPDEST PUSH4 0xFFFFFFFF DUP2 PUSH8 0xFFFFFFFFFFFFFFFF AND GT PUSH2 0x1DC7 JUMPI PUSH2 0x1DA0 PUSH1 0x1A PUSH1 0x5 DUP5 PUSH1 0xFF AND SWAP1 SHL OR DUP5 PUSH2 0x2089 SWAP1 SWAP2 SWAP1 PUSH4 0xFFFFFFFF AND JUMP JUMPDEST POP PUSH2 0x1DC1 DUP2 PUSH8 0xFFFFFFFFFFFFFFFF AND PUSH1 0x4 DUP6 PUSH2 0x20A9 SWAP1 SWAP3 SWAP2 SWAP1 PUSH4 0xFFFFFFFF AND JUMP JUMPDEST POP PUSH2 0x1E07 JUMP JUMPDEST PUSH2 0x1DE4 PUSH1 0x1B PUSH1 0x5 DUP5 PUSH1 0xFF AND SWAP1 SHL OR DUP5 PUSH2 0x2089 SWAP1 SWAP2 SWAP1 PUSH4 0xFFFFFFFF AND JUMP JUMPDEST POP PUSH2 0x1E05 DUP2 PUSH8 0xFFFFFFFFFFFFFFFF AND PUSH1 0x8 DUP6 PUSH2 0x20A9 SWAP1 SWAP3 SWAP2 SWAP1 PUSH4 0xFFFFFFFF AND JUMP JUMPDEST POP JUMPDEST JUMPDEST JUMPDEST JUMPDEST POP POP POP JUMP JUMPDEST PUSH2 0x1E17 PUSH2 0x2370 JUMP JUMPDEST PUSH2 0x1E29 DUP4 DUP5 PUSH1 0x0 ADD MLOAD MLOAD DUP5 DUP6 MLOAD PUSH2 0x20CB JUMP JUMPDEST SWAP1 POP SWAP3 SWAP2 POP POP JUMP JUMPDEST PUSH2 0x1E4F PUSH1 0x3 PUSH1 0x5 PUSH1 0x6 PUSH1 0xFF AND SWAP1 SHL OR DUP4 PUSH2 0x2089 SWAP1 SWAP2 SWAP1 PUSH4 0xFFFFFFFF AND JUMP JUMPDEST POP PUSH2 0x1EA4 DUP3 DUP3 PUSH32 0xFFFFFFFFFFFFFFFFFFFFFFFFFFFFFFFFFFFFFFFFFFFFFFFFFFFFFFFFFFFFFFFF PUSH2 0x1E80 SWAP2 SWAP1 PUSH2 0x32B5 JUMP JUMPDEST PUSH1 0x40 MLOAD PUSH1 0x20 ADD PUSH2 0x1E90 SWAP2 SWAP1 PUSH2 0x24A6 JUMP JUMPDEST PUSH1 0x40 MLOAD PUSH1 0x20 DUP2 DUP4 SUB SUB DUP2 MSTORE SWAP1 PUSH1 0x40 MSTORE PUSH2 0x21BA JUMP JUMPDEST POP POP JUMP JUMPDEST PUSH2 0x1EC6 PUSH1 0x2 PUSH1 0x5 PUSH1 0x6 PUSH1 0xFF AND SWAP1 SHL OR DUP4 PUSH2 0x2089 SWAP1 SWAP2 SWAP1 PUSH4 0xFFFFFFFF AND JUMP JUMPDEST POP PUSH2 0x1EF0 DUP3 DUP3 PUSH1 0x40 MLOAD PUSH1 0x20 ADD PUSH2 0x1EDC SWAP2 SWAP1 PUSH2 0x24A6 JUMP JUMPDEST PUSH1 0x40 MLOAD PUSH1 0x20 DUP2 DUP4 SUB SUB DUP2 MSTORE SWAP1 PUSH1 0x40 MSTORE PUSH2 0x21BA JUMP JUMPDEST POP POP JUMP JUMPDEST PUSH1 0x0 ADDRESS DUP5 PUSH1 0x40 MLOAD PUSH1 0x20 ADD PUSH2 0x1F09 SWAP3 SWAP2 SWAP1 PUSH2 0x3508 JUMP JUMPDEST PUSH1 0x40 MLOAD PUSH1 0x20 DUP2 DUP4 SUB SUB DUP2 MSTORE SWAP1 PUSH1 0x40 MSTORE DUP1 MLOAD SWAP1 PUSH1 0x20 ADD KECCAK256 SWAP1 POP DUP5 PUSH1 0x5 PUSH1 0x0 DUP4 DUP2 MSTORE PUSH1 0x20 ADD SWAP1 DUP2 MSTORE PUSH1 0x20 ADD PUSH1 0x0 KECCAK256 PUSH1 0x0 PUSH2 0x100 EXP DUP2 SLOAD DUP2 PUSH20 0xFFFFFFFFFFFFFFFFFFFFFFFFFFFFFFFFFFFFFFFF MUL NOT AND SWAP1 DUP4 PUSH20 0xFFFFFFFFFFFFFFFFFFFFFFFFFFFFFFFFFFFFFFFF AND MUL OR SWAP1 SSTORE POP DUP1 PUSH32 0xB5E6E01E79F91267DC17B4E6314D5D4D03593D2CEEE0FBB452B750BD70EA5AF9 PUSH1 0x40 MLOAD PUSH1 0x40 MLOAD DUP1 SWAP2 SUB SWAP1 LOG2 PUSH1 0x2 PUSH1 0x0 SWAP1 SLOAD SWAP1 PUSH2 0x100 EXP SWAP1 DIV PUSH20 0xFFFFFFFFFFFFFFFFFFFFFFFFFFFFFFFFFFFFFFFF AND PUSH20 0xFFFFFFFFFFFFFFFFFFFFFFFFFFFFFFFFFFFFFFFF AND PUSH4 0x4000AEA0 DUP7 DUP6 DUP6 PUSH1 0x40 MLOAD DUP5 PUSH4 0xFFFFFFFF AND PUSH1 0xE0 SHL DUP2 MSTORE PUSH1 0x4 ADD PUSH2 0x1FFF SWAP4 SWAP3 SWAP2 SWAP1 PUSH2 0x3534 JUMP JUMPDEST PUSH1 0x20 PUSH1 0x40 MLOAD DUP1 DUP4 SUB DUP2 PUSH1 0x0 DUP8 GAS CALL ISZERO DUP1 ISZERO PUSH2 0x201E JUMPI RETURNDATASIZE PUSH1 0x0 DUP1 RETURNDATACOPY RETURNDATASIZE PUSH1 0x0 REVERT JUMPDEST POP POP POP POP PUSH1 0x40 MLOAD RETURNDATASIZE PUSH1 0x1F NOT PUSH1 0x1F DUP3 ADD AND DUP3 ADD DUP1 PUSH1 0x40 MSTORE POP DUP2 ADD SWAP1 PUSH2 0x2042 SWAP2 SWAP1 PUSH2 0x2FDB JUMP JUMPDEST PUSH2 0x2081 JUMPI PUSH1 0x40 MLOAD PUSH32 0x8C379A000000000000000000000000000000000000000000000000000000000 DUP2 MSTORE PUSH1 0x4 ADD PUSH2 0x2078 SWAP1 PUSH2 0x35E4 JUMP JUMPDEST PUSH1 0x40 MLOAD DUP1 SWAP2 SUB SWAP1 REVERT JUMPDEST SWAP5 SWAP4 POP POP POP POP JUMP JUMPDEST PUSH2 0x2091 PUSH2 0x2370 JUMP JUMPDEST PUSH2 0x20A1 DUP4 DUP5 PUSH1 0x0 ADD MLOAD MLOAD DUP5 PUSH2 0x21DF JUMP JUMPDEST SWAP1 POP SWAP3 SWAP2 POP POP JUMP JUMPDEST PUSH2 0x20B1 PUSH2 0x2370 JUMP JUMPDEST PUSH2 0x20C2 DUP5 DUP6 PUSH1 0x0 ADD MLOAD MLOAD DUP6 DUP6 PUSH2 0x2235 JUMP JUMPDEST SWAP1 POP SWAP4 SWAP3 POP POP POP JUMP JUMPDEST PUSH2 0x20D3 PUSH2 0x2370 JUMP JUMPDEST DUP3 MLOAD DUP3 GT ISZERO PUSH2 0x20E1 JUMPI PUSH1 0x0 DUP1 REVERT JUMPDEST DUP5 PUSH1 0x20 ADD MLOAD DUP3 DUP6 PUSH2 0x20F2 SWAP2 SWAP1 PUSH2 0x2CD3 JUMP JUMPDEST GT ISZERO PUSH2 0x2127 JUMPI PUSH2 0x2126 DUP6 PUSH1 0x2 PUSH2 0x2117 DUP9 PUSH1 0x20 ADD MLOAD DUP9 DUP8 PUSH2 0x2112 SWAP2 SWAP1 PUSH2 0x2CD3 JUMP JUMPDEST PUSH2 0x22C3 JUMP JUMPDEST PUSH2 0x2121 SWAP2 SWAP1 PUSH2 0x2C31 JUMP JUMPDEST PUSH2 0x22DF JUMP JUMPDEST JUMPDEST PUSH1 0x0 DUP1 DUP7 MLOAD DUP1 MLOAD DUP8 PUSH1 0x20 DUP4 ADD ADD SWAP4 POP DUP1 DUP9 DUP8 ADD GT ISZERO PUSH2 0x2146 JUMPI DUP8 DUP7 ADD DUP3 MSTORE JUMPDEST PUSH1 0x20 DUP8 ADD SWAP3 POP POP POP JUMPDEST PUSH1 0x20 DUP5 LT PUSH2 0x218D JUMPI DUP1 MLOAD DUP3 MSTORE PUSH1 0x20 DUP3 PUSH2 0x2168 SWAP2 SWAP1 PUSH2 0x2CD3 JUMP JUMPDEST SWAP2 POP PUSH1 0x20 DUP2 PUSH2 0x2177 SWAP2 SWAP1 PUSH2 0x2CD3 JUMP JUMPDEST SWAP1 POP PUSH1 0x20 DUP5 PUSH2 0x2186 SWAP2 SWAP1 PUSH2 0x2E47 JUMP JUMPDEST SWAP4 POP PUSH2 0x214F JUMP JUMPDEST PUSH1 0x0 PUSH1 0x1 DUP6 PUSH1 0x20 SUB PUSH2 0x100 EXP SUB SWAP1 POP DUP1 NOT DUP3 MLOAD AND DUP2 DUP5 MLOAD AND DUP2 DUP2 OR DUP6 MSTORE POP POP POP DUP7 SWAP3 POP POP POP SWAP5 SWAP4 POP POP POP POP JUMP JUMPDEST PUSH2 0x21C7 DUP3 PUSH1 0x2 DUP4 MLOAD PUSH2 0x1C8A JUMP JUMPDEST PUSH2 0x21DA DUP2 DUP4 PUSH2 0x1E0F SWAP1 SWAP2 SWAP1 PUSH4 0xFFFFFFFF AND JUMP JUMPDEST POP POP POP JUMP JUMPDEST PUSH2 0x21E7 PUSH2 0x2370 JUMP JUMPDEST DUP4 PUSH1 0x20 ADD MLOAD DUP4 LT PUSH2 0x220D JUMPI PUSH2 0x220C DUP5 PUSH1 0x2 DUP7 PUSH1 0x20 ADD MLOAD PUSH2 0x2207 SWAP2 SWAP1 PUSH2 0x2C31 JUMP JUMPDEST PUSH2 0x22DF JUMP JUMPDEST JUMPDEST DUP4 MLOAD DUP1 MLOAD PUSH1 0x20 DUP6 DUP4 ADD ADD DUP5 DUP2 MSTORE8 DUP2 DUP7 SUB PUSH2 0x2228 JUMPI PUSH1 0x1 DUP3 ADD DUP4 MSTORE JUMPDEST POP POP POP DUP4 SWAP1 POP SWAP4 SWAP3 POP POP POP JUMP JUMPDEST PUSH2 0x223D PUSH2 0x2370 JUMP JUMPDEST DUP5 PUSH1 0x20 ADD MLOAD DUP5 DUP4 PUSH2 0x224E SWAP2 SWAP1 PUSH2 0x2CD3 JUMP JUMPDEST GT ISZERO PUSH2 0x2276 JUMPI PUSH2 0x2275 DUP6 PUSH1 0x2 DUP7 DUP6 PUSH2 0x2266 SWAP2 SWAP1 PUSH2 0x2CD3 JUMP JUMPDEST PUSH2 0x2270 SWAP2 SWAP1 PUSH2 0x2C31 JUMP JUMPDEST PUSH2 0x22DF JUMP JUMPDEST JUMPDEST PUSH1 0x0 PUSH1 0x1 DUP4 PUSH2 0x100 PUSH2 0x2288 SWAP2 SWAP1 PUSH2 0x3737 JUMP JUMPDEST PUSH2 0x2292 SWAP2 SWAP1 PUSH2 0x2E47 JUMP JUMPDEST SWAP1 POP DUP6 MLOAD DUP4 DUP7 DUP3 ADD ADD DUP6 DUP4 NOT DUP3 MLOAD AND OR DUP2 MSTORE DUP2 MLOAD DUP6 DUP9 ADD GT ISZERO PUSH2 0x22B5 JUMPI DUP5 DUP8 ADD DUP3 MSTORE JUMPDEST POP POP DUP6 SWAP2 POP POP SWAP5 SWAP4 POP POP POP POP JUMP JUMPDEST PUSH1 0x0 DUP2 DUP4 GT ISZERO PUSH2 0x22D5 JUMPI DUP3 SWAP1 POP PUSH2 0x22D9 JUMP JUMPDEST DUP2 SWAP1 POP JUMPDEST SWAP3 SWAP2 POP POP JUMP JUMPDEST PUSH1 0x0 DUP3 PUSH1 0x0 ADD MLOAD SWAP1 POP PUSH2 0x22F2 DUP4 DUP4 PUSH2 0x1C20 JUMP JUMPDEST POP PUSH2 0x22FD DUP4 DUP3 PUSH2 0x1E0F JUMP JUMPDEST POP POP POP POP JUMP JUMPDEST PUSH1 0x40 MLOAD DUP1 PUSH1 0xA0 ADD PUSH1 0x40 MSTORE DUP1 PUSH1 0x0 DUP1 NOT AND DUP2 MSTORE PUSH1 0x20 ADD PUSH1 0x0 PUSH20 0xFFFFFFFFFFFFFFFFFFFFFFFFFFFFFFFFFFFFFFFF AND DUP2 MSTORE PUSH1 0x20 ADD PUSH1 0x0 PUSH28 0xFFFFFFFFFFFFFFFFFFFFFFFFFFFFFFFFFFFFFFFFFFFFFFFFFFFFFFFF NOT AND DUP2 MSTORE PUSH1 0x20 ADD PUSH1 0x0 DUP2 MSTORE PUSH1 0x20 ADD PUSH2 0x236A PUSH2 0x2370 JUMP JUMPDEST DUP2 MSTORE POP SWAP1 JUMP JUMPDEST PUSH1 0x40 MLOAD DUP1 PUSH1 0x40 ADD PUSH1 0x40 MSTORE DUP1 PUSH1 0x60 DUP2 MSTORE PUSH1 0x20 ADD PUSH1 0x0 DUP2 MSTORE POP SWAP1 JUMP JUMPDEST PUSH1 0x0 DUP1 REVERT JUMPDEST PUSH1 0x0 PUSH20 0xFFFFFFFFFFFFFFFFFFFFFFFFFFFFFFFFFFFFFFFF DUP3 AND SWAP1 POP SWAP2 SWAP1 POP JUMP JUMPDEST PUSH1 0x0 PUSH2 0x23BA DUP3 PUSH2 0x238F JUMP JUMPDEST SWAP1 POP SWAP2 SWAP1 POP JUMP JUMPDEST PUSH2 0x23CA DUP2 PUSH2 0x23AF JUMP JUMPDEST DUP2 EQ PUSH2 0x23D5 JUMPI PUSH1 0x0 DUP1 REVERT JUMPDEST POP JUMP JUMPDEST PUSH1 0x0 DUP2 CALLDATALOAD SWAP1 POP PUSH2 0x23E7 DUP2 PUSH2 0x23C1 JUMP JUMPDEST SWAP3 SWAP2 POP POP JUMP JUMPDEST PUSH1 0x0 DUP2 SWAP1 POP SWAP2 SWAP1 POP JUMP JUMPDEST PUSH2 0x2400 DUP2 PUSH2 0x23ED JUMP JUMPDEST DUP2 EQ PUSH2 0x240B JUMPI PUSH1 0x0 DUP1 REVERT JUMPDEST POP JUMP JUMPDEST PUSH1 0x0 DUP2 CALLDATALOAD SWAP1 POP PUSH2 0x241D DUP2 PUSH2 0x23F7 JUMP JUMPDEST SWAP3 SWAP2 POP POP JUMP JUMPDEST PUSH1 0x0 DUP1 PUSH1 0x40 DUP4 DUP6 SUB SLT ISZERO PUSH2 0x243A JUMPI PUSH2 0x2439 PUSH2 0x238A JUMP JUMPDEST JUMPDEST PUSH1 0x0 PUSH2 0x2448 DUP6 DUP3 DUP7 ADD PUSH2 0x23D8 JUMP JUMPDEST SWAP3 POP POP PUSH1 0x20 PUSH2 0x2459 DUP6 DUP3 DUP7 ADD PUSH2 0x240E JUMP JUMPDEST SWAP2 POP POP SWAP3 POP SWAP3 SWAP1 POP JUMP JUMPDEST PUSH1 0x0 DUP2 SWAP1 POP SWAP2 SWAP1 POP JUMP JUMPDEST PUSH2 0x2476 DUP2 PUSH2 0x2463 JUMP JUMPDEST DUP3 MSTORE POP POP JUMP JUMPDEST PUSH1 0x0 PUSH1 0x20 DUP3 ADD SWAP1 POP PUSH2 0x2491 PUSH1 0x0 DUP4 ADD DUP5 PUSH2 0x246D JUMP JUMPDEST SWAP3 SWAP2 POP POP JUMP JUMPDEST PUSH2 0x24A0 DUP2 PUSH2 0x23ED JUMP JUMPDEST DUP3 MSTORE POP POP JUMP JUMPDEST PUSH1 0x0 PUSH1 0x20 DUP3 ADD SWAP1 POP PUSH2 0x24BB PUSH1 0x0 DUP4 ADD DUP5 PUSH2 0x2497 JUMP JUMPDEST SWAP3 SWAP2 POP POP JUMP JUMPDEST PUSH2 0x24CA DUP2 PUSH2 0x2463 JUMP JUMPDEST DUP2 EQ PUSH2 0x24D5 JUMPI PUSH1 0x0 DUP1 REVERT JUMPDEST POP JUMP JUMPDEST PUSH1 0x0 DUP2 CALLDATALOAD SWAP1 POP PUSH2 0x24E7 DUP2 PUSH2 0x24C1 JUMP JUMPDEST SWAP3 SWAP2 POP POP JUMP JUMPDEST PUSH1 0x0 DUP1 PUSH1 0x40 DUP4 DUP6 SUB SLT ISZERO PUSH2 0x2504 JUMPI PUSH2 0x2503 PUSH2 0x238A JUMP JUMPDEST JUMPDEST PUSH1 0x0 PUSH2 0x2512 DUP6 DUP3 DUP7 ADD PUSH2 0x24D8 JUMP JUMPDEST SWAP3 POP POP PUSH1 0x20 PUSH2 0x2523 DUP6 DUP3 DUP7 ADD PUSH2 0x240E JUMP JUMPDEST SWAP2 POP POP SWAP3 POP SWAP3 SWAP1 POP JUMP JUMPDEST PUSH1 0x0 DUP1 PUSH1 0x0 PUSH1 0x60 DUP5 DUP7 SUB SLT ISZERO PUSH2 0x2546 JUMPI PUSH2 0x2545 PUSH2 0x238A JUMP JUMPDEST JUMPDEST PUSH1 0x0 PUSH2 0x2554 DUP7 DUP3 DUP8 ADD PUSH2 0x23D8 JUMP JUMPDEST SWAP4 POP POP PUSH1 0x20 PUSH2 0x2565 DUP7 DUP3 DUP8 ADD PUSH2 0x23D8 JUMP JUMPDEST SWAP3 POP POP PUSH1 0x40 PUSH2 0x2576 DUP7 DUP3 DUP8 ADD PUSH2 0x240E JUMP JUMPDEST SWAP2 POP POP SWAP3 POP SWAP3 POP SWAP3 JUMP JUMPDEST PUSH1 0x0 DUP2 ISZERO ISZERO SWAP1 POP SWAP2 SWAP1 POP JUMP JUMPDEST PUSH2 0x2595 DUP2 PUSH2 0x2580 JUMP JUMPDEST DUP3 MSTORE POP POP JUMP JUMPDEST PUSH1 0x0 PUSH1 0x20 DUP3 ADD SWAP1 POP PUSH2 0x25B0 PUSH1 0x0 DUP4 ADD DUP5 PUSH2 0x258C JUMP JUMPDEST SWAP3 SWAP2 POP POP JUMP JUMPDEST PUSH1 0x0 PUSH1 0x20 DUP3 DUP5 SUB SLT ISZERO PUSH2 0x25CC JUMPI PUSH2 0x25CB PUSH2 0x238A JUMP JUMPDEST JUMPDEST PUSH1 0x0 PUSH2 0x25DA DUP5 DUP3 DUP6 ADD PUSH2 0x240E JUMP JUMPDEST SWAP2 POP POP SWAP3 SWAP2 POP POP JUMP JUMPDEST PUSH2 0x25EC DUP2 PUSH2 0x23AF JUMP JUMPDEST DUP3 MSTORE POP POP JUMP JUMPDEST PUSH1 0x0 PUSH1 0x20 DUP3 ADD SWAP1 POP PUSH2 0x2607 PUSH1 0x0 DUP4 ADD DUP5 PUSH2 0x25E3 JUMP JUMPDEST SWAP3 SWAP2 POP POP JUMP JUMPDEST PUSH1 0x0 PUSH1 0x20 DUP3 DUP5 SUB SLT ISZERO PUSH2 0x2623 JUMPI PUSH2 0x2622 PUSH2 0x238A JUMP JUMPDEST JUMPDEST PUSH1 0x0 PUSH2 0x2631 DUP5 DUP3 DUP6 ADD PUSH2 0x23D8 JUMP JUMPDEST SWAP2 POP POP SWAP3 SWAP2 POP POP JUMP JUMPDEST PUSH32 0x4E487B7100000000000000000000000000000000000000000000000000000000 PUSH1 0x0 MSTORE PUSH1 0x22 PUSH1 0x4 MSTORE PUSH1 0x24 PUSH1 0x0 REVERT JUMPDEST PUSH1 0x0 PUSH1 0x2 DUP3 DIV SWAP1 POP PUSH1 0x1 DUP3 AND DUP1 PUSH2 0x2681 JUMPI PUSH1 0x7F DUP3 AND SWAP2 POP JUMPDEST PUSH1 0x20 DUP3 LT DUP2 SUB PUSH2 0x2694 JUMPI PUSH2 0x2693 PUSH2 0x263A JUMP JUMPDEST JUMPDEST POP SWAP2 SWAP1 POP JUMP JUMPDEST PUSH1 0x0 DUP2 SWAP1 POP SWAP3 SWAP2 POP POP JUMP JUMPDEST PUSH1 0x0 DUP2 SWAP1 POP DUP2 PUSH1 0x0 MSTORE PUSH1 0x20 PUSH1 0x0 KECCAK256 SWAP1 POP SWAP2 SWAP1 POP JUMP JUMPDEST PUSH1 0x0 DUP2 SLOAD PUSH2 0x26C7 DUP2 PUSH2 0x2669 JUMP JUMPDEST PUSH2 0x26D1 DUP2 DUP7 PUSH2 0x269A JUMP JUMPDEST SWAP5 POP PUSH1 0x1 DUP3 AND PUSH1 0x0 DUP2 EQ PUSH2 0x26EC JUMPI PUSH1 0x1 DUP2 EQ PUSH2 0x2701 JUMPI PUSH2 0x2734 JUMP JUMPDEST PUSH1 0xFF NOT DUP4 AND DUP7 MSTORE DUP2 ISZERO ISZERO DUP3 MUL DUP7 ADD SWAP4 POP PUSH2 0x2734 JUMP JUMPDEST PUSH2 0x270A DUP6 PUSH2 0x26A5 JUMP JUMPDEST PUSH1 0x0 JUMPDEST DUP4 DUP2 LT ISZERO PUSH2 0x272C JUMPI DUP2 SLOAD DUP2 DUP10 ADD MSTORE PUSH1 0x1 DUP3 ADD SWAP2 POP PUSH1 0x20 DUP2 ADD SWAP1 POP PUSH2 0x270D JUMP JUMPDEST DUP4 DUP9 ADD SWAP6 POP POP POP JUMPDEST POP POP POP SWAP3 SWAP2 POP POP JUMP JUMPDEST PUSH32 0x3F616464726573733D0000000000000000000000000000000000000000000000 PUSH1 0x0 DUP3 ADD MSTORE POP JUMP JUMPDEST PUSH1 0x0 PUSH2 0x2773 PUSH1 0x9 DUP4 PUSH2 0x269A JUMP JUMPDEST SWAP2 POP PUSH2 0x277E DUP3 PUSH2 0x273D JUMP JUMPDEST PUSH1 0x9 DUP3 ADD SWAP1 POP SWAP2 SWAP1 POP JUMP JUMPDEST PUSH1 0x0 DUP2 MLOAD SWAP1 POP SWAP2 SWAP1 POP JUMP JUMPDEST PUSH1 0x0 JUMPDEST DUP4 DUP2 LT ISZERO PUSH2 0x27B2 JUMPI DUP1 DUP3 ADD MLOAD DUP2 DUP5 ADD MSTORE PUSH1 0x20 DUP2 ADD SWAP1 POP PUSH2 0x2797 JUMP JUMPDEST PUSH1 0x0 DUP5 DUP5 ADD MSTORE POP POP POP POP JUMP JUMPDEST PUSH1 0x0 PUSH2 0x27C9 DUP3 PUSH2 0x2789 JUMP JUMPDEST PUSH2 0x27D3 DUP2 DUP6 PUSH2 0x269A JUMP JUMPDEST SWAP4 POP PUSH2 0x27E3 DUP2 DUP6 PUSH1 0x20 DUP7 ADD PUSH2 0x2794 JUMP JUMPDEST DUP1 DUP5 ADD SWAP2 POP POP SWAP3 SWAP2 POP POP JUMP JUMPDEST PUSH32 0x26746F6B656E49643D0000000000000000000000000000000000000000000000 PUSH1 0x0 DUP3 ADD MSTORE POP JUMP JUMPDEST PUSH1 0x0 PUSH2 0x2825 PUSH1 0x9 DUP4 PUSH2 0x269A JUMP JUMPDEST SWAP2 POP PUSH2 0x2830 DUP3 PUSH2 0x27EF JUMP JUMPDEST PUSH1 0x9 DUP3 ADD SWAP1 POP SWAP2 SWAP1 POP JUMP JUMPDEST PUSH1 0x0 PUSH2 0x2847 DUP3 DUP7 PUSH2 0x26BA JUMP JUMPDEST SWAP2 POP PUSH2 0x2852 DUP3 PUSH2 0x2766 JUMP JUMPDEST SWAP2 POP PUSH2 0x285E DUP3 DUP6 PUSH2 0x27BE JUMP JUMPDEST SWAP2 POP PUSH2 0x2869 DUP3 PUSH2 0x2818 JUMP JUMPDEST SWAP2 POP PUSH2 0x2875 DUP3 DUP5 PUSH2 0x27BE JUMP JUMPDEST SWAP2 POP DUP2 SWAP1 POP SWAP5 SWAP4 POP POP POP POP JUMP JUMPDEST PUSH1 0x0 DUP3 DUP3 MSTORE PUSH1 0x20 DUP3 ADD SWAP1 POP SWAP3 SWAP2 POP POP JUMP JUMPDEST PUSH32 0x4E6F20726967687420746F206163636573732100000000000000000000000000 PUSH1 0x0 DUP3 ADD MSTORE POP JUMP JUMPDEST PUSH1 0x0 PUSH2 0x28C9 PUSH1 0x13 DUP4 PUSH2 0x2882 JUMP JUMPDEST SWAP2 POP PUSH2 0x28D4 DUP3 PUSH2 0x2893 JUMP JUMPDEST PUSH1 0x20 DUP3 ADD SWAP1 POP SWAP2 SWAP1 POP JUMP JUMPDEST PUSH1 0x0 PUSH1 0x20 DUP3 ADD SWAP1 POP DUP2 DUP2 SUB PUSH1 0x0 DUP4 ADD MSTORE PUSH2 0x28F8 DUP2 PUSH2 0x28BC JUMP JUMPDEST SWAP1 POP SWAP2 SWAP1 POP JUMP JUMPDEST PUSH32 0x4E6F2072652D656E7472616E6379210000000000000000000000000000000000 PUSH1 0x0 DUP3 ADD MSTORE POP JUMP JUMPDEST PUSH1 0x0 PUSH2 0x2935 PUSH1 0xF DUP4 PUSH2 0x2882 JUMP JUMPDEST SWAP2 POP PUSH2 0x2940 DUP3 PUSH2 0x28FF JUMP JUMPDEST PUSH1 0x20 DUP3 ADD SWAP1 POP SWAP2 SWAP1 POP JUMP JUMPDEST PUSH1 0x0 PUSH1 0x20 DUP3 ADD SWAP1 POP DUP2 DUP2 SUB PUSH1 0x0 DUP4 ADD MSTORE PUSH2 0x2964 DUP2 PUSH2 0x2928 JUMP JUMPDEST SWAP1 POP SWAP2 SWAP1 POP JUMP JUMPDEST PUSH32 0x4E487B7100000000000000000000000000000000000000000000000000000000 PUSH1 0x0 MSTORE PUSH1 0x1 PUSH1 0x4 MSTORE PUSH1 0x24 PUSH1 0x0 REVERT JUMPDEST PUSH1 0x0 DUP2 SWAP1 POP SWAP3 SWAP2 POP POP JUMP JUMPDEST POP JUMP JUMPDEST PUSH1 0x0 PUSH2 0x29B5 PUSH1 0x0 DUP4 PUSH2 0x299A JUMP JUMPDEST SWAP2 POP PUSH2 0x29C0 DUP3 PUSH2 0x29A5 JUMP JUMPDEST PUSH1 0x0 DUP3 ADD SWAP1 POP SWAP2 SWAP1 POP JUMP JUMPDEST PUSH1 0x0 PUSH2 0x29D6 DUP3 PUSH2 0x29A8 JUMP JUMPDEST SWAP2 POP DUP2 SWAP1 POP SWAP2 SWAP1 POP JUMP JUMPDEST PUSH32 0x4661696C656420746F2073656E642073657276696365206665657320746F206F PUSH1 0x0 DUP3 ADD MSTORE PUSH32 0x776E657221000000000000000000000000000000000000000000000000000000 PUSH1 0x20 DUP3 ADD MSTORE POP JUMP JUMPDEST PUSH1 0x0 PUSH2 0x2A3C PUSH1 0x25 DUP4 PUSH2 0x2882 JUMP JUMPDEST SWAP2 POP PUSH2 0x2A47 DUP3 PUSH2 0x29E0 JUMP JUMPDEST PUSH1 0x40 DUP3 ADD SWAP1 POP SWAP2 SWAP1 POP JUMP JUMPDEST PUSH1 0x0 PUSH1 0x20 DUP3 ADD SWAP1 POP DUP2 DUP2 SUB PUSH1 0x0 DUP4 ADD MSTORE PUSH2 0x2A6B DUP2 PUSH2 0x2A2F JUMP JUMPDEST SWAP1 POP SWAP2 SWAP1 POP JUMP JUMPDEST PUSH32 0x536F75726365206D75737420626520746865206F7261636C65206F6620746865 PUSH1 0x0 DUP3 ADD MSTORE PUSH32 0x2072657175657374000000000000000000000000000000000000000000000000 PUSH1 0x20 DUP3 ADD MSTORE POP JUMP JUMPDEST PUSH1 0x0 PUSH2 0x2ACE PUSH1 0x28 DUP4 PUSH2 0x2882 JUMP JUMPDEST SWAP2 POP PUSH2 0x2AD9 DUP3 PUSH2 0x2A72 JUMP JUMPDEST PUSH1 0x40 DUP3 ADD SWAP1 POP SWAP2 SWAP1 POP JUMP JUMPDEST PUSH1 0x0 PUSH1 0x20 DUP3 ADD SWAP1 POP DUP2 DUP2 SUB PUSH1 0x0 DUP4 ADD MSTORE PUSH2 0x2AFD DUP2 PUSH2 0x2AC1 JUMP JUMPDEST SWAP1 POP SWAP2 SWAP1 POP JUMP JUMPDEST PUSH32 0x546F6B656E202620726563697069656E742061646472657373657320636F6E6E PUSH1 0x0 DUP3 ADD MSTORE PUSH32 0x6F74206265205A65726F21000000000000000000000000000000000000000000 PUSH1 0x20 DUP3 ADD MSTORE POP JUMP JUMPDEST PUSH1 0x0 PUSH2 0x2B60 PUSH1 0x2B DUP4 PUSH2 0x2882 JUMP JUMPDEST SWAP2 POP PUSH2 0x2B6B DUP3 PUSH2 0x2B04 JUMP JUMPDEST PUSH1 0x40 DUP3 ADD SWAP1 POP SWAP2 SWAP1 POP JUMP JUMPDEST PUSH1 0x0 PUSH1 0x20 DUP3 ADD SWAP1 POP DUP2 DUP2 SUB PUSH1 0x0 DUP4 ADD MSTORE PUSH2 0x2B8F DUP2 PUSH2 0x2B53 JUMP JUMPDEST SWAP1 POP SWAP2 SWAP1 POP JUMP JUMPDEST PUSH32 0x496E76616C696420746F6B656E204944206F7220636F6C6C656374696F6E0000 PUSH1 0x0 DUP3 ADD MSTORE POP JUMP JUMPDEST PUSH1 0x0 PUSH2 0x2BCC PUSH1 0x1E DUP4 PUSH2 0x2882 JUMP JUMPDEST SWAP2 POP PUSH2 0x2BD7 DUP3 PUSH2 0x2B96 JUMP JUMPDEST PUSH1 0x20 DUP3 ADD SWAP1 POP SWAP2 SWAP1 POP JUMP JUMPDEST PUSH1 0x0 PUSH1 0x20 DUP3 ADD SWAP1 POP DUP2 DUP2 SUB PUSH1 0x0 DUP4 ADD MSTORE PUSH2 0x2BFB DUP2 PUSH2 0x2BBF JUMP JUMPDEST SWAP1 POP SWAP2 SWAP1 POP JUMP JUMPDEST PUSH32 0x4E487B7100000000000000000000000000000000000000000000000000000000 PUSH1 0x0 MSTORE PUSH1 0x11 PUSH1 0x4 MSTORE PUSH1 0x24 PUSH1 0x0 REVERT JUMPDEST PUSH1 0x0 PUSH2 0x2C3C DUP3 PUSH2 0x23ED JUMP JUMPDEST SWAP2 POP PUSH2 0x2C47 DUP4 PUSH2 0x23ED JUMP JUMPDEST SWAP3 POP DUP3 DUP3 MUL PUSH2 0x2C55 DUP2 PUSH2 0x23ED JUMP JUMPDEST SWAP2 POP DUP3 DUP3 DIV DUP5 EQ DUP4 ISZERO OR PUSH2 0x2C6C JUMPI PUSH2 0x2C6B PUSH2 0x2C02 JUMP JUMPDEST JUMPDEST POP SWAP3 SWAP2 POP POP JUMP JUMPDEST PUSH32 0x4E487B7100000000000000000000000000000000000000000000000000000000 PUSH1 0x0 MSTORE PUSH1 0x12 PUSH1 0x4 MSTORE PUSH1 0x24 PUSH1 0x0 REVERT JUMPDEST PUSH1 0x0 PUSH2 0x2CAD DUP3 PUSH2 0x23ED JUMP JUMPDEST SWAP2 POP PUSH2 0x2CB8 DUP4 PUSH2 0x23ED JUMP JUMPDEST SWAP3 POP DUP3 PUSH2 0x2CC8 JUMPI PUSH2 0x2CC7 PUSH2 0x2C73 JUMP JUMPDEST JUMPDEST DUP3 DUP3 DIV SWAP1 POP SWAP3 SWAP2 POP POP JUMP JUMPDEST PUSH1 0x0 PUSH2 0x2CDE DUP3 PUSH2 0x23ED JUMP JUMPDEST SWAP2 POP PUSH2 0x2CE9 DUP4 PUSH2 0x23ED JUMP JUMPDEST SWAP3 POP DUP3 DUP3 ADD SWAP1 POP DUP1 DUP3 GT ISZERO PUSH2 0x2D01 JUMPI PUSH2 0x2D00 PUSH2 0x2C02 JUMP JUMPDEST JUMPDEST SWAP3 SWAP2 POP POP JUMP JUMPDEST PUSH32 0x496E73756666696369656E742065746865722070726F76696465642100000000 PUSH1 0x0 DUP3 ADD MSTORE POP JUMP JUMPDEST PUSH1 0x0 PUSH2 0x2D3D PUSH1 0x1C DUP4 PUSH2 0x2882 JUMP JUMPDEST SWAP2 POP PUSH2 0x2D48 DUP3 PUSH2 0x2D07 JUMP JUMPDEST PUSH1 0x20 DUP3 ADD SWAP1 POP SWAP2 SWAP1 POP JUMP JUMPDEST PUSH1 0x0 PUSH1 0x20 DUP3 ADD SWAP1 POP DUP2 DUP2 SUB PUSH1 0x0 DUP4 ADD MSTORE PUSH2 0x2D6C DUP2 PUSH2 0x2D30 JUMP JUMPDEST SWAP1 POP SWAP2 SWAP1 POP JUMP JUMPDEST PUSH1 0x0 DUP2 MLOAD SWAP1 POP PUSH2 0x2D82 DUP2 PUSH2 0x23C1 JUMP JUMPDEST SWAP3 SWAP2 POP POP JUMP JUMPDEST PUSH1 0x0 PUSH1 0x20 DUP3 DUP5 SUB SLT ISZERO PUSH2 0x2D9E JUMPI PUSH2 0x2D9D PUSH2 0x238A JUMP JUMPDEST JUMPDEST PUSH1 0x0 PUSH2 0x2DAC DUP5 DUP3 DUP6 ADD PUSH2 0x2D73 JUMP JUMPDEST SWAP2 POP POP SWAP3 SWAP2 POP POP JUMP JUMPDEST PUSH32 0x4661696C656420746F2073656E64204E46542070726963652045746865722074 PUSH1 0x0 DUP3 ADD MSTORE PUSH32 0x6F206F776E657221000000000000000000000000000000000000000000000000 PUSH1 0x20 DUP3 ADD MSTORE POP JUMP JUMPDEST PUSH1 0x0 PUSH2 0x2E11 PUSH1 0x28 DUP4 PUSH2 0x2882 JUMP JUMPDEST SWAP2 POP PUSH2 0x2E1C DUP3 PUSH2 0x2DB5 JUMP JUMPDEST PUSH1 0x40 DUP3 ADD SWAP1 POP SWAP2 SWAP1 POP JUMP JUMPDEST PUSH1 0x0 PUSH1 0x20 DUP3 ADD SWAP1 POP DUP2 DUP2 SUB PUSH1 0x0 DUP4 ADD MSTORE PUSH2 0x2E40 DUP2 PUSH2 0x2E04 JUMP JUMPDEST SWAP1 POP SWAP2 SWAP1 POP JUMP JUMPDEST PUSH1 0x0 PUSH2 0x2E52 DUP3 PUSH2 0x23ED JUMP JUMPDEST SWAP2 POP PUSH2 0x2E5D DUP4 PUSH2 0x23ED JUMP JUMPDEST SWAP3 POP DUP3 DUP3 SUB SWAP1 POP DUP2 DUP2 GT ISZERO PUSH2 0x2E75 JUMPI PUSH2 0x2E74 PUSH2 0x2C02 JUMP JUMPDEST JUMPDEST SWAP3 SWAP2 POP POP JUMP JUMPDEST PUSH32 0x4661696C656420746F2073656E642065786365737320457468657220746F2072 PUSH1 0x0 DUP3 ADD MSTORE PUSH32 0x65636970656E7421000000000000000000000000000000000000000000000000 PUSH1 0x20 DUP3 ADD MSTORE POP JUMP JUMPDEST PUSH1 0x0 PUSH2 0x2ED7 PUSH1 0x28 DUP4 PUSH2 0x2882 JUMP JUMPDEST SWAP2 POP PUSH2 0x2EE2 DUP3 PUSH2 0x2E7B JUMP JUMPDEST PUSH1 0x40 DUP3 ADD SWAP1 POP SWAP2 SWAP1 POP JUMP JUMPDEST PUSH1 0x0 PUSH1 0x20 DUP3 ADD SWAP1 POP DUP2 DUP2 SUB PUSH1 0x0 DUP4 ADD MSTORE PUSH2 0x2F06 DUP2 PUSH2 0x2ECA JUMP JUMPDEST SWAP1 POP SWAP2 SWAP1 POP JUMP JUMPDEST PUSH1 0x0 PUSH1 0x60 DUP3 ADD SWAP1 POP PUSH2 0x2F22 PUSH1 0x0 DUP4 ADD DUP7 PUSH2 0x25E3 JUMP JUMPDEST PUSH2 0x2F2F PUSH1 0x20 DUP4 ADD DUP6 PUSH2 0x25E3 JUMP JUMPDEST PUSH2 0x2F3C PUSH1 0x40 DUP4 ADD DUP5 PUSH2 0x2497 JUMP JUMPDEST SWAP5 SWAP4 POP POP POP POP JUMP JUMPDEST PUSH1 0x0 DUP2 MLOAD SWAP1 POP PUSH2 0x2F53 DUP2 PUSH2 0x23F7 JUMP JUMPDEST SWAP3 SWAP2 POP POP JUMP JUMPDEST PUSH1 0x0 PUSH1 0x20 DUP3 DUP5 SUB SLT ISZERO PUSH2 0x2F6F JUMPI PUSH2 0x2F6E PUSH2 0x238A JUMP JUMPDEST JUMPDEST PUSH1 0x0 PUSH2 0x2F7D DUP5 DUP3 DUP6 ADD PUSH2 0x2F44 JUMP JUMPDEST SWAP2 POP POP SWAP3 SWAP2 POP POP JUMP JUMPDEST PUSH1 0x0 PUSH1 0x40 DUP3 ADD SWAP1 POP PUSH2 0x2F9B PUSH1 0x0 DUP4 ADD DUP6 PUSH2 0x25E3 JUMP JUMPDEST PUSH2 0x2FA8 PUSH1 0x20 DUP4 ADD DUP5 PUSH2 0x2497 JUMP JUMPDEST SWAP4 SWAP3 POP POP POP JUMP JUMPDEST PUSH2 0x2FB8 DUP2 PUSH2 0x2580 JUMP JUMPDEST DUP2 EQ PUSH2 0x2FC3 JUMPI PUSH1 0x0 DUP1 REVERT JUMPDEST POP JUMP JUMPDEST PUSH1 0x0 DUP2 MLOAD SWAP1 POP PUSH2 0x2FD5 DUP2 PUSH2 0x2FAF JUMP JUMPDEST SWAP3 SWAP2 POP POP JUMP JUMPDEST PUSH1 0x0 PUSH1 0x20 DUP3 DUP5 SUB SLT ISZERO PUSH2 0x2FF1 JUMPI PUSH2 0x2FF0 PUSH2 0x238A JUMP JUMPDEST JUMPDEST PUSH1 0x0 PUSH2 0x2FFF DUP5 DUP3 DUP6 ADD PUSH2 0x2FC6 JUMP JUMPDEST SWAP2 POP POP SWAP3 SWAP2 POP POP JUMP JUMPDEST PUSH32 0x4D7573742062652070726F706F736564206F776E657200000000000000000000 PUSH1 0x0 DUP3 ADD MSTORE POP JUMP JUMPDEST PUSH1 0x0 PUSH2 0x303E PUSH1 0x16 DUP4 PUSH2 0x2882 JUMP JUMPDEST SWAP2 POP PUSH2 0x3049 DUP3 PUSH2 0x3008 JUMP JUMPDEST PUSH1 0x20 DUP3 ADD SWAP1 POP SWAP2 SWAP1 POP JUMP JUMPDEST PUSH1 0x0 PUSH1 0x20 DUP3 ADD SWAP1 POP DUP2 DUP2 SUB PUSH1 0x0 DUP4 ADD MSTORE PUSH2 0x306D DUP2 PUSH2 0x3031 JUMP JUMPDEST SWAP1 POP SWAP2 SWAP1 POP JUMP JUMPDEST PUSH32 0x416464726573732063616E6E6F74206265206E756C6C21000000000000000000 PUSH1 0x0 DUP3 ADD MSTORE POP JUMP JUMPDEST PUSH1 0x0 PUSH2 0x30AA PUSH1 0x17 DUP4 PUSH2 0x2882 JUMP JUMPDEST SWAP2 POP PUSH2 0x30B5 DUP3 PUSH2 0x3074 JUMP JUMPDEST PUSH1 0x20 DUP3 ADD SWAP1 POP SWAP2 SWAP1 POP JUMP JUMPDEST PUSH1 0x0 PUSH1 0x20 DUP3 ADD SWAP1 POP DUP2 DUP2 SUB PUSH1 0x0 DUP4 ADD MSTORE PUSH2 0x30D9 DUP2 PUSH2 0x309D JUMP JUMPDEST SWAP1 POP SWAP2 SWAP1 POP JUMP JUMPDEST PUSH32 0x4E487B7100000000000000000000000000000000000000000000000000000000 PUSH1 0x0 MSTORE PUSH1 0x41 PUSH1 0x4 MSTORE PUSH1 0x24 PUSH1 0x0 REVERT JUMPDEST PUSH32 0x4E487B7100000000000000000000000000000000000000000000000000000000 PUSH1 0x0 MSTORE PUSH1 0x32 PUSH1 0x4 MSTORE PUSH1 0x24 PUSH1 0x0 REVERT JUMPDEST PUSH1 0x0 PUSH2 0x3149 DUP3 PUSH2 0x23ED JUMP JUMPDEST SWAP2 POP PUSH1 0x0 DUP3 SUB PUSH2 0x315C JUMPI PUSH2 0x315B PUSH2 0x2C02 JUMP JUMPDEST JUMPDEST PUSH1 0x1 DUP3 SUB SWAP1 POP SWAP2 SWAP1 POP JUMP JUMPDEST PUSH32 0x537472696E67733A20686578206C656E67746820696E73756666696369656E74 PUSH1 0x0 DUP3 ADD MSTORE POP JUMP JUMPDEST PUSH1 0x0 PUSH2 0x319D PUSH1 0x20 DUP4 PUSH2 0x2882 JUMP JUMPDEST SWAP2 POP PUSH2 0x31A8 DUP3 PUSH2 0x3167 JUMP JUMPDEST PUSH1 0x20 DUP3 ADD SWAP1 POP SWAP2 SWAP1 POP JUMP JUMPDEST PUSH1 0x0 PUSH1 0x20 DUP3 ADD SWAP1 POP DUP2 DUP2 SUB PUSH1 0x0 DUP4 ADD MSTORE PUSH2 0x31CC DUP2 PUSH2 0x3190 JUMP JUMPDEST SWAP1 POP SWAP2 SWAP1 POP JUMP JUMPDEST PUSH32 0x4F6E6C792063616C6C61626C65206279206F776E657200000000000000000000 PUSH1 0x0 DUP3 ADD MSTORE POP JUMP JUMPDEST PUSH1 0x0 PUSH2 0x3209 PUSH1 0x16 DUP4 PUSH2 0x2882 JUMP JUMPDEST SWAP2 POP PUSH2 0x3214 DUP3 PUSH2 0x31D3 JUMP JUMPDEST PUSH1 0x20 DUP3 ADD SWAP1 POP SWAP2 SWAP1 POP JUMP JUMPDEST PUSH1 0x0 PUSH1 0x20 DUP3 ADD SWAP1 POP DUP2 DUP2 SUB PUSH1 0x0 DUP4 ADD MSTORE PUSH2 0x3238 DUP2 PUSH2 0x31FC JUMP JUMPDEST SWAP1 POP SWAP2 SWAP1 POP JUMP JUMPDEST PUSH32 0x43616E6E6F74207472616E7366657220746F2073656C66000000000000000000 PUSH1 0x0 DUP3 ADD MSTORE POP JUMP JUMPDEST PUSH1 0x0 PUSH2 0x3275 PUSH1 0x17 DUP4 PUSH2 0x2882 JUMP JUMPDEST SWAP2 POP PUSH2 0x3280 DUP3 PUSH2 0x323F JUMP JUMPDEST PUSH1 0x20 DUP3 ADD SWAP1 POP SWAP2 SWAP1 POP JUMP JUMPDEST PUSH1 0x0 PUSH1 0x20 DUP3 ADD SWAP1 POP DUP2 DUP2 SUB PUSH1 0x0 DUP4 ADD MSTORE PUSH2 0x32A4 DUP2 PUSH2 0x3268 JUMP JUMPDEST SWAP1 POP SWAP2 SWAP1 POP JUMP JUMPDEST PUSH1 0x0 DUP2 SWAP1 POP SWAP2 SWAP1 POP JUMP JUMPDEST PUSH1 0x0 PUSH2 0x32C0 DUP3 PUSH2 0x32AB JUMP JUMPDEST SWAP2 POP PUSH2 0x32CB DUP4 PUSH2 0x32AB JUMP JUMPDEST SWAP3 POP DUP3 DUP3 SUB SWAP1 POP DUP2 DUP2 SLT PUSH1 0x0 DUP5 SLT AND DUP3 DUP3 SGT PUSH1 0x0 DUP6 SLT ISZERO AND OR ISZERO PUSH2 0x32F2 JUMPI PUSH2 0x32F1 PUSH2 0x2C02 JUMP JUMPDEST JUMPDEST SWAP3 SWAP2 POP POP JUMP JUMPDEST PUSH1 0x0 PUSH32 0xFFFFFFFF00000000000000000000000000000000000000000000000000000000 DUP3 AND SWAP1 POP SWAP2 SWAP1 POP JUMP JUMPDEST PUSH2 0x332D DUP2 PUSH2 0x32F8 JUMP JUMPDEST DUP3 MSTORE POP POP JUMP JUMPDEST PUSH1 0x0 DUP2 MLOAD SWAP1 POP SWAP2 SWAP1 POP JUMP JUMPDEST PUSH1 0x0 DUP3 DUP3 MSTORE PUSH1 0x20 DUP3 ADD SWAP1 POP SWAP3 SWAP2 POP POP JUMP JUMPDEST PUSH1 0x0 PUSH1 0x1F NOT PUSH1 0x1F DUP4 ADD AND SWAP1 POP SWAP2 SWAP1 POP JUMP JUMPDEST PUSH1 0x0 PUSH2 0x336B DUP3 PUSH2 0x3333 JUMP JUMPDEST PUSH2 0x3375 DUP2 DUP6 PUSH2 0x333E JUMP JUMPDEST SWAP4 POP PUSH2 0x3385 DUP2 DUP6 PUSH1 0x20 DUP7 ADD PUSH2 0x2794 JUMP JUMPDEST PUSH2 0x338E DUP2 PUSH2 0x334F JUMP JUMPDEST DUP5 ADD SWAP2 POP POP SWAP3 SWAP2 POP POP JUMP JUMPDEST PUSH1 0x0 PUSH2 0x100 DUP3 ADD SWAP1 POP PUSH2 0x33AF PUSH1 0x0 DUP4 ADD DUP12 PUSH2 0x25E3 JUMP JUMPDEST PUSH2 0x33BC PUSH1 0x20 DUP4 ADD DUP11 PUSH2 0x2497 JUMP JUMPDEST PUSH2 0x33C9 PUSH1 0x40 DUP4 ADD DUP10 PUSH2 0x246D JUMP JUMPDEST PUSH2 0x33D6 PUSH1 0x60 DUP4 ADD DUP9 PUSH2 0x25E3 JUMP JUMPDEST PUSH2 0x33E3 PUSH1 0x80 DUP4 ADD DUP8 PUSH2 0x3324 JUMP JUMPDEST PUSH2 0x33F0 PUSH1 0xA0 DUP4 ADD DUP7 PUSH2 0x2497 JUMP JUMPDEST PUSH2 0x33FD PUSH1 0xC0 DUP4 ADD DUP6 PUSH2 0x2497 JUMP JUMPDEST DUP2 DUP2 SUB PUSH1 0xE0 DUP4 ADD MSTORE PUSH2 0x340F DUP2 DUP5 PUSH2 0x3360 JUMP JUMPDEST SWAP1 POP SWAP10 SWAP9 POP POP POP POP POP POP POP POP POP JUMP JUMPDEST PUSH1 0x0 PUSH2 0x3429 DUP3 PUSH2 0x23ED JUMP JUMPDEST SWAP2 POP PUSH2 0x3434 DUP4 PUSH2 0x23ED JUMP JUMPDEST SWAP3 POP DUP3 PUSH2 0x3444 JUMPI PUSH2 0x3443 PUSH2 0x2C73 JUMP JUMPDEST JUMPDEST DUP3 DUP3 MOD SWAP1 POP SWAP3 SWAP2 POP POP JUMP JUMPDEST PUSH1 0x0 DUP2 SWAP1 POP SWAP2 SWAP1 POP JUMP JUMPDEST PUSH1 0x0 PUSH2 0x3474 PUSH2 0x346F PUSH2 0x346A DUP5 PUSH2 0x238F JUMP JUMPDEST PUSH2 0x344F JUMP JUMPDEST PUSH2 0x238F JUMP JUMPDEST SWAP1 POP SWAP2 SWAP1 POP JUMP JUMPDEST PUSH1 0x0 PUSH2 0x3486 DUP3 PUSH2 0x3459 JUMP JUMPDEST SWAP1 POP SWAP2 SWAP1 POP JUMP JUMPDEST PUSH1 0x0 PUSH2 0x3498 DUP3 PUSH2 0x347B JUMP JUMPDEST SWAP1 POP SWAP2 SWAP1 POP JUMP JUMPDEST PUSH1 0x0 DUP2 PUSH1 0x60 SHL SWAP1 POP SWAP2 SWAP1 POP JUMP JUMPDEST PUSH1 0x0 PUSH2 0x34B7 DUP3 PUSH2 0x349F JUMP JUMPDEST SWAP1 POP SWAP2 SWAP1 POP JUMP JUMPDEST PUSH1 0x0 PUSH2 0x34C9 DUP3 PUSH2 0x34AC JUMP JUMPDEST SWAP1 POP SWAP2 SWAP1 POP JUMP JUMPDEST PUSH2 0x34E1 PUSH2 0x34DC DUP3 PUSH2 0x348D JUMP JUMPDEST PUSH2 0x34BE JUMP JUMPDEST DUP3 MSTORE POP POP JUMP JUMPDEST PUSH1 0x0 DUP2 SWAP1 POP SWAP2 SWAP1 POP JUMP JUMPDEST PUSH2 0x3502 PUSH2 0x34FD DUP3 PUSH2 0x23ED JUMP JUMPDEST PUSH2 0x34E7 JUMP JUMPDEST DUP3 MSTORE POP POP JUMP JUMPDEST PUSH1 0x0 PUSH2 0x3514 DUP3 DUP6 PUSH2 0x34D0 JUMP JUMPDEST PUSH1 0x14 DUP3 ADD SWAP2 POP PUSH2 0x3524 DUP3 DUP5 PUSH2 0x34F1 JUMP JUMPDEST PUSH1 0x20 DUP3 ADD SWAP2 POP DUP2 SWAP1 POP SWAP4 SWAP3 POP POP POP JUMP JUMPDEST PUSH1 0x0 PUSH1 0x60 DUP3 ADD SWAP1 POP PUSH2 0x3549 PUSH1 0x0 DUP4 ADD DUP7 PUSH2 0x25E3 JUMP JUMPDEST PUSH2 0x3556 PUSH1 0x20 DUP4 ADD DUP6 PUSH2 0x2497 JUMP JUMPDEST DUP2 DUP2 SUB PUSH1 0x40 DUP4 ADD MSTORE PUSH2 0x3568 DUP2 DUP5 PUSH2 0x3360 JUMP JUMPDEST SWAP1 POP SWAP5 SWAP4 POP POP POP POP JUMP JUMPDEST PUSH32 0x756E61626C6520746F207472616E73666572416E6443616C6C20746F206F7261 PUSH1 0x0 DUP3 ADD MSTORE PUSH32 0x636C650000000000000000000000000000000000000000000000000000000000 PUSH1 0x20 DUP3 ADD MSTORE POP JUMP JUMPDEST PUSH1 0x0 PUSH2 0x35CE PUSH1 0x23 DUP4 PUSH2 0x2882 JUMP JUMPDEST SWAP2 POP PUSH2 0x35D9 DUP3 PUSH2 0x3572 JUMP JUMPDEST PUSH1 0x40 DUP3 ADD SWAP1 POP SWAP2 SWAP1 POP JUMP JUMPDEST PUSH1 0x0 PUSH1 0x20 DUP3 ADD SWAP1 POP DUP2 DUP2 SUB PUSH1 0x0 DUP4 ADD MSTORE PUSH2 0x35FD DUP2 PUSH2 0x35C1 JUMP JUMPDEST SWAP1 POP SWAP2 SWAP1 POP JUMP JUMPDEST PUSH1 0x0 DUP2 PUSH1 0x1 SHR SWAP1 POP SWAP2 SWAP1 POP JUMP JUMPDEST PUSH1 0x0 DUP1 DUP3 SWAP2 POP DUP4 SWAP1 POP JUMPDEST PUSH1 0x1 DUP6 GT ISZERO PUSH2 0x365B JUMPI DUP1 DUP7 DIV DUP2 GT ISZERO PUSH2 0x3637 JUMPI PUSH2 0x3636 PUSH2 0x2C02 JUMP JUMPDEST JUMPDEST PUSH1 0x1 DUP6 AND ISZERO PUSH2 0x3646 JUMPI DUP1 DUP3 MUL SWAP2 POP JUMPDEST DUP1 DUP2 MUL SWAP1 POP PUSH2 0x3654 DUP6 PUSH2 0x3604 JUMP JUMPDEST SWAP5 POP PUSH2 0x361B JUMP JUMPDEST SWAP5 POP SWAP5 SWAP3 POP POP POP JUMP JUMPDEST PUSH1 0x0 DUP3 PUSH2 0x3674 JUMPI PUSH1 0x1 SWAP1 POP PUSH2 0x3730 JUMP JUMPDEST DUP2 PUSH2 0x3682 JUMPI PUSH1 0x0 SWAP1 POP PUSH2 0x3730 JUMP JUMPDEST DUP2 PUSH1 0x1 DUP2 EQ PUSH2 0x3698 JUMPI PUSH1 0x2 DUP2 EQ PUSH2 0x36A2 JUMPI PUSH2 0x36D1 JUMP JUMPDEST PUSH1 0x1 SWAP2 POP POP PUSH2 0x3730 JUMP JUMPDEST PUSH1 0xFF DUP5 GT ISZERO PUSH2 0x36B4 JUMPI PUSH2 0x36B3 PUSH2 0x2C02 JUMP JUMPDEST JUMPDEST DUP4 PUSH1 0x2 EXP SWAP2 POP DUP5 DUP3 GT ISZERO PUSH2 0x36CB JUMPI PUSH2 0x36CA PUSH2 0x2C02 JUMP JUMPDEST JUMPDEST POP PUSH2 0x3730 JUMP JUMPDEST POP PUSH1 0x20 DUP4 LT PUSH2 0x133 DUP4 LT AND PUSH1 0x4E DUP5 LT PUSH1 0xB DUP5 LT AND OR ISZERO PUSH2 0x3706 JUMPI DUP3 DUP3 EXP SWAP1 POP DUP4 DUP2 GT ISZERO PUSH2 0x3701 JUMPI PUSH2 0x3700 PUSH2 0x2C02 JUMP JUMPDEST JUMPDEST PUSH2 0x3730 JUMP JUMPDEST PUSH2 0x3713 DUP5 DUP5 DUP5 PUSH1 0x1 PUSH2 0x3611 JUMP JUMPDEST SWAP3 POP SWAP1 POP DUP2 DUP5 DIV DUP2 GT ISZERO PUSH2 0x372A JUMPI PUSH2 0x3729 PUSH2 0x2C02 JUMP JUMPDEST JUMPDEST DUP2 DUP2 MUL SWAP1 POP JUMPDEST SWAP4 SWAP3 POP POP POP JUMP JUMPDEST PUSH1 0x0 PUSH2 0x3742 DUP3 PUSH2 0x23ED JUMP JUMPDEST SWAP2 POP PUSH2 0x374D DUP4 PUSH2 0x23ED JUMP JUMPDEST SWAP3 POP PUSH2 0x377A PUSH32 0xFFFFFFFFFFFFFFFFFFFFFFFFFFFFFFFFFFFFFFFFFFFFFFFFFFFFFFFFFFFFFFFF DUP5 DUP5 PUSH2 0x3664 JUMP JUMPDEST SWAP1 POP SWAP3 SWAP2 POP POP JUMP INVALID LOG2 PUSH5 0x6970667358 0x22 SLT KECCAK256 0x2D EXTCODECOPY 0x28 0xE1 DELEGATECALL 0x21 PUSH18 0x8750135AB354D0BE1DEAB22275E78EC0345B PUSH16 0x7C05E80060A864736F6C634300081100 CALLER PUSH9 0x747470733A2F2F6D6F PUSH4 0x6B692E69 PUSH16 0x2F76312F31613437343765612D623563 BALANCE 0x2D CALLVALUE PUSH2 0x3131 0x2D CODESIZE PUSH4 0x62332D63 CODESIZE CALLVALUE BALANCE ADDRESS CALLDATASIZE ORIGIN PUSH2 0x3535 CODESIZE CALLDATALOAD "},"methodIdentifiers":{"acceptOwnership()":"79ba5097","chainLinkBalance()":"cd85f622","changeOwner(address)":"a6f9dae1","claimChainLinkTokens()":"63638ad2","claimServiceFee()":"33b3be77","fulfill(bytes32,uint256)":"4357855e","getServiceFee()":"11a1933c","owner()":"8da5cb5b","prices()":"d3419bf3","requestTokenPrice(address,uint256)":"0bd4fe0f","setServiceFee(uint256)":"5cdf76f8","swapOut(address,address,uint256)":"48c314f4","transferOwnership(address)":"f2fde38b"}}}}}